{
  "_format": "hh-sol-artifact-1",
  "contractName": "MerkleTree",
  "sourceName": "contracts/merkle-tree/MerkleTree.sol",
  "abi": [
    {
      "anonymous": false,
      "inputs": [
        {
          "indexed": false,
          "internalType": "uint256",
          "name": "leafIndex",
          "type": "uint256"
        },
        {
          "indexed": false,
          "internalType": "uint256",
          "name": "leafValue",
          "type": "uint256"
        },
        {
          "indexed": false,
          "internalType": "uint256",
          "name": "root",
          "type": "uint256"
        }
      ],
      "name": "NewLeaf",
      "type": "event"
    },
    {
      "anonymous": false,
      "inputs": [
        {
          "indexed": false,
          "internalType": "uint256",
          "name": "minLeafIndex",
          "type": "uint256"
        },
        {
          "indexed": false,
          "internalType": "uint256[]",
          "name": "leafValues",
          "type": "uint256[]"
        },
        {
          "indexed": false,
          "internalType": "uint256",
          "name": "root",
          "type": "uint256"
        }
      ],
      "name": "NewLeaves",
      "type": "event"
    },
    {
      "inputs": [
        {
          "internalType": "uint256",
          "name": "in_x",
          "type": "uint256"
        },
        {
          "internalType": "uint256",
          "name": "in_k",
          "type": "uint256"
        }
      ],
      "name": "Encipher",
      "outputs": [
        {
          "internalType": "uint256",
          "name": "out_x",
          "type": "uint256"
        }
      ],
      "stateMutability": "pure",
      "type": "function"
    },
    {
      "inputs": [
        {
          "internalType": "uint256[]",
          "name": "in_msgs",
          "type": "uint256[]"
        },
        {
          "internalType": "uint256",
          "name": "in_key",
          "type": "uint256"
        }
      ],
      "name": "Hash",
      "outputs": [
        {
          "internalType": "uint256",
          "name": "",
          "type": "uint256"
        }
      ],
      "stateMutability": "pure",
      "type": "function"
    },
    {
      "inputs": [],
      "name": "Initial_NullifierRoot",
      "outputs": [
        {
          "internalType": "uint256",
          "name": "",
          "type": "uint256"
        }
      ],
      "stateMutability": "view",
      "type": "function"
    },
    {
      "inputs": [
        {
          "internalType": "uint256",
          "name": "",
          "type": "uint256"
        }
      ],
      "name": "frontier",
      "outputs": [
        {
          "internalType": "uint256",
          "name": "",
          "type": "uint256"
        }
      ],
      "stateMutability": "view",
      "type": "function"
    },
    {
      "inputs": [
        {
          "internalType": "uint256",
          "name": "leafIndex",
          "type": "uint256"
        }
      ],
      "name": "getFrontierSlot",
      "outputs": [
        {
          "internalType": "uint256",
          "name": "slot",
          "type": "uint256"
        }
      ],
      "stateMutability": "pure",
      "type": "function"
    },
    {
      "inputs": [
        {
          "internalType": "uint256",
          "name": "leafValue",
          "type": "uint256"
        }
      ],
      "name": "insertLeaf",
      "outputs": [
        {
          "internalType": "uint256",
          "name": "root",
          "type": "uint256"
        }
      ],
      "stateMutability": "nonpayable",
      "type": "function"
    },
    {
      "inputs": [
        {
          "internalType": "uint256[]",
          "name": "leafValues",
          "type": "uint256[]"
        }
      ],
      "name": "insertLeaves",
      "outputs": [
        {
          "internalType": "uint256",
          "name": "root",
          "type": "uint256"
        }
      ],
      "stateMutability": "nonpayable",
      "type": "function"
    },
    {
      "inputs": [],
      "name": "leafCount",
      "outputs": [
        {
          "internalType": "uint256",
          "name": "",
          "type": "uint256"
        }
      ],
      "stateMutability": "view",
      "type": "function"
    },
    {
      "inputs": [
        {
          "internalType": "uint256[]",
          "name": "in_msgs",
          "type": "uint256[]"
        }
      ],
      "name": "mimcHash",
      "outputs": [
        {
          "internalType": "uint256",
          "name": "",
          "type": "uint256"
        }
      ],
      "stateMutability": "pure",
      "type": "function"
    },
    {
      "inputs": [],
      "name": "treeHeight",
      "outputs": [
        {
          "internalType": "uint256",
          "name": "",
          "type": "uint256"
        }
      ],
      "stateMutability": "view",
      "type": "function"
    },
    {
      "inputs": [],
      "name": "treeWidth",
      "outputs": [
        {
          "internalType": "uint256",
          "name": "",
          "type": "uint256"
        }
      ],
      "stateMutability": "view",
      "type": "function"
    },
    {
      "inputs": [],
      "name": "zero",
      "outputs": [
        {
          "internalType": "uint256",
          "name": "",
          "type": "uint256"
        }
      ],
      "stateMutability": "view",
      "type": "function"
    }
  ],
  "bytecode": "0x608060405260008055602060018190556200001c90600262000148565b6002553480156200002c57600080fd5b506200015d565b634e487b7160e01b600052601160045260246000fd5b600181815b808511156200008a5781600019048211156200006e576200006e62000033565b808516156200007c57918102915b93841c93908002906200004e565b509250929050565b600082620000a35750600162000142565b81620000b25750600062000142565b8160018114620000cb5760028114620000d657620000f6565b600191505062000142565b60ff841115620000ea57620000ea62000033565b50506001821b62000142565b5060208310610133831016604e8410600b84101617156200011b575081810a62000142565b62000127838362000049565b80600019048211156200013e576200013e62000033565b0290505b92915050565b600062000156838362000092565b9392505050565b610ec1806200016d6000396000f3fe608060405234801561001057600080fd5b50600436106100b45760003560e01c80636e0c3fee116100715780636e0c3fee1461013d57806376c601b11461015057806396d8d82014610159578063b72024341461016c578063bc1b392d1461017f578063cae8510d1461018857600080fd5b806301e3e915146100b957806305bb4c40146100d45780630fa16e38146100fb578063176764b51461010e5780632a3a81831461012157806330e69fc314610134575b600080fd5b6100c260015481565b60405190815260200160405180910390f35b6100c27f2f68a1c58e257e42a17a6c61dff5551ed560b9922ab119d5ac8e184c9734ead981565b6100c2610109366004610c93565b61019b565b6100c261011c366004610cd8565b6101e5565b6100c261012f366004610d0d565b61071e565b6100c260035481565b6100c261014b366004610d0d565b610793565b6100c260025481565b6100c2610167366004610d26565b6107aa565b6100c261017a366004610d0d565b6107ea565b6100c260005481565b6100c2610196366004610cd8565b610a97565b604051636d696d6360e01b602082018190526000916101db90859085906024016040516020818303038152906040528051906020012060001c605b610aa4565b9150505b92915050565b60008082519050600354600254116102185760405162461bcd60e51b815260040161020f90610d48565b60405180910390fd5b6003546002546102289190610da1565b8111156102875760006003546002546102419190610da1565b61024b9083610da1565b905060005b818110156102725784516000190185528061026a81610db4565b915050610250565b506003546002546102839190610da1565b9150505b6040805160028082526060820183526000928392839283928392919060208301908036833750506040805160018082528183019092529293506000929150602080830190803683375050600354919250505b876003546102e79190610dcd565b8110156105195789600354826102fd9190610da1565b8151811061030d5761030d610de0565b602002602001015193506001600254826103279190610dcd565b6103319190610da1565b955061033c8161071e565b96508660000361036157836004886021811061035a5761035a610de0565b0155610507565b60015b8781116104ef57610376600288610e0c565b60000361044357600461038a600183610da1565b6021811061039a5761039a610de0565b0154846000815181106103af576103af610de0565b60200260200101818152505084846001815181106103cf576103cf610de0565b6020026020010181815250506103e484610a97565b836000815181106103f7576103f7610de0565b6020026020010181815250508260008151811061041657610416610de0565b6020026020010151945086955060026001886104329190610da1565b61043c9190610e20565b96506104dd565b848460008151811061045757610457610de0565b6020026020010181815250506000548460018151811061047957610479610de0565b60200260200101818152505061048e84610a97565b836000815181106104a1576104a1610de0565b602002602001018181525050826000815181106104c0576104c0610de0565b602002602001015194508695506002876104da9190610e20565b96505b806104e781610db4565b915050610364565b50836004886021811061050457610504610de0565b01555b8061051181610db4565b9150506102d9565b506000610527876001610dcd565b90505b60015481116106b75761053e600287610e0c565b60000361060b576004610552600183610da1565b6021811061056257610562610de0565b01548360008151811061057757610577610de0565b602002602001018181525050838360018151811061059757610597610de0565b6020026020010181815250506105ac83610a97565b826000815181106105bf576105bf610de0565b602002602001018181525050816000815181106105de576105de610de0565b6020026020010151935085945060026001876105fa9190610da1565b6106049190610e20565b95506106a5565b838360008151811061061f5761061f610de0565b6020026020010181815250506000548360018151811061064157610641610de0565b60200260200101818152505061065683610a97565b8260008151811061066957610669610de0565b6020026020010181815250508160008151811061068857610688610de0565b602002602001015193508594506002866106a29190610e20565b95505b806106af81610db4565b91505061052a565b5060035460405193985088937f39623a9bbcaf7943af164a1aee0fd809f7101d4d8c7727239dace363779587db916106f2918c908790610e34565b60405180910390a1866003600082825461070c9190610dcd565b90915550979998505050505050505050565b600061072b600283610e0c565b60010361078e576001600260045b8360000361078a57808261074e876001610dcd565b6107589190610da1565b6107629190610e0c565b60000361077157829350610739565b9050600181901b8261078281610db4565b935050610739565b5050505b919050565b600481602181106107a357600080fd5b0154905081565b604051636d696d6360e01b602082018190526000916101db90859085906024016040516020818303038152906040528051906020012060001c605b610b5c565b60006003546002541161080f5760405162461bcd60e51b815260040161020f90610d48565b600061081c60035461071e565b9050600060016002546003546108329190610dcd565b61083c9190610da1565b604080516002808252606082018352929350600092879284929190602083019080368337505060408051600180825281830190925292935060009291506020808301908036833701905050905060005b600154811015610a2e578681036108b45783600488602181106108b1576108b1610de0565b01555b6108bf600287610e0c565b60000361098257600481602181106108d9576108d9610de0565b0154836000815181106108ee576108ee610de0565b602002602001018181525050838360018151811061090e5761090e610de0565b60200260200101818152505061092383610a97565b8260008151811061093657610936610de0565b6020026020010181815250508160008151811061095557610955610de0565b6020026020010151935085945060026001876109719190610da1565b61097b9190610e20565b9550610a1c565b838360008151811061099657610996610de0565b602002602001018181525050600054836001815181106109b8576109b8610de0565b6020026020010181815250506109cd83610a97565b826000815181106109e0576109e0610de0565b602002602001018181525050816000815181106109ff576109ff610de0565b60200260200101519350859450600286610a199190610e20565b95505b80610a2681610db4565b91505061088c565b5060035460408051918252602082018a9052810184905292965086927f522933b35bbca3f00d1a1ae17c09663f9286c4d868dc335a0ca99a970bc087849060600160405180910390a160038054906000610a8783610db4565b9190505550505050505050919050565b60006101df82600061019b565b6000837f30644e72e131a029b85045b68181585d2833e84879b9709143e1f593f0000001825b8751811015610b505781610af9898381518110610ae957610ae9610de0565b6020026020010151858989610b5c565b838a8481518110610b0c57610b0c610de0565b6020026020010151610b1e9190610e0c565b610b289086610dcd565b610b329190610dcd565b610b3c9190610e0c565b925080610b4881610db4565b915050610aca565b50909695505050505050565b60006001821015610b6c57600080fd5b604051602081016040528381527f30644e72e131a029b85045b68181585d2833e84879b9709143e1f593f0000001600080855b8015610bd05760208520855283898587518d0808925083838409915083838586858609850909995060001901610b9f565b50505080868808979650505050505050565b634e487b7160e01b600052604160045260246000fd5b600082601f830112610c0957600080fd5b8135602067ffffffffffffffff80831115610c2657610c26610be2565b8260051b604051601f19603f83011681018181108482111715610c4b57610c4b610be2565b604052938452858101830193838101925087851115610c6957600080fd5b83870191505b84821015610c8857813583529183019190830190610c6f565b979650505050505050565b60008060408385031215610ca657600080fd5b823567ffffffffffffffff811115610cbd57600080fd5b610cc985828601610bf8565b95602094909401359450505050565b600060208284031215610cea57600080fd5b813567ffffffffffffffff811115610d0157600080fd5b6101db84828501610bf8565b600060208284031215610d1f57600080fd5b5035919050565b60008060408385031215610d3957600080fd5b50508035926020909101359150565b60208082526023908201527f5468657265206973206e6f207370616365206c65667420696e2074686520747260408201526232b29760e91b606082015260800190565b634e487b7160e01b600052601160045260246000fd5b818103818111156101df576101df610d8b565b600060018201610dc657610dc6610d8b565b5060010190565b808201808211156101df576101df610d8b565b634e487b7160e01b600052603260045260246000fd5b634e487b7160e01b600052601260045260246000fd5b600082610e1b57610e1b610df6565b500690565b600082610e2f57610e2f610df6565b500490565b6000606082018583526020606081850152818651808452608086019150828801935060005b81811015610e7557845183529383019391830191600101610e59565b505080935050505082604083015294935050505056fea2646970667358221220cdca32c58382480a6af4b2af5443af6211ca44a022cde554f78902c7d898b04864736f6c63430008130033",
  "linkReferences": {},
  "deployedLinkReferences": {}
}