{
  "_format": "hh-sol-artifact-1",
  "contractName": "MiMC",
  "sourceName": "contracts/merkle-tree/MiMC.sol",
  "abi": [
    {
      "inputs": [
        {
          "internalType": "uint256",
          "name": "in_x",
          "type": "uint256"
        },
        {
          "internalType": "uint256",
          "name": "in_k",
          "type": "uint256"
        }
      ],
      "name": "Encipher",
      "outputs": [
        {
          "internalType": "uint256",
          "name": "out_x",
          "type": "uint256"
        }
      ],
      "stateMutability": "pure",
      "type": "function"
    },
    {
      "inputs": [
        {
          "internalType": "uint256[]",
          "name": "in_msgs",
          "type": "uint256[]"
        },
        {
          "internalType": "uint256",
          "name": "in_key",
          "type": "uint256"
        }
      ],
      "name": "Hash",
      "outputs": [
        {
          "internalType": "uint256",
          "name": "",
          "type": "uint256"
        }
      ],
      "stateMutability": "pure",
      "type": "function"
    },
    {
      "inputs": [
        {
          "internalType": "uint256[]",
          "name": "in_msgs",
          "type": "uint256[]"
        }
      ],
      "name": "mimcHash",
      "outputs": [
        {
          "internalType": "uint256",
          "name": "",
          "type": "uint256"
        }
      ],
      "stateMutability": "pure",
      "type": "function"
    }
  ],
  "bytecode": "0x608060405234801561001057600080fd5b50610463806100206000396000f3fe608060405234801561001057600080fd5b50600436106100415760003560e01c80630fa16e381461004657806396d8d8201461006b578063cae8510d1461007e575b600080fd5b610059610054366004610317565b610091565b60405190815260200160405180910390f35b61005961007936600461035c565b6100db565b61005961008c36600461037e565b61011b565b604051636d696d6360e01b602082018190526000916100d190859085906024016040516020818303038152906040528051906020012060001c605b610128565b9150505b92915050565b604051636d696d6360e01b602082018190526000916100d190859085906024016040516020818303038152906040528051906020012060001c605b6101e0565b60006100d5826000610091565b6000837f30644e72e131a029b85045b68181585d2833e84879b9709143e1f593f0000001825b87518110156101d4578161017d89838151811061016d5761016d6103b3565b60200260200101518589896101e0565b838a8481518110610190576101906103b3565b60200260200101516101a291906103c9565b6101ac9086610401565b6101b69190610401565b6101c091906103c9565b9250806101cc81610414565b91505061014e565b50909695505050505050565b600060018210156101f057600080fd5b604051602081016040528381527f30644e72e131a029b85045b68181585d2833e84879b9709143e1f593f0000001600080855b80156102545760208520855283898587518d0808925083838409915083838586858609850909995060001901610223565b50505080868808979650505050505050565b634e487b7160e01b600052604160045260246000fd5b600082601f83011261028d57600080fd5b8135602067ffffffffffffffff808311156102aa576102aa610266565b8260051b604051601f19603f830116810181811084821117156102cf576102cf610266565b6040529384528581018301938381019250878511156102ed57600080fd5b83870191505b8482101561030c578135835291830191908301906102f3565b979650505050505050565b6000806040838503121561032a57600080fd5b823567ffffffffffffffff81111561034157600080fd5b61034d8582860161027c565b95602094909401359450505050565b6000806040838503121561036f57600080fd5b50508035926020909101359150565b60006020828403121561039057600080fd5b813567ffffffffffffffff8111156103a757600080fd5b6100d18482850161027c565b634e487b7160e01b600052603260045260246000fd5b6000826103e657634e487b7160e01b600052601260045260246000fd5b500690565b634e487b7160e01b600052601160045260246000fd5b808201808211156100d5576100d56103eb565b600060018201610426576104266103eb565b506001019056fea26469706673582212206a99260e734f13af7f77ff9aa9fbc35f6766f30e999e4e2f2c813eed5671737f64736f6c63430008130033",
  "linkReferences": {},
  "deployedLinkReferences": {}
}