{
  "_format": "hh-sol-artifact-1",
  "contractName": "EscrowShield",
  "sourceName": "contracts/EscrowShield.sol",
  "abi": [
    {
      "inputs": [
        {
          "internalType": "address",
          "name": "erc20Address",
          "type": "address"
        },
        {
          "internalType": "address",
          "name": "verifierAddress",
          "type": "address"
        },
        {
          "internalType": "uint256[][]",
          "name": "vk",
          "type": "uint256[][]"
        }
      ],
      "stateMutability": "nonpayable",
      "type": "constructor"
    },
    {
      "anonymous": false,
      "inputs": [
        {
          "indexed": false,
          "internalType": "uint256",
          "name": "leafIndex",
          "type": "uint256"
        },
        {
          "indexed": false,
          "internalType": "uint256",
          "name": "leafValue",
          "type": "uint256"
        },
        {
          "indexed": false,
          "internalType": "uint256",
          "name": "root",
          "type": "uint256"
        }
      ],
      "name": "NewLeaf",
      "type": "event"
    },
    {
      "anonymous": false,
      "inputs": [
        {
          "indexed": false,
          "internalType": "uint256",
          "name": "minLeafIndex",
          "type": "uint256"
        },
        {
          "indexed": false,
          "internalType": "uint256[]",
          "name": "leafValues",
          "type": "uint256[]"
        },
        {
          "indexed": false,
          "internalType": "uint256",
          "name": "root",
          "type": "uint256"
        }
      ],
      "name": "NewLeaves",
      "type": "event"
    },
    {
      "inputs": [
        {
          "internalType": "uint256",
          "name": "in_x",
          "type": "uint256"
        },
        {
          "internalType": "uint256",
          "name": "in_k",
          "type": "uint256"
        }
      ],
      "name": "Encipher",
      "outputs": [
        {
          "internalType": "uint256",
          "name": "out_x",
          "type": "uint256"
        }
      ],
      "stateMutability": "pure",
      "type": "function"
    },
    {
      "inputs": [
        {
          "internalType": "uint256[]",
          "name": "in_msgs",
          "type": "uint256[]"
        },
        {
          "internalType": "uint256",
          "name": "in_key",
          "type": "uint256"
        }
      ],
      "name": "Hash",
      "outputs": [
        {
          "internalType": "uint256",
          "name": "",
          "type": "uint256"
        }
      ],
      "stateMutability": "pure",
      "type": "function"
    },
    {
      "inputs": [],
      "name": "Initial_NullifierRoot",
      "outputs": [
        {
          "internalType": "uint256",
          "name": "",
          "type": "uint256"
        }
      ],
      "stateMutability": "view",
      "type": "function"
    },
    {
      "inputs": [
        {
          "internalType": "uint256",
          "name": "",
          "type": "uint256"
        }
      ],
      "name": "commitmentRoots",
      "outputs": [
        {
          "internalType": "uint256",
          "name": "",
          "type": "uint256"
        }
      ],
      "stateMutability": "view",
      "type": "function"
    },
    {
      "inputs": [
        {
          "internalType": "uint256",
          "name": "amount",
          "type": "uint256"
        },
        {
          "internalType": "uint256[]",
          "name": "newCommitments",
          "type": "uint256[]"
        },
        {
          "internalType": "uint256[]",
          "name": "proof",
          "type": "uint256[]"
        }
      ],
      "name": "deposit",
      "outputs": [],
      "stateMutability": "nonpayable",
      "type": "function"
    },
    {
      "inputs": [],
      "name": "erc20",
      "outputs": [
        {
          "internalType": "contract IERC20",
          "name": "",
          "type": "address"
        }
      ],
      "stateMutability": "view",
      "type": "function"
    },
    {
      "inputs": [
        {
          "internalType": "uint256",
          "name": "",
          "type": "uint256"
        }
      ],
      "name": "frontier",
      "outputs": [
        {
          "internalType": "uint256",
          "name": "",
          "type": "uint256"
        }
      ],
      "stateMutability": "view",
      "type": "function"
    },
    {
      "inputs": [
        {
          "internalType": "uint256",
          "name": "leafIndex",
          "type": "uint256"
        }
      ],
      "name": "getFrontierSlot",
      "outputs": [
        {
          "internalType": "uint256",
          "name": "slot",
          "type": "uint256"
        }
      ],
      "stateMutability": "pure",
      "type": "function"
    },
    {
      "inputs": [
        {
          "internalType": "uint256",
          "name": "leafValue",
          "type": "uint256"
        }
      ],
      "name": "insertLeaf",
      "outputs": [
        {
          "internalType": "uint256",
          "name": "root",
          "type": "uint256"
        }
      ],
      "stateMutability": "nonpayable",
      "type": "function"
    },
    {
      "inputs": [
        {
          "internalType": "uint256[]",
          "name": "leafValues",
          "type": "uint256[]"
        }
      ],
      "name": "insertLeaves",
      "outputs": [
        {
          "internalType": "uint256",
          "name": "root",
          "type": "uint256"
        }
      ],
      "stateMutability": "nonpayable",
      "type": "function"
    },
    {
      "inputs": [
        {
          "internalType": "uint256",
          "name": "nullifierRoot",
          "type": "uint256"
        },
        {
          "internalType": "uint256",
          "name": "latestNullifierRoot",
          "type": "uint256"
        },
        {
          "internalType": "uint256[]",
          "name": "newNullifiers",
          "type": "uint256[]"
        },
        {
          "internalType": "uint256",
          "name": "commitmentRoot",
          "type": "uint256"
        },
        {
          "internalType": "uint256[]",
          "name": "newCommitments",
          "type": "uint256[]"
        },
        {
          "internalType": "uint256[]",
          "name": "proof",
          "type": "uint256[]"
        }
      ],
      "name": "joinCommitments",
      "outputs": [],
      "stateMutability": "nonpayable",
      "type": "function"
    },
    {
      "inputs": [],
      "name": "latestRoot",
      "outputs": [
        {
          "internalType": "uint256",
          "name": "",
          "type": "uint256"
        }
      ],
      "stateMutability": "view",
      "type": "function"
    },
    {
      "inputs": [],
      "name": "leafCount",
      "outputs": [
        {
          "internalType": "uint256",
          "name": "",
          "type": "uint256"
        }
      ],
      "stateMutability": "view",
      "type": "function"
    },
    {
      "inputs": [
        {
          "internalType": "uint256[]",
          "name": "in_msgs",
          "type": "uint256[]"
        }
      ],
      "name": "mimcHash",
      "outputs": [
        {
          "internalType": "uint256",
          "name": "",
          "type": "uint256"
        }
      ],
      "stateMutability": "pure",
      "type": "function"
    },
    {
      "inputs": [],
      "name": "newNullifierRoot",
      "outputs": [
        {
          "internalType": "uint256",
          "name": "",
          "type": "uint256"
        }
      ],
      "stateMutability": "view",
      "type": "function"
    },
    {
      "inputs": [
        {
          "internalType": "uint256",
          "name": "pk",
          "type": "uint256"
        }
      ],
      "name": "registerZKPPublicKey",
      "outputs": [],
      "stateMutability": "nonpayable",
      "type": "function"
    },
    {
      "inputs": [
        {
          "internalType": "uint256",
          "name": "nullifierRoot",
          "type": "uint256"
        },
        {
          "internalType": "uint256",
          "name": "latestNullifierRoot",
          "type": "uint256"
        },
        {
          "internalType": "uint256[]",
          "name": "newNullifiers",
          "type": "uint256[]"
        },
        {
          "internalType": "uint256",
          "name": "commitmentRoot",
          "type": "uint256"
        },
        {
          "internalType": "uint256[]",
          "name": "newCommitments",
          "type": "uint256[]"
        },
        {
          "internalType": "uint256[]",
          "name": "proof",
          "type": "uint256[]"
        }
      ],
      "name": "splitCommitments",
      "outputs": [],
      "stateMutability": "nonpayable",
      "type": "function"
    },
    {
      "inputs": [
        {
          "internalType": "uint256",
          "name": "nullifierRoot",
          "type": "uint256"
        },
        {
          "internalType": "uint256",
          "name": "latestNullifierRoot",
          "type": "uint256"
        },
        {
          "internalType": "uint256[]",
          "name": "newNullifiers",
          "type": "uint256[]"
        },
        {
          "internalType": "uint256",
          "name": "commitmentRoot",
          "type": "uint256"
        },
        {
          "internalType": "uint256[]",
          "name": "newCommitments",
          "type": "uint256[]"
        },
        {
          "internalType": "uint256[]",
          "name": "proof",
          "type": "uint256[]"
        }
      ],
      "name": "transfer",
      "outputs": [],
      "stateMutability": "nonpayable",
      "type": "function"
    },
    {
      "inputs": [],
      "name": "treeHeight",
      "outputs": [
        {
          "internalType": "uint256",
          "name": "",
          "type": "uint256"
        }
      ],
      "stateMutability": "view",
      "type": "function"
    },
    {
      "inputs": [],
      "name": "treeWidth",
      "outputs": [
        {
          "internalType": "uint256",
          "name": "",
          "type": "uint256"
        }
      ],
      "stateMutability": "view",
      "type": "function"
    },
    {
      "inputs": [
        {
          "internalType": "uint256",
          "name": "",
          "type": "uint256"
        },
        {
          "internalType": "uint256",
          "name": "",
          "type": "uint256"
        }
      ],
      "name": "vks",
      "outputs": [
        {
          "internalType": "uint256",
          "name": "",
          "type": "uint256"
        }
      ],
      "stateMutability": "view",
      "type": "function"
    },
    {
      "inputs": [
        {
          "internalType": "uint256",
          "name": "amount",
          "type": "uint256"
        },
        {
          "internalType": "uint256",
          "name": "nullifierRoot",
          "type": "uint256"
        },
        {
          "internalType": "uint256",
          "name": "latestNullifierRoot",
          "type": "uint256"
        },
        {
          "internalType": "uint256[]",
          "name": "newNullifiers",
          "type": "uint256[]"
        },
        {
          "internalType": "uint256",
          "name": "commitmentRoot",
          "type": "uint256"
        },
        {
          "internalType": "uint256[]",
          "name": "newCommitments",
          "type": "uint256[]"
        },
        {
          "internalType": "uint256[]",
          "name": "proof",
          "type": "uint256[]"
        }
      ],
      "name": "withdraw",
      "outputs": [],
      "stateMutability": "nonpayable",
      "type": "function"
    },
    {
      "inputs": [],
      "name": "zero",
      "outputs": [
        {
          "internalType": "uint256",
          "name": "",
          "type": "uint256"
        }
      ],
      "stateMutability": "view",
      "type": "function"
    },
    {
      "inputs": [
        {
          "internalType": "address",
          "name": "",
          "type": "address"
        }
      ],
      "name": "zkpPublicKeys",
      "outputs": [
        {
          "internalType": "uint256",
          "name": "",
          "type": "uint256"
        }
      ],
      "stateMutability": "view",
      "type": "function"
    }
  ],
  "bytecode": "0x608060405260008055602060018190556200001c9060026200029b565b6002553480156200002c57600080fd5b50604051620029b7380380620029b78339810160408190526200004f916200033c565b602580546001600160a01b0319166001600160a01b03841617905560005b8151811015620000d2578181815181106200008c576200008c62000482565b6020026020010151602660008381526020019081526020016000209080519060200190620000bc9291906200011f565b5080620000c98162000498565b9150506200006d565b50507f2f68a1c58e257e42a17a6c61dff5551ed560b9922ab119d5ac8e184c9734ead960275550602b80546001600160a01b0319166001600160a01b0392909216919091179055620004b4565b8280548282559060005260206000209081019282156200015d579160200282015b828111156200015d57825182559160200191906001019062000140565b506200016b9291506200016f565b5090565b5b808211156200016b576000815560010162000170565b634e487b7160e01b600052601160045260246000fd5b600181815b80851115620001dd578160001904821115620001c157620001c162000186565b80851615620001cf57918102915b93841c9390800290620001a1565b509250929050565b600082620001f65750600162000295565b81620002055750600062000295565b81600181146200021e5760028114620002295762000249565b600191505062000295565b60ff8411156200023d576200023d62000186565b50506001821b62000295565b5060208310610133831016604e8410600b84101617156200026e575081810a62000295565b6200027a83836200019c565b806000190482111562000291576200029162000186565b0290505b92915050565b6000620002a98383620001e5565b9392505050565b80516001600160a01b0381168114620002c857600080fd5b919050565b634e487b7160e01b600052604160045260246000fd5b604051601f8201601f191681016001600160401b03811182821017156200030e576200030e620002cd565b604052919050565b60006001600160401b03821115620003325762000332620002cd565b5060051b60200190565b6000806000606084860312156200035257600080fd5b6200035d84620002b0565b925060206200036e818601620002b0565b60408601519093506001600160401b03808211156200038c57600080fd5b818701915087601f830112620003a157600080fd5b8151620003b8620003b28262000316565b620002e3565b81815260059190911b8301840190848101908a831115620003d857600080fd5b8585015b838110156200047157805185811115620003f65760008081fd5b8601603f81018d13620004095760008081fd5b878101516200041c620003b28262000316565b81815260059190911b820160400190898101908f8311156200043e5760008081fd5b6040840193505b82841015620004605783518252928a0192908a019062000445565b8652505050918601918601620003dc565b508096505050505050509250925092565b634e487b7160e01b600052603260045260246000fd5b600060018201620004ad57620004ad62000186565b5060010190565b6124f380620004c46000396000f3fe608060405234801561001057600080fd5b50600436106101585760003560e01c806396d8d820116100c3578063b74b47811161007c578063b74b4781146102e6578063b74c3148146102f9578063bc1b392d14610319578063cae8510d14610322578063d0ca582114610335578063d7b0fef11461034857600080fd5b806396d8d8201461025a57806397f3e0111461026d5780639e886d751461028d578063a8f4324e146102a0578063b6a1b7f6146102b3578063b7202434146102d357600080fd5b806330e69fc31161011557806330e69fc3146101ee57806343f44023146101f75780636e0c3fee1461020a57806376c601b11461021d578063785e9e86146102265780639636b3fd1461025157600080fd5b806301e3e9151461015d578063036c79551461017957806305bb4c401461018e5780630fa16e38146101b5578063176764b5146101c85780632a3a8183146101db575b600080fd5b61016660015481565b6040519081526020015b60405180910390f35b61018c610187366004611f10565b610351565b005b6101667f2f68a1c58e257e42a17a6c61dff5551ed560b9922ab119d5ac8e184c9734ead981565b6101666101c336600461203b565b6104cf565b6101666101d6366004612080565b610519565b6101666101e93660046120b5565b610a52565b61016660035481565b61018c6102053660046120ce565b610ac7565b6101666102183660046120b5565b610bdb565b61016660025481565b602b54610239906001600160a01b031681565b6040516001600160a01b039091168152602001610170565b61016660275481565b610166610268366004612187565b610bf2565b61018c61027b3660046120b5565b336000908152602a6020526040902055565b61018c61029b3660046120ce565b610c32565b6101666102ae366004612187565b610d3a565b6101666102c13660046120b5565b60286020526000908152604090205481565b6101666102e13660046120b5565b610d6b565b61018c6102f43660046121a9565b611018565b61016661030736600461226c565b602a6020526000908152604090205481565b61016660005481565b610166610330366004612080565b61120f565b61018c6103433660046120ce565b61121c565b61016660295481565b602b546040516323b872dd60e01b8152336004820152306024820152604481018790526000916001600160a01b0316906323b872dd906064016020604051808303816000875af11580156103a9573d6000803e3d6000fd5b505050506040513d601f19601f820116820180604052508101906103cd919061229c565b90506001811515146103de57600080fd5b6103e6611e8e565b604080516002808252606082018352909160208301908036833750505060a08201819052805188919060009061041e5761041e6122be565b60200260200101818152505060018160a00151600181518110610443576104436122be565b602002602001018181525050858580806020026020016040519081016040528093929190818152602001838360200280828437600092019190915250505050608082015260408051602080860282810182019093528582526104c692879187918291850190849080828437600092018290525092506104c0915050565b83611324565b50505050505050565b604051636d696d6360e01b6020820181905260009161050f90859085906024016040516020818303038152906040528051906020012060001c605b611d50565b9150505b92915050565b600080825190506003546002541161054c5760405162461bcd60e51b8152600401610543906122d4565b60405180910390fd5b60035460025461055c919061232d565b8111156105bb576000600354600254610575919061232d565b61057f908361232d565b905060005b818110156105a65784516000190185528061059e81612340565b915050610584565b506003546002546105b7919061232d565b9150505b6040805160028082526060820183526000928392839283928392919060208301908036833750506040805160018082528183019092529293506000929150602080830190803683375050600354919250505b8760035461061b9190612359565b81101561084d578960035482610631919061232d565b81518110610641576106416122be565b6020026020010151935060016002548261065b9190612359565b610665919061232d565b955061067081610a52565b96508660000361069557836004886021811061068e5761068e6122be565b015561083b565b60015b878111610823576106aa600288612382565b6000036107775760046106be60018361232d565b602181106106ce576106ce6122be565b0154846000815181106106e3576106e36122be565b6020026020010181815250508484600181518110610703576107036122be565b6020026020010181815250506107188461120f565b8360008151811061072b5761072b6122be565b6020026020010181815250508260008151811061074a5761074a6122be565b602002602001015194508695506002600188610766919061232d565b6107709190612396565b9650610811565b848460008151811061078b5761078b6122be565b602002602001018181525050600054846001815181106107ad576107ad6122be565b6020026020010181815250506107c28461120f565b836000815181106107d5576107d56122be565b602002602001018181525050826000815181106107f4576107f46122be565b6020026020010151945086955060028761080e9190612396565b96505b8061081b81612340565b915050610698565b508360048860218110610838576108386122be565b01555b8061084581612340565b91505061060d565b50600061085b876001612359565b90505b60015481116109eb57610872600287612382565b60000361093f57600461088660018361232d565b60218110610896576108966122be565b0154836000815181106108ab576108ab6122be565b60200260200101818152505083836001815181106108cb576108cb6122be565b6020026020010181815250506108e08361120f565b826000815181106108f3576108f36122be565b60200260200101818152505081600081518110610912576109126122be565b60200260200101519350859450600260018761092e919061232d565b6109389190612396565b95506109d9565b8383600081518110610953576109536122be565b60200260200101818152505060005483600181518110610975576109756122be565b60200260200101818152505061098a8361120f565b8260008151811061099d5761099d6122be565b602002602001018181525050816000815181106109bc576109bc6122be565b602002602001015193508594506002866109d69190612396565b95505b806109e381612340565b91505061085e565b5060035460405193985088937f39623a9bbcaf7943af164a1aee0fd809f7101d4d8c7727239dace363779587db91610a26918c9087906123e5565b60405180910390a18660036000828254610a409190612359565b90915550979998505050505050505050565b6000610a5f600283612382565b600103610ac2576001600260045b83600003610abe578082610a82876001612359565b610a8c919061232d565b610a969190612382565b600003610aa557829350610a6d565b9050600181901b82610ab681612340565b935050610a6d565b5050505b919050565b610acf611e8e565b604080516001808252818301909252906020808301908036833750505060a08201819052805160019190600090610b0857610b086122be565b6020908102919091018101919091528a82528181018a9052604080518983028181018401909252898152918a918a9182919085019084908082843760009201919091525050505060408083019190915260608201879052805160208087028281018201909352868252909187918791829185019084908082843760009201919091525050505060808201526040805160208085028281018201909352848252610bcf92869186918291850190849080828437600092019190915250600192506104c0915050565b50505050505050505050565b60048160218110610beb57600080fd5b0154905081565b604051636d696d6360e01b6020820181905260009161050f90859085906024016040516020818303038152906040528051906020012060001c605b611e08565b610c3a611e8e565b604080516001808252818301909252906020808301908036833750505060a08201819052805160019190600090610c7357610c736122be565b6020908102919091018101919091528a82528181018a9052604080518983028181018401909252898152918a918a9182919085019084908082843760009201919091525050505060408083019190915260608201879052805160208087028281018201909352868252909187918791829185019084908082843760009201919091525050505060808201526040805160208085028281018201909352848252610bcf92869186918291850190849080828437600092019190915250600492506104c0915050565b60266020528160005260406000208181548110610d5657600080fd5b90600052602060002001600091509150505481565b600060035460025411610d905760405162461bcd60e51b8152600401610543906122d4565b6000610d9d600354610a52565b905060006001600254600354610db39190612359565b610dbd919061232d565b604080516002808252606082018352929350600092879284929190602083019080368337505060408051600180825281830190925292935060009291506020808301908036833701905050905060005b600154811015610faf57868103610e35578360048860218110610e3257610e326122be565b01555b610e40600287612382565b600003610f035760048160218110610e5a57610e5a6122be565b015483600081518110610e6f57610e6f6122be565b6020026020010181815250508383600181518110610e8f57610e8f6122be565b602002602001018181525050610ea48361120f565b82600081518110610eb757610eb76122be565b60200260200101818152505081600081518110610ed657610ed66122be565b602002602001015193508594506002600187610ef2919061232d565b610efc9190612396565b9550610f9d565b8383600081518110610f1757610f176122be565b60200260200101818152505060005483600181518110610f3957610f396122be565b602002602001018181525050610f4e8361120f565b82600081518110610f6157610f616122be565b60200260200101818152505081600081518110610f8057610f806122be565b60200260200101519350859450600286610f9a9190612396565b95505b80610fa781612340565b915050610e0d565b5060035460408051918252602082018a9052810184905292965086927f522933b35bbca3f00d1a1ae17c09663f9286c4d868dc335a0ca99a970bc087849060600160405180910390a16003805490600061100883612340565b9190505550505050505050919050565b602b5460405163a9059cbb60e01b8152336004820152602481018c90526000916001600160a01b03169063a9059cbb906044016020604051808303816000875af115801561106a573d6000803e3d6000fd5b505050506040513d601f19601f8201168201806040525081019061108e919061229c565b9050806110d55760405162461bcd60e51b8152602060048201526015602482015274115490cc8c081d1c985b9cd9995c8819985a5b1959605a1b6044820152606401610543565b6110dd611e8e565b604080516002808252606082018352909160208301908036833750505060a0820181905280518d9190600090611115576111156122be565b60200260200101818152505060018160a0015160018151811061113a5761113a6122be565b6020908102919091018101919091528b82528181018b9052604080518a830281810184019092528a8152918b918b918291908501908490808284376000920191909152505050506040808301919091526060820188905280516020808802828101820190935287825290918891889182918501908490808284376000920191909152505050506080820152604080516020808602828101820190935285825261120192879187918291850190849080828437600092019190915250600292506104c0915050565b505050505050505050505050565b60006105138260006104cf565b611224611e8e565b604080516001808252818301909252906020808301908036833750505060a0820181905280516001919060009061125d5761125d6122be565b6020908102919091018101919091528a82528181018a9052604080518983028181018401909252898152918a918a9182919085019084908082843760009201919091525050505060408083019190915260608201879052805160208087028281018201909352868252909187918791829185019084908082843760009201919091525050505060808201526040805160208085028281018201909352848252610bcf92869186918291850190849080828437600092019190915250600392506104c0915050565b60a08101516040808301516080840151606085015160008181526028602052939093205491929091146113a55760405162461bcd60e51b8152602060048201526024808201527f496e70757420636f6d6d69746d656e74526f6f7420646f6573206e6f7420657860448201526334b9ba1760e11b6064820152608401610543565b6000815160008451116113b95760006113bc565b60035b60ff16845186516113cd9190612359565b6113d79190612359565b6113e19190612359565b67ffffffffffffffff8111156113f9576113f9611f8a565b604051908082528060200260200182016040528015611422578160200160208202803683370190505b509050856114e25760008460008151811061143f5761143f6122be565b602002602001015182828061145390612340565b935081518110611465576114656122be565b60200260200101818152505082600081518110611484576114846122be565b602002602001015182828061149890612340565b9350815181106114aa576114aa6122be565b6020908102919091010152600182826114c281612340565b9350815181106114d4576114d46122be565b602002602001018181525050505b600186036116d65784516027546000911461150f5760405162461bcd60e51b81526004016105439061240e565b8551828261151c81612340565b93508151811061152e5761152e6122be565b602002602001018181525050856020015182828061154b90612340565b93508151811061155d5761155d6122be565b6020026020010181815250508360008151811061157c5761157c6122be565b602002602001015182828061159090612340565b9350815181106115a2576115a26122be565b602002602001018181525050836001815181106115c1576115c16122be565b60200260200101518282806115d590612340565b9350815181106115e7576115e76122be565b60209081029190910101526060860151828261160281612340565b935081518110611614576116146122be565b60200260200101818152505082600081518110611633576116336122be565b602002602001015182828061164790612340565b935081518110611659576116596122be565b60200260200101818152505082600181518110611678576116786122be565b602002602001015182828061168c90612340565b93508151811061169e5761169e6122be565b6020908102919091010152600182826116b681612340565b9350815181106116c8576116c86122be565b602002602001018181525050505b600286036118c9578451602754600091146117035760405162461bcd60e51b81526004016105439061240e565b84600081518110611716576117166122be565b602002602001015182828061172a90612340565b93508151811061173c5761173c6122be565b60209081029190910101528551828261175481612340565b935081518110611766576117666122be565b602002602001018181525050856020015182828061178390612340565b935081518110611795576117956122be565b602002602001018181525050836000815181106117b4576117b46122be565b60200260200101518282806117c890612340565b9350815181106117da576117da6122be565b602002602001018181525050836001815181106117f9576117f96122be565b602002602001015182828061180d90612340565b93508151811061181f5761181f6122be565b60209081029190910101526060860151828261183a81612340565b93508151811061184c5761184c6122be565b6020026020010181815250508260008151811061186b5761186b6122be565b602002602001015182828061187f90612340565b935081518110611891576118916122be565b6020908102919091010152600182826118a981612340565b9350815181106118bb576118bb6122be565b602002602001018181525050505b60038603611a78578451602754146118f35760405162461bcd60e51b81526004016105439061240e565b8451600090828261190381612340565b935081518110611915576119156122be565b602002602001018181525050856020015182828061193290612340565b935081518110611944576119446122be565b60200260200101818152505083600081518110611963576119636122be565b602002602001015182828061197790612340565b935081518110611989576119896122be565b602002602001018181525050836001815181106119a8576119a86122be565b60200260200101518282806119bc90612340565b9350815181106119ce576119ce6122be565b6020908102919091010152606086015182826119e981612340565b9350815181106119fb576119fb6122be565b60200260200101818152505082600081518110611a1a57611a1a6122be565b6020026020010151828280611a2e90612340565b935081518110611a4057611a406122be565b602090810291909101015260018282611a5881612340565b935081518110611a6a57611a6a6122be565b602002602001018181525050505b60048603611c2757845160275414611aa25760405162461bcd60e51b81526004016105439061240e565b84516000908282611ab281612340565b935081518110611ac457611ac46122be565b6020026020010181815250508560200151828280611ae190612340565b935081518110611af357611af36122be565b60200260200101818152505083600081518110611b1257611b126122be565b6020026020010151828280611b2690612340565b935081518110611b3857611b386122be565b602090810291909101015260608601518282611b5381612340565b935081518110611b6557611b656122be565b60200260200101818152505082600081518110611b8457611b846122be565b6020026020010151828280611b9890612340565b935081518110611baa57611baa6122be565b60200260200101818152505082600181518110611bc957611bc96122be565b6020026020010151828280611bdd90612340565b935081518110611bef57611bef6122be565b602090810291909101015260018282611c0781612340565b935081518110611c1957611c196122be565b602002602001018181525050505b60255460008781526026602052604080822090516387d9d02360e01b815291926001600160a01b0316916387d9d02391611c67918c918791600401612451565b6020604051808303816000875af1158015611c86573d6000803e3d6000fd5b505050506040513d601f19601f82011682018060405250810190611caa919061229c565b905080611d115760405162461bcd60e51b815260206004820152602f60248201527f5468652070726f6f6620686173206e6f74206265656e2076657269666965642060448201526e189e481d1a194818dbdb9d1c9858dd608a1b6064820152608401610543565b825115611d3657611d2183610519565b60298190556000818152602860205260409020555b835115611d465760208601516027555b5050505050505050565b6000837f30644e72e131a029b85045b68181585d2833e84879b9709143e1f593f0000001825b8751811015611dfc5781611da5898381518110611d9557611d956122be565b6020026020010151858989611e08565b838a8481518110611db857611db86122be565b6020026020010151611dca9190612382565b611dd49086612359565b611dde9190612359565b611de89190612382565b925080611df481612340565b915050611d76565b50909695505050505050565b60006001821015611e1857600080fd5b604051602081016040528381527f30644e72e131a029b85045b68181585d2833e84879b9709143e1f593f0000001600080855b8015611e7c5760208520855283898587518d0808925083838409915083838586858609850909995060001901611e4b565b50505080868808979650505050505050565b6040518060c001604052806000815260200160008152602001606081526020016000815260200160608152602001606081525090565b60008083601f840112611ed657600080fd5b50813567ffffffffffffffff811115611eee57600080fd5b6020830191508360208260051b8501011115611f0957600080fd5b9250929050565b600080600080600060608688031215611f2857600080fd5b85359450602086013567ffffffffffffffff80821115611f4757600080fd5b611f5389838a01611ec4565b90965094506040880135915080821115611f6c57600080fd5b50611f7988828901611ec4565b969995985093965092949392505050565b634e487b7160e01b600052604160045260246000fd5b600082601f830112611fb157600080fd5b8135602067ffffffffffffffff80831115611fce57611fce611f8a565b8260051b604051601f19603f83011681018181108482111715611ff357611ff3611f8a565b60405293845285810183019383810192508785111561201157600080fd5b83870191505b8482101561203057813583529183019190830190612017565b979650505050505050565b6000806040838503121561204e57600080fd5b823567ffffffffffffffff81111561206557600080fd5b61207185828601611fa0565b95602094909401359450505050565b60006020828403121561209257600080fd5b813567ffffffffffffffff8111156120a957600080fd5b61050f84828501611fa0565b6000602082840312156120c757600080fd5b5035919050565b600080600080600080600080600060c08a8c0312156120ec57600080fd5b8935985060208a0135975060408a013567ffffffffffffffff8082111561211257600080fd5b61211e8d838e01611ec4565b909950975060608c0135965060808c013591508082111561213e57600080fd5b61214a8d838e01611ec4565b909650945060a08c013591508082111561216357600080fd5b506121708c828d01611ec4565b915080935050809150509295985092959850929598565b6000806040838503121561219a57600080fd5b50508035926020909101359150565b60008060008060008060008060008060e08b8d0312156121c857600080fd5b8a35995060208b0135985060408b0135975060608b013567ffffffffffffffff808211156121f557600080fd5b6122018e838f01611ec4565b909950975060808d0135965060a08d013591508082111561222157600080fd5b61222d8e838f01611ec4565b909650945060c08d013591508082111561224657600080fd5b506122538d828e01611ec4565b915080935050809150509295989b9194979a5092959850565b60006020828403121561227e57600080fd5b81356001600160a01b038116811461229557600080fd5b9392505050565b6000602082840312156122ae57600080fd5b8151801515811461229557600080fd5b634e487b7160e01b600052603260045260246000fd5b60208082526023908201527f5468657265206973206e6f207370616365206c65667420696e2074686520747260408201526232b29760e91b606082015260800190565b634e487b7160e01b600052601160045260246000fd5b8181038181111561051357610513612317565b60006001820161235257612352612317565b5060010190565b8082018082111561051357610513612317565b634e487b7160e01b600052601260045260246000fd5b6000826123915761239161236c565b500690565b6000826123a5576123a561236c565b500490565b600081518084526020808501945080840160005b838110156123da578151875295820195908201906001016123be565b509495945050505050565b8381526060602082015260006123fe60608301856123aa565b9050826040830152949350505050565b60208082526023908201527f496e707574204e756c6c6966696572526f6f7420646f6573206e6f742065786960408201526239ba1760e91b606082015260800190565b60608152600061246460608301866123aa565b60208382038185015261247782876123aa565b8481036040860152855480825260008781528381209450918301915b818110156124af57845483526001948501949284019201612493565b50909897505050505050505056fea26469706673582212204f33bd02a583eaf51da7611565765f46b80ae44f1e35025ba426f907c715dbdc64736f6c63430008130033",
  "linkReferences": {},
  "deployedLinkReferences": {}
}