{"contracts/verify/Verifier.sol":{"Verifier":{"abi":[{"anonymous":false,"inputs":[{"indexed":false,"internalType":"address","name":"previousOwner","type":"address"},{"indexed":false,"internalType":"address","name":"newOwner","type":"address"}],"name":"OwnershipTransferred","type":"event"},{"inputs":[],"name":"_owner","outputs":[{"internalType":"address","name":"","type":"address"}],"stateMutability":"view","type":"function"},{"inputs":[],"name":"owner","outputs":[{"internalType":"address","name":"","type":"address"}],"stateMutability":"view","type":"function"},{"inputs":[{"internalType":"address","name":"newOwner","type":"address"}],"name":"transferOwnership","outputs":[],"stateMutability":"nonpayable","type":"function"},{"inputs":[{"internalType":"uint256[]","name":"_inputs","type":"uint256[]"}],"name":"validateInputs","outputs":[],"stateMutability":"view","type":"function"},{"inputs":[{"internalType":"uint256[]","name":"_proof","type":"uint256[]"},{"internalType":"uint256[]","name":"_publicInputs","type":"uint256[]"},{"internalType":"uint256[]","name":"_vk","type":"uint256[]"}],"name":"verificationCalculation","outputs":[{"internalType":"uint256","name":"","type":"uint256"}],"stateMutability":"nonpayable","type":"function"},{"inputs":[{"internalType":"uint256[]","name":"_proof","type":"uint256[]"},{"internalType":"uint256[]","name":"_inputs","type":"uint256[]"},{"internalType":"uint256[]","name":"_vk","type":"uint256[]"}],"name":"verify","outputs":[{"internalType":"bool","name":"result","type":"bool"}],"stateMutability":"nonpayable","type":"function"}],"evm":{"bytecode":{"linkReferences":{},"object":"60806040527f30644e72e131a029b85045b68181585d2833e84879b9709143e1f593f000000160015534801561003457600080fd5b50600080546001600160a01b03191633179055611574806100566000396000f3fe608060405234801561001057600080fd5b50600436106100625760003560e01c806387d9d023146100675780638da5cb5b1461008f578063976ee2a5146100b4578063b2bdfa7b146100d5578063f2fde38b146100e8578063f7a60ef0146100fd575b600080fd5b61007a610075366004611245565b610110565b60405190151581526020015b60405180910390f35b6000546001600160a01b03165b6040516001600160a01b039091168152602001610086565b6100c76100c2366004611390565b610209565b604051908152602001610086565b60005461009c906001600160a01b031681565b6100fb6100f6366004611418565b6108bc565b005b6100fb61010b366004611441565b6109b3565b600061014e8585808060200260200160405190810160405280939291908181526020018383602002808284376000920191909152506109b392505050565b6101ec87878080602002602001604051908101604052809392919081815260200183836020028082843760009201919091525050604080516020808b0282810182019093528a82529093508a92508991829185019084908082843760009201919091525050604080516020808a0282810182019093528982529093508992508891829185019084908082843760009201919091525061020992505050565b6000036101fb575060016101ff565b5060005b9695505050505050565b60006102136110bf565b604080518082019091526000808252602082015261022f611110565b604051806040016040528060008152602001600081525091506040518060400160405280886000815181106102665761026661147e565b60200260200101518152602001886001815181106102865761028661147e565b60200260200101518152508360000181905250604051806040016040528060405180604001604052808a6002815181106102c2576102c261147e565b602002602001015181526020018a6003815181106102e2576102e261147e565b6020026020010151815250815260200160405180604001604052808a6004815181106103105761031061147e565b602002602001015181526020018a6005815181106103305761033061147e565b602002602001015181525081525083602001819052506040518060400160405280886006815181106103645761036461147e565b60200260200101518152602001886007815181106103845761038461147e565b602002602001015181525083604001819052506040518060400160405280866000815181106103b5576103b561147e565b60200260200101518152602001866001815181106103d5576103d561147e565b6020026020010151815250816000018190525060405180604001604052806040518060400160405280886002815181106104115761041161147e565b60200260200101518152602001886003815181106104315761043161147e565b6020026020010151815250815260200160405180604001604052808860048151811061045f5761045f61147e565b602002602001015181526020018860058151811061047f5761047f61147e565b6020026020010151815250815250816020018190525060405180604001604052806040518060400160405280886006815181106104be576104be61147e565b60200260200101518152602001886007815181106104de576104de61147e565b6020026020010151815250815260200160405180604001604052808860088151811061050c5761050c61147e565b602002602001015181526020018860098151811061052c5761052c61147e565b602002602001015181525081525081604001819052506040518060400160405280604051806040016040528088600a8151811061056b5761056b61147e565b6020026020010151815260200188600b8151811061058b5761058b61147e565b60200260200101518152508152602001604051806040016040528088600c815181106105b9576105b961147e565b6020026020010151815260200188600d815181106105d9576105d961147e565b60200260200101518152508152508160600181905250600e85511115610722576002600e865161060991906114aa565b61061391906114d3565b67ffffffffffffffff81111561062b5761062b6112df565b60405190808252806020026020018201604052801561067057816020015b60408051808201909152600080825260208201528152602001906001900390816106495790505b506080820152600e5b855181101561072057604051806040016040528087838151811061069f5761069f61147e565b60200260200101518152602001878360016106ba91906114e7565b815181106106ca576106ca61147e565b602002602001015181525082608001516002600e846106e991906114aa565b6106f391906114d3565b815181106107035761070361147e565b60209081029190910101526107196002826114e7565b9050610679565b505b855161072f9060016114e7565b8160800151511461079c5760405162461bcd60e51b815260206004820152602c60248201527f4c656e677468206f6620696e707574735b5d206f7220766b2e7175657279206960448201526b7320696e636f72726563742160a01b60648201526084015b60405180910390fd5b604080518082019091526000808252602082015260005b8751811015610827576080830151610807906107d08360016114e7565b815181106107e0576107e061147e565b60200260200101518983815181106107fa576107fa61147e565b6020026020010151610a3f565b91506108138483610ae1565b93508061081f816114fa565b9150506107b3565b506108508383608001516000815181106108435761084361147e565b6020026020010151610ae1565b925060006108968560000151866020015161086a87610b7b565b866040015161087c8a60400151610b7b565b6060890151895161088c90610b7b565b8a60200151610c1a565b9050806108ab576005955050505050506108b5565b5060009450505050505b9392505050565b6000546001600160a01b0316331461092d5760405162461bcd60e51b815260206004820152602e60248201527f596f7520617265206e6f7420617574686f726973656420746f20696e766f6b6560448201526d103a3434b990333ab731ba34b7b760911b6064820152608401610793565b6001600160a01b03811661094057600080fd5b7f8be0079c531659141344cd1fd0a4f28419497f9722a3daafe3b4186f6b6457e06109736000546001600160a01b031690565b604080516001600160a01b03928316815291841660208301520160405180910390a1600080546001600160a01b0319166001600160a01b03831617905550565b60005b8151811015610a3b576001548282815181106109d4576109d461147e565b602002602001015110610a295760405162461bcd60e51b815260206004820152601b60248201527f496e70757473206d757374206265206c657373207468616e20722e00000000006044820152606401610793565b80610a33816114fa565b9150506109b6565b5050565b6040805180820190915260008082526020820152610a5b611161565b83518152602080850151908201526040810183905260006060836080848460076107d05a03f190508080610a8b57fe5b5080610ad95760405162461bcd60e51b815260206004820152601f60248201527f4543207363616c6172206d756c7469706c69636174696f6e206661696c6564006044820152606401610793565b505092915050565b6040805180820190915260008082526020820152610afd61117f565b8351815260208085015181830152835160408301528301516060808301919091526000908360c0848460066107d05a03f190508080610b3857fe5b5080610ad95760405162461bcd60e51b81526020600482015260126024820152711150c81859191a5d1a5bdb8819985a5b195960721b6044820152606401610793565b604080518082019091526000808252602082015281517f30644e72e131a029b85045b68181585d97816a916871ca8d3c208c16d87cfd4790158015610bc257506020830151155b15610be25750506040805180820190915260008082526020820152919050565b604051806040016040528084600001518152602001828560200151610c079190611513565b610c1190846114aa565b90529392505050565b60408051600480825260a08201909252600091829190816020015b6040805180820190915260008082526020820152815260200190600190039081610c3557505060408051600480825260a0820190925291925060009190602082015b610c7f61119d565b815260200190600190039081610c775790505090508a82600081518110610ca857610ca861147e565b60200260200101819052508882600181518110610cc757610cc761147e565b60200260200101819052508682600281518110610ce657610ce661147e565b60200260200101819052508482600381518110610d0557610d0561147e565b60200260200101819052508981600081518110610d2457610d2461147e565b60200260200101819052508781600181518110610d4357610d4361147e565b60200260200101819052508581600281518110610d6257610d6261147e565b60200260200101819052508381600381518110610d8157610d8161147e565b6020026020010181905250610d968282610da5565b9b9a5050505050505050505050565b815160009081610db6826006611527565b905060008167ffffffffffffffff811115610dd357610dd36112df565b604051908082528060200260200182016040528015610dfc578160200160208202803683370190505b50905060005b8381101561103757868181518110610e1c57610e1c61147e565b60200260200101516000015182826006610e369190611527565b610e419060006114e7565b81518110610e5157610e5161147e565b602002602001018181525050868181518110610e6f57610e6f61147e565b60200260200101516020015182826006610e899190611527565b610e949060016114e7565b81518110610ea457610ea461147e565b602002602001018181525050858181518110610ec257610ec261147e565b60209081029190910181015151015182610edd836006611527565b610ee89060026114e7565b81518110610ef857610ef861147e565b602002602001018181525050858181518110610f1657610f1661147e565b6020908102919091010151515182610f2f836006611527565b610f3a9060036114e7565b81518110610f4a57610f4a61147e565b602002602001018181525050858181518110610f6857610f6861147e565b602002602001015160200151600160028110610f8657610f8661147e565b602002015182610f97836006611527565b610fa29060046114e7565b81518110610fb257610fb261147e565b602002602001018181525050858181518110610fd057610fd061147e565b602002602001015160200151600060028110610fee57610fee61147e565b602002015182610fff836006611527565b61100a9060056114e7565b8151811061101a5761101a61147e565b60209081029190910101528061102f816114fa565b915050610e02565b506110406111bd565b60006020826020860260208601600060086107d05a03f19050808061106157fe5b50806110af5760405162461bcd60e51b815260206004820152601d60248201527f45432050616972696e672063616c63756c6174696f6e206661696c65640000006044820152606401610793565b5051151593505050505b92915050565b6040805160a0810190915260006060820181815260808301919091528152602081016110e961119d565b815260200161110b604051806040016040528060008152602001600081525090565b905290565b6040805160e08101909152600060a0820181815260c083019190915281526020810161113a61119d565b815260200161114761119d565b815260200161115461119d565b8152602001606081525090565b60405180606001604052806003906020820280368337509192915050565b60405180608001604052806004906020820280368337509192915050565b60405180604001604052806111b06111db565b815260200161110b6111db565b60405180602001604052806001906020820280368337509192915050565b60405180604001604052806002906020820280368337509192915050565b60008083601f84011261120b57600080fd5b50813567ffffffffffffffff81111561122357600080fd5b6020830191508360208260051b850101111561123e57600080fd5b9250929050565b6000806000806000806060878903121561125e57600080fd5b863567ffffffffffffffff8082111561127657600080fd5b6112828a838b016111f9565b9098509650602089013591508082111561129b57600080fd5b6112a78a838b016111f9565b909650945060408901359150808211156112c057600080fd5b506112cd89828a016111f9565b979a9699509497509295939492505050565b634e487b7160e01b600052604160045260246000fd5b600082601f83011261130657600080fd5b8135602067ffffffffffffffff80831115611323576113236112df565b8260051b604051601f19603f83011681018181108482111715611348576113486112df565b60405293845285810183019383810192508785111561136657600080fd5b83870191505b848210156113855781358352918301919083019061136c565b979650505050505050565b6000806000606084860312156113a557600080fd5b833567ffffffffffffffff808211156113bd57600080fd5b6113c9878388016112f5565b945060208601359150808211156113df57600080fd5b6113eb878388016112f5565b9350604086013591508082111561140157600080fd5b5061140e868287016112f5565b9150509250925092565b60006020828403121561142a57600080fd5b81356001600160a01b03811681146108b557600080fd5b60006020828403121561145357600080fd5b813567ffffffffffffffff81111561146a57600080fd5b611476848285016112f5565b949350505050565b634e487b7160e01b600052603260045260246000fd5b634e487b7160e01b600052601160045260246000fd5b818103818111156110b9576110b9611494565b634e487b7160e01b600052601260045260246000fd5b6000826114e2576114e26114bd565b500490565b808201808211156110b9576110b9611494565b60006001820161150c5761150c611494565b5060010190565b600082611522576115226114bd565b500690565b80820281158282048414176110b9576110b961149456fea2646970667358221220c8ba18ed4eb9ed5705658421535083306147bd5697bef2f71f9a445cf5428a8e64736f6c63430008130033","opcodes":"PUSH1 0x80 PUSH1 0x40 MSTORE PUSH32 0x30644E72E131A029B85045B68181585D2833E84879B9709143E1F593F0000001 PUSH1 0x1 SSTORE CALLVALUE DUP1 ISZERO PUSH2 0x34 JUMPI PUSH1 0x0 DUP1 REVERT JUMPDEST POP PUSH1 0x0 DUP1 SLOAD PUSH1 0x1 PUSH1 0x1 PUSH1 0xA0 SHL SUB NOT AND CALLER OR SWAP1 SSTORE PUSH2 0x1574 DUP1 PUSH2 0x56 PUSH1 0x0 CODECOPY PUSH1 0x0 RETURN INVALID PUSH1 0x80 PUSH1 0x40 MSTORE CALLVALUE DUP1 ISZERO PUSH2 0x10 JUMPI PUSH1 0x0 DUP1 REVERT JUMPDEST POP PUSH1 0x4 CALLDATASIZE LT PUSH2 0x62 JUMPI PUSH1 0x0 CALLDATALOAD PUSH1 0xE0 SHR DUP1 PUSH4 0x87D9D023 EQ PUSH2 0x67 JUMPI DUP1 PUSH4 0x8DA5CB5B EQ PUSH2 0x8F JUMPI DUP1 PUSH4 0x976EE2A5 EQ PUSH2 0xB4 JUMPI DUP1 PUSH4 0xB2BDFA7B EQ PUSH2 0xD5 JUMPI DUP1 PUSH4 0xF2FDE38B EQ PUSH2 0xE8 JUMPI DUP1 PUSH4 0xF7A60EF0 EQ PUSH2 0xFD JUMPI JUMPDEST PUSH1 0x0 DUP1 REVERT JUMPDEST PUSH2 0x7A PUSH2 0x75 CALLDATASIZE PUSH1 0x4 PUSH2 0x1245 JUMP JUMPDEST PUSH2 0x110 JUMP JUMPDEST PUSH1 0x40 MLOAD SWAP1 ISZERO ISZERO DUP2 MSTORE PUSH1 0x20 ADD JUMPDEST PUSH1 0x40 MLOAD DUP1 SWAP2 SUB SWAP1 RETURN JUMPDEST PUSH1 0x0 SLOAD PUSH1 0x1 PUSH1 0x1 PUSH1 0xA0 SHL SUB AND JUMPDEST PUSH1 0x40 MLOAD PUSH1 0x1 PUSH1 0x1 PUSH1 0xA0 SHL SUB SWAP1 SWAP2 AND DUP2 MSTORE PUSH1 0x20 ADD PUSH2 0x86 JUMP JUMPDEST PUSH2 0xC7 PUSH2 0xC2 CALLDATASIZE PUSH1 0x4 PUSH2 0x1390 JUMP JUMPDEST PUSH2 0x209 JUMP JUMPDEST PUSH1 0x40 MLOAD SWAP1 DUP2 MSTORE PUSH1 0x20 ADD PUSH2 0x86 JUMP JUMPDEST PUSH1 0x0 SLOAD PUSH2 0x9C SWAP1 PUSH1 0x1 PUSH1 0x1 PUSH1 0xA0 SHL SUB AND DUP2 JUMP JUMPDEST PUSH2 0xFB PUSH2 0xF6 CALLDATASIZE PUSH1 0x4 PUSH2 0x1418 JUMP JUMPDEST PUSH2 0x8BC JUMP JUMPDEST STOP JUMPDEST PUSH2 0xFB PUSH2 0x10B CALLDATASIZE PUSH1 0x4 PUSH2 0x1441 JUMP JUMPDEST PUSH2 0x9B3 JUMP JUMPDEST PUSH1 0x0 PUSH2 0x14E DUP6 DUP6 DUP1 DUP1 PUSH1 0x20 MUL PUSH1 0x20 ADD PUSH1 0x40 MLOAD SWAP1 DUP2 ADD PUSH1 0x40 MSTORE DUP1 SWAP4 SWAP3 SWAP2 SWAP1 DUP2 DUP2 MSTORE PUSH1 0x20 ADD DUP4 DUP4 PUSH1 0x20 MUL DUP1 DUP3 DUP5 CALLDATACOPY PUSH1 0x0 SWAP3 ADD SWAP2 SWAP1 SWAP2 MSTORE POP PUSH2 0x9B3 SWAP3 POP POP POP JUMP JUMPDEST PUSH2 0x1EC DUP8 DUP8 DUP1 DUP1 PUSH1 0x20 MUL PUSH1 0x20 ADD PUSH1 0x40 MLOAD SWAP1 DUP2 ADD PUSH1 0x40 MSTORE DUP1 SWAP4 SWAP3 SWAP2 SWAP1 DUP2 DUP2 MSTORE PUSH1 0x20 ADD DUP4 DUP4 PUSH1 0x20 MUL DUP1 DUP3 DUP5 CALLDATACOPY PUSH1 0x0 SWAP3 ADD SWAP2 SWAP1 SWAP2 MSTORE POP POP PUSH1 0x40 DUP1 MLOAD PUSH1 0x20 DUP1 DUP12 MUL DUP3 DUP2 ADD DUP3 ADD SWAP1 SWAP4 MSTORE DUP11 DUP3 MSTORE SWAP1 SWAP4 POP DUP11 SWAP3 POP DUP10 SWAP2 DUP3 SWAP2 DUP6 ADD SWAP1 DUP5 SWAP1 DUP1 DUP3 DUP5 CALLDATACOPY PUSH1 0x0 SWAP3 ADD SWAP2 SWAP1 SWAP2 MSTORE POP POP PUSH1 0x40 DUP1 MLOAD PUSH1 0x20 DUP1 DUP11 MUL DUP3 DUP2 ADD DUP3 ADD SWAP1 SWAP4 MSTORE DUP10 DUP3 MSTORE SWAP1 SWAP4 POP DUP10 SWAP3 POP DUP9 SWAP2 DUP3 SWAP2 DUP6 ADD SWAP1 DUP5 SWAP1 DUP1 DUP3 DUP5 CALLDATACOPY PUSH1 0x0 SWAP3 ADD SWAP2 SWAP1 SWAP2 MSTORE POP PUSH2 0x209 SWAP3 POP POP POP JUMP JUMPDEST PUSH1 0x0 SUB PUSH2 0x1FB JUMPI POP PUSH1 0x1 PUSH2 0x1FF JUMP JUMPDEST POP PUSH1 0x0 JUMPDEST SWAP7 SWAP6 POP POP POP POP POP POP JUMP JUMPDEST PUSH1 0x0 PUSH2 0x213 PUSH2 0x10BF JUMP JUMPDEST PUSH1 0x40 DUP1 MLOAD DUP1 DUP3 ADD SWAP1 SWAP2 MSTORE PUSH1 0x0 DUP1 DUP3 MSTORE PUSH1 0x20 DUP3 ADD MSTORE PUSH2 0x22F PUSH2 0x1110 JUMP JUMPDEST PUSH1 0x40 MLOAD DUP1 PUSH1 0x40 ADD PUSH1 0x40 MSTORE DUP1 PUSH1 0x0 DUP2 MSTORE PUSH1 0x20 ADD PUSH1 0x0 DUP2 MSTORE POP SWAP2 POP PUSH1 0x40 MLOAD DUP1 PUSH1 0x40 ADD PUSH1 0x40 MSTORE DUP1 DUP9 PUSH1 0x0 DUP2 MLOAD DUP2 LT PUSH2 0x266 JUMPI PUSH2 0x266 PUSH2 0x147E JUMP JUMPDEST PUSH1 0x20 MUL PUSH1 0x20 ADD ADD MLOAD DUP2 MSTORE PUSH1 0x20 ADD DUP9 PUSH1 0x1 DUP2 MLOAD DUP2 LT PUSH2 0x286 JUMPI PUSH2 0x286 PUSH2 0x147E JUMP JUMPDEST PUSH1 0x20 MUL PUSH1 0x20 ADD ADD MLOAD DUP2 MSTORE POP DUP4 PUSH1 0x0 ADD DUP2 SWAP1 MSTORE POP PUSH1 0x40 MLOAD DUP1 PUSH1 0x40 ADD PUSH1 0x40 MSTORE DUP1 PUSH1 0x40 MLOAD DUP1 PUSH1 0x40 ADD PUSH1 0x40 MSTORE DUP1 DUP11 PUSH1 0x2 DUP2 MLOAD DUP2 LT PUSH2 0x2C2 JUMPI PUSH2 0x2C2 PUSH2 0x147E JUMP JUMPDEST PUSH1 0x20 MUL PUSH1 0x20 ADD ADD MLOAD DUP2 MSTORE PUSH1 0x20 ADD DUP11 PUSH1 0x3 DUP2 MLOAD DUP2 LT PUSH2 0x2E2 JUMPI PUSH2 0x2E2 PUSH2 0x147E JUMP JUMPDEST PUSH1 0x20 MUL PUSH1 0x20 ADD ADD MLOAD DUP2 MSTORE POP DUP2 MSTORE PUSH1 0x20 ADD PUSH1 0x40 MLOAD DUP1 PUSH1 0x40 ADD PUSH1 0x40 MSTORE DUP1 DUP11 PUSH1 0x4 DUP2 MLOAD DUP2 LT PUSH2 0x310 JUMPI PUSH2 0x310 PUSH2 0x147E JUMP JUMPDEST PUSH1 0x20 MUL PUSH1 0x20 ADD ADD MLOAD DUP2 MSTORE PUSH1 0x20 ADD DUP11 PUSH1 0x5 DUP2 MLOAD DUP2 LT PUSH2 0x330 JUMPI PUSH2 0x330 PUSH2 0x147E JUMP JUMPDEST PUSH1 0x20 MUL PUSH1 0x20 ADD ADD MLOAD DUP2 MSTORE POP DUP2 MSTORE POP DUP4 PUSH1 0x20 ADD DUP2 SWAP1 MSTORE POP PUSH1 0x40 MLOAD DUP1 PUSH1 0x40 ADD PUSH1 0x40 MSTORE DUP1 DUP9 PUSH1 0x6 DUP2 MLOAD DUP2 LT PUSH2 0x364 JUMPI PUSH2 0x364 PUSH2 0x147E JUMP JUMPDEST PUSH1 0x20 MUL PUSH1 0x20 ADD ADD MLOAD DUP2 MSTORE PUSH1 0x20 ADD DUP9 PUSH1 0x7 DUP2 MLOAD DUP2 LT PUSH2 0x384 JUMPI PUSH2 0x384 PUSH2 0x147E JUMP JUMPDEST PUSH1 0x20 MUL PUSH1 0x20 ADD ADD MLOAD DUP2 MSTORE POP DUP4 PUSH1 0x40 ADD DUP2 SWAP1 MSTORE POP PUSH1 0x40 MLOAD DUP1 PUSH1 0x40 ADD PUSH1 0x40 MSTORE DUP1 DUP7 PUSH1 0x0 DUP2 MLOAD DUP2 LT PUSH2 0x3B5 JUMPI PUSH2 0x3B5 PUSH2 0x147E JUMP JUMPDEST PUSH1 0x20 MUL PUSH1 0x20 ADD ADD MLOAD DUP2 MSTORE PUSH1 0x20 ADD DUP7 PUSH1 0x1 DUP2 MLOAD DUP2 LT PUSH2 0x3D5 JUMPI PUSH2 0x3D5 PUSH2 0x147E JUMP JUMPDEST PUSH1 0x20 MUL PUSH1 0x20 ADD ADD MLOAD DUP2 MSTORE POP DUP2 PUSH1 0x0 ADD DUP2 SWAP1 MSTORE POP PUSH1 0x40 MLOAD DUP1 PUSH1 0x40 ADD PUSH1 0x40 MSTORE DUP1 PUSH1 0x40 MLOAD DUP1 PUSH1 0x40 ADD PUSH1 0x40 MSTORE DUP1 DUP9 PUSH1 0x2 DUP2 MLOAD DUP2 LT PUSH2 0x411 JUMPI PUSH2 0x411 PUSH2 0x147E JUMP JUMPDEST PUSH1 0x20 MUL PUSH1 0x20 ADD ADD MLOAD DUP2 MSTORE PUSH1 0x20 ADD DUP9 PUSH1 0x3 DUP2 MLOAD DUP2 LT PUSH2 0x431 JUMPI PUSH2 0x431 PUSH2 0x147E JUMP JUMPDEST PUSH1 0x20 MUL PUSH1 0x20 ADD ADD MLOAD DUP2 MSTORE POP DUP2 MSTORE PUSH1 0x20 ADD PUSH1 0x40 MLOAD DUP1 PUSH1 0x40 ADD PUSH1 0x40 MSTORE DUP1 DUP9 PUSH1 0x4 DUP2 MLOAD DUP2 LT PUSH2 0x45F JUMPI PUSH2 0x45F PUSH2 0x147E JUMP JUMPDEST PUSH1 0x20 MUL PUSH1 0x20 ADD ADD MLOAD DUP2 MSTORE PUSH1 0x20 ADD DUP9 PUSH1 0x5 DUP2 MLOAD DUP2 LT PUSH2 0x47F JUMPI PUSH2 0x47F PUSH2 0x147E JUMP JUMPDEST PUSH1 0x20 MUL PUSH1 0x20 ADD ADD MLOAD DUP2 MSTORE POP DUP2 MSTORE POP DUP2 PUSH1 0x20 ADD DUP2 SWAP1 MSTORE POP PUSH1 0x40 MLOAD DUP1 PUSH1 0x40 ADD PUSH1 0x40 MSTORE DUP1 PUSH1 0x40 MLOAD DUP1 PUSH1 0x40 ADD PUSH1 0x40 MSTORE DUP1 DUP9 PUSH1 0x6 DUP2 MLOAD DUP2 LT PUSH2 0x4BE JUMPI PUSH2 0x4BE PUSH2 0x147E JUMP JUMPDEST PUSH1 0x20 MUL PUSH1 0x20 ADD ADD MLOAD DUP2 MSTORE PUSH1 0x20 ADD DUP9 PUSH1 0x7 DUP2 MLOAD DUP2 LT PUSH2 0x4DE JUMPI PUSH2 0x4DE PUSH2 0x147E JUMP JUMPDEST PUSH1 0x20 MUL PUSH1 0x20 ADD ADD MLOAD DUP2 MSTORE POP DUP2 MSTORE PUSH1 0x20 ADD PUSH1 0x40 MLOAD DUP1 PUSH1 0x40 ADD PUSH1 0x40 MSTORE DUP1 DUP9 PUSH1 0x8 DUP2 MLOAD DUP2 LT PUSH2 0x50C JUMPI PUSH2 0x50C PUSH2 0x147E JUMP JUMPDEST PUSH1 0x20 MUL PUSH1 0x20 ADD ADD MLOAD DUP2 MSTORE PUSH1 0x20 ADD DUP9 PUSH1 0x9 DUP2 MLOAD DUP2 LT PUSH2 0x52C JUMPI PUSH2 0x52C PUSH2 0x147E JUMP JUMPDEST PUSH1 0x20 MUL PUSH1 0x20 ADD ADD MLOAD DUP2 MSTORE POP DUP2 MSTORE POP DUP2 PUSH1 0x40 ADD DUP2 SWAP1 MSTORE POP PUSH1 0x40 MLOAD DUP1 PUSH1 0x40 ADD PUSH1 0x40 MSTORE DUP1 PUSH1 0x40 MLOAD DUP1 PUSH1 0x40 ADD PUSH1 0x40 MSTORE DUP1 DUP9 PUSH1 0xA DUP2 MLOAD DUP2 LT PUSH2 0x56B JUMPI PUSH2 0x56B PUSH2 0x147E JUMP JUMPDEST PUSH1 0x20 MUL PUSH1 0x20 ADD ADD MLOAD DUP2 MSTORE PUSH1 0x20 ADD DUP9 PUSH1 0xB DUP2 MLOAD DUP2 LT PUSH2 0x58B JUMPI PUSH2 0x58B PUSH2 0x147E JUMP JUMPDEST PUSH1 0x20 MUL PUSH1 0x20 ADD ADD MLOAD DUP2 MSTORE POP DUP2 MSTORE PUSH1 0x20 ADD PUSH1 0x40 MLOAD DUP1 PUSH1 0x40 ADD PUSH1 0x40 MSTORE DUP1 DUP9 PUSH1 0xC DUP2 MLOAD DUP2 LT PUSH2 0x5B9 JUMPI PUSH2 0x5B9 PUSH2 0x147E JUMP JUMPDEST PUSH1 0x20 MUL PUSH1 0x20 ADD ADD MLOAD DUP2 MSTORE PUSH1 0x20 ADD DUP9 PUSH1 0xD DUP2 MLOAD DUP2 LT PUSH2 0x5D9 JUMPI PUSH2 0x5D9 PUSH2 0x147E JUMP JUMPDEST PUSH1 0x20 MUL PUSH1 0x20 ADD ADD MLOAD DUP2 MSTORE POP DUP2 MSTORE POP DUP2 PUSH1 0x60 ADD DUP2 SWAP1 MSTORE POP PUSH1 0xE DUP6 MLOAD GT ISZERO PUSH2 0x722 JUMPI PUSH1 0x2 PUSH1 0xE DUP7 MLOAD PUSH2 0x609 SWAP2 SWAP1 PUSH2 0x14AA JUMP JUMPDEST PUSH2 0x613 SWAP2 SWAP1 PUSH2 0x14D3 JUMP JUMPDEST PUSH8 0xFFFFFFFFFFFFFFFF DUP2 GT ISZERO PUSH2 0x62B JUMPI PUSH2 0x62B PUSH2 0x12DF JUMP JUMPDEST PUSH1 0x40 MLOAD SWAP1 DUP1 DUP3 MSTORE DUP1 PUSH1 0x20 MUL PUSH1 0x20 ADD DUP3 ADD PUSH1 0x40 MSTORE DUP1 ISZERO PUSH2 0x670 JUMPI DUP2 PUSH1 0x20 ADD JUMPDEST PUSH1 0x40 DUP1 MLOAD DUP1 DUP3 ADD SWAP1 SWAP2 MSTORE PUSH1 0x0 DUP1 DUP3 MSTORE PUSH1 0x20 DUP3 ADD MSTORE DUP2 MSTORE PUSH1 0x20 ADD SWAP1 PUSH1 0x1 SWAP1 SUB SWAP1 DUP2 PUSH2 0x649 JUMPI SWAP1 POP JUMPDEST POP PUSH1 0x80 DUP3 ADD MSTORE PUSH1 0xE JUMPDEST DUP6 MLOAD DUP2 LT ISZERO PUSH2 0x720 JUMPI PUSH1 0x40 MLOAD DUP1 PUSH1 0x40 ADD PUSH1 0x40 MSTORE DUP1 DUP8 DUP4 DUP2 MLOAD DUP2 LT PUSH2 0x69F JUMPI PUSH2 0x69F PUSH2 0x147E JUMP JUMPDEST PUSH1 0x20 MUL PUSH1 0x20 ADD ADD MLOAD DUP2 MSTORE PUSH1 0x20 ADD DUP8 DUP4 PUSH1 0x1 PUSH2 0x6BA SWAP2 SWAP1 PUSH2 0x14E7 JUMP JUMPDEST DUP2 MLOAD DUP2 LT PUSH2 0x6CA JUMPI PUSH2 0x6CA PUSH2 0x147E JUMP JUMPDEST PUSH1 0x20 MUL PUSH1 0x20 ADD ADD MLOAD DUP2 MSTORE POP DUP3 PUSH1 0x80 ADD MLOAD PUSH1 0x2 PUSH1 0xE DUP5 PUSH2 0x6E9 SWAP2 SWAP1 PUSH2 0x14AA JUMP JUMPDEST PUSH2 0x6F3 SWAP2 SWAP1 PUSH2 0x14D3 JUMP JUMPDEST DUP2 MLOAD DUP2 LT PUSH2 0x703 JUMPI PUSH2 0x703 PUSH2 0x147E JUMP JUMPDEST PUSH1 0x20 SWAP1 DUP2 MUL SWAP2 SWAP1 SWAP2 ADD ADD MSTORE PUSH2 0x719 PUSH1 0x2 DUP3 PUSH2 0x14E7 JUMP JUMPDEST SWAP1 POP PUSH2 0x679 JUMP JUMPDEST POP JUMPDEST DUP6 MLOAD PUSH2 0x72F SWAP1 PUSH1 0x1 PUSH2 0x14E7 JUMP JUMPDEST DUP2 PUSH1 0x80 ADD MLOAD MLOAD EQ PUSH2 0x79C JUMPI PUSH1 0x40 MLOAD PUSH3 0x461BCD PUSH1 0xE5 SHL DUP2 MSTORE PUSH1 0x20 PUSH1 0x4 DUP3 ADD MSTORE PUSH1 0x2C PUSH1 0x24 DUP3 ADD MSTORE PUSH32 0x4C656E677468206F6620696E707574735B5D206F7220766B2E71756572792069 PUSH1 0x44 DUP3 ADD MSTORE PUSH12 0x7320696E636F727265637421 PUSH1 0xA0 SHL PUSH1 0x64 DUP3 ADD MSTORE PUSH1 0x84 ADD JUMPDEST PUSH1 0x40 MLOAD DUP1 SWAP2 SUB SWAP1 REVERT JUMPDEST PUSH1 0x40 DUP1 MLOAD DUP1 DUP3 ADD SWAP1 SWAP2 MSTORE PUSH1 0x0 DUP1 DUP3 MSTORE PUSH1 0x20 DUP3 ADD MSTORE PUSH1 0x0 JUMPDEST DUP8 MLOAD DUP2 LT ISZERO PUSH2 0x827 JUMPI PUSH1 0x80 DUP4 ADD MLOAD PUSH2 0x807 SWAP1 PUSH2 0x7D0 DUP4 PUSH1 0x1 PUSH2 0x14E7 JUMP JUMPDEST DUP2 MLOAD DUP2 LT PUSH2 0x7E0 JUMPI PUSH2 0x7E0 PUSH2 0x147E JUMP JUMPDEST PUSH1 0x20 MUL PUSH1 0x20 ADD ADD MLOAD DUP10 DUP4 DUP2 MLOAD DUP2 LT PUSH2 0x7FA JUMPI PUSH2 0x7FA PUSH2 0x147E JUMP JUMPDEST PUSH1 0x20 MUL PUSH1 0x20 ADD ADD MLOAD PUSH2 0xA3F JUMP JUMPDEST SWAP2 POP PUSH2 0x813 DUP5 DUP4 PUSH2 0xAE1 JUMP JUMPDEST SWAP4 POP DUP1 PUSH2 0x81F DUP2 PUSH2 0x14FA JUMP JUMPDEST SWAP2 POP POP PUSH2 0x7B3 JUMP JUMPDEST POP PUSH2 0x850 DUP4 DUP4 PUSH1 0x80 ADD MLOAD PUSH1 0x0 DUP2 MLOAD DUP2 LT PUSH2 0x843 JUMPI PUSH2 0x843 PUSH2 0x147E JUMP JUMPDEST PUSH1 0x20 MUL PUSH1 0x20 ADD ADD MLOAD PUSH2 0xAE1 JUMP JUMPDEST SWAP3 POP PUSH1 0x0 PUSH2 0x896 DUP6 PUSH1 0x0 ADD MLOAD DUP7 PUSH1 0x20 ADD MLOAD PUSH2 0x86A DUP8 PUSH2 0xB7B JUMP JUMPDEST DUP7 PUSH1 0x40 ADD MLOAD PUSH2 0x87C DUP11 PUSH1 0x40 ADD MLOAD PUSH2 0xB7B JUMP JUMPDEST PUSH1 0x60 DUP10 ADD MLOAD DUP10 MLOAD PUSH2 0x88C SWAP1 PUSH2 0xB7B JUMP JUMPDEST DUP11 PUSH1 0x20 ADD MLOAD PUSH2 0xC1A JUMP JUMPDEST SWAP1 POP DUP1 PUSH2 0x8AB JUMPI PUSH1 0x5 SWAP6 POP POP POP POP POP POP PUSH2 0x8B5 JUMP JUMPDEST POP PUSH1 0x0 SWAP5 POP POP POP POP POP JUMPDEST SWAP4 SWAP3 POP POP POP JUMP JUMPDEST PUSH1 0x0 SLOAD PUSH1 0x1 PUSH1 0x1 PUSH1 0xA0 SHL SUB AND CALLER EQ PUSH2 0x92D JUMPI PUSH1 0x40 MLOAD PUSH3 0x461BCD PUSH1 0xE5 SHL DUP2 MSTORE PUSH1 0x20 PUSH1 0x4 DUP3 ADD MSTORE PUSH1 0x2E PUSH1 0x24 DUP3 ADD MSTORE PUSH32 0x596F7520617265206E6F7420617574686F726973656420746F20696E766F6B65 PUSH1 0x44 DUP3 ADD MSTORE PUSH14 0x103A3434B990333AB731BA34B7B7 PUSH1 0x91 SHL PUSH1 0x64 DUP3 ADD MSTORE PUSH1 0x84 ADD PUSH2 0x793 JUMP JUMPDEST PUSH1 0x1 PUSH1 0x1 PUSH1 0xA0 SHL SUB DUP2 AND PUSH2 0x940 JUMPI PUSH1 0x0 DUP1 REVERT JUMPDEST PUSH32 0x8BE0079C531659141344CD1FD0A4F28419497F9722A3DAAFE3B4186F6B6457E0 PUSH2 0x973 PUSH1 0x0 SLOAD PUSH1 0x1 PUSH1 0x1 PUSH1 0xA0 SHL SUB AND SWAP1 JUMP JUMPDEST PUSH1 0x40 DUP1 MLOAD PUSH1 0x1 PUSH1 0x1 PUSH1 0xA0 SHL SUB SWAP3 DUP4 AND DUP2 MSTORE SWAP2 DUP5 AND PUSH1 0x20 DUP4 ADD MSTORE ADD PUSH1 0x40 MLOAD DUP1 SWAP2 SUB SWAP1 LOG1 PUSH1 0x0 DUP1 SLOAD PUSH1 0x1 PUSH1 0x1 PUSH1 0xA0 SHL SUB NOT AND PUSH1 0x1 PUSH1 0x1 PUSH1 0xA0 SHL SUB DUP4 AND OR SWAP1 SSTORE POP JUMP JUMPDEST PUSH1 0x0 JUMPDEST DUP2 MLOAD DUP2 LT ISZERO PUSH2 0xA3B JUMPI PUSH1 0x1 SLOAD DUP3 DUP3 DUP2 MLOAD DUP2 LT PUSH2 0x9D4 JUMPI PUSH2 0x9D4 PUSH2 0x147E JUMP JUMPDEST PUSH1 0x20 MUL PUSH1 0x20 ADD ADD MLOAD LT PUSH2 0xA29 JUMPI PUSH1 0x40 MLOAD PUSH3 0x461BCD PUSH1 0xE5 SHL DUP2 MSTORE PUSH1 0x20 PUSH1 0x4 DUP3 ADD MSTORE PUSH1 0x1B PUSH1 0x24 DUP3 ADD MSTORE PUSH32 0x496E70757473206D757374206265206C657373207468616E20722E0000000000 PUSH1 0x44 DUP3 ADD MSTORE PUSH1 0x64 ADD PUSH2 0x793 JUMP JUMPDEST DUP1 PUSH2 0xA33 DUP2 PUSH2 0x14FA JUMP JUMPDEST SWAP2 POP POP PUSH2 0x9B6 JUMP JUMPDEST POP POP JUMP JUMPDEST PUSH1 0x40 DUP1 MLOAD DUP1 DUP3 ADD SWAP1 SWAP2 MSTORE PUSH1 0x0 DUP1 DUP3 MSTORE PUSH1 0x20 DUP3 ADD MSTORE PUSH2 0xA5B PUSH2 0x1161 JUMP JUMPDEST DUP4 MLOAD DUP2 MSTORE PUSH1 0x20 DUP1 DUP6 ADD MLOAD SWAP1 DUP3 ADD MSTORE PUSH1 0x40 DUP2 ADD DUP4 SWAP1 MSTORE PUSH1 0x0 PUSH1 0x60 DUP4 PUSH1 0x80 DUP5 DUP5 PUSH1 0x7 PUSH2 0x7D0 GAS SUB CALL SWAP1 POP DUP1 DUP1 PUSH2 0xA8B JUMPI INVALID JUMPDEST POP DUP1 PUSH2 0xAD9 JUMPI PUSH1 0x40 MLOAD PUSH3 0x461BCD PUSH1 0xE5 SHL DUP2 MSTORE PUSH1 0x20 PUSH1 0x4 DUP3 ADD MSTORE PUSH1 0x1F PUSH1 0x24 DUP3 ADD MSTORE PUSH32 0x4543207363616C6172206D756C7469706C69636174696F6E206661696C656400 PUSH1 0x44 DUP3 ADD MSTORE PUSH1 0x64 ADD PUSH2 0x793 JUMP JUMPDEST POP POP SWAP3 SWAP2 POP POP JUMP JUMPDEST PUSH1 0x40 DUP1 MLOAD DUP1 DUP3 ADD SWAP1 SWAP2 MSTORE PUSH1 0x0 DUP1 DUP3 MSTORE PUSH1 0x20 DUP3 ADD MSTORE PUSH2 0xAFD PUSH2 0x117F JUMP JUMPDEST DUP4 MLOAD DUP2 MSTORE PUSH1 0x20 DUP1 DUP6 ADD MLOAD DUP2 DUP4 ADD MSTORE DUP4 MLOAD PUSH1 0x40 DUP4 ADD MSTORE DUP4 ADD MLOAD PUSH1 0x60 DUP1 DUP4 ADD SWAP2 SWAP1 SWAP2 MSTORE PUSH1 0x0 SWAP1 DUP4 PUSH1 0xC0 DUP5 DUP5 PUSH1 0x6 PUSH2 0x7D0 GAS SUB CALL SWAP1 POP DUP1 DUP1 PUSH2 0xB38 JUMPI INVALID JUMPDEST POP DUP1 PUSH2 0xAD9 JUMPI PUSH1 0x40 MLOAD PUSH3 0x461BCD PUSH1 0xE5 SHL DUP2 MSTORE PUSH1 0x20 PUSH1 0x4 DUP3 ADD MSTORE PUSH1 0x12 PUSH1 0x24 DUP3 ADD MSTORE PUSH18 0x1150C81859191A5D1A5BDB8819985A5B1959 PUSH1 0x72 SHL PUSH1 0x44 DUP3 ADD MSTORE PUSH1 0x64 ADD PUSH2 0x793 JUMP JUMPDEST PUSH1 0x40 DUP1 MLOAD DUP1 DUP3 ADD SWAP1 SWAP2 MSTORE PUSH1 0x0 DUP1 DUP3 MSTORE PUSH1 0x20 DUP3 ADD MSTORE DUP2 MLOAD PUSH32 0x30644E72E131A029B85045B68181585D97816A916871CA8D3C208C16D87CFD47 SWAP1 ISZERO DUP1 ISZERO PUSH2 0xBC2 JUMPI POP PUSH1 0x20 DUP4 ADD MLOAD ISZERO JUMPDEST ISZERO PUSH2 0xBE2 JUMPI POP POP PUSH1 0x40 DUP1 MLOAD DUP1 DUP3 ADD SWAP1 SWAP2 MSTORE PUSH1 0x0 DUP1 DUP3 MSTORE PUSH1 0x20 DUP3 ADD MSTORE SWAP2 SWAP1 POP JUMP JUMPDEST PUSH1 0x40 MLOAD DUP1 PUSH1 0x40 ADD PUSH1 0x40 MSTORE DUP1 DUP5 PUSH1 0x0 ADD MLOAD DUP2 MSTORE PUSH1 0x20 ADD DUP3 DUP6 PUSH1 0x20 ADD MLOAD PUSH2 0xC07 SWAP2 SWAP1 PUSH2 0x1513 JUMP JUMPDEST PUSH2 0xC11 SWAP1 DUP5 PUSH2 0x14AA JUMP JUMPDEST SWAP1 MSTORE SWAP4 SWAP3 POP POP POP JUMP JUMPDEST PUSH1 0x40 DUP1 MLOAD PUSH1 0x4 DUP1 DUP3 MSTORE PUSH1 0xA0 DUP3 ADD SWAP1 SWAP3 MSTORE PUSH1 0x0 SWAP2 DUP3 SWAP2 SWAP1 DUP2 PUSH1 0x20 ADD JUMPDEST PUSH1 0x40 DUP1 MLOAD DUP1 DUP3 ADD SWAP1 SWAP2 MSTORE PUSH1 0x0 DUP1 DUP3 MSTORE PUSH1 0x20 DUP3 ADD MSTORE DUP2 MSTORE PUSH1 0x20 ADD SWAP1 PUSH1 0x1 SWAP1 SUB SWAP1 DUP2 PUSH2 0xC35 JUMPI POP POP PUSH1 0x40 DUP1 MLOAD PUSH1 0x4 DUP1 DUP3 MSTORE PUSH1 0xA0 DUP3 ADD SWAP1 SWAP3 MSTORE SWAP2 SWAP3 POP PUSH1 0x0 SWAP2 SWAP1 PUSH1 0x20 DUP3 ADD JUMPDEST PUSH2 0xC7F PUSH2 0x119D JUMP JUMPDEST DUP2 MSTORE PUSH1 0x20 ADD SWAP1 PUSH1 0x1 SWAP1 SUB SWAP1 DUP2 PUSH2 0xC77 JUMPI SWAP1 POP POP SWAP1 POP DUP11 DUP3 PUSH1 0x0 DUP2 MLOAD DUP2 LT PUSH2 0xCA8 JUMPI PUSH2 0xCA8 PUSH2 0x147E JUMP JUMPDEST PUSH1 0x20 MUL PUSH1 0x20 ADD ADD DUP2 SWAP1 MSTORE POP DUP9 DUP3 PUSH1 0x1 DUP2 MLOAD DUP2 LT PUSH2 0xCC7 JUMPI PUSH2 0xCC7 PUSH2 0x147E JUMP JUMPDEST PUSH1 0x20 MUL PUSH1 0x20 ADD ADD DUP2 SWAP1 MSTORE POP DUP7 DUP3 PUSH1 0x2 DUP2 MLOAD DUP2 LT PUSH2 0xCE6 JUMPI PUSH2 0xCE6 PUSH2 0x147E JUMP JUMPDEST PUSH1 0x20 MUL PUSH1 0x20 ADD ADD DUP2 SWAP1 MSTORE POP DUP5 DUP3 PUSH1 0x3 DUP2 MLOAD DUP2 LT PUSH2 0xD05 JUMPI PUSH2 0xD05 PUSH2 0x147E JUMP JUMPDEST PUSH1 0x20 MUL PUSH1 0x20 ADD ADD DUP2 SWAP1 MSTORE POP DUP10 DUP2 PUSH1 0x0 DUP2 MLOAD DUP2 LT PUSH2 0xD24 JUMPI PUSH2 0xD24 PUSH2 0x147E JUMP JUMPDEST PUSH1 0x20 MUL PUSH1 0x20 ADD ADD DUP2 SWAP1 MSTORE POP DUP8 DUP2 PUSH1 0x1 DUP2 MLOAD DUP2 LT PUSH2 0xD43 JUMPI PUSH2 0xD43 PUSH2 0x147E JUMP JUMPDEST PUSH1 0x20 MUL PUSH1 0x20 ADD ADD DUP2 SWAP1 MSTORE POP DUP6 DUP2 PUSH1 0x2 DUP2 MLOAD DUP2 LT PUSH2 0xD62 JUMPI PUSH2 0xD62 PUSH2 0x147E JUMP JUMPDEST PUSH1 0x20 MUL PUSH1 0x20 ADD ADD DUP2 SWAP1 MSTORE POP DUP4 DUP2 PUSH1 0x3 DUP2 MLOAD DUP2 LT PUSH2 0xD81 JUMPI PUSH2 0xD81 PUSH2 0x147E JUMP JUMPDEST PUSH1 0x20 MUL PUSH1 0x20 ADD ADD DUP2 SWAP1 MSTORE POP PUSH2 0xD96 DUP3 DUP3 PUSH2 0xDA5 JUMP JUMPDEST SWAP12 SWAP11 POP POP POP POP POP POP POP POP POP POP POP JUMP JUMPDEST DUP2 MLOAD PUSH1 0x0 SWAP1 DUP2 PUSH2 0xDB6 DUP3 PUSH1 0x6 PUSH2 0x1527 JUMP JUMPDEST SWAP1 POP PUSH1 0x0 DUP2 PUSH8 0xFFFFFFFFFFFFFFFF DUP2 GT ISZERO PUSH2 0xDD3 JUMPI PUSH2 0xDD3 PUSH2 0x12DF JUMP JUMPDEST PUSH1 0x40 MLOAD SWAP1 DUP1 DUP3 MSTORE DUP1 PUSH1 0x20 MUL PUSH1 0x20 ADD DUP3 ADD PUSH1 0x40 MSTORE DUP1 ISZERO PUSH2 0xDFC JUMPI DUP2 PUSH1 0x20 ADD PUSH1 0x20 DUP3 MUL DUP1 CALLDATASIZE DUP4 CALLDATACOPY ADD SWAP1 POP JUMPDEST POP SWAP1 POP PUSH1 0x0 JUMPDEST DUP4 DUP2 LT ISZERO PUSH2 0x1037 JUMPI DUP7 DUP2 DUP2 MLOAD DUP2 LT PUSH2 0xE1C JUMPI PUSH2 0xE1C PUSH2 0x147E JUMP JUMPDEST PUSH1 0x20 MUL PUSH1 0x20 ADD ADD MLOAD PUSH1 0x0 ADD MLOAD DUP3 DUP3 PUSH1 0x6 PUSH2 0xE36 SWAP2 SWAP1 PUSH2 0x1527 JUMP JUMPDEST PUSH2 0xE41 SWAP1 PUSH1 0x0 PUSH2 0x14E7 JUMP JUMPDEST DUP2 MLOAD DUP2 LT PUSH2 0xE51 JUMPI PUSH2 0xE51 PUSH2 0x147E JUMP JUMPDEST PUSH1 0x20 MUL PUSH1 0x20 ADD ADD DUP2 DUP2 MSTORE POP POP DUP7 DUP2 DUP2 MLOAD DUP2 LT PUSH2 0xE6F JUMPI PUSH2 0xE6F PUSH2 0x147E JUMP JUMPDEST PUSH1 0x20 MUL PUSH1 0x20 ADD ADD MLOAD PUSH1 0x20 ADD MLOAD DUP3 DUP3 PUSH1 0x6 PUSH2 0xE89 SWAP2 SWAP1 PUSH2 0x1527 JUMP JUMPDEST PUSH2 0xE94 SWAP1 PUSH1 0x1 PUSH2 0x14E7 JUMP JUMPDEST DUP2 MLOAD DUP2 LT PUSH2 0xEA4 JUMPI PUSH2 0xEA4 PUSH2 0x147E JUMP JUMPDEST PUSH1 0x20 MUL PUSH1 0x20 ADD ADD DUP2 DUP2 MSTORE POP POP DUP6 DUP2 DUP2 MLOAD DUP2 LT PUSH2 0xEC2 JUMPI PUSH2 0xEC2 PUSH2 0x147E JUMP JUMPDEST PUSH1 0x20 SWAP1 DUP2 MUL SWAP2 SWAP1 SWAP2 ADD DUP2 ADD MLOAD MLOAD ADD MLOAD DUP3 PUSH2 0xEDD DUP4 PUSH1 0x6 PUSH2 0x1527 JUMP JUMPDEST PUSH2 0xEE8 SWAP1 PUSH1 0x2 PUSH2 0x14E7 JUMP JUMPDEST DUP2 MLOAD DUP2 LT PUSH2 0xEF8 JUMPI PUSH2 0xEF8 PUSH2 0x147E JUMP JUMPDEST PUSH1 0x20 MUL PUSH1 0x20 ADD ADD DUP2 DUP2 MSTORE POP POP DUP6 DUP2 DUP2 MLOAD DUP2 LT PUSH2 0xF16 JUMPI PUSH2 0xF16 PUSH2 0x147E JUMP JUMPDEST PUSH1 0x20 SWAP1 DUP2 MUL SWAP2 SWAP1 SWAP2 ADD ADD MLOAD MLOAD MLOAD DUP3 PUSH2 0xF2F DUP4 PUSH1 0x6 PUSH2 0x1527 JUMP JUMPDEST PUSH2 0xF3A SWAP1 PUSH1 0x3 PUSH2 0x14E7 JUMP JUMPDEST DUP2 MLOAD DUP2 LT PUSH2 0xF4A JUMPI PUSH2 0xF4A PUSH2 0x147E JUMP JUMPDEST PUSH1 0x20 MUL PUSH1 0x20 ADD ADD DUP2 DUP2 MSTORE POP POP DUP6 DUP2 DUP2 MLOAD DUP2 LT PUSH2 0xF68 JUMPI PUSH2 0xF68 PUSH2 0x147E JUMP JUMPDEST PUSH1 0x20 MUL PUSH1 0x20 ADD ADD MLOAD PUSH1 0x20 ADD MLOAD PUSH1 0x1 PUSH1 0x2 DUP2 LT PUSH2 0xF86 JUMPI PUSH2 0xF86 PUSH2 0x147E JUMP JUMPDEST PUSH1 0x20 MUL ADD MLOAD DUP3 PUSH2 0xF97 DUP4 PUSH1 0x6 PUSH2 0x1527 JUMP JUMPDEST PUSH2 0xFA2 SWAP1 PUSH1 0x4 PUSH2 0x14E7 JUMP JUMPDEST DUP2 MLOAD DUP2 LT PUSH2 0xFB2 JUMPI PUSH2 0xFB2 PUSH2 0x147E JUMP JUMPDEST PUSH1 0x20 MUL PUSH1 0x20 ADD ADD DUP2 DUP2 MSTORE POP POP DUP6 DUP2 DUP2 MLOAD DUP2 LT PUSH2 0xFD0 JUMPI PUSH2 0xFD0 PUSH2 0x147E JUMP JUMPDEST PUSH1 0x20 MUL PUSH1 0x20 ADD ADD MLOAD PUSH1 0x20 ADD MLOAD PUSH1 0x0 PUSH1 0x2 DUP2 LT PUSH2 0xFEE JUMPI PUSH2 0xFEE PUSH2 0x147E JUMP JUMPDEST PUSH1 0x20 MUL ADD MLOAD DUP3 PUSH2 0xFFF DUP4 PUSH1 0x6 PUSH2 0x1527 JUMP JUMPDEST PUSH2 0x100A SWAP1 PUSH1 0x5 PUSH2 0x14E7 JUMP JUMPDEST DUP2 MLOAD DUP2 LT PUSH2 0x101A JUMPI PUSH2 0x101A PUSH2 0x147E JUMP JUMPDEST PUSH1 0x20 SWAP1 DUP2 MUL SWAP2 SWAP1 SWAP2 ADD ADD MSTORE DUP1 PUSH2 0x102F DUP2 PUSH2 0x14FA JUMP JUMPDEST SWAP2 POP POP PUSH2 0xE02 JUMP JUMPDEST POP PUSH2 0x1040 PUSH2 0x11BD JUMP JUMPDEST PUSH1 0x0 PUSH1 0x20 DUP3 PUSH1 0x20 DUP7 MUL PUSH1 0x20 DUP7 ADD PUSH1 0x0 PUSH1 0x8 PUSH2 0x7D0 GAS SUB CALL SWAP1 POP DUP1 DUP1 PUSH2 0x1061 JUMPI INVALID JUMPDEST POP DUP1 PUSH2 0x10AF JUMPI PUSH1 0x40 MLOAD PUSH3 0x461BCD PUSH1 0xE5 SHL DUP2 MSTORE PUSH1 0x20 PUSH1 0x4 DUP3 ADD MSTORE PUSH1 0x1D PUSH1 0x24 DUP3 ADD MSTORE PUSH32 0x45432050616972696E672063616C63756C6174696F6E206661696C6564000000 PUSH1 0x44 DUP3 ADD MSTORE PUSH1 0x64 ADD PUSH2 0x793 JUMP JUMPDEST POP MLOAD ISZERO ISZERO SWAP4 POP POP POP POP JUMPDEST SWAP3 SWAP2 POP POP JUMP JUMPDEST PUSH1 0x40 DUP1 MLOAD PUSH1 0xA0 DUP2 ADD SWAP1 SWAP2 MSTORE PUSH1 0x0 PUSH1 0x60 DUP3 ADD DUP2 DUP2 MSTORE PUSH1 0x80 DUP4 ADD SWAP2 SWAP1 SWAP2 MSTORE DUP2 MSTORE PUSH1 0x20 DUP2 ADD PUSH2 0x10E9 PUSH2 0x119D JUMP JUMPDEST DUP2 MSTORE PUSH1 0x20 ADD PUSH2 0x110B PUSH1 0x40 MLOAD DUP1 PUSH1 0x40 ADD PUSH1 0x40 MSTORE DUP1 PUSH1 0x0 DUP2 MSTORE PUSH1 0x20 ADD PUSH1 0x0 DUP2 MSTORE POP SWAP1 JUMP JUMPDEST SWAP1 MSTORE SWAP1 JUMP JUMPDEST PUSH1 0x40 DUP1 MLOAD PUSH1 0xE0 DUP2 ADD SWAP1 SWAP2 MSTORE PUSH1 0x0 PUSH1 0xA0 DUP3 ADD DUP2 DUP2 MSTORE PUSH1 0xC0 DUP4 ADD SWAP2 SWAP1 SWAP2 MSTORE DUP2 MSTORE PUSH1 0x20 DUP2 ADD PUSH2 0x113A PUSH2 0x119D JUMP JUMPDEST DUP2 MSTORE PUSH1 0x20 ADD PUSH2 0x1147 PUSH2 0x119D JUMP JUMPDEST DUP2 MSTORE PUSH1 0x20 ADD PUSH2 0x1154 PUSH2 0x119D JUMP JUMPDEST DUP2 MSTORE PUSH1 0x20 ADD PUSH1 0x60 DUP2 MSTORE POP SWAP1 JUMP JUMPDEST PUSH1 0x40 MLOAD DUP1 PUSH1 0x60 ADD PUSH1 0x40 MSTORE DUP1 PUSH1 0x3 SWAP1 PUSH1 0x20 DUP3 MUL DUP1 CALLDATASIZE DUP4 CALLDATACOPY POP SWAP2 SWAP3 SWAP2 POP POP JUMP JUMPDEST PUSH1 0x40 MLOAD DUP1 PUSH1 0x80 ADD PUSH1 0x40 MSTORE DUP1 PUSH1 0x4 SWAP1 PUSH1 0x20 DUP3 MUL DUP1 CALLDATASIZE DUP4 CALLDATACOPY POP SWAP2 SWAP3 SWAP2 POP POP JUMP JUMPDEST PUSH1 0x40 MLOAD DUP1 PUSH1 0x40 ADD PUSH1 0x40 MSTORE DUP1 PUSH2 0x11B0 PUSH2 0x11DB JUMP JUMPDEST DUP2 MSTORE PUSH1 0x20 ADD PUSH2 0x110B PUSH2 0x11DB JUMP JUMPDEST PUSH1 0x40 MLOAD DUP1 PUSH1 0x20 ADD PUSH1 0x40 MSTORE DUP1 PUSH1 0x1 SWAP1 PUSH1 0x20 DUP3 MUL DUP1 CALLDATASIZE DUP4 CALLDATACOPY POP SWAP2 SWAP3 SWAP2 POP POP JUMP JUMPDEST PUSH1 0x40 MLOAD DUP1 PUSH1 0x40 ADD PUSH1 0x40 MSTORE DUP1 PUSH1 0x2 SWAP1 PUSH1 0x20 DUP3 MUL DUP1 CALLDATASIZE DUP4 CALLDATACOPY POP SWAP2 SWAP3 SWAP2 POP POP JUMP JUMPDEST PUSH1 0x0 DUP1 DUP4 PUSH1 0x1F DUP5 ADD SLT PUSH2 0x120B JUMPI PUSH1 0x0 DUP1 REVERT JUMPDEST POP DUP2 CALLDATALOAD PUSH8 0xFFFFFFFFFFFFFFFF DUP2 GT ISZERO PUSH2 0x1223 JUMPI PUSH1 0x0 DUP1 REVERT JUMPDEST PUSH1 0x20 DUP4 ADD SWAP2 POP DUP4 PUSH1 0x20 DUP3 PUSH1 0x5 SHL DUP6 ADD ADD GT ISZERO PUSH2 0x123E JUMPI PUSH1 0x0 DUP1 REVERT JUMPDEST SWAP3 POP SWAP3 SWAP1 POP JUMP JUMPDEST PUSH1 0x0 DUP1 PUSH1 0x0 DUP1 PUSH1 0x0 DUP1 PUSH1 0x60 DUP8 DUP10 SUB SLT ISZERO PUSH2 0x125E JUMPI PUSH1 0x0 DUP1 REVERT JUMPDEST DUP7 CALLDATALOAD PUSH8 0xFFFFFFFFFFFFFFFF DUP1 DUP3 GT ISZERO PUSH2 0x1276 JUMPI PUSH1 0x0 DUP1 REVERT JUMPDEST PUSH2 0x1282 DUP11 DUP4 DUP12 ADD PUSH2 0x11F9 JUMP JUMPDEST SWAP1 SWAP9 POP SWAP7 POP PUSH1 0x20 DUP10 ADD CALLDATALOAD SWAP2 POP DUP1 DUP3 GT ISZERO PUSH2 0x129B JUMPI PUSH1 0x0 DUP1 REVERT JUMPDEST PUSH2 0x12A7 DUP11 DUP4 DUP12 ADD PUSH2 0x11F9 JUMP JUMPDEST SWAP1 SWAP7 POP SWAP5 POP PUSH1 0x40 DUP10 ADD CALLDATALOAD SWAP2 POP DUP1 DUP3 GT ISZERO PUSH2 0x12C0 JUMPI PUSH1 0x0 DUP1 REVERT JUMPDEST POP PUSH2 0x12CD DUP10 DUP3 DUP11 ADD PUSH2 0x11F9 JUMP JUMPDEST SWAP8 SWAP11 SWAP7 SWAP10 POP SWAP5 SWAP8 POP SWAP3 SWAP6 SWAP4 SWAP5 SWAP3 POP POP POP JUMP JUMPDEST PUSH4 0x4E487B71 PUSH1 0xE0 SHL PUSH1 0x0 MSTORE PUSH1 0x41 PUSH1 0x4 MSTORE PUSH1 0x24 PUSH1 0x0 REVERT JUMPDEST PUSH1 0x0 DUP3 PUSH1 0x1F DUP4 ADD SLT PUSH2 0x1306 JUMPI PUSH1 0x0 DUP1 REVERT JUMPDEST DUP2 CALLDATALOAD PUSH1 0x20 PUSH8 0xFFFFFFFFFFFFFFFF DUP1 DUP4 GT ISZERO PUSH2 0x1323 JUMPI PUSH2 0x1323 PUSH2 0x12DF JUMP JUMPDEST DUP3 PUSH1 0x5 SHL PUSH1 0x40 MLOAD PUSH1 0x1F NOT PUSH1 0x3F DUP4 ADD AND DUP2 ADD DUP2 DUP2 LT DUP5 DUP3 GT OR ISZERO PUSH2 0x1348 JUMPI PUSH2 0x1348 PUSH2 0x12DF JUMP JUMPDEST PUSH1 0x40 MSTORE SWAP4 DUP5 MSTORE DUP6 DUP2 ADD DUP4 ADD SWAP4 DUP4 DUP2 ADD SWAP3 POP DUP8 DUP6 GT ISZERO PUSH2 0x1366 JUMPI PUSH1 0x0 DUP1 REVERT JUMPDEST DUP4 DUP8 ADD SWAP2 POP JUMPDEST DUP5 DUP3 LT ISZERO PUSH2 0x1385 JUMPI DUP2 CALLDATALOAD DUP4 MSTORE SWAP2 DUP4 ADD SWAP2 SWAP1 DUP4 ADD SWAP1 PUSH2 0x136C JUMP JUMPDEST SWAP8 SWAP7 POP POP POP POP POP POP POP JUMP JUMPDEST PUSH1 0x0 DUP1 PUSH1 0x0 PUSH1 0x60 DUP5 DUP7 SUB SLT ISZERO PUSH2 0x13A5 JUMPI PUSH1 0x0 DUP1 REVERT JUMPDEST DUP4 CALLDATALOAD PUSH8 0xFFFFFFFFFFFFFFFF DUP1 DUP3 GT ISZERO PUSH2 0x13BD JUMPI PUSH1 0x0 DUP1 REVERT JUMPDEST PUSH2 0x13C9 DUP8 DUP4 DUP9 ADD PUSH2 0x12F5 JUMP JUMPDEST SWAP5 POP PUSH1 0x20 DUP7 ADD CALLDATALOAD SWAP2 POP DUP1 DUP3 GT ISZERO PUSH2 0x13DF JUMPI PUSH1 0x0 DUP1 REVERT JUMPDEST PUSH2 0x13EB DUP8 DUP4 DUP9 ADD PUSH2 0x12F5 JUMP JUMPDEST SWAP4 POP PUSH1 0x40 DUP7 ADD CALLDATALOAD SWAP2 POP DUP1 DUP3 GT ISZERO PUSH2 0x1401 JUMPI PUSH1 0x0 DUP1 REVERT JUMPDEST POP PUSH2 0x140E DUP7 DUP3 DUP8 ADD PUSH2 0x12F5 JUMP JUMPDEST SWAP2 POP POP SWAP3 POP SWAP3 POP SWAP3 JUMP JUMPDEST PUSH1 0x0 PUSH1 0x20 DUP3 DUP5 SUB SLT ISZERO PUSH2 0x142A JUMPI PUSH1 0x0 DUP1 REVERT JUMPDEST DUP2 CALLDATALOAD PUSH1 0x1 PUSH1 0x1 PUSH1 0xA0 SHL SUB DUP2 AND DUP2 EQ PUSH2 0x8B5 JUMPI PUSH1 0x0 DUP1 REVERT JUMPDEST PUSH1 0x0 PUSH1 0x20 DUP3 DUP5 SUB SLT ISZERO PUSH2 0x1453 JUMPI PUSH1 0x0 DUP1 REVERT JUMPDEST DUP2 CALLDATALOAD PUSH8 0xFFFFFFFFFFFFFFFF DUP2 GT ISZERO PUSH2 0x146A JUMPI PUSH1 0x0 DUP1 REVERT JUMPDEST PUSH2 0x1476 DUP5 DUP3 DUP6 ADD PUSH2 0x12F5 JUMP JUMPDEST SWAP5 SWAP4 POP POP POP POP JUMP JUMPDEST PUSH4 0x4E487B71 PUSH1 0xE0 SHL PUSH1 0x0 MSTORE PUSH1 0x32 PUSH1 0x4 MSTORE PUSH1 0x24 PUSH1 0x0 REVERT JUMPDEST PUSH4 0x4E487B71 PUSH1 0xE0 SHL PUSH1 0x0 MSTORE PUSH1 0x11 PUSH1 0x4 MSTORE PUSH1 0x24 PUSH1 0x0 REVERT JUMPDEST DUP2 DUP2 SUB DUP2 DUP2 GT ISZERO PUSH2 0x10B9 JUMPI PUSH2 0x10B9 PUSH2 0x1494 JUMP JUMPDEST PUSH4 0x4E487B71 PUSH1 0xE0 SHL PUSH1 0x0 MSTORE PUSH1 0x12 PUSH1 0x4 MSTORE PUSH1 0x24 PUSH1 0x0 REVERT JUMPDEST PUSH1 0x0 DUP3 PUSH2 0x14E2 JUMPI PUSH2 0x14E2 PUSH2 0x14BD JUMP JUMPDEST POP DIV SWAP1 JUMP JUMPDEST DUP1 DUP3 ADD DUP1 DUP3 GT ISZERO PUSH2 0x10B9 JUMPI PUSH2 0x10B9 PUSH2 0x1494 JUMP JUMPDEST PUSH1 0x0 PUSH1 0x1 DUP3 ADD PUSH2 0x150C JUMPI PUSH2 0x150C PUSH2 0x1494 JUMP JUMPDEST POP PUSH1 0x1 ADD SWAP1 JUMP JUMPDEST PUSH1 0x0 DUP3 PUSH2 0x1522 JUMPI PUSH2 0x1522 PUSH2 0x14BD JUMP JUMPDEST POP MOD SWAP1 JUMP JUMPDEST DUP1 DUP3 MUL DUP2 ISZERO DUP3 DUP3 DIV DUP5 EQ OR PUSH2 0x10B9 JUMPI PUSH2 0x10B9 PUSH2 0x1494 JUMP INVALID LOG2 PUSH5 0x6970667358 0x22 SLT KECCAK256 0xC8 0xBA XOR 0xED 0x4E 0xB9 0xED JUMPI SDIV PUSH6 0x842153508330 PUSH2 0x47BD JUMP SWAP8 0xBE CALLCODE 0xF7 0x1F SWAP11 PREVRANDAO 0x5C CREATE2 TIMESTAMP DUP11 DUP15 PUSH5 0x736F6C6343 STOP ADDMOD SGT STOP CALLER "},"methodIdentifiers":{"_owner()":"b2bdfa7b","owner()":"8da5cb5b","transferOwnership(address)":"f2fde38b","validateInputs(uint256[])":"f7a60ef0","verificationCalculation(uint256[],uint256[],uint256[])":"976ee2a5","verify(uint256[],uint256[],uint256[])":"87d9d023"}}}}}