{"contracts/EscrowShield.sol":{"EscrowShield":{"abi":[{"inputs":[{"internalType":"address","name":"erc20Address","type":"address"},{"internalType":"address","name":"verifierAddress","type":"address"},{"internalType":"uint256[][]","name":"vk","type":"uint256[][]"}],"stateMutability":"nonpayable","type":"constructor"},{"anonymous":false,"inputs":[{"indexed":false,"internalType":"uint256","name":"leafIndex","type":"uint256"},{"indexed":false,"internalType":"uint256","name":"leafValue","type":"uint256"},{"indexed":false,"internalType":"uint256","name":"root","type":"uint256"}],"name":"NewLeaf","type":"event"},{"anonymous":false,"inputs":[{"indexed":false,"internalType":"uint256","name":"minLeafIndex","type":"uint256"},{"indexed":false,"internalType":"uint256[]","name":"leafValues","type":"uint256[]"},{"indexed":false,"internalType":"uint256","name":"root","type":"uint256"}],"name":"NewLeaves","type":"event"},{"inputs":[{"internalType":"uint256","name":"in_x","type":"uint256"},{"internalType":"uint256","name":"in_k","type":"uint256"}],"name":"Encipher","outputs":[{"internalType":"uint256","name":"out_x","type":"uint256"}],"stateMutability":"pure","type":"function"},{"inputs":[{"internalType":"uint256[]","name":"in_msgs","type":"uint256[]"},{"internalType":"uint256","name":"in_key","type":"uint256"}],"name":"Hash","outputs":[{"internalType":"uint256","name":"","type":"uint256"}],"stateMutability":"pure","type":"function"},{"inputs":[],"name":"Initial_NullifierRoot","outputs":[{"internalType":"uint256","name":"","type":"uint256"}],"stateMutability":"view","type":"function"},{"inputs":[{"internalType":"uint256","name":"","type":"uint256"}],"name":"commitmentRoots","outputs":[{"internalType":"uint256","name":"","type":"uint256"}],"stateMutability":"view","type":"function"},{"inputs":[{"internalType":"uint256","name":"amount","type":"uint256"},{"internalType":"uint256[]","name":"newCommitments","type":"uint256[]"},{"internalType":"uint256[]","name":"proof","type":"uint256[]"}],"name":"deposit","outputs":[],"stateMutability":"nonpayable","type":"function"},{"inputs":[],"name":"erc20","outputs":[{"internalType":"contract IERC20","name":"","type":"address"}],"stateMutability":"view","type":"function"},{"inputs":[{"internalType":"uint256","name":"","type":"uint256"}],"name":"frontier","outputs":[{"internalType":"uint256","name":"","type":"uint256"}],"stateMutability":"view","type":"function"},{"inputs":[{"internalType":"uint256","name":"leafIndex","type":"uint256"}],"name":"getFrontierSlot","outputs":[{"internalType":"uint256","name":"slot","type":"uint256"}],"stateMutability":"pure","type":"function"},{"inputs":[{"internalType":"uint256","name":"leafValue","type":"uint256"}],"name":"insertLeaf","outputs":[{"internalType":"uint256","name":"root","type":"uint256"}],"stateMutability":"nonpayable","type":"function"},{"inputs":[{"internalType":"uint256[]","name":"leafValues","type":"uint256[]"}],"name":"insertLeaves","outputs":[{"internalType":"uint256","name":"root","type":"uint256"}],"stateMutability":"nonpayable","type":"function"},{"inputs":[{"internalType":"uint256","name":"nullifierRoot","type":"uint256"},{"internalType":"uint256","name":"latestNullifierRoot","type":"uint256"},{"internalType":"uint256[]","name":"newNullifiers","type":"uint256[]"},{"internalType":"uint256","name":"commitmentRoot","type":"uint256"},{"internalType":"uint256[]","name":"newCommitments","type":"uint256[]"},{"internalType":"uint256[]","name":"proof","type":"uint256[]"}],"name":"joinCommitments","outputs":[],"stateMutability":"nonpayable","type":"function"},{"inputs":[],"name":"latestRoot","outputs":[{"internalType":"uint256","name":"","type":"uint256"}],"stateMutability":"view","type":"function"},{"inputs":[],"name":"leafCount","outputs":[{"internalType":"uint256","name":"","type":"uint256"}],"stateMutability":"view","type":"function"},{"inputs":[{"internalType":"uint256[]","name":"in_msgs","type":"uint256[]"}],"name":"mimcHash","outputs":[{"internalType":"uint256","name":"","type":"uint256"}],"stateMutability":"pure","type":"function"},{"inputs":[],"name":"newNullifierRoot","outputs":[{"internalType":"uint256","name":"","type":"uint256"}],"stateMutability":"view","type":"function"},{"inputs":[{"internalType":"uint256","name":"pk","type":"uint256"}],"name":"registerZKPPublicKey","outputs":[],"stateMutability":"nonpayable","type":"function"},{"inputs":[{"internalType":"uint256","name":"nullifierRoot","type":"uint256"},{"internalType":"uint256","name":"latestNullifierRoot","type":"uint256"},{"internalType":"uint256[]","name":"newNullifiers","type":"uint256[]"},{"internalType":"uint256","name":"commitmentRoot","type":"uint256"},{"internalType":"uint256[]","name":"newCommitments","type":"uint256[]"},{"internalType":"uint256[]","name":"proof","type":"uint256[]"}],"name":"splitCommitments","outputs":[],"stateMutability":"nonpayable","type":"function"},{"inputs":[{"internalType":"uint256","name":"nullifierRoot","type":"uint256"},{"internalType":"uint256","name":"latestNullifierRoot","type":"uint256"},{"internalType":"uint256[]","name":"newNullifiers","type":"uint256[]"},{"internalType":"uint256","name":"commitmentRoot","type":"uint256"},{"internalType":"uint256[]","name":"newCommitments","type":"uint256[]"},{"internalType":"uint256[]","name":"proof","type":"uint256[]"}],"name":"transfer","outputs":[],"stateMutability":"nonpayable","type":"function"},{"inputs":[],"name":"treeHeight","outputs":[{"internalType":"uint256","name":"","type":"uint256"}],"stateMutability":"view","type":"function"},{"inputs":[],"name":"treeWidth","outputs":[{"internalType":"uint256","name":"","type":"uint256"}],"stateMutability":"view","type":"function"},{"inputs":[{"internalType":"uint256","name":"","type":"uint256"},{"internalType":"uint256","name":"","type":"uint256"}],"name":"vks","outputs":[{"internalType":"uint256","name":"","type":"uint256"}],"stateMutability":"view","type":"function"},{"inputs":[{"internalType":"uint256","name":"amount","type":"uint256"},{"internalType":"uint256","name":"nullifierRoot","type":"uint256"},{"internalType":"uint256","name":"latestNullifierRoot","type":"uint256"},{"internalType":"uint256[]","name":"newNullifiers","type":"uint256[]"},{"internalType":"uint256","name":"commitmentRoot","type":"uint256"},{"internalType":"uint256[]","name":"newCommitments","type":"uint256[]"},{"internalType":"uint256[]","name":"proof","type":"uint256[]"}],"name":"withdraw","outputs":[],"stateMutability":"nonpayable","type":"function"},{"inputs":[],"name":"zero","outputs":[{"internalType":"uint256","name":"","type":"uint256"}],"stateMutability":"view","type":"function"},{"inputs":[{"internalType":"address","name":"","type":"address"}],"name":"zkpPublicKeys","outputs":[{"internalType":"uint256","name":"","type":"uint256"}],"stateMutability":"view","type":"function"}],"evm":{"bytecode":{"linkReferences":{},"object":"608060405260008055602060018190556200001c9060026200029b565b6002553480156200002c57600080fd5b50604051620029b7380380620029b78339810160408190526200004f916200033c565b602580546001600160a01b0319166001600160a01b03841617905560005b8151811015620000d2578181815181106200008c576200008c62000482565b6020026020010151602660008381526020019081526020016000209080519060200190620000bc9291906200011f565b5080620000c98162000498565b9150506200006d565b50507f2f68a1c58e257e42a17a6c61dff5551ed560b9922ab119d5ac8e184c9734ead960275550602b80546001600160a01b0319166001600160a01b0392909216919091179055620004b4565b8280548282559060005260206000209081019282156200015d579160200282015b828111156200015d57825182559160200191906001019062000140565b506200016b9291506200016f565b5090565b5b808211156200016b576000815560010162000170565b634e487b7160e01b600052601160045260246000fd5b600181815b80851115620001dd578160001904821115620001c157620001c162000186565b80851615620001cf57918102915b93841c9390800290620001a1565b509250929050565b600082620001f65750600162000295565b81620002055750600062000295565b81600181146200021e5760028114620002295762000249565b600191505062000295565b60ff8411156200023d576200023d62000186565b50506001821b62000295565b5060208310610133831016604e8410600b84101617156200026e575081810a62000295565b6200027a83836200019c565b806000190482111562000291576200029162000186565b0290505b92915050565b6000620002a98383620001e5565b9392505050565b80516001600160a01b0381168114620002c857600080fd5b919050565b634e487b7160e01b600052604160045260246000fd5b604051601f8201601f191681016001600160401b03811182821017156200030e576200030e620002cd565b604052919050565b60006001600160401b03821115620003325762000332620002cd565b5060051b60200190565b6000806000606084860312156200035257600080fd5b6200035d84620002b0565b925060206200036e818601620002b0565b60408601519093506001600160401b03808211156200038c57600080fd5b818701915087601f830112620003a157600080fd5b8151620003b8620003b28262000316565b620002e3565b81815260059190911b8301840190848101908a831115620003d857600080fd5b8585015b838110156200047157805185811115620003f65760008081fd5b8601603f81018d13620004095760008081fd5b878101516200041c620003b28262000316565b81815260059190911b820160400190898101908f8311156200043e5760008081fd5b6040840193505b82841015620004605783518252928a0192908a019062000445565b8652505050918601918601620003dc565b508096505050505050509250925092565b634e487b7160e01b600052603260045260246000fd5b600060018201620004ad57620004ad62000186565b5060010190565b6124f380620004c46000396000f3fe608060405234801561001057600080fd5b50600436106101585760003560e01c806396d8d820116100c3578063b74b47811161007c578063b74b4781146102e6578063b74c3148146102f9578063bc1b392d14610319578063cae8510d14610322578063d0ca582114610335578063d7b0fef11461034857600080fd5b806396d8d8201461025a57806397f3e0111461026d5780639e886d751461028d578063a8f4324e146102a0578063b6a1b7f6146102b3578063b7202434146102d357600080fd5b806330e69fc31161011557806330e69fc3146101ee57806343f44023146101f75780636e0c3fee1461020a57806376c601b11461021d578063785e9e86146102265780639636b3fd1461025157600080fd5b806301e3e9151461015d578063036c79551461017957806305bb4c401461018e5780630fa16e38146101b5578063176764b5146101c85780632a3a8183146101db575b600080fd5b61016660015481565b6040519081526020015b60405180910390f35b61018c610187366004611f10565b610351565b005b6101667f2f68a1c58e257e42a17a6c61dff5551ed560b9922ab119d5ac8e184c9734ead981565b6101666101c336600461203b565b6104cf565b6101666101d6366004612080565b610519565b6101666101e93660046120b5565b610a52565b61016660035481565b61018c6102053660046120ce565b610ac7565b6101666102183660046120b5565b610bdb565b61016660025481565b602b54610239906001600160a01b031681565b6040516001600160a01b039091168152602001610170565b61016660275481565b610166610268366004612187565b610bf2565b61018c61027b3660046120b5565b336000908152602a6020526040902055565b61018c61029b3660046120ce565b610c32565b6101666102ae366004612187565b610d3a565b6101666102c13660046120b5565b60286020526000908152604090205481565b6101666102e13660046120b5565b610d6b565b61018c6102f43660046121a9565b611018565b61016661030736600461226c565b602a6020526000908152604090205481565b61016660005481565b610166610330366004612080565b61120f565b61018c6103433660046120ce565b61121c565b61016660295481565b602b546040516323b872dd60e01b8152336004820152306024820152604481018790526000916001600160a01b0316906323b872dd906064016020604051808303816000875af11580156103a9573d6000803e3d6000fd5b505050506040513d601f19601f820116820180604052508101906103cd919061229c565b90506001811515146103de57600080fd5b6103e6611e8e565b604080516002808252606082018352909160208301908036833750505060a08201819052805188919060009061041e5761041e6122be565b60200260200101818152505060018160a00151600181518110610443576104436122be565b602002602001018181525050858580806020026020016040519081016040528093929190818152602001838360200280828437600092019190915250505050608082015260408051602080860282810182019093528582526104c692879187918291850190849080828437600092018290525092506104c0915050565b83611324565b50505050505050565b604051636d696d6360e01b6020820181905260009161050f90859085906024016040516020818303038152906040528051906020012060001c605b611d50565b9150505b92915050565b600080825190506003546002541161054c5760405162461bcd60e51b8152600401610543906122d4565b60405180910390fd5b60035460025461055c919061232d565b8111156105bb576000600354600254610575919061232d565b61057f908361232d565b905060005b818110156105a65784516000190185528061059e81612340565b915050610584565b506003546002546105b7919061232d565b9150505b6040805160028082526060820183526000928392839283928392919060208301908036833750506040805160018082528183019092529293506000929150602080830190803683375050600354919250505b8760035461061b9190612359565b81101561084d578960035482610631919061232d565b81518110610641576106416122be565b6020026020010151935060016002548261065b9190612359565b610665919061232d565b955061067081610a52565b96508660000361069557836004886021811061068e5761068e6122be565b015561083b565b60015b878111610823576106aa600288612382565b6000036107775760046106be60018361232d565b602181106106ce576106ce6122be565b0154846000815181106106e3576106e36122be565b6020026020010181815250508484600181518110610703576107036122be565b6020026020010181815250506107188461120f565b8360008151811061072b5761072b6122be565b6020026020010181815250508260008151811061074a5761074a6122be565b602002602001015194508695506002600188610766919061232d565b6107709190612396565b9650610811565b848460008151811061078b5761078b6122be565b602002602001018181525050600054846001815181106107ad576107ad6122be565b6020026020010181815250506107c28461120f565b836000815181106107d5576107d56122be565b602002602001018181525050826000815181106107f4576107f46122be565b6020026020010151945086955060028761080e9190612396565b96505b8061081b81612340565b915050610698565b508360048860218110610838576108386122be565b01555b8061084581612340565b91505061060d565b50600061085b876001612359565b90505b60015481116109eb57610872600287612382565b60000361093f57600461088660018361232d565b60218110610896576108966122be565b0154836000815181106108ab576108ab6122be565b60200260200101818152505083836001815181106108cb576108cb6122be565b6020026020010181815250506108e08361120f565b826000815181106108f3576108f36122be565b60200260200101818152505081600081518110610912576109126122be565b60200260200101519350859450600260018761092e919061232d565b6109389190612396565b95506109d9565b8383600081518110610953576109536122be565b60200260200101818152505060005483600181518110610975576109756122be565b60200260200101818152505061098a8361120f565b8260008151811061099d5761099d6122be565b602002602001018181525050816000815181106109bc576109bc6122be565b602002602001015193508594506002866109d69190612396565b95505b806109e381612340565b91505061085e565b5060035460405193985088937f39623a9bbcaf7943af164a1aee0fd809f7101d4d8c7727239dace363779587db91610a26918c9087906123e5565b60405180910390a18660036000828254610a409190612359565b90915550979998505050505050505050565b6000610a5f600283612382565b600103610ac2576001600260045b83600003610abe578082610a82876001612359565b610a8c919061232d565b610a969190612382565b600003610aa557829350610a6d565b9050600181901b82610ab681612340565b935050610a6d565b5050505b919050565b610acf611e8e565b604080516001808252818301909252906020808301908036833750505060a08201819052805160019190600090610b0857610b086122be565b6020908102919091018101919091528a82528181018a9052604080518983028181018401909252898152918a918a9182919085019084908082843760009201919091525050505060408083019190915260608201879052805160208087028281018201909352868252909187918791829185019084908082843760009201919091525050505060808201526040805160208085028281018201909352848252610bcf92869186918291850190849080828437600092019190915250600192506104c0915050565b50505050505050505050565b60048160218110610beb57600080fd5b0154905081565b604051636d696d6360e01b6020820181905260009161050f90859085906024016040516020818303038152906040528051906020012060001c605b611e08565b610c3a611e8e565b604080516001808252818301909252906020808301908036833750505060a08201819052805160019190600090610c7357610c736122be565b6020908102919091018101919091528a82528181018a9052604080518983028181018401909252898152918a918a9182919085019084908082843760009201919091525050505060408083019190915260608201879052805160208087028281018201909352868252909187918791829185019084908082843760009201919091525050505060808201526040805160208085028281018201909352848252610bcf92869186918291850190849080828437600092019190915250600492506104c0915050565b60266020528160005260406000208181548110610d5657600080fd5b90600052602060002001600091509150505481565b600060035460025411610d905760405162461bcd60e51b8152600401610543906122d4565b6000610d9d600354610a52565b905060006001600254600354610db39190612359565b610dbd919061232d565b604080516002808252606082018352929350600092879284929190602083019080368337505060408051600180825281830190925292935060009291506020808301908036833701905050905060005b600154811015610faf57868103610e35578360048860218110610e3257610e326122be565b01555b610e40600287612382565b600003610f035760048160218110610e5a57610e5a6122be565b015483600081518110610e6f57610e6f6122be565b6020026020010181815250508383600181518110610e8f57610e8f6122be565b602002602001018181525050610ea48361120f565b82600081518110610eb757610eb76122be565b60200260200101818152505081600081518110610ed657610ed66122be565b602002602001015193508594506002600187610ef2919061232d565b610efc9190612396565b9550610f9d565b8383600081518110610f1757610f176122be565b60200260200101818152505060005483600181518110610f3957610f396122be565b602002602001018181525050610f4e8361120f565b82600081518110610f6157610f616122be565b60200260200101818152505081600081518110610f8057610f806122be565b60200260200101519350859450600286610f9a9190612396565b95505b80610fa781612340565b915050610e0d565b5060035460408051918252602082018a9052810184905292965086927f522933b35bbca3f00d1a1ae17c09663f9286c4d868dc335a0ca99a970bc087849060600160405180910390a16003805490600061100883612340565b9190505550505050505050919050565b602b5460405163a9059cbb60e01b8152336004820152602481018c90526000916001600160a01b03169063a9059cbb906044016020604051808303816000875af115801561106a573d6000803e3d6000fd5b505050506040513d601f19601f8201168201806040525081019061108e919061229c565b9050806110d55760405162461bcd60e51b8152602060048201526015602482015274115490cc8c081d1c985b9cd9995c8819985a5b1959605a1b6044820152606401610543565b6110dd611e8e565b604080516002808252606082018352909160208301908036833750505060a0820181905280518d9190600090611115576111156122be565b60200260200101818152505060018160a0015160018151811061113a5761113a6122be565b6020908102919091018101919091528b82528181018b9052604080518a830281810184019092528a8152918b918b918291908501908490808284376000920191909152505050506040808301919091526060820188905280516020808802828101820190935287825290918891889182918501908490808284376000920191909152505050506080820152604080516020808602828101820190935285825261120192879187918291850190849080828437600092019190915250600292506104c0915050565b505050505050505050505050565b60006105138260006104cf565b611224611e8e565b604080516001808252818301909252906020808301908036833750505060a0820181905280516001919060009061125d5761125d6122be565b6020908102919091018101919091528a82528181018a9052604080518983028181018401909252898152918a918a9182919085019084908082843760009201919091525050505060408083019190915260608201879052805160208087028281018201909352868252909187918791829185019084908082843760009201919091525050505060808201526040805160208085028281018201909352848252610bcf92869186918291850190849080828437600092019190915250600392506104c0915050565b60a08101516040808301516080840151606085015160008181526028602052939093205491929091146113a55760405162461bcd60e51b8152602060048201526024808201527f496e70757420636f6d6d69746d656e74526f6f7420646f6573206e6f7420657860448201526334b9ba1760e11b6064820152608401610543565b6000815160008451116113b95760006113bc565b60035b60ff16845186516113cd9190612359565b6113d79190612359565b6113e19190612359565b67ffffffffffffffff8111156113f9576113f9611f8a565b604051908082528060200260200182016040528015611422578160200160208202803683370190505b509050856114e25760008460008151811061143f5761143f6122be565b602002602001015182828061145390612340565b935081518110611465576114656122be565b60200260200101818152505082600081518110611484576114846122be565b602002602001015182828061149890612340565b9350815181106114aa576114aa6122be565b6020908102919091010152600182826114c281612340565b9350815181106114d4576114d46122be565b602002602001018181525050505b600186036116d65784516027546000911461150f5760405162461bcd60e51b81526004016105439061240e565b8551828261151c81612340565b93508151811061152e5761152e6122be565b602002602001018181525050856020015182828061154b90612340565b93508151811061155d5761155d6122be565b6020026020010181815250508360008151811061157c5761157c6122be565b602002602001015182828061159090612340565b9350815181106115a2576115a26122be565b602002602001018181525050836001815181106115c1576115c16122be565b60200260200101518282806115d590612340565b9350815181106115e7576115e76122be565b60209081029190910101526060860151828261160281612340565b935081518110611614576116146122be565b60200260200101818152505082600081518110611633576116336122be565b602002602001015182828061164790612340565b935081518110611659576116596122be565b60200260200101818152505082600181518110611678576116786122be565b602002602001015182828061168c90612340565b93508151811061169e5761169e6122be565b6020908102919091010152600182826116b681612340565b9350815181106116c8576116c86122be565b602002602001018181525050505b600286036118c9578451602754600091146117035760405162461bcd60e51b81526004016105439061240e565b84600081518110611716576117166122be565b602002602001015182828061172a90612340565b93508151811061173c5761173c6122be565b60209081029190910101528551828261175481612340565b935081518110611766576117666122be565b602002602001018181525050856020015182828061178390612340565b935081518110611795576117956122be565b602002602001018181525050836000815181106117b4576117b46122be565b60200260200101518282806117c890612340565b9350815181106117da576117da6122be565b602002602001018181525050836001815181106117f9576117f96122be565b602002602001015182828061180d90612340565b93508151811061181f5761181f6122be565b60209081029190910101526060860151828261183a81612340565b93508151811061184c5761184c6122be565b6020026020010181815250508260008151811061186b5761186b6122be565b602002602001015182828061187f90612340565b935081518110611891576118916122be565b6020908102919091010152600182826118a981612340565b9350815181106118bb576118bb6122be565b602002602001018181525050505b60038603611a78578451602754146118f35760405162461bcd60e51b81526004016105439061240e565b8451600090828261190381612340565b935081518110611915576119156122be565b602002602001018181525050856020015182828061193290612340565b935081518110611944576119446122be565b60200260200101818152505083600081518110611963576119636122be565b602002602001015182828061197790612340565b935081518110611989576119896122be565b602002602001018181525050836001815181106119a8576119a86122be565b60200260200101518282806119bc90612340565b9350815181106119ce576119ce6122be565b6020908102919091010152606086015182826119e981612340565b9350815181106119fb576119fb6122be565b60200260200101818152505082600081518110611a1a57611a1a6122be565b6020026020010151828280611a2e90612340565b935081518110611a4057611a406122be565b602090810291909101015260018282611a5881612340565b935081518110611a6a57611a6a6122be565b602002602001018181525050505b60048603611c2757845160275414611aa25760405162461bcd60e51b81526004016105439061240e565b84516000908282611ab281612340565b935081518110611ac457611ac46122be565b6020026020010181815250508560200151828280611ae190612340565b935081518110611af357611af36122be565b60200260200101818152505083600081518110611b1257611b126122be565b6020026020010151828280611b2690612340565b935081518110611b3857611b386122be565b602090810291909101015260608601518282611b5381612340565b935081518110611b6557611b656122be565b60200260200101818152505082600081518110611b8457611b846122be565b6020026020010151828280611b9890612340565b935081518110611baa57611baa6122be565b60200260200101818152505082600181518110611bc957611bc96122be565b6020026020010151828280611bdd90612340565b935081518110611bef57611bef6122be565b602090810291909101015260018282611c0781612340565b935081518110611c1957611c196122be565b602002602001018181525050505b60255460008781526026602052604080822090516387d9d02360e01b815291926001600160a01b0316916387d9d02391611c67918c918791600401612451565b6020604051808303816000875af1158015611c86573d6000803e3d6000fd5b505050506040513d601f19601f82011682018060405250810190611caa919061229c565b905080611d115760405162461bcd60e51b815260206004820152602f60248201527f5468652070726f6f6620686173206e6f74206265656e2076657269666965642060448201526e189e481d1a194818dbdb9d1c9858dd608a1b6064820152608401610543565b825115611d3657611d2183610519565b60298190556000818152602860205260409020555b835115611d465760208601516027555b5050505050505050565b6000837f30644e72e131a029b85045b68181585d2833e84879b9709143e1f593f0000001825b8751811015611dfc5781611da5898381518110611d9557611d956122be565b6020026020010151858989611e08565b838a8481518110611db857611db86122be565b6020026020010151611dca9190612382565b611dd49086612359565b611dde9190612359565b611de89190612382565b925080611df481612340565b915050611d76565b50909695505050505050565b60006001821015611e1857600080fd5b604051602081016040528381527f30644e72e131a029b85045b68181585d2833e84879b9709143e1f593f0000001600080855b8015611e7c5760208520855283898587518d0808925083838409915083838586858609850909995060001901611e4b565b50505080868808979650505050505050565b6040518060c001604052806000815260200160008152602001606081526020016000815260200160608152602001606081525090565b60008083601f840112611ed657600080fd5b50813567ffffffffffffffff811115611eee57600080fd5b6020830191508360208260051b8501011115611f0957600080fd5b9250929050565b600080600080600060608688031215611f2857600080fd5b85359450602086013567ffffffffffffffff80821115611f4757600080fd5b611f5389838a01611ec4565b90965094506040880135915080821115611f6c57600080fd5b50611f7988828901611ec4565b969995985093965092949392505050565b634e487b7160e01b600052604160045260246000fd5b600082601f830112611fb157600080fd5b8135602067ffffffffffffffff80831115611fce57611fce611f8a565b8260051b604051601f19603f83011681018181108482111715611ff357611ff3611f8a565b60405293845285810183019383810192508785111561201157600080fd5b83870191505b8482101561203057813583529183019190830190612017565b979650505050505050565b6000806040838503121561204e57600080fd5b823567ffffffffffffffff81111561206557600080fd5b61207185828601611fa0565b95602094909401359450505050565b60006020828403121561209257600080fd5b813567ffffffffffffffff8111156120a957600080fd5b61050f84828501611fa0565b6000602082840312156120c757600080fd5b5035919050565b600080600080600080600080600060c08a8c0312156120ec57600080fd5b8935985060208a0135975060408a013567ffffffffffffffff8082111561211257600080fd5b61211e8d838e01611ec4565b909950975060608c0135965060808c013591508082111561213e57600080fd5b61214a8d838e01611ec4565b909650945060a08c013591508082111561216357600080fd5b506121708c828d01611ec4565b915080935050809150509295985092959850929598565b6000806040838503121561219a57600080fd5b50508035926020909101359150565b60008060008060008060008060008060e08b8d0312156121c857600080fd5b8a35995060208b0135985060408b0135975060608b013567ffffffffffffffff808211156121f557600080fd5b6122018e838f01611ec4565b909950975060808d0135965060a08d013591508082111561222157600080fd5b61222d8e838f01611ec4565b909650945060c08d013591508082111561224657600080fd5b506122538d828e01611ec4565b915080935050809150509295989b9194979a5092959850565b60006020828403121561227e57600080fd5b81356001600160a01b038116811461229557600080fd5b9392505050565b6000602082840312156122ae57600080fd5b8151801515811461229557600080fd5b634e487b7160e01b600052603260045260246000fd5b60208082526023908201527f5468657265206973206e6f207370616365206c65667420696e2074686520747260408201526232b29760e91b606082015260800190565b634e487b7160e01b600052601160045260246000fd5b8181038181111561051357610513612317565b60006001820161235257612352612317565b5060010190565b8082018082111561051357610513612317565b634e487b7160e01b600052601260045260246000fd5b6000826123915761239161236c565b500690565b6000826123a5576123a561236c565b500490565b600081518084526020808501945080840160005b838110156123da578151875295820195908201906001016123be565b509495945050505050565b8381526060602082015260006123fe60608301856123aa565b9050826040830152949350505050565b60208082526023908201527f496e707574204e756c6c6966696572526f6f7420646f6573206e6f742065786960408201526239ba1760e91b606082015260800190565b60608152600061246460608301866123aa565b60208382038185015261247782876123aa565b8481036040860152855480825260008781528381209450918301915b818110156124af57845483526001948501949284019201612493565b50909897505050505050505056fea26469706673582212204f33bd02a583eaf51da7611565765f46b80ae44f1e35025ba426f907c715dbdc64736f6c63430008130033","opcodes":"PUSH1 0x80 PUSH1 0x40 MSTORE PUSH1 0x0 DUP1 SSTORE PUSH1 0x20 PUSH1 0x1 DUP2 SWAP1 SSTORE PUSH3 0x1C SWAP1 PUSH1 0x2 PUSH3 0x29B JUMP JUMPDEST PUSH1 0x2 SSTORE CALLVALUE DUP1 ISZERO PUSH3 0x2C JUMPI PUSH1 0x0 DUP1 REVERT JUMPDEST POP PUSH1 0x40 MLOAD PUSH3 0x29B7 CODESIZE SUB DUP1 PUSH3 0x29B7 DUP4 CODECOPY DUP2 ADD PUSH1 0x40 DUP2 SWAP1 MSTORE PUSH3 0x4F SWAP2 PUSH3 0x33C JUMP JUMPDEST PUSH1 0x25 DUP1 SLOAD PUSH1 0x1 PUSH1 0x1 PUSH1 0xA0 SHL SUB NOT AND PUSH1 0x1 PUSH1 0x1 PUSH1 0xA0 SHL SUB DUP5 AND OR SWAP1 SSTORE PUSH1 0x0 JUMPDEST DUP2 MLOAD DUP2 LT ISZERO PUSH3 0xD2 JUMPI DUP2 DUP2 DUP2 MLOAD DUP2 LT PUSH3 0x8C JUMPI PUSH3 0x8C PUSH3 0x482 JUMP JUMPDEST PUSH1 0x20 MUL PUSH1 0x20 ADD ADD MLOAD PUSH1 0x26 PUSH1 0x0 DUP4 DUP2 MSTORE PUSH1 0x20 ADD SWAP1 DUP2 MSTORE PUSH1 0x20 ADD PUSH1 0x0 KECCAK256 SWAP1 DUP1 MLOAD SWAP1 PUSH1 0x20 ADD SWAP1 PUSH3 0xBC SWAP3 SWAP2 SWAP1 PUSH3 0x11F JUMP JUMPDEST POP DUP1 PUSH3 0xC9 DUP2 PUSH3 0x498 JUMP JUMPDEST SWAP2 POP POP PUSH3 0x6D JUMP JUMPDEST POP POP PUSH32 0x2F68A1C58E257E42A17A6C61DFF5551ED560B9922AB119D5AC8E184C9734EAD9 PUSH1 0x27 SSTORE POP PUSH1 0x2B DUP1 SLOAD PUSH1 0x1 PUSH1 0x1 PUSH1 0xA0 SHL SUB NOT AND PUSH1 0x1 PUSH1 0x1 PUSH1 0xA0 SHL SUB SWAP3 SWAP1 SWAP3 AND SWAP2 SWAP1 SWAP2 OR SWAP1 SSTORE PUSH3 0x4B4 JUMP JUMPDEST DUP3 DUP1 SLOAD DUP3 DUP3 SSTORE SWAP1 PUSH1 0x0 MSTORE PUSH1 0x20 PUSH1 0x0 KECCAK256 SWAP1 DUP2 ADD SWAP3 DUP3 ISZERO PUSH3 0x15D JUMPI SWAP2 PUSH1 0x20 MUL DUP3 ADD JUMPDEST DUP3 DUP2 GT ISZERO PUSH3 0x15D JUMPI DUP3 MLOAD DUP3 SSTORE SWAP2 PUSH1 0x20 ADD SWAP2 SWAP1 PUSH1 0x1 ADD SWAP1 PUSH3 0x140 JUMP JUMPDEST POP PUSH3 0x16B SWAP3 SWAP2 POP PUSH3 0x16F JUMP JUMPDEST POP SWAP1 JUMP JUMPDEST JUMPDEST DUP1 DUP3 GT ISZERO PUSH3 0x16B JUMPI PUSH1 0x0 DUP2 SSTORE PUSH1 0x1 ADD PUSH3 0x170 JUMP JUMPDEST PUSH4 0x4E487B71 PUSH1 0xE0 SHL PUSH1 0x0 MSTORE PUSH1 0x11 PUSH1 0x4 MSTORE PUSH1 0x24 PUSH1 0x0 REVERT JUMPDEST PUSH1 0x1 DUP2 DUP2 JUMPDEST DUP1 DUP6 GT ISZERO PUSH3 0x1DD JUMPI DUP2 PUSH1 0x0 NOT DIV DUP3 GT ISZERO PUSH3 0x1C1 JUMPI PUSH3 0x1C1 PUSH3 0x186 JUMP JUMPDEST DUP1 DUP6 AND ISZERO PUSH3 0x1CF JUMPI SWAP2 DUP2 MUL SWAP2 JUMPDEST SWAP4 DUP5 SHR SWAP4 SWAP1 DUP1 MUL SWAP1 PUSH3 0x1A1 JUMP JUMPDEST POP SWAP3 POP SWAP3 SWAP1 POP JUMP JUMPDEST PUSH1 0x0 DUP3 PUSH3 0x1F6 JUMPI POP PUSH1 0x1 PUSH3 0x295 JUMP JUMPDEST DUP2 PUSH3 0x205 JUMPI POP PUSH1 0x0 PUSH3 0x295 JUMP JUMPDEST DUP2 PUSH1 0x1 DUP2 EQ PUSH3 0x21E JUMPI PUSH1 0x2 DUP2 EQ PUSH3 0x229 JUMPI PUSH3 0x249 JUMP JUMPDEST PUSH1 0x1 SWAP2 POP POP PUSH3 0x295 JUMP JUMPDEST PUSH1 0xFF DUP5 GT ISZERO PUSH3 0x23D JUMPI PUSH3 0x23D PUSH3 0x186 JUMP JUMPDEST POP POP PUSH1 0x1 DUP3 SHL PUSH3 0x295 JUMP JUMPDEST POP PUSH1 0x20 DUP4 LT PUSH2 0x133 DUP4 LT AND PUSH1 0x4E DUP5 LT PUSH1 0xB DUP5 LT AND OR ISZERO PUSH3 0x26E JUMPI POP DUP2 DUP2 EXP PUSH3 0x295 JUMP JUMPDEST PUSH3 0x27A DUP4 DUP4 PUSH3 0x19C JUMP JUMPDEST DUP1 PUSH1 0x0 NOT DIV DUP3 GT ISZERO PUSH3 0x291 JUMPI PUSH3 0x291 PUSH3 0x186 JUMP JUMPDEST MUL SWAP1 POP JUMPDEST SWAP3 SWAP2 POP POP JUMP JUMPDEST PUSH1 0x0 PUSH3 0x2A9 DUP4 DUP4 PUSH3 0x1E5 JUMP JUMPDEST SWAP4 SWAP3 POP POP POP JUMP JUMPDEST DUP1 MLOAD PUSH1 0x1 PUSH1 0x1 PUSH1 0xA0 SHL SUB DUP2 AND DUP2 EQ PUSH3 0x2C8 JUMPI PUSH1 0x0 DUP1 REVERT JUMPDEST SWAP2 SWAP1 POP JUMP JUMPDEST PUSH4 0x4E487B71 PUSH1 0xE0 SHL PUSH1 0x0 MSTORE PUSH1 0x41 PUSH1 0x4 MSTORE PUSH1 0x24 PUSH1 0x0 REVERT JUMPDEST PUSH1 0x40 MLOAD PUSH1 0x1F DUP3 ADD PUSH1 0x1F NOT AND DUP2 ADD PUSH1 0x1 PUSH1 0x1 PUSH1 0x40 SHL SUB DUP2 GT DUP3 DUP3 LT OR ISZERO PUSH3 0x30E JUMPI PUSH3 0x30E PUSH3 0x2CD JUMP JUMPDEST PUSH1 0x40 MSTORE SWAP2 SWAP1 POP JUMP JUMPDEST PUSH1 0x0 PUSH1 0x1 PUSH1 0x1 PUSH1 0x40 SHL SUB DUP3 GT ISZERO PUSH3 0x332 JUMPI PUSH3 0x332 PUSH3 0x2CD JUMP JUMPDEST POP PUSH1 0x5 SHL PUSH1 0x20 ADD SWAP1 JUMP JUMPDEST PUSH1 0x0 DUP1 PUSH1 0x0 PUSH1 0x60 DUP5 DUP7 SUB SLT ISZERO PUSH3 0x352 JUMPI PUSH1 0x0 DUP1 REVERT JUMPDEST PUSH3 0x35D DUP5 PUSH3 0x2B0 JUMP JUMPDEST SWAP3 POP PUSH1 0x20 PUSH3 0x36E DUP2 DUP7 ADD PUSH3 0x2B0 JUMP JUMPDEST PUSH1 0x40 DUP7 ADD MLOAD SWAP1 SWAP4 POP PUSH1 0x1 PUSH1 0x1 PUSH1 0x40 SHL SUB DUP1 DUP3 GT ISZERO PUSH3 0x38C JUMPI PUSH1 0x0 DUP1 REVERT JUMPDEST DUP2 DUP8 ADD SWAP2 POP DUP8 PUSH1 0x1F DUP4 ADD SLT PUSH3 0x3A1 JUMPI PUSH1 0x0 DUP1 REVERT JUMPDEST DUP2 MLOAD PUSH3 0x3B8 PUSH3 0x3B2 DUP3 PUSH3 0x316 JUMP JUMPDEST PUSH3 0x2E3 JUMP JUMPDEST DUP2 DUP2 MSTORE PUSH1 0x5 SWAP2 SWAP1 SWAP2 SHL DUP4 ADD DUP5 ADD SWAP1 DUP5 DUP2 ADD SWAP1 DUP11 DUP4 GT ISZERO PUSH3 0x3D8 JUMPI PUSH1 0x0 DUP1 REVERT JUMPDEST DUP6 DUP6 ADD JUMPDEST DUP4 DUP2 LT ISZERO PUSH3 0x471 JUMPI DUP1 MLOAD DUP6 DUP2 GT ISZERO PUSH3 0x3F6 JUMPI PUSH1 0x0 DUP1 DUP2 REVERT JUMPDEST DUP7 ADD PUSH1 0x3F DUP2 ADD DUP14 SGT PUSH3 0x409 JUMPI PUSH1 0x0 DUP1 DUP2 REVERT JUMPDEST DUP8 DUP2 ADD MLOAD PUSH3 0x41C PUSH3 0x3B2 DUP3 PUSH3 0x316 JUMP JUMPDEST DUP2 DUP2 MSTORE PUSH1 0x5 SWAP2 SWAP1 SWAP2 SHL DUP3 ADD PUSH1 0x40 ADD SWAP1 DUP10 DUP2 ADD SWAP1 DUP16 DUP4 GT ISZERO PUSH3 0x43E JUMPI PUSH1 0x0 DUP1 DUP2 REVERT JUMPDEST PUSH1 0x40 DUP5 ADD SWAP4 POP JUMPDEST DUP3 DUP5 LT ISZERO PUSH3 0x460 JUMPI DUP4 MLOAD DUP3 MSTORE SWAP3 DUP11 ADD SWAP3 SWAP1 DUP11 ADD SWAP1 PUSH3 0x445 JUMP JUMPDEST DUP7 MSTORE POP POP POP SWAP2 DUP7 ADD SWAP2 DUP7 ADD PUSH3 0x3DC JUMP JUMPDEST POP DUP1 SWAP7 POP POP POP POP POP POP POP SWAP3 POP SWAP3 POP SWAP3 JUMP JUMPDEST PUSH4 0x4E487B71 PUSH1 0xE0 SHL PUSH1 0x0 MSTORE PUSH1 0x32 PUSH1 0x4 MSTORE PUSH1 0x24 PUSH1 0x0 REVERT JUMPDEST PUSH1 0x0 PUSH1 0x1 DUP3 ADD PUSH3 0x4AD JUMPI PUSH3 0x4AD PUSH3 0x186 JUMP JUMPDEST POP PUSH1 0x1 ADD SWAP1 JUMP JUMPDEST PUSH2 0x24F3 DUP1 PUSH3 0x4C4 PUSH1 0x0 CODECOPY PUSH1 0x0 RETURN INVALID PUSH1 0x80 PUSH1 0x40 MSTORE CALLVALUE DUP1 ISZERO PUSH2 0x10 JUMPI PUSH1 0x0 DUP1 REVERT JUMPDEST POP PUSH1 0x4 CALLDATASIZE LT PUSH2 0x158 JUMPI PUSH1 0x0 CALLDATALOAD PUSH1 0xE0 SHR DUP1 PUSH4 0x96D8D820 GT PUSH2 0xC3 JUMPI DUP1 PUSH4 0xB74B4781 GT PUSH2 0x7C JUMPI DUP1 PUSH4 0xB74B4781 EQ PUSH2 0x2E6 JUMPI DUP1 PUSH4 0xB74C3148 EQ PUSH2 0x2F9 JUMPI DUP1 PUSH4 0xBC1B392D EQ PUSH2 0x319 JUMPI DUP1 PUSH4 0xCAE8510D EQ PUSH2 0x322 JUMPI DUP1 PUSH4 0xD0CA5821 EQ PUSH2 0x335 JUMPI DUP1 PUSH4 0xD7B0FEF1 EQ PUSH2 0x348 JUMPI PUSH1 0x0 DUP1 REVERT JUMPDEST DUP1 PUSH4 0x96D8D820 EQ PUSH2 0x25A JUMPI DUP1 PUSH4 0x97F3E011 EQ PUSH2 0x26D JUMPI DUP1 PUSH4 0x9E886D75 EQ PUSH2 0x28D JUMPI DUP1 PUSH4 0xA8F4324E EQ PUSH2 0x2A0 JUMPI DUP1 PUSH4 0xB6A1B7F6 EQ PUSH2 0x2B3 JUMPI DUP1 PUSH4 0xB7202434 EQ PUSH2 0x2D3 JUMPI PUSH1 0x0 DUP1 REVERT JUMPDEST DUP1 PUSH4 0x30E69FC3 GT PUSH2 0x115 JUMPI DUP1 PUSH4 0x30E69FC3 EQ PUSH2 0x1EE JUMPI DUP1 PUSH4 0x43F44023 EQ PUSH2 0x1F7 JUMPI DUP1 PUSH4 0x6E0C3FEE EQ PUSH2 0x20A JUMPI DUP1 PUSH4 0x76C601B1 EQ PUSH2 0x21D JUMPI DUP1 PUSH4 0x785E9E86 EQ PUSH2 0x226 JUMPI DUP1 PUSH4 0x9636B3FD EQ PUSH2 0x251 JUMPI PUSH1 0x0 DUP1 REVERT JUMPDEST DUP1 PUSH4 0x1E3E915 EQ PUSH2 0x15D JUMPI DUP1 PUSH4 0x36C7955 EQ PUSH2 0x179 JUMPI DUP1 PUSH4 0x5BB4C40 EQ PUSH2 0x18E JUMPI DUP1 PUSH4 0xFA16E38 EQ PUSH2 0x1B5 JUMPI DUP1 PUSH4 0x176764B5 EQ PUSH2 0x1C8 JUMPI DUP1 PUSH4 0x2A3A8183 EQ PUSH2 0x1DB JUMPI JUMPDEST PUSH1 0x0 DUP1 REVERT JUMPDEST PUSH2 0x166 PUSH1 0x1 SLOAD DUP2 JUMP JUMPDEST PUSH1 0x40 MLOAD SWAP1 DUP2 MSTORE PUSH1 0x20 ADD JUMPDEST PUSH1 0x40 MLOAD DUP1 SWAP2 SUB SWAP1 RETURN JUMPDEST PUSH2 0x18C PUSH2 0x187 CALLDATASIZE PUSH1 0x4 PUSH2 0x1F10 JUMP JUMPDEST PUSH2 0x351 JUMP JUMPDEST STOP JUMPDEST PUSH2 0x166 PUSH32 0x2F68A1C58E257E42A17A6C61DFF5551ED560B9922AB119D5AC8E184C9734EAD9 DUP2 JUMP JUMPDEST PUSH2 0x166 PUSH2 0x1C3 CALLDATASIZE PUSH1 0x4 PUSH2 0x203B JUMP JUMPDEST PUSH2 0x4CF JUMP JUMPDEST PUSH2 0x166 PUSH2 0x1D6 CALLDATASIZE PUSH1 0x4 PUSH2 0x2080 JUMP JUMPDEST PUSH2 0x519 JUMP JUMPDEST PUSH2 0x166 PUSH2 0x1E9 CALLDATASIZE PUSH1 0x4 PUSH2 0x20B5 JUMP JUMPDEST PUSH2 0xA52 JUMP JUMPDEST PUSH2 0x166 PUSH1 0x3 SLOAD DUP2 JUMP JUMPDEST PUSH2 0x18C PUSH2 0x205 CALLDATASIZE PUSH1 0x4 PUSH2 0x20CE JUMP JUMPDEST PUSH2 0xAC7 JUMP JUMPDEST PUSH2 0x166 PUSH2 0x218 CALLDATASIZE PUSH1 0x4 PUSH2 0x20B5 JUMP JUMPDEST PUSH2 0xBDB JUMP JUMPDEST PUSH2 0x166 PUSH1 0x2 SLOAD DUP2 JUMP JUMPDEST PUSH1 0x2B SLOAD PUSH2 0x239 SWAP1 PUSH1 0x1 PUSH1 0x1 PUSH1 0xA0 SHL SUB AND DUP2 JUMP JUMPDEST PUSH1 0x40 MLOAD PUSH1 0x1 PUSH1 0x1 PUSH1 0xA0 SHL SUB SWAP1 SWAP2 AND DUP2 MSTORE PUSH1 0x20 ADD PUSH2 0x170 JUMP JUMPDEST PUSH2 0x166 PUSH1 0x27 SLOAD DUP2 JUMP JUMPDEST PUSH2 0x166 PUSH2 0x268 CALLDATASIZE PUSH1 0x4 PUSH2 0x2187 JUMP JUMPDEST PUSH2 0xBF2 JUMP JUMPDEST PUSH2 0x18C PUSH2 0x27B CALLDATASIZE PUSH1 0x4 PUSH2 0x20B5 JUMP JUMPDEST CALLER PUSH1 0x0 SWAP1 DUP2 MSTORE PUSH1 0x2A PUSH1 0x20 MSTORE PUSH1 0x40 SWAP1 KECCAK256 SSTORE JUMP JUMPDEST PUSH2 0x18C PUSH2 0x29B CALLDATASIZE PUSH1 0x4 PUSH2 0x20CE JUMP JUMPDEST PUSH2 0xC32 JUMP JUMPDEST PUSH2 0x166 PUSH2 0x2AE CALLDATASIZE PUSH1 0x4 PUSH2 0x2187 JUMP JUMPDEST PUSH2 0xD3A JUMP JUMPDEST PUSH2 0x166 PUSH2 0x2C1 CALLDATASIZE PUSH1 0x4 PUSH2 0x20B5 JUMP JUMPDEST PUSH1 0x28 PUSH1 0x20 MSTORE PUSH1 0x0 SWAP1 DUP2 MSTORE PUSH1 0x40 SWAP1 KECCAK256 SLOAD DUP2 JUMP JUMPDEST PUSH2 0x166 PUSH2 0x2E1 CALLDATASIZE PUSH1 0x4 PUSH2 0x20B5 JUMP JUMPDEST PUSH2 0xD6B JUMP JUMPDEST PUSH2 0x18C PUSH2 0x2F4 CALLDATASIZE PUSH1 0x4 PUSH2 0x21A9 JUMP JUMPDEST PUSH2 0x1018 JUMP JUMPDEST PUSH2 0x166 PUSH2 0x307 CALLDATASIZE PUSH1 0x4 PUSH2 0x226C JUMP JUMPDEST PUSH1 0x2A PUSH1 0x20 MSTORE PUSH1 0x0 SWAP1 DUP2 MSTORE PUSH1 0x40 SWAP1 KECCAK256 SLOAD DUP2 JUMP JUMPDEST PUSH2 0x166 PUSH1 0x0 SLOAD DUP2 JUMP JUMPDEST PUSH2 0x166 PUSH2 0x330 CALLDATASIZE PUSH1 0x4 PUSH2 0x2080 JUMP JUMPDEST PUSH2 0x120F JUMP JUMPDEST PUSH2 0x18C PUSH2 0x343 CALLDATASIZE PUSH1 0x4 PUSH2 0x20CE JUMP JUMPDEST PUSH2 0x121C JUMP JUMPDEST PUSH2 0x166 PUSH1 0x29 SLOAD DUP2 JUMP JUMPDEST PUSH1 0x2B SLOAD PUSH1 0x40 MLOAD PUSH4 0x23B872DD PUSH1 0xE0 SHL DUP2 MSTORE CALLER PUSH1 0x4 DUP3 ADD MSTORE ADDRESS PUSH1 0x24 DUP3 ADD MSTORE PUSH1 0x44 DUP2 ADD DUP8 SWAP1 MSTORE PUSH1 0x0 SWAP2 PUSH1 0x1 PUSH1 0x1 PUSH1 0xA0 SHL SUB AND SWAP1 PUSH4 0x23B872DD SWAP1 PUSH1 0x64 ADD PUSH1 0x20 PUSH1 0x40 MLOAD DUP1 DUP4 SUB DUP2 PUSH1 0x0 DUP8 GAS CALL ISZERO DUP1 ISZERO PUSH2 0x3A9 JUMPI RETURNDATASIZE PUSH1 0x0 DUP1 RETURNDATACOPY RETURNDATASIZE PUSH1 0x0 REVERT JUMPDEST POP POP POP POP PUSH1 0x40 MLOAD RETURNDATASIZE PUSH1 0x1F NOT PUSH1 0x1F DUP3 ADD AND DUP3 ADD DUP1 PUSH1 0x40 MSTORE POP DUP2 ADD SWAP1 PUSH2 0x3CD SWAP2 SWAP1 PUSH2 0x229C JUMP JUMPDEST SWAP1 POP PUSH1 0x1 DUP2 ISZERO ISZERO EQ PUSH2 0x3DE JUMPI PUSH1 0x0 DUP1 REVERT JUMPDEST PUSH2 0x3E6 PUSH2 0x1E8E JUMP JUMPDEST PUSH1 0x40 DUP1 MLOAD PUSH1 0x2 DUP1 DUP3 MSTORE PUSH1 0x60 DUP3 ADD DUP4 MSTORE SWAP1 SWAP2 PUSH1 0x20 DUP4 ADD SWAP1 DUP1 CALLDATASIZE DUP4 CALLDATACOPY POP POP POP PUSH1 0xA0 DUP3 ADD DUP2 SWAP1 MSTORE DUP1 MLOAD DUP9 SWAP2 SWAP1 PUSH1 0x0 SWAP1 PUSH2 0x41E JUMPI PUSH2 0x41E PUSH2 0x22BE JUMP JUMPDEST PUSH1 0x20 MUL PUSH1 0x20 ADD ADD DUP2 DUP2 MSTORE POP POP PUSH1 0x1 DUP2 PUSH1 0xA0 ADD MLOAD PUSH1 0x1 DUP2 MLOAD DUP2 LT PUSH2 0x443 JUMPI PUSH2 0x443 PUSH2 0x22BE JUMP JUMPDEST PUSH1 0x20 MUL PUSH1 0x20 ADD ADD DUP2 DUP2 MSTORE POP POP DUP6 DUP6 DUP1 DUP1 PUSH1 0x20 MUL PUSH1 0x20 ADD PUSH1 0x40 MLOAD SWAP1 DUP2 ADD PUSH1 0x40 MSTORE DUP1 SWAP4 SWAP3 SWAP2 SWAP1 DUP2 DUP2 MSTORE PUSH1 0x20 ADD DUP4 DUP4 PUSH1 0x20 MUL DUP1 DUP3 DUP5 CALLDATACOPY PUSH1 0x0 SWAP3 ADD SWAP2 SWAP1 SWAP2 MSTORE POP POP POP POP PUSH1 0x80 DUP3 ADD MSTORE PUSH1 0x40 DUP1 MLOAD PUSH1 0x20 DUP1 DUP7 MUL DUP3 DUP2 ADD DUP3 ADD SWAP1 SWAP4 MSTORE DUP6 DUP3 MSTORE PUSH2 0x4C6 SWAP3 DUP8 SWAP2 DUP8 SWAP2 DUP3 SWAP2 DUP6 ADD SWAP1 DUP5 SWAP1 DUP1 DUP3 DUP5 CALLDATACOPY PUSH1 0x0 SWAP3 ADD DUP3 SWAP1 MSTORE POP SWAP3 POP PUSH2 0x4C0 SWAP2 POP POP JUMP JUMPDEST DUP4 PUSH2 0x1324 JUMP JUMPDEST POP POP POP POP POP POP POP JUMP JUMPDEST PUSH1 0x40 MLOAD PUSH4 0x6D696D63 PUSH1 0xE0 SHL PUSH1 0x20 DUP3 ADD DUP2 SWAP1 MSTORE PUSH1 0x0 SWAP2 PUSH2 0x50F SWAP1 DUP6 SWAP1 DUP6 SWAP1 PUSH1 0x24 ADD PUSH1 0x40 MLOAD PUSH1 0x20 DUP2 DUP4 SUB SUB DUP2 MSTORE SWAP1 PUSH1 0x40 MSTORE DUP1 MLOAD SWAP1 PUSH1 0x20 ADD KECCAK256 PUSH1 0x0 SHR PUSH1 0x5B PUSH2 0x1D50 JUMP JUMPDEST SWAP2 POP POP JUMPDEST SWAP3 SWAP2 POP POP JUMP JUMPDEST PUSH1 0x0 DUP1 DUP3 MLOAD SWAP1 POP PUSH1 0x3 SLOAD PUSH1 0x2 SLOAD GT PUSH2 0x54C JUMPI PUSH1 0x40 MLOAD PUSH3 0x461BCD PUSH1 0xE5 SHL DUP2 MSTORE PUSH1 0x4 ADD PUSH2 0x543 SWAP1 PUSH2 0x22D4 JUMP JUMPDEST PUSH1 0x40 MLOAD DUP1 SWAP2 SUB SWAP1 REVERT JUMPDEST PUSH1 0x3 SLOAD PUSH1 0x2 SLOAD PUSH2 0x55C SWAP2 SWAP1 PUSH2 0x232D JUMP JUMPDEST DUP2 GT ISZERO PUSH2 0x5BB JUMPI PUSH1 0x0 PUSH1 0x3 SLOAD PUSH1 0x2 SLOAD PUSH2 0x575 SWAP2 SWAP1 PUSH2 0x232D JUMP JUMPDEST PUSH2 0x57F SWAP1 DUP4 PUSH2 0x232D JUMP JUMPDEST SWAP1 POP PUSH1 0x0 JUMPDEST DUP2 DUP2 LT ISZERO PUSH2 0x5A6 JUMPI DUP5 MLOAD PUSH1 0x0 NOT ADD DUP6 MSTORE DUP1 PUSH2 0x59E DUP2 PUSH2 0x2340 JUMP JUMPDEST SWAP2 POP POP PUSH2 0x584 JUMP JUMPDEST POP PUSH1 0x3 SLOAD PUSH1 0x2 SLOAD PUSH2 0x5B7 SWAP2 SWAP1 PUSH2 0x232D JUMP JUMPDEST SWAP2 POP POP JUMPDEST PUSH1 0x40 DUP1 MLOAD PUSH1 0x2 DUP1 DUP3 MSTORE PUSH1 0x60 DUP3 ADD DUP4 MSTORE PUSH1 0x0 SWAP3 DUP4 SWAP3 DUP4 SWAP3 DUP4 SWAP3 DUP4 SWAP3 SWAP2 SWAP1 PUSH1 0x20 DUP4 ADD SWAP1 DUP1 CALLDATASIZE DUP4 CALLDATACOPY POP POP PUSH1 0x40 DUP1 MLOAD PUSH1 0x1 DUP1 DUP3 MSTORE DUP2 DUP4 ADD SWAP1 SWAP3 MSTORE SWAP3 SWAP4 POP PUSH1 0x0 SWAP3 SWAP2 POP PUSH1 0x20 DUP1 DUP4 ADD SWAP1 DUP1 CALLDATASIZE DUP4 CALLDATACOPY POP POP PUSH1 0x3 SLOAD SWAP2 SWAP3 POP POP JUMPDEST DUP8 PUSH1 0x3 SLOAD PUSH2 0x61B SWAP2 SWAP1 PUSH2 0x2359 JUMP JUMPDEST DUP2 LT ISZERO PUSH2 0x84D JUMPI DUP10 PUSH1 0x3 SLOAD DUP3 PUSH2 0x631 SWAP2 SWAP1 PUSH2 0x232D JUMP JUMPDEST DUP2 MLOAD DUP2 LT PUSH2 0x641 JUMPI PUSH2 0x641 PUSH2 0x22BE JUMP JUMPDEST PUSH1 0x20 MUL PUSH1 0x20 ADD ADD MLOAD SWAP4 POP PUSH1 0x1 PUSH1 0x2 SLOAD DUP3 PUSH2 0x65B SWAP2 SWAP1 PUSH2 0x2359 JUMP JUMPDEST PUSH2 0x665 SWAP2 SWAP1 PUSH2 0x232D JUMP JUMPDEST SWAP6 POP PUSH2 0x670 DUP2 PUSH2 0xA52 JUMP JUMPDEST SWAP7 POP DUP7 PUSH1 0x0 SUB PUSH2 0x695 JUMPI DUP4 PUSH1 0x4 DUP9 PUSH1 0x21 DUP2 LT PUSH2 0x68E JUMPI PUSH2 0x68E PUSH2 0x22BE JUMP JUMPDEST ADD SSTORE PUSH2 0x83B JUMP JUMPDEST PUSH1 0x1 JUMPDEST DUP8 DUP2 GT PUSH2 0x823 JUMPI PUSH2 0x6AA PUSH1 0x2 DUP9 PUSH2 0x2382 JUMP JUMPDEST PUSH1 0x0 SUB PUSH2 0x777 JUMPI PUSH1 0x4 PUSH2 0x6BE PUSH1 0x1 DUP4 PUSH2 0x232D JUMP JUMPDEST PUSH1 0x21 DUP2 LT PUSH2 0x6CE JUMPI PUSH2 0x6CE PUSH2 0x22BE JUMP JUMPDEST ADD SLOAD DUP5 PUSH1 0x0 DUP2 MLOAD DUP2 LT PUSH2 0x6E3 JUMPI PUSH2 0x6E3 PUSH2 0x22BE JUMP JUMPDEST PUSH1 0x20 MUL PUSH1 0x20 ADD ADD DUP2 DUP2 MSTORE POP POP DUP5 DUP5 PUSH1 0x1 DUP2 MLOAD DUP2 LT PUSH2 0x703 JUMPI PUSH2 0x703 PUSH2 0x22BE JUMP JUMPDEST PUSH1 0x20 MUL PUSH1 0x20 ADD ADD DUP2 DUP2 MSTORE POP POP PUSH2 0x718 DUP5 PUSH2 0x120F JUMP JUMPDEST DUP4 PUSH1 0x0 DUP2 MLOAD DUP2 LT PUSH2 0x72B JUMPI PUSH2 0x72B PUSH2 0x22BE JUMP JUMPDEST PUSH1 0x20 MUL PUSH1 0x20 ADD ADD DUP2 DUP2 MSTORE POP POP DUP3 PUSH1 0x0 DUP2 MLOAD DUP2 LT PUSH2 0x74A JUMPI PUSH2 0x74A PUSH2 0x22BE JUMP JUMPDEST PUSH1 0x20 MUL PUSH1 0x20 ADD ADD MLOAD SWAP5 POP DUP7 SWAP6 POP PUSH1 0x2 PUSH1 0x1 DUP9 PUSH2 0x766 SWAP2 SWAP1 PUSH2 0x232D JUMP JUMPDEST PUSH2 0x770 SWAP2 SWAP1 PUSH2 0x2396 JUMP JUMPDEST SWAP7 POP PUSH2 0x811 JUMP JUMPDEST DUP5 DUP5 PUSH1 0x0 DUP2 MLOAD DUP2 LT PUSH2 0x78B JUMPI PUSH2 0x78B PUSH2 0x22BE JUMP JUMPDEST PUSH1 0x20 MUL PUSH1 0x20 ADD ADD DUP2 DUP2 MSTORE POP POP PUSH1 0x0 SLOAD DUP5 PUSH1 0x1 DUP2 MLOAD DUP2 LT PUSH2 0x7AD JUMPI PUSH2 0x7AD PUSH2 0x22BE JUMP JUMPDEST PUSH1 0x20 MUL PUSH1 0x20 ADD ADD DUP2 DUP2 MSTORE POP POP PUSH2 0x7C2 DUP5 PUSH2 0x120F JUMP JUMPDEST DUP4 PUSH1 0x0 DUP2 MLOAD DUP2 LT PUSH2 0x7D5 JUMPI PUSH2 0x7D5 PUSH2 0x22BE JUMP JUMPDEST PUSH1 0x20 MUL PUSH1 0x20 ADD ADD DUP2 DUP2 MSTORE POP POP DUP3 PUSH1 0x0 DUP2 MLOAD DUP2 LT PUSH2 0x7F4 JUMPI PUSH2 0x7F4 PUSH2 0x22BE JUMP JUMPDEST PUSH1 0x20 MUL PUSH1 0x20 ADD ADD MLOAD SWAP5 POP DUP7 SWAP6 POP PUSH1 0x2 DUP8 PUSH2 0x80E SWAP2 SWAP1 PUSH2 0x2396 JUMP JUMPDEST SWAP7 POP JUMPDEST DUP1 PUSH2 0x81B DUP2 PUSH2 0x2340 JUMP JUMPDEST SWAP2 POP POP PUSH2 0x698 JUMP JUMPDEST POP DUP4 PUSH1 0x4 DUP9 PUSH1 0x21 DUP2 LT PUSH2 0x838 JUMPI PUSH2 0x838 PUSH2 0x22BE JUMP JUMPDEST ADD SSTORE JUMPDEST DUP1 PUSH2 0x845 DUP2 PUSH2 0x2340 JUMP JUMPDEST SWAP2 POP POP PUSH2 0x60D JUMP JUMPDEST POP PUSH1 0x0 PUSH2 0x85B DUP8 PUSH1 0x1 PUSH2 0x2359 JUMP JUMPDEST SWAP1 POP JUMPDEST PUSH1 0x1 SLOAD DUP2 GT PUSH2 0x9EB JUMPI PUSH2 0x872 PUSH1 0x2 DUP8 PUSH2 0x2382 JUMP JUMPDEST PUSH1 0x0 SUB PUSH2 0x93F JUMPI PUSH1 0x4 PUSH2 0x886 PUSH1 0x1 DUP4 PUSH2 0x232D JUMP JUMPDEST PUSH1 0x21 DUP2 LT PUSH2 0x896 JUMPI PUSH2 0x896 PUSH2 0x22BE JUMP JUMPDEST ADD SLOAD DUP4 PUSH1 0x0 DUP2 MLOAD DUP2 LT PUSH2 0x8AB JUMPI PUSH2 0x8AB PUSH2 0x22BE JUMP JUMPDEST PUSH1 0x20 MUL PUSH1 0x20 ADD ADD DUP2 DUP2 MSTORE POP POP DUP4 DUP4 PUSH1 0x1 DUP2 MLOAD DUP2 LT PUSH2 0x8CB JUMPI PUSH2 0x8CB PUSH2 0x22BE JUMP JUMPDEST PUSH1 0x20 MUL PUSH1 0x20 ADD ADD DUP2 DUP2 MSTORE POP POP PUSH2 0x8E0 DUP4 PUSH2 0x120F JUMP JUMPDEST DUP3 PUSH1 0x0 DUP2 MLOAD DUP2 LT PUSH2 0x8F3 JUMPI PUSH2 0x8F3 PUSH2 0x22BE JUMP JUMPDEST PUSH1 0x20 MUL PUSH1 0x20 ADD ADD DUP2 DUP2 MSTORE POP POP DUP2 PUSH1 0x0 DUP2 MLOAD DUP2 LT PUSH2 0x912 JUMPI PUSH2 0x912 PUSH2 0x22BE JUMP JUMPDEST PUSH1 0x20 MUL PUSH1 0x20 ADD ADD MLOAD SWAP4 POP DUP6 SWAP5 POP PUSH1 0x2 PUSH1 0x1 DUP8 PUSH2 0x92E SWAP2 SWAP1 PUSH2 0x232D JUMP JUMPDEST PUSH2 0x938 SWAP2 SWAP1 PUSH2 0x2396 JUMP JUMPDEST SWAP6 POP PUSH2 0x9D9 JUMP JUMPDEST DUP4 DUP4 PUSH1 0x0 DUP2 MLOAD DUP2 LT PUSH2 0x953 JUMPI PUSH2 0x953 PUSH2 0x22BE JUMP JUMPDEST PUSH1 0x20 MUL PUSH1 0x20 ADD ADD DUP2 DUP2 MSTORE POP POP PUSH1 0x0 SLOAD DUP4 PUSH1 0x1 DUP2 MLOAD DUP2 LT PUSH2 0x975 JUMPI PUSH2 0x975 PUSH2 0x22BE JUMP JUMPDEST PUSH1 0x20 MUL PUSH1 0x20 ADD ADD DUP2 DUP2 MSTORE POP POP PUSH2 0x98A DUP4 PUSH2 0x120F JUMP JUMPDEST DUP3 PUSH1 0x0 DUP2 MLOAD DUP2 LT PUSH2 0x99D JUMPI PUSH2 0x99D PUSH2 0x22BE JUMP JUMPDEST PUSH1 0x20 MUL PUSH1 0x20 ADD ADD DUP2 DUP2 MSTORE POP POP DUP2 PUSH1 0x0 DUP2 MLOAD DUP2 LT PUSH2 0x9BC JUMPI PUSH2 0x9BC PUSH2 0x22BE JUMP JUMPDEST PUSH1 0x20 MUL PUSH1 0x20 ADD ADD MLOAD SWAP4 POP DUP6 SWAP5 POP PUSH1 0x2 DUP7 PUSH2 0x9D6 SWAP2 SWAP1 PUSH2 0x2396 JUMP JUMPDEST SWAP6 POP JUMPDEST DUP1 PUSH2 0x9E3 DUP2 PUSH2 0x2340 JUMP JUMPDEST SWAP2 POP POP PUSH2 0x85E JUMP JUMPDEST POP PUSH1 0x3 SLOAD PUSH1 0x40 MLOAD SWAP4 SWAP9 POP DUP9 SWAP4 PUSH32 0x39623A9BBCAF7943AF164A1AEE0FD809F7101D4D8C7727239DACE363779587DB SWAP2 PUSH2 0xA26 SWAP2 DUP13 SWAP1 DUP8 SWAP1 PUSH2 0x23E5 JUMP JUMPDEST PUSH1 0x40 MLOAD DUP1 SWAP2 SUB SWAP1 LOG1 DUP7 PUSH1 0x3 PUSH1 0x0 DUP3 DUP3 SLOAD PUSH2 0xA40 SWAP2 SWAP1 PUSH2 0x2359 JUMP JUMPDEST SWAP1 SWAP2 SSTORE POP SWAP8 SWAP10 SWAP9 POP POP POP POP POP POP POP POP POP JUMP JUMPDEST PUSH1 0x0 PUSH2 0xA5F PUSH1 0x2 DUP4 PUSH2 0x2382 JUMP JUMPDEST PUSH1 0x1 SUB PUSH2 0xAC2 JUMPI PUSH1 0x1 PUSH1 0x2 PUSH1 0x4 JUMPDEST DUP4 PUSH1 0x0 SUB PUSH2 0xABE JUMPI DUP1 DUP3 PUSH2 0xA82 DUP8 PUSH1 0x1 PUSH2 0x2359 JUMP JUMPDEST PUSH2 0xA8C SWAP2 SWAP1 PUSH2 0x232D JUMP JUMPDEST PUSH2 0xA96 SWAP2 SWAP1 PUSH2 0x2382 JUMP JUMPDEST PUSH1 0x0 SUB PUSH2 0xAA5 JUMPI DUP3 SWAP4 POP PUSH2 0xA6D JUMP JUMPDEST SWAP1 POP PUSH1 0x1 DUP2 SWAP1 SHL DUP3 PUSH2 0xAB6 DUP2 PUSH2 0x2340 JUMP JUMPDEST SWAP4 POP POP PUSH2 0xA6D JUMP JUMPDEST POP POP POP JUMPDEST SWAP2 SWAP1 POP JUMP JUMPDEST PUSH2 0xACF PUSH2 0x1E8E JUMP JUMPDEST PUSH1 0x40 DUP1 MLOAD PUSH1 0x1 DUP1 DUP3 MSTORE DUP2 DUP4 ADD SWAP1 SWAP3 MSTORE SWAP1 PUSH1 0x20 DUP1 DUP4 ADD SWAP1 DUP1 CALLDATASIZE DUP4 CALLDATACOPY POP POP POP PUSH1 0xA0 DUP3 ADD DUP2 SWAP1 MSTORE DUP1 MLOAD PUSH1 0x1 SWAP2 SWAP1 PUSH1 0x0 SWAP1 PUSH2 0xB08 JUMPI PUSH2 0xB08 PUSH2 0x22BE JUMP JUMPDEST PUSH1 0x20 SWAP1 DUP2 MUL SWAP2 SWAP1 SWAP2 ADD DUP2 ADD SWAP2 SWAP1 SWAP2 MSTORE DUP11 DUP3 MSTORE DUP2 DUP2 ADD DUP11 SWAP1 MSTORE PUSH1 0x40 DUP1 MLOAD DUP10 DUP4 MUL DUP2 DUP2 ADD DUP5 ADD SWAP1 SWAP3 MSTORE DUP10 DUP2 MSTORE SWAP2 DUP11 SWAP2 DUP11 SWAP2 DUP3 SWAP2 SWAP1 DUP6 ADD SWAP1 DUP5 SWAP1 DUP1 DUP3 DUP5 CALLDATACOPY PUSH1 0x0 SWAP3 ADD SWAP2 SWAP1 SWAP2 MSTORE POP POP POP POP PUSH1 0x40 DUP1 DUP4 ADD SWAP2 SWAP1 SWAP2 MSTORE PUSH1 0x60 DUP3 ADD DUP8 SWAP1 MSTORE DUP1 MLOAD PUSH1 0x20 DUP1 DUP8 MUL DUP3 DUP2 ADD DUP3 ADD SWAP1 SWAP4 MSTORE DUP7 DUP3 MSTORE SWAP1 SWAP2 DUP8 SWAP2 DUP8 SWAP2 DUP3 SWAP2 DUP6 ADD SWAP1 DUP5 SWAP1 DUP1 DUP3 DUP5 CALLDATACOPY PUSH1 0x0 SWAP3 ADD SWAP2 SWAP1 SWAP2 MSTORE POP POP POP POP PUSH1 0x80 DUP3 ADD MSTORE PUSH1 0x40 DUP1 MLOAD PUSH1 0x20 DUP1 DUP6 MUL DUP3 DUP2 ADD DUP3 ADD SWAP1 SWAP4 MSTORE DUP5 DUP3 MSTORE PUSH2 0xBCF SWAP3 DUP7 SWAP2 DUP7 SWAP2 DUP3 SWAP2 DUP6 ADD SWAP1 DUP5 SWAP1 DUP1 DUP3 DUP5 CALLDATACOPY PUSH1 0x0 SWAP3 ADD SWAP2 SWAP1 SWAP2 MSTORE POP PUSH1 0x1 SWAP3 POP PUSH2 0x4C0 SWAP2 POP POP JUMP JUMPDEST POP POP POP POP POP POP POP POP POP POP JUMP JUMPDEST PUSH1 0x4 DUP2 PUSH1 0x21 DUP2 LT PUSH2 0xBEB JUMPI PUSH1 0x0 DUP1 REVERT JUMPDEST ADD SLOAD SWAP1 POP DUP2 JUMP JUMPDEST PUSH1 0x40 MLOAD PUSH4 0x6D696D63 PUSH1 0xE0 SHL PUSH1 0x20 DUP3 ADD DUP2 SWAP1 MSTORE PUSH1 0x0 SWAP2 PUSH2 0x50F SWAP1 DUP6 SWAP1 DUP6 SWAP1 PUSH1 0x24 ADD PUSH1 0x40 MLOAD PUSH1 0x20 DUP2 DUP4 SUB SUB DUP2 MSTORE SWAP1 PUSH1 0x40 MSTORE DUP1 MLOAD SWAP1 PUSH1 0x20 ADD KECCAK256 PUSH1 0x0 SHR PUSH1 0x5B PUSH2 0x1E08 JUMP JUMPDEST PUSH2 0xC3A PUSH2 0x1E8E JUMP JUMPDEST PUSH1 0x40 DUP1 MLOAD PUSH1 0x1 DUP1 DUP3 MSTORE DUP2 DUP4 ADD SWAP1 SWAP3 MSTORE SWAP1 PUSH1 0x20 DUP1 DUP4 ADD SWAP1 DUP1 CALLDATASIZE DUP4 CALLDATACOPY POP POP POP PUSH1 0xA0 DUP3 ADD DUP2 SWAP1 MSTORE DUP1 MLOAD PUSH1 0x1 SWAP2 SWAP1 PUSH1 0x0 SWAP1 PUSH2 0xC73 JUMPI PUSH2 0xC73 PUSH2 0x22BE JUMP JUMPDEST PUSH1 0x20 SWAP1 DUP2 MUL SWAP2 SWAP1 SWAP2 ADD DUP2 ADD SWAP2 SWAP1 SWAP2 MSTORE DUP11 DUP3 MSTORE DUP2 DUP2 ADD DUP11 SWAP1 MSTORE PUSH1 0x40 DUP1 MLOAD DUP10 DUP4 MUL DUP2 DUP2 ADD DUP5 ADD SWAP1 SWAP3 MSTORE DUP10 DUP2 MSTORE SWAP2 DUP11 SWAP2 DUP11 SWAP2 DUP3 SWAP2 SWAP1 DUP6 ADD SWAP1 DUP5 SWAP1 DUP1 DUP3 DUP5 CALLDATACOPY PUSH1 0x0 SWAP3 ADD SWAP2 SWAP1 SWAP2 MSTORE POP POP POP POP PUSH1 0x40 DUP1 DUP4 ADD SWAP2 SWAP1 SWAP2 MSTORE PUSH1 0x60 DUP3 ADD DUP8 SWAP1 MSTORE DUP1 MLOAD PUSH1 0x20 DUP1 DUP8 MUL DUP3 DUP2 ADD DUP3 ADD SWAP1 SWAP4 MSTORE DUP7 DUP3 MSTORE SWAP1 SWAP2 DUP8 SWAP2 DUP8 SWAP2 DUP3 SWAP2 DUP6 ADD SWAP1 DUP5 SWAP1 DUP1 DUP3 DUP5 CALLDATACOPY PUSH1 0x0 SWAP3 ADD SWAP2 SWAP1 SWAP2 MSTORE POP POP POP POP PUSH1 0x80 DUP3 ADD MSTORE PUSH1 0x40 DUP1 MLOAD PUSH1 0x20 DUP1 DUP6 MUL DUP3 DUP2 ADD DUP3 ADD SWAP1 SWAP4 MSTORE DUP5 DUP3 MSTORE PUSH2 0xBCF SWAP3 DUP7 SWAP2 DUP7 SWAP2 DUP3 SWAP2 DUP6 ADD SWAP1 DUP5 SWAP1 DUP1 DUP3 DUP5 CALLDATACOPY PUSH1 0x0 SWAP3 ADD SWAP2 SWAP1 SWAP2 MSTORE POP PUSH1 0x4 SWAP3 POP PUSH2 0x4C0 SWAP2 POP POP JUMP JUMPDEST PUSH1 0x26 PUSH1 0x20 MSTORE DUP2 PUSH1 0x0 MSTORE PUSH1 0x40 PUSH1 0x0 KECCAK256 DUP2 DUP2 SLOAD DUP2 LT PUSH2 0xD56 JUMPI PUSH1 0x0 DUP1 REVERT JUMPDEST SWAP1 PUSH1 0x0 MSTORE PUSH1 0x20 PUSH1 0x0 KECCAK256 ADD PUSH1 0x0 SWAP2 POP SWAP2 POP POP SLOAD DUP2 JUMP JUMPDEST PUSH1 0x0 PUSH1 0x3 SLOAD PUSH1 0x2 SLOAD GT PUSH2 0xD90 JUMPI PUSH1 0x40 MLOAD PUSH3 0x461BCD PUSH1 0xE5 SHL DUP2 MSTORE PUSH1 0x4 ADD PUSH2 0x543 SWAP1 PUSH2 0x22D4 JUMP JUMPDEST PUSH1 0x0 PUSH2 0xD9D PUSH1 0x3 SLOAD PUSH2 0xA52 JUMP JUMPDEST SWAP1 POP PUSH1 0x0 PUSH1 0x1 PUSH1 0x2 SLOAD PUSH1 0x3 SLOAD PUSH2 0xDB3 SWAP2 SWAP1 PUSH2 0x2359 JUMP JUMPDEST PUSH2 0xDBD SWAP2 SWAP1 PUSH2 0x232D JUMP JUMPDEST PUSH1 0x40 DUP1 MLOAD PUSH1 0x2 DUP1 DUP3 MSTORE PUSH1 0x60 DUP3 ADD DUP4 MSTORE SWAP3 SWAP4 POP PUSH1 0x0 SWAP3 DUP8 SWAP3 DUP5 SWAP3 SWAP2 SWAP1 PUSH1 0x20 DUP4 ADD SWAP1 DUP1 CALLDATASIZE DUP4 CALLDATACOPY POP POP PUSH1 0x40 DUP1 MLOAD PUSH1 0x1 DUP1 DUP3 MSTORE DUP2 DUP4 ADD SWAP1 SWAP3 MSTORE SWAP3 SWAP4 POP PUSH1 0x0 SWAP3 SWAP2 POP PUSH1 0x20 DUP1 DUP4 ADD SWAP1 DUP1 CALLDATASIZE DUP4 CALLDATACOPY ADD SWAP1 POP POP SWAP1 POP PUSH1 0x0 JUMPDEST PUSH1 0x1 SLOAD DUP2 LT ISZERO PUSH2 0xFAF JUMPI DUP7 DUP2 SUB PUSH2 0xE35 JUMPI DUP4 PUSH1 0x4 DUP9 PUSH1 0x21 DUP2 LT PUSH2 0xE32 JUMPI PUSH2 0xE32 PUSH2 0x22BE JUMP JUMPDEST ADD SSTORE JUMPDEST PUSH2 0xE40 PUSH1 0x2 DUP8 PUSH2 0x2382 JUMP JUMPDEST PUSH1 0x0 SUB PUSH2 0xF03 JUMPI PUSH1 0x4 DUP2 PUSH1 0x21 DUP2 LT PUSH2 0xE5A JUMPI PUSH2 0xE5A PUSH2 0x22BE JUMP JUMPDEST ADD SLOAD DUP4 PUSH1 0x0 DUP2 MLOAD DUP2 LT PUSH2 0xE6F JUMPI PUSH2 0xE6F PUSH2 0x22BE JUMP JUMPDEST PUSH1 0x20 MUL PUSH1 0x20 ADD ADD DUP2 DUP2 MSTORE POP POP DUP4 DUP4 PUSH1 0x1 DUP2 MLOAD DUP2 LT PUSH2 0xE8F JUMPI PUSH2 0xE8F PUSH2 0x22BE JUMP JUMPDEST PUSH1 0x20 MUL PUSH1 0x20 ADD ADD DUP2 DUP2 MSTORE POP POP PUSH2 0xEA4 DUP4 PUSH2 0x120F JUMP JUMPDEST DUP3 PUSH1 0x0 DUP2 MLOAD DUP2 LT PUSH2 0xEB7 JUMPI PUSH2 0xEB7 PUSH2 0x22BE JUMP JUMPDEST PUSH1 0x20 MUL PUSH1 0x20 ADD ADD DUP2 DUP2 MSTORE POP POP DUP2 PUSH1 0x0 DUP2 MLOAD DUP2 LT PUSH2 0xED6 JUMPI PUSH2 0xED6 PUSH2 0x22BE JUMP JUMPDEST PUSH1 0x20 MUL PUSH1 0x20 ADD ADD MLOAD SWAP4 POP DUP6 SWAP5 POP PUSH1 0x2 PUSH1 0x1 DUP8 PUSH2 0xEF2 SWAP2 SWAP1 PUSH2 0x232D JUMP JUMPDEST PUSH2 0xEFC SWAP2 SWAP1 PUSH2 0x2396 JUMP JUMPDEST SWAP6 POP PUSH2 0xF9D JUMP JUMPDEST DUP4 DUP4 PUSH1 0x0 DUP2 MLOAD DUP2 LT PUSH2 0xF17 JUMPI PUSH2 0xF17 PUSH2 0x22BE JUMP JUMPDEST PUSH1 0x20 MUL PUSH1 0x20 ADD ADD DUP2 DUP2 MSTORE POP POP PUSH1 0x0 SLOAD DUP4 PUSH1 0x1 DUP2 MLOAD DUP2 LT PUSH2 0xF39 JUMPI PUSH2 0xF39 PUSH2 0x22BE JUMP JUMPDEST PUSH1 0x20 MUL PUSH1 0x20 ADD ADD DUP2 DUP2 MSTORE POP POP PUSH2 0xF4E DUP4 PUSH2 0x120F JUMP JUMPDEST DUP3 PUSH1 0x0 DUP2 MLOAD DUP2 LT PUSH2 0xF61 JUMPI PUSH2 0xF61 PUSH2 0x22BE JUMP JUMPDEST PUSH1 0x20 MUL PUSH1 0x20 ADD ADD DUP2 DUP2 MSTORE POP POP DUP2 PUSH1 0x0 DUP2 MLOAD DUP2 LT PUSH2 0xF80 JUMPI PUSH2 0xF80 PUSH2 0x22BE JUMP JUMPDEST PUSH1 0x20 MUL PUSH1 0x20 ADD ADD MLOAD SWAP4 POP DUP6 SWAP5 POP PUSH1 0x2 DUP7 PUSH2 0xF9A SWAP2 SWAP1 PUSH2 0x2396 JUMP JUMPDEST SWAP6 POP JUMPDEST DUP1 PUSH2 0xFA7 DUP2 PUSH2 0x2340 JUMP JUMPDEST SWAP2 POP POP PUSH2 0xE0D JUMP JUMPDEST POP PUSH1 0x3 SLOAD PUSH1 0x40 DUP1 MLOAD SWAP2 DUP3 MSTORE PUSH1 0x20 DUP3 ADD DUP11 SWAP1 MSTORE DUP2 ADD DUP5 SWAP1 MSTORE SWAP3 SWAP7 POP DUP7 SWAP3 PUSH32 0x522933B35BBCA3F00D1A1AE17C09663F9286C4D868DC335A0CA99A970BC08784 SWAP1 PUSH1 0x60 ADD PUSH1 0x40 MLOAD DUP1 SWAP2 SUB SWAP1 LOG1 PUSH1 0x3 DUP1 SLOAD SWAP1 PUSH1 0x0 PUSH2 0x1008 DUP4 PUSH2 0x2340 JUMP JUMPDEST SWAP2 SWAP1 POP SSTORE POP POP POP POP POP POP POP SWAP2 SWAP1 POP JUMP JUMPDEST PUSH1 0x2B SLOAD PUSH1 0x40 MLOAD PUSH4 0xA9059CBB PUSH1 0xE0 SHL DUP2 MSTORE CALLER PUSH1 0x4 DUP3 ADD MSTORE PUSH1 0x24 DUP2 ADD DUP13 SWAP1 MSTORE PUSH1 0x0 SWAP2 PUSH1 0x1 PUSH1 0x1 PUSH1 0xA0 SHL SUB AND SWAP1 PUSH4 0xA9059CBB SWAP1 PUSH1 0x44 ADD PUSH1 0x20 PUSH1 0x40 MLOAD DUP1 DUP4 SUB DUP2 PUSH1 0x0 DUP8 GAS CALL ISZERO DUP1 ISZERO PUSH2 0x106A JUMPI RETURNDATASIZE PUSH1 0x0 DUP1 RETURNDATACOPY RETURNDATASIZE PUSH1 0x0 REVERT JUMPDEST POP POP POP POP PUSH1 0x40 MLOAD RETURNDATASIZE PUSH1 0x1F NOT PUSH1 0x1F DUP3 ADD AND DUP3 ADD DUP1 PUSH1 0x40 MSTORE POP DUP2 ADD SWAP1 PUSH2 0x108E SWAP2 SWAP1 PUSH2 0x229C JUMP JUMPDEST SWAP1 POP DUP1 PUSH2 0x10D5 JUMPI PUSH1 0x40 MLOAD PUSH3 0x461BCD PUSH1 0xE5 SHL DUP2 MSTORE PUSH1 0x20 PUSH1 0x4 DUP3 ADD MSTORE PUSH1 0x15 PUSH1 0x24 DUP3 ADD MSTORE PUSH21 0x115490CC8C081D1C985B9CD9995C8819985A5B1959 PUSH1 0x5A SHL PUSH1 0x44 DUP3 ADD MSTORE PUSH1 0x64 ADD PUSH2 0x543 JUMP JUMPDEST PUSH2 0x10DD PUSH2 0x1E8E JUMP JUMPDEST PUSH1 0x40 DUP1 MLOAD PUSH1 0x2 DUP1 DUP3 MSTORE PUSH1 0x60 DUP3 ADD DUP4 MSTORE SWAP1 SWAP2 PUSH1 0x20 DUP4 ADD SWAP1 DUP1 CALLDATASIZE DUP4 CALLDATACOPY POP POP POP PUSH1 0xA0 DUP3 ADD DUP2 SWAP1 MSTORE DUP1 MLOAD DUP14 SWAP2 SWAP1 PUSH1 0x0 SWAP1 PUSH2 0x1115 JUMPI PUSH2 0x1115 PUSH2 0x22BE JUMP JUMPDEST PUSH1 0x20 MUL PUSH1 0x20 ADD ADD DUP2 DUP2 MSTORE POP POP PUSH1 0x1 DUP2 PUSH1 0xA0 ADD MLOAD PUSH1 0x1 DUP2 MLOAD DUP2 LT PUSH2 0x113A JUMPI PUSH2 0x113A PUSH2 0x22BE JUMP JUMPDEST PUSH1 0x20 SWAP1 DUP2 MUL SWAP2 SWAP1 SWAP2 ADD DUP2 ADD SWAP2 SWAP1 SWAP2 MSTORE DUP12 DUP3 MSTORE DUP2 DUP2 ADD DUP12 SWAP1 MSTORE PUSH1 0x40 DUP1 MLOAD DUP11 DUP4 MUL DUP2 DUP2 ADD DUP5 ADD SWAP1 SWAP3 MSTORE DUP11 DUP2 MSTORE SWAP2 DUP12 SWAP2 DUP12 SWAP2 DUP3 SWAP2 SWAP1 DUP6 ADD SWAP1 DUP5 SWAP1 DUP1 DUP3 DUP5 CALLDATACOPY PUSH1 0x0 SWAP3 ADD SWAP2 SWAP1 SWAP2 MSTORE POP POP POP POP PUSH1 0x40 DUP1 DUP4 ADD SWAP2 SWAP1 SWAP2 MSTORE PUSH1 0x60 DUP3 ADD DUP9 SWAP1 MSTORE DUP1 MLOAD PUSH1 0x20 DUP1 DUP9 MUL DUP3 DUP2 ADD DUP3 ADD SWAP1 SWAP4 MSTORE DUP8 DUP3 MSTORE SWAP1 SWAP2 DUP9 SWAP2 DUP9 SWAP2 DUP3 SWAP2 DUP6 ADD SWAP1 DUP5 SWAP1 DUP1 DUP3 DUP5 CALLDATACOPY PUSH1 0x0 SWAP3 ADD SWAP2 SWAP1 SWAP2 MSTORE POP POP POP POP PUSH1 0x80 DUP3 ADD MSTORE PUSH1 0x40 DUP1 MLOAD PUSH1 0x20 DUP1 DUP7 MUL DUP3 DUP2 ADD DUP3 ADD SWAP1 SWAP4 MSTORE DUP6 DUP3 MSTORE PUSH2 0x1201 SWAP3 DUP8 SWAP2 DUP8 SWAP2 DUP3 SWAP2 DUP6 ADD SWAP1 DUP5 SWAP1 DUP1 DUP3 DUP5 CALLDATACOPY PUSH1 0x0 SWAP3 ADD SWAP2 SWAP1 SWAP2 MSTORE POP PUSH1 0x2 SWAP3 POP PUSH2 0x4C0 SWAP2 POP POP JUMP JUMPDEST POP POP POP POP POP POP POP POP POP POP POP POP JUMP JUMPDEST PUSH1 0x0 PUSH2 0x513 DUP3 PUSH1 0x0 PUSH2 0x4CF JUMP JUMPDEST PUSH2 0x1224 PUSH2 0x1E8E JUMP JUMPDEST PUSH1 0x40 DUP1 MLOAD PUSH1 0x1 DUP1 DUP3 MSTORE DUP2 DUP4 ADD SWAP1 SWAP3 MSTORE SWAP1 PUSH1 0x20 DUP1 DUP4 ADD SWAP1 DUP1 CALLDATASIZE DUP4 CALLDATACOPY POP POP POP PUSH1 0xA0 DUP3 ADD DUP2 SWAP1 MSTORE DUP1 MLOAD PUSH1 0x1 SWAP2 SWAP1 PUSH1 0x0 SWAP1 PUSH2 0x125D JUMPI PUSH2 0x125D PUSH2 0x22BE JUMP JUMPDEST PUSH1 0x20 SWAP1 DUP2 MUL SWAP2 SWAP1 SWAP2 ADD DUP2 ADD SWAP2 SWAP1 SWAP2 MSTORE DUP11 DUP3 MSTORE DUP2 DUP2 ADD DUP11 SWAP1 MSTORE PUSH1 0x40 DUP1 MLOAD DUP10 DUP4 MUL DUP2 DUP2 ADD DUP5 ADD SWAP1 SWAP3 MSTORE DUP10 DUP2 MSTORE SWAP2 DUP11 SWAP2 DUP11 SWAP2 DUP3 SWAP2 SWAP1 DUP6 ADD SWAP1 DUP5 SWAP1 DUP1 DUP3 DUP5 CALLDATACOPY PUSH1 0x0 SWAP3 ADD SWAP2 SWAP1 SWAP2 MSTORE POP POP POP POP PUSH1 0x40 DUP1 DUP4 ADD SWAP2 SWAP1 SWAP2 MSTORE PUSH1 0x60 DUP3 ADD DUP8 SWAP1 MSTORE DUP1 MLOAD PUSH1 0x20 DUP1 DUP8 MUL DUP3 DUP2 ADD DUP3 ADD SWAP1 SWAP4 MSTORE DUP7 DUP3 MSTORE SWAP1 SWAP2 DUP8 SWAP2 DUP8 SWAP2 DUP3 SWAP2 DUP6 ADD SWAP1 DUP5 SWAP1 DUP1 DUP3 DUP5 CALLDATACOPY PUSH1 0x0 SWAP3 ADD SWAP2 SWAP1 SWAP2 MSTORE POP POP POP POP PUSH1 0x80 DUP3 ADD MSTORE PUSH1 0x40 DUP1 MLOAD PUSH1 0x20 DUP1 DUP6 MUL DUP3 DUP2 ADD DUP3 ADD SWAP1 SWAP4 MSTORE DUP5 DUP3 MSTORE PUSH2 0xBCF SWAP3 DUP7 SWAP2 DUP7 SWAP2 DUP3 SWAP2 DUP6 ADD SWAP1 DUP5 SWAP1 DUP1 DUP3 DUP5 CALLDATACOPY PUSH1 0x0 SWAP3 ADD SWAP2 SWAP1 SWAP2 MSTORE POP PUSH1 0x3 SWAP3 POP PUSH2 0x4C0 SWAP2 POP POP JUMP JUMPDEST PUSH1 0xA0 DUP2 ADD MLOAD PUSH1 0x40 DUP1 DUP4 ADD MLOAD PUSH1 0x80 DUP5 ADD MLOAD PUSH1 0x60 DUP6 ADD MLOAD PUSH1 0x0 DUP2 DUP2 MSTORE PUSH1 0x28 PUSH1 0x20 MSTORE SWAP4 SWAP1 SWAP4 KECCAK256 SLOAD SWAP2 SWAP3 SWAP1 SWAP2 EQ PUSH2 0x13A5 JUMPI PUSH1 0x40 MLOAD PUSH3 0x461BCD PUSH1 0xE5 SHL DUP2 MSTORE PUSH1 0x20 PUSH1 0x4 DUP3 ADD MSTORE PUSH1 0x24 DUP1 DUP3 ADD MSTORE PUSH32 0x496E70757420636F6D6D69746D656E74526F6F7420646F6573206E6F74206578 PUSH1 0x44 DUP3 ADD MSTORE PUSH4 0x34B9BA17 PUSH1 0xE1 SHL PUSH1 0x64 DUP3 ADD MSTORE PUSH1 0x84 ADD PUSH2 0x543 JUMP JUMPDEST PUSH1 0x0 DUP2 MLOAD PUSH1 0x0 DUP5 MLOAD GT PUSH2 0x13B9 JUMPI PUSH1 0x0 PUSH2 0x13BC JUMP JUMPDEST PUSH1 0x3 JUMPDEST PUSH1 0xFF AND DUP5 MLOAD DUP7 MLOAD PUSH2 0x13CD SWAP2 SWAP1 PUSH2 0x2359 JUMP JUMPDEST PUSH2 0x13D7 SWAP2 SWAP1 PUSH2 0x2359 JUMP JUMPDEST PUSH2 0x13E1 SWAP2 SWAP1 PUSH2 0x2359 JUMP JUMPDEST PUSH8 0xFFFFFFFFFFFFFFFF DUP2 GT ISZERO PUSH2 0x13F9 JUMPI PUSH2 0x13F9 PUSH2 0x1F8A JUMP JUMPDEST PUSH1 0x40 MLOAD SWAP1 DUP1 DUP3 MSTORE DUP1 PUSH1 0x20 MUL PUSH1 0x20 ADD DUP3 ADD PUSH1 0x40 MSTORE DUP1 ISZERO PUSH2 0x1422 JUMPI DUP2 PUSH1 0x20 ADD PUSH1 0x20 DUP3 MUL DUP1 CALLDATASIZE DUP4 CALLDATACOPY ADD SWAP1 POP JUMPDEST POP SWAP1 POP DUP6 PUSH2 0x14E2 JUMPI PUSH1 0x0 DUP5 PUSH1 0x0 DUP2 MLOAD DUP2 LT PUSH2 0x143F JUMPI PUSH2 0x143F PUSH2 0x22BE JUMP JUMPDEST PUSH1 0x20 MUL PUSH1 0x20 ADD ADD MLOAD DUP3 DUP3 DUP1 PUSH2 0x1453 SWAP1 PUSH2 0x2340 JUMP JUMPDEST SWAP4 POP DUP2 MLOAD DUP2 LT PUSH2 0x1465 JUMPI PUSH2 0x1465 PUSH2 0x22BE JUMP JUMPDEST PUSH1 0x20 MUL PUSH1 0x20 ADD ADD DUP2 DUP2 MSTORE POP POP DUP3 PUSH1 0x0 DUP2 MLOAD DUP2 LT PUSH2 0x1484 JUMPI PUSH2 0x1484 PUSH2 0x22BE JUMP JUMPDEST PUSH1 0x20 MUL PUSH1 0x20 ADD ADD MLOAD DUP3 DUP3 DUP1 PUSH2 0x1498 SWAP1 PUSH2 0x2340 JUMP JUMPDEST SWAP4 POP DUP2 MLOAD DUP2 LT PUSH2 0x14AA JUMPI PUSH2 0x14AA PUSH2 0x22BE JUMP JUMPDEST PUSH1 0x20 SWAP1 DUP2 MUL SWAP2 SWAP1 SWAP2 ADD ADD MSTORE PUSH1 0x1 DUP3 DUP3 PUSH2 0x14C2 DUP2 PUSH2 0x2340 JUMP JUMPDEST SWAP4 POP DUP2 MLOAD DUP2 LT PUSH2 0x14D4 JUMPI PUSH2 0x14D4 PUSH2 0x22BE JUMP JUMPDEST PUSH1 0x20 MUL PUSH1 0x20 ADD ADD DUP2 DUP2 MSTORE POP POP POP JUMPDEST PUSH1 0x1 DUP7 SUB PUSH2 0x16D6 JUMPI DUP5 MLOAD PUSH1 0x27 SLOAD PUSH1 0x0 SWAP2 EQ PUSH2 0x150F JUMPI PUSH1 0x40 MLOAD PUSH3 0x461BCD PUSH1 0xE5 SHL DUP2 MSTORE PUSH1 0x4 ADD PUSH2 0x543 SWAP1 PUSH2 0x240E JUMP JUMPDEST DUP6 MLOAD DUP3 DUP3 PUSH2 0x151C DUP2 PUSH2 0x2340 JUMP JUMPDEST SWAP4 POP DUP2 MLOAD DUP2 LT PUSH2 0x152E JUMPI PUSH2 0x152E PUSH2 0x22BE JUMP JUMPDEST PUSH1 0x20 MUL PUSH1 0x20 ADD ADD DUP2 DUP2 MSTORE POP POP DUP6 PUSH1 0x20 ADD MLOAD DUP3 DUP3 DUP1 PUSH2 0x154B SWAP1 PUSH2 0x2340 JUMP JUMPDEST SWAP4 POP DUP2 MLOAD DUP2 LT PUSH2 0x155D JUMPI PUSH2 0x155D PUSH2 0x22BE JUMP JUMPDEST PUSH1 0x20 MUL PUSH1 0x20 ADD ADD DUP2 DUP2 MSTORE POP POP DUP4 PUSH1 0x0 DUP2 MLOAD DUP2 LT PUSH2 0x157C JUMPI PUSH2 0x157C PUSH2 0x22BE JUMP JUMPDEST PUSH1 0x20 MUL PUSH1 0x20 ADD ADD MLOAD DUP3 DUP3 DUP1 PUSH2 0x1590 SWAP1 PUSH2 0x2340 JUMP JUMPDEST SWAP4 POP DUP2 MLOAD DUP2 LT PUSH2 0x15A2 JUMPI PUSH2 0x15A2 PUSH2 0x22BE JUMP JUMPDEST PUSH1 0x20 MUL PUSH1 0x20 ADD ADD DUP2 DUP2 MSTORE POP POP DUP4 PUSH1 0x1 DUP2 MLOAD DUP2 LT PUSH2 0x15C1 JUMPI PUSH2 0x15C1 PUSH2 0x22BE JUMP JUMPDEST PUSH1 0x20 MUL PUSH1 0x20 ADD ADD MLOAD DUP3 DUP3 DUP1 PUSH2 0x15D5 SWAP1 PUSH2 0x2340 JUMP JUMPDEST SWAP4 POP DUP2 MLOAD DUP2 LT PUSH2 0x15E7 JUMPI PUSH2 0x15E7 PUSH2 0x22BE JUMP JUMPDEST PUSH1 0x20 SWAP1 DUP2 MUL SWAP2 SWAP1 SWAP2 ADD ADD MSTORE PUSH1 0x60 DUP7 ADD MLOAD DUP3 DUP3 PUSH2 0x1602 DUP2 PUSH2 0x2340 JUMP JUMPDEST SWAP4 POP DUP2 MLOAD DUP2 LT PUSH2 0x1614 JUMPI PUSH2 0x1614 PUSH2 0x22BE JUMP JUMPDEST PUSH1 0x20 MUL PUSH1 0x20 ADD ADD DUP2 DUP2 MSTORE POP POP DUP3 PUSH1 0x0 DUP2 MLOAD DUP2 LT PUSH2 0x1633 JUMPI PUSH2 0x1633 PUSH2 0x22BE JUMP JUMPDEST PUSH1 0x20 MUL PUSH1 0x20 ADD ADD MLOAD DUP3 DUP3 DUP1 PUSH2 0x1647 SWAP1 PUSH2 0x2340 JUMP JUMPDEST SWAP4 POP DUP2 MLOAD DUP2 LT PUSH2 0x1659 JUMPI PUSH2 0x1659 PUSH2 0x22BE JUMP JUMPDEST PUSH1 0x20 MUL PUSH1 0x20 ADD ADD DUP2 DUP2 MSTORE POP POP DUP3 PUSH1 0x1 DUP2 MLOAD DUP2 LT PUSH2 0x1678 JUMPI PUSH2 0x1678 PUSH2 0x22BE JUMP JUMPDEST PUSH1 0x20 MUL PUSH1 0x20 ADD ADD MLOAD DUP3 DUP3 DUP1 PUSH2 0x168C SWAP1 PUSH2 0x2340 JUMP JUMPDEST SWAP4 POP DUP2 MLOAD DUP2 LT PUSH2 0x169E JUMPI PUSH2 0x169E PUSH2 0x22BE JUMP JUMPDEST PUSH1 0x20 SWAP1 DUP2 MUL SWAP2 SWAP1 SWAP2 ADD ADD MSTORE PUSH1 0x1 DUP3 DUP3 PUSH2 0x16B6 DUP2 PUSH2 0x2340 JUMP JUMPDEST SWAP4 POP DUP2 MLOAD DUP2 LT PUSH2 0x16C8 JUMPI PUSH2 0x16C8 PUSH2 0x22BE JUMP JUMPDEST PUSH1 0x20 MUL PUSH1 0x20 ADD ADD DUP2 DUP2 MSTORE POP POP POP JUMPDEST PUSH1 0x2 DUP7 SUB PUSH2 0x18C9 JUMPI DUP5 MLOAD PUSH1 0x27 SLOAD PUSH1 0x0 SWAP2 EQ PUSH2 0x1703 JUMPI PUSH1 0x40 MLOAD PUSH3 0x461BCD PUSH1 0xE5 SHL DUP2 MSTORE PUSH1 0x4 ADD PUSH2 0x543 SWAP1 PUSH2 0x240E JUMP JUMPDEST DUP5 PUSH1 0x0 DUP2 MLOAD DUP2 LT PUSH2 0x1716 JUMPI PUSH2 0x1716 PUSH2 0x22BE JUMP JUMPDEST PUSH1 0x20 MUL PUSH1 0x20 ADD ADD MLOAD DUP3 DUP3 DUP1 PUSH2 0x172A SWAP1 PUSH2 0x2340 JUMP JUMPDEST SWAP4 POP DUP2 MLOAD DUP2 LT PUSH2 0x173C JUMPI PUSH2 0x173C PUSH2 0x22BE JUMP JUMPDEST PUSH1 0x20 SWAP1 DUP2 MUL SWAP2 SWAP1 SWAP2 ADD ADD MSTORE DUP6 MLOAD DUP3 DUP3 PUSH2 0x1754 DUP2 PUSH2 0x2340 JUMP JUMPDEST SWAP4 POP DUP2 MLOAD DUP2 LT PUSH2 0x1766 JUMPI PUSH2 0x1766 PUSH2 0x22BE JUMP JUMPDEST PUSH1 0x20 MUL PUSH1 0x20 ADD ADD DUP2 DUP2 MSTORE POP POP DUP6 PUSH1 0x20 ADD MLOAD DUP3 DUP3 DUP1 PUSH2 0x1783 SWAP1 PUSH2 0x2340 JUMP JUMPDEST SWAP4 POP DUP2 MLOAD DUP2 LT PUSH2 0x1795 JUMPI PUSH2 0x1795 PUSH2 0x22BE JUMP JUMPDEST PUSH1 0x20 MUL PUSH1 0x20 ADD ADD DUP2 DUP2 MSTORE POP POP DUP4 PUSH1 0x0 DUP2 MLOAD DUP2 LT PUSH2 0x17B4 JUMPI PUSH2 0x17B4 PUSH2 0x22BE JUMP JUMPDEST PUSH1 0x20 MUL PUSH1 0x20 ADD ADD MLOAD DUP3 DUP3 DUP1 PUSH2 0x17C8 SWAP1 PUSH2 0x2340 JUMP JUMPDEST SWAP4 POP DUP2 MLOAD DUP2 LT PUSH2 0x17DA JUMPI PUSH2 0x17DA PUSH2 0x22BE JUMP JUMPDEST PUSH1 0x20 MUL PUSH1 0x20 ADD ADD DUP2 DUP2 MSTORE POP POP DUP4 PUSH1 0x1 DUP2 MLOAD DUP2 LT PUSH2 0x17F9 JUMPI PUSH2 0x17F9 PUSH2 0x22BE JUMP JUMPDEST PUSH1 0x20 MUL PUSH1 0x20 ADD ADD MLOAD DUP3 DUP3 DUP1 PUSH2 0x180D SWAP1 PUSH2 0x2340 JUMP JUMPDEST SWAP4 POP DUP2 MLOAD DUP2 LT PUSH2 0x181F JUMPI PUSH2 0x181F PUSH2 0x22BE JUMP JUMPDEST PUSH1 0x20 SWAP1 DUP2 MUL SWAP2 SWAP1 SWAP2 ADD ADD MSTORE PUSH1 0x60 DUP7 ADD MLOAD DUP3 DUP3 PUSH2 0x183A DUP2 PUSH2 0x2340 JUMP JUMPDEST SWAP4 POP DUP2 MLOAD DUP2 LT PUSH2 0x184C JUMPI PUSH2 0x184C PUSH2 0x22BE JUMP JUMPDEST PUSH1 0x20 MUL PUSH1 0x20 ADD ADD DUP2 DUP2 MSTORE POP POP DUP3 PUSH1 0x0 DUP2 MLOAD DUP2 LT PUSH2 0x186B JUMPI PUSH2 0x186B PUSH2 0x22BE JUMP JUMPDEST PUSH1 0x20 MUL PUSH1 0x20 ADD ADD MLOAD DUP3 DUP3 DUP1 PUSH2 0x187F SWAP1 PUSH2 0x2340 JUMP JUMPDEST SWAP4 POP DUP2 MLOAD DUP2 LT PUSH2 0x1891 JUMPI PUSH2 0x1891 PUSH2 0x22BE JUMP JUMPDEST PUSH1 0x20 SWAP1 DUP2 MUL SWAP2 SWAP1 SWAP2 ADD ADD MSTORE PUSH1 0x1 DUP3 DUP3 PUSH2 0x18A9 DUP2 PUSH2 0x2340 JUMP JUMPDEST SWAP4 POP DUP2 MLOAD DUP2 LT PUSH2 0x18BB JUMPI PUSH2 0x18BB PUSH2 0x22BE JUMP JUMPDEST PUSH1 0x20 MUL PUSH1 0x20 ADD ADD DUP2 DUP2 MSTORE POP POP POP JUMPDEST PUSH1 0x3 DUP7 SUB PUSH2 0x1A78 JUMPI DUP5 MLOAD PUSH1 0x27 SLOAD EQ PUSH2 0x18F3 JUMPI PUSH1 0x40 MLOAD PUSH3 0x461BCD PUSH1 0xE5 SHL DUP2 MSTORE PUSH1 0x4 ADD PUSH2 0x543 SWAP1 PUSH2 0x240E JUMP JUMPDEST DUP5 MLOAD PUSH1 0x0 SWAP1 DUP3 DUP3 PUSH2 0x1903 DUP2 PUSH2 0x2340 JUMP JUMPDEST SWAP4 POP DUP2 MLOAD DUP2 LT PUSH2 0x1915 JUMPI PUSH2 0x1915 PUSH2 0x22BE JUMP JUMPDEST PUSH1 0x20 MUL PUSH1 0x20 ADD ADD DUP2 DUP2 MSTORE POP POP DUP6 PUSH1 0x20 ADD MLOAD DUP3 DUP3 DUP1 PUSH2 0x1932 SWAP1 PUSH2 0x2340 JUMP JUMPDEST SWAP4 POP DUP2 MLOAD DUP2 LT PUSH2 0x1944 JUMPI PUSH2 0x1944 PUSH2 0x22BE JUMP JUMPDEST PUSH1 0x20 MUL PUSH1 0x20 ADD ADD DUP2 DUP2 MSTORE POP POP DUP4 PUSH1 0x0 DUP2 MLOAD DUP2 LT PUSH2 0x1963 JUMPI PUSH2 0x1963 PUSH2 0x22BE JUMP JUMPDEST PUSH1 0x20 MUL PUSH1 0x20 ADD ADD MLOAD DUP3 DUP3 DUP1 PUSH2 0x1977 SWAP1 PUSH2 0x2340 JUMP JUMPDEST SWAP4 POP DUP2 MLOAD DUP2 LT PUSH2 0x1989 JUMPI PUSH2 0x1989 PUSH2 0x22BE JUMP JUMPDEST PUSH1 0x20 MUL PUSH1 0x20 ADD ADD DUP2 DUP2 MSTORE POP POP DUP4 PUSH1 0x1 DUP2 MLOAD DUP2 LT PUSH2 0x19A8 JUMPI PUSH2 0x19A8 PUSH2 0x22BE JUMP JUMPDEST PUSH1 0x20 MUL PUSH1 0x20 ADD ADD MLOAD DUP3 DUP3 DUP1 PUSH2 0x19BC SWAP1 PUSH2 0x2340 JUMP JUMPDEST SWAP4 POP DUP2 MLOAD DUP2 LT PUSH2 0x19CE JUMPI PUSH2 0x19CE PUSH2 0x22BE JUMP JUMPDEST PUSH1 0x20 SWAP1 DUP2 MUL SWAP2 SWAP1 SWAP2 ADD ADD MSTORE PUSH1 0x60 DUP7 ADD MLOAD DUP3 DUP3 PUSH2 0x19E9 DUP2 PUSH2 0x2340 JUMP JUMPDEST SWAP4 POP DUP2 MLOAD DUP2 LT PUSH2 0x19FB JUMPI PUSH2 0x19FB PUSH2 0x22BE JUMP JUMPDEST PUSH1 0x20 MUL PUSH1 0x20 ADD ADD DUP2 DUP2 MSTORE POP POP DUP3 PUSH1 0x0 DUP2 MLOAD DUP2 LT PUSH2 0x1A1A JUMPI PUSH2 0x1A1A PUSH2 0x22BE JUMP JUMPDEST PUSH1 0x20 MUL PUSH1 0x20 ADD ADD MLOAD DUP3 DUP3 DUP1 PUSH2 0x1A2E SWAP1 PUSH2 0x2340 JUMP JUMPDEST SWAP4 POP DUP2 MLOAD DUP2 LT PUSH2 0x1A40 JUMPI PUSH2 0x1A40 PUSH2 0x22BE JUMP JUMPDEST PUSH1 0x20 SWAP1 DUP2 MUL SWAP2 SWAP1 SWAP2 ADD ADD MSTORE PUSH1 0x1 DUP3 DUP3 PUSH2 0x1A58 DUP2 PUSH2 0x2340 JUMP JUMPDEST SWAP4 POP DUP2 MLOAD DUP2 LT PUSH2 0x1A6A JUMPI PUSH2 0x1A6A PUSH2 0x22BE JUMP JUMPDEST PUSH1 0x20 MUL PUSH1 0x20 ADD ADD DUP2 DUP2 MSTORE POP POP POP JUMPDEST PUSH1 0x4 DUP7 SUB PUSH2 0x1C27 JUMPI DUP5 MLOAD PUSH1 0x27 SLOAD EQ PUSH2 0x1AA2 JUMPI PUSH1 0x40 MLOAD PUSH3 0x461BCD PUSH1 0xE5 SHL DUP2 MSTORE PUSH1 0x4 ADD PUSH2 0x543 SWAP1 PUSH2 0x240E JUMP JUMPDEST DUP5 MLOAD PUSH1 0x0 SWAP1 DUP3 DUP3 PUSH2 0x1AB2 DUP2 PUSH2 0x2340 JUMP JUMPDEST SWAP4 POP DUP2 MLOAD DUP2 LT PUSH2 0x1AC4 JUMPI PUSH2 0x1AC4 PUSH2 0x22BE JUMP JUMPDEST PUSH1 0x20 MUL PUSH1 0x20 ADD ADD DUP2 DUP2 MSTORE POP POP DUP6 PUSH1 0x20 ADD MLOAD DUP3 DUP3 DUP1 PUSH2 0x1AE1 SWAP1 PUSH2 0x2340 JUMP JUMPDEST SWAP4 POP DUP2 MLOAD DUP2 LT PUSH2 0x1AF3 JUMPI PUSH2 0x1AF3 PUSH2 0x22BE JUMP JUMPDEST PUSH1 0x20 MUL PUSH1 0x20 ADD ADD DUP2 DUP2 MSTORE POP POP DUP4 PUSH1 0x0 DUP2 MLOAD DUP2 LT PUSH2 0x1B12 JUMPI PUSH2 0x1B12 PUSH2 0x22BE JUMP JUMPDEST PUSH1 0x20 MUL PUSH1 0x20 ADD ADD MLOAD DUP3 DUP3 DUP1 PUSH2 0x1B26 SWAP1 PUSH2 0x2340 JUMP JUMPDEST SWAP4 POP DUP2 MLOAD DUP2 LT PUSH2 0x1B38 JUMPI PUSH2 0x1B38 PUSH2 0x22BE JUMP JUMPDEST PUSH1 0x20 SWAP1 DUP2 MUL SWAP2 SWAP1 SWAP2 ADD ADD MSTORE PUSH1 0x60 DUP7 ADD MLOAD DUP3 DUP3 PUSH2 0x1B53 DUP2 PUSH2 0x2340 JUMP JUMPDEST SWAP4 POP DUP2 MLOAD DUP2 LT PUSH2 0x1B65 JUMPI PUSH2 0x1B65 PUSH2 0x22BE JUMP JUMPDEST PUSH1 0x20 MUL PUSH1 0x20 ADD ADD DUP2 DUP2 MSTORE POP POP DUP3 PUSH1 0x0 DUP2 MLOAD DUP2 LT PUSH2 0x1B84 JUMPI PUSH2 0x1B84 PUSH2 0x22BE JUMP JUMPDEST PUSH1 0x20 MUL PUSH1 0x20 ADD ADD MLOAD DUP3 DUP3 DUP1 PUSH2 0x1B98 SWAP1 PUSH2 0x2340 JUMP JUMPDEST SWAP4 POP DUP2 MLOAD DUP2 LT PUSH2 0x1BAA JUMPI PUSH2 0x1BAA PUSH2 0x22BE JUMP JUMPDEST PUSH1 0x20 MUL PUSH1 0x20 ADD ADD DUP2 DUP2 MSTORE POP POP DUP3 PUSH1 0x1 DUP2 MLOAD DUP2 LT PUSH2 0x1BC9 JUMPI PUSH2 0x1BC9 PUSH2 0x22BE JUMP JUMPDEST PUSH1 0x20 MUL PUSH1 0x20 ADD ADD MLOAD DUP3 DUP3 DUP1 PUSH2 0x1BDD SWAP1 PUSH2 0x2340 JUMP JUMPDEST SWAP4 POP DUP2 MLOAD DUP2 LT PUSH2 0x1BEF JUMPI PUSH2 0x1BEF PUSH2 0x22BE JUMP JUMPDEST PUSH1 0x20 SWAP1 DUP2 MUL SWAP2 SWAP1 SWAP2 ADD ADD MSTORE PUSH1 0x1 DUP3 DUP3 PUSH2 0x1C07 DUP2 PUSH2 0x2340 JUMP JUMPDEST SWAP4 POP DUP2 MLOAD DUP2 LT PUSH2 0x1C19 JUMPI PUSH2 0x1C19 PUSH2 0x22BE JUMP JUMPDEST PUSH1 0x20 MUL PUSH1 0x20 ADD ADD DUP2 DUP2 MSTORE POP POP POP JUMPDEST PUSH1 0x25 SLOAD PUSH1 0x0 DUP8 DUP2 MSTORE PUSH1 0x26 PUSH1 0x20 MSTORE PUSH1 0x40 DUP1 DUP3 KECCAK256 SWAP1 MLOAD PUSH4 0x87D9D023 PUSH1 0xE0 SHL DUP2 MSTORE SWAP2 SWAP3 PUSH1 0x1 PUSH1 0x1 PUSH1 0xA0 SHL SUB AND SWAP2 PUSH4 0x87D9D023 SWAP2 PUSH2 0x1C67 SWAP2 DUP13 SWAP2 DUP8 SWAP2 PUSH1 0x4 ADD PUSH2 0x2451 JUMP JUMPDEST PUSH1 0x20 PUSH1 0x40 MLOAD DUP1 DUP4 SUB DUP2 PUSH1 0x0 DUP8 GAS CALL ISZERO DUP1 ISZERO PUSH2 0x1C86 JUMPI RETURNDATASIZE PUSH1 0x0 DUP1 RETURNDATACOPY RETURNDATASIZE PUSH1 0x0 REVERT JUMPDEST POP POP POP POP PUSH1 0x40 MLOAD RETURNDATASIZE PUSH1 0x1F NOT PUSH1 0x1F DUP3 ADD AND DUP3 ADD DUP1 PUSH1 0x40 MSTORE POP DUP2 ADD SWAP1 PUSH2 0x1CAA SWAP2 SWAP1 PUSH2 0x229C JUMP JUMPDEST SWAP1 POP DUP1 PUSH2 0x1D11 JUMPI PUSH1 0x40 MLOAD PUSH3 0x461BCD PUSH1 0xE5 SHL DUP2 MSTORE PUSH1 0x20 PUSH1 0x4 DUP3 ADD MSTORE PUSH1 0x2F PUSH1 0x24 DUP3 ADD MSTORE PUSH32 0x5468652070726F6F6620686173206E6F74206265656E20766572696669656420 PUSH1 0x44 DUP3 ADD MSTORE PUSH15 0x189E481D1A194818DBDB9D1C9858DD PUSH1 0x8A SHL PUSH1 0x64 DUP3 ADD MSTORE PUSH1 0x84 ADD PUSH2 0x543 JUMP JUMPDEST DUP3 MLOAD ISZERO PUSH2 0x1D36 JUMPI PUSH2 0x1D21 DUP4 PUSH2 0x519 JUMP JUMPDEST PUSH1 0x29 DUP2 SWAP1 SSTORE PUSH1 0x0 DUP2 DUP2 MSTORE PUSH1 0x28 PUSH1 0x20 MSTORE PUSH1 0x40 SWAP1 KECCAK256 SSTORE JUMPDEST DUP4 MLOAD ISZERO PUSH2 0x1D46 JUMPI PUSH1 0x20 DUP7 ADD MLOAD PUSH1 0x27 SSTORE JUMPDEST POP POP POP POP POP POP POP POP JUMP JUMPDEST PUSH1 0x0 DUP4 PUSH32 0x30644E72E131A029B85045B68181585D2833E84879B9709143E1F593F0000001 DUP3 JUMPDEST DUP8 MLOAD DUP2 LT ISZERO PUSH2 0x1DFC JUMPI DUP2 PUSH2 0x1DA5 DUP10 DUP4 DUP2 MLOAD DUP2 LT PUSH2 0x1D95 JUMPI PUSH2 0x1D95 PUSH2 0x22BE JUMP JUMPDEST PUSH1 0x20 MUL PUSH1 0x20 ADD ADD MLOAD DUP6 DUP10 DUP10 PUSH2 0x1E08 JUMP JUMPDEST DUP4 DUP11 DUP5 DUP2 MLOAD DUP2 LT PUSH2 0x1DB8 JUMPI PUSH2 0x1DB8 PUSH2 0x22BE JUMP JUMPDEST PUSH1 0x20 MUL PUSH1 0x20 ADD ADD MLOAD PUSH2 0x1DCA SWAP2 SWAP1 PUSH2 0x2382 JUMP JUMPDEST PUSH2 0x1DD4 SWAP1 DUP7 PUSH2 0x2359 JUMP JUMPDEST PUSH2 0x1DDE SWAP2 SWAP1 PUSH2 0x2359 JUMP JUMPDEST PUSH2 0x1DE8 SWAP2 SWAP1 PUSH2 0x2382 JUMP JUMPDEST SWAP3 POP DUP1 PUSH2 0x1DF4 DUP2 PUSH2 0x2340 JUMP JUMPDEST SWAP2 POP POP PUSH2 0x1D76 JUMP JUMPDEST POP SWAP1 SWAP7 SWAP6 POP POP POP POP POP POP JUMP JUMPDEST PUSH1 0x0 PUSH1 0x1 DUP3 LT ISZERO PUSH2 0x1E18 JUMPI PUSH1 0x0 DUP1 REVERT JUMPDEST PUSH1 0x40 MLOAD PUSH1 0x20 DUP2 ADD PUSH1 0x40 MSTORE DUP4 DUP2 MSTORE PUSH32 0x30644E72E131A029B85045B68181585D2833E84879B9709143E1F593F0000001 PUSH1 0x0 DUP1 DUP6 JUMPDEST DUP1 ISZERO PUSH2 0x1E7C JUMPI PUSH1 0x20 DUP6 KECCAK256 DUP6 MSTORE DUP4 DUP10 DUP6 DUP8 MLOAD DUP14 ADDMOD ADDMOD SWAP3 POP DUP4 DUP4 DUP5 MULMOD SWAP2 POP DUP4 DUP4 DUP6 DUP7 DUP6 DUP7 MULMOD DUP6 MULMOD MULMOD SWAP10 POP PUSH1 0x0 NOT ADD PUSH2 0x1E4B JUMP JUMPDEST POP POP POP DUP1 DUP7 DUP9 ADDMOD SWAP8 SWAP7 POP POP POP POP POP POP POP JUMP JUMPDEST PUSH1 0x40 MLOAD DUP1 PUSH1 0xC0 ADD PUSH1 0x40 MSTORE DUP1 PUSH1 0x0 DUP2 MSTORE PUSH1 0x20 ADD PUSH1 0x0 DUP2 MSTORE PUSH1 0x20 ADD PUSH1 0x60 DUP2 MSTORE PUSH1 0x20 ADD PUSH1 0x0 DUP2 MSTORE PUSH1 0x20 ADD PUSH1 0x60 DUP2 MSTORE PUSH1 0x20 ADD PUSH1 0x60 DUP2 MSTORE POP SWAP1 JUMP JUMPDEST PUSH1 0x0 DUP1 DUP4 PUSH1 0x1F DUP5 ADD SLT PUSH2 0x1ED6 JUMPI PUSH1 0x0 DUP1 REVERT JUMPDEST POP DUP2 CALLDATALOAD PUSH8 0xFFFFFFFFFFFFFFFF DUP2 GT ISZERO PUSH2 0x1EEE JUMPI PUSH1 0x0 DUP1 REVERT JUMPDEST PUSH1 0x20 DUP4 ADD SWAP2 POP DUP4 PUSH1 0x20 DUP3 PUSH1 0x5 SHL DUP6 ADD ADD GT ISZERO PUSH2 0x1F09 JUMPI PUSH1 0x0 DUP1 REVERT JUMPDEST SWAP3 POP SWAP3 SWAP1 POP JUMP JUMPDEST PUSH1 0x0 DUP1 PUSH1 0x0 DUP1 PUSH1 0x0 PUSH1 0x60 DUP7 DUP9 SUB SLT ISZERO PUSH2 0x1F28 JUMPI PUSH1 0x0 DUP1 REVERT JUMPDEST DUP6 CALLDATALOAD SWAP5 POP PUSH1 0x20 DUP7 ADD CALLDATALOAD PUSH8 0xFFFFFFFFFFFFFFFF DUP1 DUP3 GT ISZERO PUSH2 0x1F47 JUMPI PUSH1 0x0 DUP1 REVERT JUMPDEST PUSH2 0x1F53 DUP10 DUP4 DUP11 ADD PUSH2 0x1EC4 JUMP JUMPDEST SWAP1 SWAP7 POP SWAP5 POP PUSH1 0x40 DUP9 ADD CALLDATALOAD SWAP2 POP DUP1 DUP3 GT ISZERO PUSH2 0x1F6C JUMPI PUSH1 0x0 DUP1 REVERT JUMPDEST POP PUSH2 0x1F79 DUP9 DUP3 DUP10 ADD PUSH2 0x1EC4 JUMP JUMPDEST SWAP7 SWAP10 SWAP6 SWAP9 POP SWAP4 SWAP7 POP SWAP3 SWAP5 SWAP4 SWAP3 POP POP POP JUMP JUMPDEST PUSH4 0x4E487B71 PUSH1 0xE0 SHL PUSH1 0x0 MSTORE PUSH1 0x41 PUSH1 0x4 MSTORE PUSH1 0x24 PUSH1 0x0 REVERT JUMPDEST PUSH1 0x0 DUP3 PUSH1 0x1F DUP4 ADD SLT PUSH2 0x1FB1 JUMPI PUSH1 0x0 DUP1 REVERT JUMPDEST DUP2 CALLDATALOAD PUSH1 0x20 PUSH8 0xFFFFFFFFFFFFFFFF DUP1 DUP4 GT ISZERO PUSH2 0x1FCE JUMPI PUSH2 0x1FCE PUSH2 0x1F8A JUMP JUMPDEST DUP3 PUSH1 0x5 SHL PUSH1 0x40 MLOAD PUSH1 0x1F NOT PUSH1 0x3F DUP4 ADD AND DUP2 ADD DUP2 DUP2 LT DUP5 DUP3 GT OR ISZERO PUSH2 0x1FF3 JUMPI PUSH2 0x1FF3 PUSH2 0x1F8A JUMP JUMPDEST PUSH1 0x40 MSTORE SWAP4 DUP5 MSTORE DUP6 DUP2 ADD DUP4 ADD SWAP4 DUP4 DUP2 ADD SWAP3 POP DUP8 DUP6 GT ISZERO PUSH2 0x2011 JUMPI PUSH1 0x0 DUP1 REVERT JUMPDEST DUP4 DUP8 ADD SWAP2 POP JUMPDEST DUP5 DUP3 LT ISZERO PUSH2 0x2030 JUMPI DUP2 CALLDATALOAD DUP4 MSTORE SWAP2 DUP4 ADD SWAP2 SWAP1 DUP4 ADD SWAP1 PUSH2 0x2017 JUMP JUMPDEST SWAP8 SWAP7 POP POP POP POP POP POP POP JUMP JUMPDEST PUSH1 0x0 DUP1 PUSH1 0x40 DUP4 DUP6 SUB SLT ISZERO PUSH2 0x204E JUMPI PUSH1 0x0 DUP1 REVERT JUMPDEST DUP3 CALLDATALOAD PUSH8 0xFFFFFFFFFFFFFFFF DUP2 GT ISZERO PUSH2 0x2065 JUMPI PUSH1 0x0 DUP1 REVERT JUMPDEST PUSH2 0x2071 DUP6 DUP3 DUP7 ADD PUSH2 0x1FA0 JUMP JUMPDEST SWAP6 PUSH1 0x20 SWAP5 SWAP1 SWAP5 ADD CALLDATALOAD SWAP5 POP POP POP POP JUMP JUMPDEST PUSH1 0x0 PUSH1 0x20 DUP3 DUP5 SUB SLT ISZERO PUSH2 0x2092 JUMPI PUSH1 0x0 DUP1 REVERT JUMPDEST DUP2 CALLDATALOAD PUSH8 0xFFFFFFFFFFFFFFFF DUP2 GT ISZERO PUSH2 0x20A9 JUMPI PUSH1 0x0 DUP1 REVERT JUMPDEST PUSH2 0x50F DUP5 DUP3 DUP6 ADD PUSH2 0x1FA0 JUMP JUMPDEST PUSH1 0x0 PUSH1 0x20 DUP3 DUP5 SUB SLT ISZERO PUSH2 0x20C7 JUMPI PUSH1 0x0 DUP1 REVERT JUMPDEST POP CALLDATALOAD SWAP2 SWAP1 POP JUMP JUMPDEST PUSH1 0x0 DUP1 PUSH1 0x0 DUP1 PUSH1 0x0 DUP1 PUSH1 0x0 DUP1 PUSH1 0x0 PUSH1 0xC0 DUP11 DUP13 SUB SLT ISZERO PUSH2 0x20EC JUMPI PUSH1 0x0 DUP1 REVERT JUMPDEST DUP10 CALLDATALOAD SWAP9 POP PUSH1 0x20 DUP11 ADD CALLDATALOAD SWAP8 POP PUSH1 0x40 DUP11 ADD CALLDATALOAD PUSH8 0xFFFFFFFFFFFFFFFF DUP1 DUP3 GT ISZERO PUSH2 0x2112 JUMPI PUSH1 0x0 DUP1 REVERT JUMPDEST PUSH2 0x211E DUP14 DUP4 DUP15 ADD PUSH2 0x1EC4 JUMP JUMPDEST SWAP1 SWAP10 POP SWAP8 POP PUSH1 0x60 DUP13 ADD CALLDATALOAD SWAP7 POP PUSH1 0x80 DUP13 ADD CALLDATALOAD SWAP2 POP DUP1 DUP3 GT ISZERO PUSH2 0x213E JUMPI PUSH1 0x0 DUP1 REVERT JUMPDEST PUSH2 0x214A DUP14 DUP4 DUP15 ADD PUSH2 0x1EC4 JUMP JUMPDEST SWAP1 SWAP7 POP SWAP5 POP PUSH1 0xA0 DUP13 ADD CALLDATALOAD SWAP2 POP DUP1 DUP3 GT ISZERO PUSH2 0x2163 JUMPI PUSH1 0x0 DUP1 REVERT JUMPDEST POP PUSH2 0x2170 DUP13 DUP3 DUP14 ADD PUSH2 0x1EC4 JUMP JUMPDEST SWAP2 POP DUP1 SWAP4 POP POP DUP1 SWAP2 POP POP SWAP3 SWAP6 SWAP9 POP SWAP3 SWAP6 SWAP9 POP SWAP3 SWAP6 SWAP9 JUMP JUMPDEST PUSH1 0x0 DUP1 PUSH1 0x40 DUP4 DUP6 SUB SLT ISZERO PUSH2 0x219A JUMPI PUSH1 0x0 DUP1 REVERT JUMPDEST POP POP DUP1 CALLDATALOAD SWAP3 PUSH1 0x20 SWAP1 SWAP2 ADD CALLDATALOAD SWAP2 POP JUMP JUMPDEST PUSH1 0x0 DUP1 PUSH1 0x0 DUP1 PUSH1 0x0 DUP1 PUSH1 0x0 DUP1 PUSH1 0x0 DUP1 PUSH1 0xE0 DUP12 DUP14 SUB SLT ISZERO PUSH2 0x21C8 JUMPI PUSH1 0x0 DUP1 REVERT JUMPDEST DUP11 CALLDATALOAD SWAP10 POP PUSH1 0x20 DUP12 ADD CALLDATALOAD SWAP9 POP PUSH1 0x40 DUP12 ADD CALLDATALOAD SWAP8 POP PUSH1 0x60 DUP12 ADD CALLDATALOAD PUSH8 0xFFFFFFFFFFFFFFFF DUP1 DUP3 GT ISZERO PUSH2 0x21F5 JUMPI PUSH1 0x0 DUP1 REVERT JUMPDEST PUSH2 0x2201 DUP15 DUP4 DUP16 ADD PUSH2 0x1EC4 JUMP JUMPDEST SWAP1 SWAP10 POP SWAP8 POP PUSH1 0x80 DUP14 ADD CALLDATALOAD SWAP7 POP PUSH1 0xA0 DUP14 ADD CALLDATALOAD SWAP2 POP DUP1 DUP3 GT ISZERO PUSH2 0x2221 JUMPI PUSH1 0x0 DUP1 REVERT JUMPDEST PUSH2 0x222D DUP15 DUP4 DUP16 ADD PUSH2 0x1EC4 JUMP JUMPDEST SWAP1 SWAP7 POP SWAP5 POP PUSH1 0xC0 DUP14 ADD CALLDATALOAD SWAP2 POP DUP1 DUP3 GT ISZERO PUSH2 0x2246 JUMPI PUSH1 0x0 DUP1 REVERT JUMPDEST POP PUSH2 0x2253 DUP14 DUP3 DUP15 ADD PUSH2 0x1EC4 JUMP JUMPDEST SWAP2 POP DUP1 SWAP4 POP POP DUP1 SWAP2 POP POP SWAP3 SWAP6 SWAP9 SWAP12 SWAP2 SWAP5 SWAP8 SWAP11 POP SWAP3 SWAP6 SWAP9 POP JUMP JUMPDEST PUSH1 0x0 PUSH1 0x20 DUP3 DUP5 SUB SLT ISZERO PUSH2 0x227E JUMPI PUSH1 0x0 DUP1 REVERT JUMPDEST DUP2 CALLDATALOAD PUSH1 0x1 PUSH1 0x1 PUSH1 0xA0 SHL SUB DUP2 AND DUP2 EQ PUSH2 0x2295 JUMPI PUSH1 0x0 DUP1 REVERT JUMPDEST SWAP4 SWAP3 POP POP POP JUMP JUMPDEST PUSH1 0x0 PUSH1 0x20 DUP3 DUP5 SUB SLT ISZERO PUSH2 0x22AE JUMPI PUSH1 0x0 DUP1 REVERT JUMPDEST DUP2 MLOAD DUP1 ISZERO ISZERO DUP2 EQ PUSH2 0x2295 JUMPI PUSH1 0x0 DUP1 REVERT JUMPDEST PUSH4 0x4E487B71 PUSH1 0xE0 SHL PUSH1 0x0 MSTORE PUSH1 0x32 PUSH1 0x4 MSTORE PUSH1 0x24 PUSH1 0x0 REVERT JUMPDEST PUSH1 0x20 DUP1 DUP3 MSTORE PUSH1 0x23 SWAP1 DUP3 ADD MSTORE PUSH32 0x5468657265206973206E6F207370616365206C65667420696E20746865207472 PUSH1 0x40 DUP3 ADD MSTORE PUSH3 0x32B297 PUSH1 0xE9 SHL PUSH1 0x60 DUP3 ADD MSTORE PUSH1 0x80 ADD SWAP1 JUMP JUMPDEST PUSH4 0x4E487B71 PUSH1 0xE0 SHL PUSH1 0x0 MSTORE PUSH1 0x11 PUSH1 0x4 MSTORE PUSH1 0x24 PUSH1 0x0 REVERT JUMPDEST DUP2 DUP2 SUB DUP2 DUP2 GT ISZERO PUSH2 0x513 JUMPI PUSH2 0x513 PUSH2 0x2317 JUMP JUMPDEST PUSH1 0x0 PUSH1 0x1 DUP3 ADD PUSH2 0x2352 JUMPI PUSH2 0x2352 PUSH2 0x2317 JUMP JUMPDEST POP PUSH1 0x1 ADD SWAP1 JUMP JUMPDEST DUP1 DUP3 ADD DUP1 DUP3 GT ISZERO PUSH2 0x513 JUMPI PUSH2 0x513 PUSH2 0x2317 JUMP JUMPDEST PUSH4 0x4E487B71 PUSH1 0xE0 SHL PUSH1 0x0 MSTORE PUSH1 0x12 PUSH1 0x4 MSTORE PUSH1 0x24 PUSH1 0x0 REVERT JUMPDEST PUSH1 0x0 DUP3 PUSH2 0x2391 JUMPI PUSH2 0x2391 PUSH2 0x236C JUMP JUMPDEST POP MOD SWAP1 JUMP JUMPDEST PUSH1 0x0 DUP3 PUSH2 0x23A5 JUMPI PUSH2 0x23A5 PUSH2 0x236C JUMP JUMPDEST POP DIV SWAP1 JUMP JUMPDEST PUSH1 0x0 DUP2 MLOAD DUP1 DUP5 MSTORE PUSH1 0x20 DUP1 DUP6 ADD SWAP5 POP DUP1 DUP5 ADD PUSH1 0x0 JUMPDEST DUP4 DUP2 LT ISZERO PUSH2 0x23DA JUMPI DUP2 MLOAD DUP8 MSTORE SWAP6 DUP3 ADD SWAP6 SWAP1 DUP3 ADD SWAP1 PUSH1 0x1 ADD PUSH2 0x23BE JUMP JUMPDEST POP SWAP5 SWAP6 SWAP5 POP POP POP POP POP JUMP JUMPDEST DUP4 DUP2 MSTORE PUSH1 0x60 PUSH1 0x20 DUP3 ADD MSTORE PUSH1 0x0 PUSH2 0x23FE PUSH1 0x60 DUP4 ADD DUP6 PUSH2 0x23AA JUMP JUMPDEST SWAP1 POP DUP3 PUSH1 0x40 DUP4 ADD MSTORE SWAP5 SWAP4 POP POP POP POP JUMP JUMPDEST PUSH1 0x20 DUP1 DUP3 MSTORE PUSH1 0x23 SWAP1 DUP3 ADD MSTORE PUSH32 0x496E707574204E756C6C6966696572526F6F7420646F6573206E6F7420657869 PUSH1 0x40 DUP3 ADD MSTORE PUSH3 0x39BA17 PUSH1 0xE9 SHL PUSH1 0x60 DUP3 ADD MSTORE PUSH1 0x80 ADD SWAP1 JUMP JUMPDEST PUSH1 0x60 DUP2 MSTORE PUSH1 0x0 PUSH2 0x2464 PUSH1 0x60 DUP4 ADD DUP7 PUSH2 0x23AA JUMP JUMPDEST PUSH1 0x20 DUP4 DUP3 SUB DUP2 DUP6 ADD MSTORE PUSH2 0x2477 DUP3 DUP8 PUSH2 0x23AA JUMP JUMPDEST DUP5 DUP2 SUB PUSH1 0x40 DUP7 ADD MSTORE DUP6 SLOAD DUP1 DUP3 MSTORE PUSH1 0x0 DUP8 DUP2 MSTORE DUP4 DUP2 KECCAK256 SWAP5 POP SWAP2 DUP4 ADD SWAP2 JUMPDEST DUP2 DUP2 LT ISZERO PUSH2 0x24AF JUMPI DUP5 SLOAD DUP4 MSTORE PUSH1 0x1 SWAP5 DUP6 ADD SWAP5 SWAP3 DUP5 ADD SWAP3 ADD PUSH2 0x2493 JUMP JUMPDEST POP SWAP1 SWAP9 SWAP8 POP POP POP POP POP POP POP POP JUMP INVALID LOG2 PUSH5 0x6970667358 0x22 SLT KECCAK256 0x4F CALLER 0xBD MUL 0xA5 DUP4 0xEA CREATE2 SAR 0xA7 PUSH2 0x1565 PUSH23 0x5F46B80AE44F1E35025BA426F907C715DBDC64736F6C63 NUMBER STOP ADDMOD SGT STOP CALLER "},"methodIdentifiers":{"Encipher(uint256,uint256)":"96d8d820","Hash(uint256[],uint256)":"0fa16e38","Initial_NullifierRoot()":"05bb4c40","commitmentRoots(uint256)":"b6a1b7f6","deposit(uint256,uint256[],uint256[])":"036c7955","erc20()":"785e9e86","frontier(uint256)":"6e0c3fee","getFrontierSlot(uint256)":"2a3a8183","insertLeaf(uint256)":"b7202434","insertLeaves(uint256[])":"176764b5","joinCommitments(uint256,uint256,uint256[],uint256,uint256[],uint256[])":"d0ca5821","latestRoot()":"d7b0fef1","leafCount()":"30e69fc3","mimcHash(uint256[])":"cae8510d","newNullifierRoot()":"9636b3fd","registerZKPPublicKey(uint256)":"97f3e011","splitCommitments(uint256,uint256,uint256[],uint256,uint256[],uint256[])":"9e886d75","transfer(uint256,uint256,uint256[],uint256,uint256[],uint256[])":"43f44023","treeHeight()":"01e3e915","treeWidth()":"76c601b1","vks(uint256,uint256)":"a8f4324e","withdraw(uint256,uint256,uint256,uint256[],uint256,uint256[],uint256[])":"b74b4781","zero()":"bc1b392d","zkpPublicKeys(address)":"b74c3148"}}}}}