{"contracts/merkle-tree/MerkleTree.sol":{"MerkleTree":{"abi":[{"anonymous":false,"inputs":[{"indexed":false,"internalType":"uint256","name":"leafIndex","type":"uint256"},{"indexed":false,"internalType":"uint256","name":"leafValue","type":"uint256"},{"indexed":false,"internalType":"uint256","name":"root","type":"uint256"}],"name":"NewLeaf","type":"event"},{"anonymous":false,"inputs":[{"indexed":false,"internalType":"uint256","name":"minLeafIndex","type":"uint256"},{"indexed":false,"internalType":"uint256[]","name":"leafValues","type":"uint256[]"},{"indexed":false,"internalType":"uint256","name":"root","type":"uint256"}],"name":"NewLeaves","type":"event"},{"inputs":[{"internalType":"uint256","name":"in_x","type":"uint256"},{"internalType":"uint256","name":"in_k","type":"uint256"}],"name":"Encipher","outputs":[{"internalType":"uint256","name":"out_x","type":"uint256"}],"stateMutability":"pure","type":"function"},{"inputs":[{"internalType":"uint256[]","name":"in_msgs","type":"uint256[]"},{"internalType":"uint256","name":"in_key","type":"uint256"}],"name":"Hash","outputs":[{"internalType":"uint256","name":"","type":"uint256"}],"stateMutability":"pure","type":"function"},{"inputs":[],"name":"Initial_NullifierRoot","outputs":[{"internalType":"uint256","name":"","type":"uint256"}],"stateMutability":"view","type":"function"},{"inputs":[{"internalType":"uint256","name":"","type":"uint256"}],"name":"frontier","outputs":[{"internalType":"uint256","name":"","type":"uint256"}],"stateMutability":"view","type":"function"},{"inputs":[{"internalType":"uint256","name":"leafIndex","type":"uint256"}],"name":"getFrontierSlot","outputs":[{"internalType":"uint256","name":"slot","type":"uint256"}],"stateMutability":"pure","type":"function"},{"inputs":[{"internalType":"uint256","name":"leafValue","type":"uint256"}],"name":"insertLeaf","outputs":[{"internalType":"uint256","name":"root","type":"uint256"}],"stateMutability":"nonpayable","type":"function"},{"inputs":[{"internalType":"uint256[]","name":"leafValues","type":"uint256[]"}],"name":"insertLeaves","outputs":[{"internalType":"uint256","name":"root","type":"uint256"}],"stateMutability":"nonpayable","type":"function"},{"inputs":[],"name":"leafCount","outputs":[{"internalType":"uint256","name":"","type":"uint256"}],"stateMutability":"view","type":"function"},{"inputs":[{"internalType":"uint256[]","name":"in_msgs","type":"uint256[]"}],"name":"mimcHash","outputs":[{"internalType":"uint256","name":"","type":"uint256"}],"stateMutability":"pure","type":"function"},{"inputs":[],"name":"treeHeight","outputs":[{"internalType":"uint256","name":"","type":"uint256"}],"stateMutability":"view","type":"function"},{"inputs":[],"name":"treeWidth","outputs":[{"internalType":"uint256","name":"","type":"uint256"}],"stateMutability":"view","type":"function"},{"inputs":[],"name":"zero","outputs":[{"internalType":"uint256","name":"","type":"uint256"}],"stateMutability":"view","type":"function"}],"evm":{"bytecode":{"linkReferences":{},"object":"608060405260008055602060018190556200001c90600262000148565b6002553480156200002c57600080fd5b506200015d565b634e487b7160e01b600052601160045260246000fd5b600181815b808511156200008a5781600019048211156200006e576200006e62000033565b808516156200007c57918102915b93841c93908002906200004e565b509250929050565b600082620000a35750600162000142565b81620000b25750600062000142565b8160018114620000cb5760028114620000d657620000f6565b600191505062000142565b60ff841115620000ea57620000ea62000033565b50506001821b62000142565b5060208310610133831016604e8410600b84101617156200011b575081810a62000142565b62000127838362000049565b80600019048211156200013e576200013e62000033565b0290505b92915050565b600062000156838362000092565b9392505050565b610ec1806200016d6000396000f3fe608060405234801561001057600080fd5b50600436106100b45760003560e01c80636e0c3fee116100715780636e0c3fee1461013d57806376c601b11461015057806396d8d82014610159578063b72024341461016c578063bc1b392d1461017f578063cae8510d1461018857600080fd5b806301e3e915146100b957806305bb4c40146100d45780630fa16e38146100fb578063176764b51461010e5780632a3a81831461012157806330e69fc314610134575b600080fd5b6100c260015481565b60405190815260200160405180910390f35b6100c27f2f68a1c58e257e42a17a6c61dff5551ed560b9922ab119d5ac8e184c9734ead981565b6100c2610109366004610c93565b61019b565b6100c261011c366004610cd8565b6101e5565b6100c261012f366004610d0d565b61071e565b6100c260035481565b6100c261014b366004610d0d565b610793565b6100c260025481565b6100c2610167366004610d26565b6107aa565b6100c261017a366004610d0d565b6107ea565b6100c260005481565b6100c2610196366004610cd8565b610a97565b604051636d696d6360e01b602082018190526000916101db90859085906024016040516020818303038152906040528051906020012060001c605b610aa4565b9150505b92915050565b60008082519050600354600254116102185760405162461bcd60e51b815260040161020f90610d48565b60405180910390fd5b6003546002546102289190610da1565b8111156102875760006003546002546102419190610da1565b61024b9083610da1565b905060005b818110156102725784516000190185528061026a81610db4565b915050610250565b506003546002546102839190610da1565b9150505b6040805160028082526060820183526000928392839283928392919060208301908036833750506040805160018082528183019092529293506000929150602080830190803683375050600354919250505b876003546102e79190610dcd565b8110156105195789600354826102fd9190610da1565b8151811061030d5761030d610de0565b602002602001015193506001600254826103279190610dcd565b6103319190610da1565b955061033c8161071e565b96508660000361036157836004886021811061035a5761035a610de0565b0155610507565b60015b8781116104ef57610376600288610e0c565b60000361044357600461038a600183610da1565b6021811061039a5761039a610de0565b0154846000815181106103af576103af610de0565b60200260200101818152505084846001815181106103cf576103cf610de0565b6020026020010181815250506103e484610a97565b836000815181106103f7576103f7610de0565b6020026020010181815250508260008151811061041657610416610de0565b6020026020010151945086955060026001886104329190610da1565b61043c9190610e20565b96506104dd565b848460008151811061045757610457610de0565b6020026020010181815250506000548460018151811061047957610479610de0565b60200260200101818152505061048e84610a97565b836000815181106104a1576104a1610de0565b602002602001018181525050826000815181106104c0576104c0610de0565b602002602001015194508695506002876104da9190610e20565b96505b806104e781610db4565b915050610364565b50836004886021811061050457610504610de0565b01555b8061051181610db4565b9150506102d9565b506000610527876001610dcd565b90505b60015481116106b75761053e600287610e0c565b60000361060b576004610552600183610da1565b6021811061056257610562610de0565b01548360008151811061057757610577610de0565b602002602001018181525050838360018151811061059757610597610de0565b6020026020010181815250506105ac83610a97565b826000815181106105bf576105bf610de0565b602002602001018181525050816000815181106105de576105de610de0565b6020026020010151935085945060026001876105fa9190610da1565b6106049190610e20565b95506106a5565b838360008151811061061f5761061f610de0565b6020026020010181815250506000548360018151811061064157610641610de0565b60200260200101818152505061065683610a97565b8260008151811061066957610669610de0565b6020026020010181815250508160008151811061068857610688610de0565b602002602001015193508594506002866106a29190610e20565b95505b806106af81610db4565b91505061052a565b5060035460405193985088937f39623a9bbcaf7943af164a1aee0fd809f7101d4d8c7727239dace363779587db916106f2918c908790610e34565b60405180910390a1866003600082825461070c9190610dcd565b90915550979998505050505050505050565b600061072b600283610e0c565b60010361078e576001600260045b8360000361078a57808261074e876001610dcd565b6107589190610da1565b6107629190610e0c565b60000361077157829350610739565b9050600181901b8261078281610db4565b935050610739565b5050505b919050565b600481602181106107a357600080fd5b0154905081565b604051636d696d6360e01b602082018190526000916101db90859085906024016040516020818303038152906040528051906020012060001c605b610b5c565b60006003546002541161080f5760405162461bcd60e51b815260040161020f90610d48565b600061081c60035461071e565b9050600060016002546003546108329190610dcd565b61083c9190610da1565b604080516002808252606082018352929350600092879284929190602083019080368337505060408051600180825281830190925292935060009291506020808301908036833701905050905060005b600154811015610a2e578681036108b45783600488602181106108b1576108b1610de0565b01555b6108bf600287610e0c565b60000361098257600481602181106108d9576108d9610de0565b0154836000815181106108ee576108ee610de0565b602002602001018181525050838360018151811061090e5761090e610de0565b60200260200101818152505061092383610a97565b8260008151811061093657610936610de0565b6020026020010181815250508160008151811061095557610955610de0565b6020026020010151935085945060026001876109719190610da1565b61097b9190610e20565b9550610a1c565b838360008151811061099657610996610de0565b602002602001018181525050600054836001815181106109b8576109b8610de0565b6020026020010181815250506109cd83610a97565b826000815181106109e0576109e0610de0565b602002602001018181525050816000815181106109ff576109ff610de0565b60200260200101519350859450600286610a199190610e20565b95505b80610a2681610db4565b91505061088c565b5060035460408051918252602082018a9052810184905292965086927f522933b35bbca3f00d1a1ae17c09663f9286c4d868dc335a0ca99a970bc087849060600160405180910390a160038054906000610a8783610db4565b9190505550505050505050919050565b60006101df82600061019b565b6000837f30644e72e131a029b85045b68181585d2833e84879b9709143e1f593f0000001825b8751811015610b505781610af9898381518110610ae957610ae9610de0565b6020026020010151858989610b5c565b838a8481518110610b0c57610b0c610de0565b6020026020010151610b1e9190610e0c565b610b289086610dcd565b610b329190610dcd565b610b3c9190610e0c565b925080610b4881610db4565b915050610aca565b50909695505050505050565b60006001821015610b6c57600080fd5b604051602081016040528381527f30644e72e131a029b85045b68181585d2833e84879b9709143e1f593f0000001600080855b8015610bd05760208520855283898587518d0808925083838409915083838586858609850909995060001901610b9f565b50505080868808979650505050505050565b634e487b7160e01b600052604160045260246000fd5b600082601f830112610c0957600080fd5b8135602067ffffffffffffffff80831115610c2657610c26610be2565b8260051b604051601f19603f83011681018181108482111715610c4b57610c4b610be2565b604052938452858101830193838101925087851115610c6957600080fd5b83870191505b84821015610c8857813583529183019190830190610c6f565b979650505050505050565b60008060408385031215610ca657600080fd5b823567ffffffffffffffff811115610cbd57600080fd5b610cc985828601610bf8565b95602094909401359450505050565b600060208284031215610cea57600080fd5b813567ffffffffffffffff811115610d0157600080fd5b6101db84828501610bf8565b600060208284031215610d1f57600080fd5b5035919050565b60008060408385031215610d3957600080fd5b50508035926020909101359150565b60208082526023908201527f5468657265206973206e6f207370616365206c65667420696e2074686520747260408201526232b29760e91b606082015260800190565b634e487b7160e01b600052601160045260246000fd5b818103818111156101df576101df610d8b565b600060018201610dc657610dc6610d8b565b5060010190565b808201808211156101df576101df610d8b565b634e487b7160e01b600052603260045260246000fd5b634e487b7160e01b600052601260045260246000fd5b600082610e1b57610e1b610df6565b500690565b600082610e2f57610e2f610df6565b500490565b6000606082018583526020606081850152818651808452608086019150828801935060005b81811015610e7557845183529383019391830191600101610e59565b505080935050505082604083015294935050505056fea2646970667358221220cdca32c58382480a6af4b2af5443af6211ca44a022cde554f78902c7d898b04864736f6c63430008130033","opcodes":"PUSH1 0x80 PUSH1 0x40 MSTORE PUSH1 0x0 DUP1 SSTORE PUSH1 0x20 PUSH1 0x1 DUP2 SWAP1 SSTORE PUSH3 0x1C SWAP1 PUSH1 0x2 PUSH3 0x148 JUMP JUMPDEST PUSH1 0x2 SSTORE CALLVALUE DUP1 ISZERO PUSH3 0x2C JUMPI PUSH1 0x0 DUP1 REVERT JUMPDEST POP PUSH3 0x15D JUMP JUMPDEST PUSH4 0x4E487B71 PUSH1 0xE0 SHL PUSH1 0x0 MSTORE PUSH1 0x11 PUSH1 0x4 MSTORE PUSH1 0x24 PUSH1 0x0 REVERT JUMPDEST PUSH1 0x1 DUP2 DUP2 JUMPDEST DUP1 DUP6 GT ISZERO PUSH3 0x8A JUMPI DUP2 PUSH1 0x0 NOT DIV DUP3 GT ISZERO PUSH3 0x6E JUMPI PUSH3 0x6E PUSH3 0x33 JUMP JUMPDEST DUP1 DUP6 AND ISZERO PUSH3 0x7C JUMPI SWAP2 DUP2 MUL SWAP2 JUMPDEST SWAP4 DUP5 SHR SWAP4 SWAP1 DUP1 MUL SWAP1 PUSH3 0x4E JUMP JUMPDEST POP SWAP3 POP SWAP3 SWAP1 POP JUMP JUMPDEST PUSH1 0x0 DUP3 PUSH3 0xA3 JUMPI POP PUSH1 0x1 PUSH3 0x142 JUMP JUMPDEST DUP2 PUSH3 0xB2 JUMPI POP PUSH1 0x0 PUSH3 0x142 JUMP JUMPDEST DUP2 PUSH1 0x1 DUP2 EQ PUSH3 0xCB JUMPI PUSH1 0x2 DUP2 EQ PUSH3 0xD6 JUMPI PUSH3 0xF6 JUMP JUMPDEST PUSH1 0x1 SWAP2 POP POP PUSH3 0x142 JUMP JUMPDEST PUSH1 0xFF DUP5 GT ISZERO PUSH3 0xEA JUMPI PUSH3 0xEA PUSH3 0x33 JUMP JUMPDEST POP POP PUSH1 0x1 DUP3 SHL PUSH3 0x142 JUMP JUMPDEST POP PUSH1 0x20 DUP4 LT PUSH2 0x133 DUP4 LT AND PUSH1 0x4E DUP5 LT PUSH1 0xB DUP5 LT AND OR ISZERO PUSH3 0x11B JUMPI POP DUP2 DUP2 EXP PUSH3 0x142 JUMP JUMPDEST PUSH3 0x127 DUP4 DUP4 PUSH3 0x49 JUMP JUMPDEST DUP1 PUSH1 0x0 NOT DIV DUP3 GT ISZERO PUSH3 0x13E JUMPI PUSH3 0x13E PUSH3 0x33 JUMP JUMPDEST MUL SWAP1 POP JUMPDEST SWAP3 SWAP2 POP POP JUMP JUMPDEST PUSH1 0x0 PUSH3 0x156 DUP4 DUP4 PUSH3 0x92 JUMP JUMPDEST SWAP4 SWAP3 POP POP POP JUMP JUMPDEST PUSH2 0xEC1 DUP1 PUSH3 0x16D PUSH1 0x0 CODECOPY PUSH1 0x0 RETURN INVALID PUSH1 0x80 PUSH1 0x40 MSTORE CALLVALUE DUP1 ISZERO PUSH2 0x10 JUMPI PUSH1 0x0 DUP1 REVERT JUMPDEST POP PUSH1 0x4 CALLDATASIZE LT PUSH2 0xB4 JUMPI PUSH1 0x0 CALLDATALOAD PUSH1 0xE0 SHR DUP1 PUSH4 0x6E0C3FEE GT PUSH2 0x71 JUMPI DUP1 PUSH4 0x6E0C3FEE EQ PUSH2 0x13D JUMPI DUP1 PUSH4 0x76C601B1 EQ PUSH2 0x150 JUMPI DUP1 PUSH4 0x96D8D820 EQ PUSH2 0x159 JUMPI DUP1 PUSH4 0xB7202434 EQ PUSH2 0x16C JUMPI DUP1 PUSH4 0xBC1B392D EQ PUSH2 0x17F JUMPI DUP1 PUSH4 0xCAE8510D EQ PUSH2 0x188 JUMPI PUSH1 0x0 DUP1 REVERT JUMPDEST DUP1 PUSH4 0x1E3E915 EQ PUSH2 0xB9 JUMPI DUP1 PUSH4 0x5BB4C40 EQ PUSH2 0xD4 JUMPI DUP1 PUSH4 0xFA16E38 EQ PUSH2 0xFB JUMPI DUP1 PUSH4 0x176764B5 EQ PUSH2 0x10E JUMPI DUP1 PUSH4 0x2A3A8183 EQ PUSH2 0x121 JUMPI DUP1 PUSH4 0x30E69FC3 EQ PUSH2 0x134 JUMPI JUMPDEST PUSH1 0x0 DUP1 REVERT JUMPDEST PUSH2 0xC2 PUSH1 0x1 SLOAD DUP2 JUMP JUMPDEST PUSH1 0x40 MLOAD SWAP1 DUP2 MSTORE PUSH1 0x20 ADD PUSH1 0x40 MLOAD DUP1 SWAP2 SUB SWAP1 RETURN JUMPDEST PUSH2 0xC2 PUSH32 0x2F68A1C58E257E42A17A6C61DFF5551ED560B9922AB119D5AC8E184C9734EAD9 DUP2 JUMP JUMPDEST PUSH2 0xC2 PUSH2 0x109 CALLDATASIZE PUSH1 0x4 PUSH2 0xC93 JUMP JUMPDEST PUSH2 0x19B JUMP JUMPDEST PUSH2 0xC2 PUSH2 0x11C CALLDATASIZE PUSH1 0x4 PUSH2 0xCD8 JUMP JUMPDEST PUSH2 0x1E5 JUMP JUMPDEST PUSH2 0xC2 PUSH2 0x12F CALLDATASIZE PUSH1 0x4 PUSH2 0xD0D JUMP JUMPDEST PUSH2 0x71E JUMP JUMPDEST PUSH2 0xC2 PUSH1 0x3 SLOAD DUP2 JUMP JUMPDEST PUSH2 0xC2 PUSH2 0x14B CALLDATASIZE PUSH1 0x4 PUSH2 0xD0D JUMP JUMPDEST PUSH2 0x793 JUMP JUMPDEST PUSH2 0xC2 PUSH1 0x2 SLOAD DUP2 JUMP JUMPDEST PUSH2 0xC2 PUSH2 0x167 CALLDATASIZE PUSH1 0x4 PUSH2 0xD26 JUMP JUMPDEST PUSH2 0x7AA JUMP JUMPDEST PUSH2 0xC2 PUSH2 0x17A CALLDATASIZE PUSH1 0x4 PUSH2 0xD0D JUMP JUMPDEST PUSH2 0x7EA JUMP JUMPDEST PUSH2 0xC2 PUSH1 0x0 SLOAD DUP2 JUMP JUMPDEST PUSH2 0xC2 PUSH2 0x196 CALLDATASIZE PUSH1 0x4 PUSH2 0xCD8 JUMP JUMPDEST PUSH2 0xA97 JUMP JUMPDEST PUSH1 0x40 MLOAD PUSH4 0x6D696D63 PUSH1 0xE0 SHL PUSH1 0x20 DUP3 ADD DUP2 SWAP1 MSTORE PUSH1 0x0 SWAP2 PUSH2 0x1DB SWAP1 DUP6 SWAP1 DUP6 SWAP1 PUSH1 0x24 ADD PUSH1 0x40 MLOAD PUSH1 0x20 DUP2 DUP4 SUB SUB DUP2 MSTORE SWAP1 PUSH1 0x40 MSTORE DUP1 MLOAD SWAP1 PUSH1 0x20 ADD KECCAK256 PUSH1 0x0 SHR PUSH1 0x5B PUSH2 0xAA4 JUMP JUMPDEST SWAP2 POP POP JUMPDEST SWAP3 SWAP2 POP POP JUMP JUMPDEST PUSH1 0x0 DUP1 DUP3 MLOAD SWAP1 POP PUSH1 0x3 SLOAD PUSH1 0x2 SLOAD GT PUSH2 0x218 JUMPI PUSH1 0x40 MLOAD PUSH3 0x461BCD PUSH1 0xE5 SHL DUP2 MSTORE PUSH1 0x4 ADD PUSH2 0x20F SWAP1 PUSH2 0xD48 JUMP JUMPDEST PUSH1 0x40 MLOAD DUP1 SWAP2 SUB SWAP1 REVERT JUMPDEST PUSH1 0x3 SLOAD PUSH1 0x2 SLOAD PUSH2 0x228 SWAP2 SWAP1 PUSH2 0xDA1 JUMP JUMPDEST DUP2 GT ISZERO PUSH2 0x287 JUMPI PUSH1 0x0 PUSH1 0x3 SLOAD PUSH1 0x2 SLOAD PUSH2 0x241 SWAP2 SWAP1 PUSH2 0xDA1 JUMP JUMPDEST PUSH2 0x24B SWAP1 DUP4 PUSH2 0xDA1 JUMP JUMPDEST SWAP1 POP PUSH1 0x0 JUMPDEST DUP2 DUP2 LT ISZERO PUSH2 0x272 JUMPI DUP5 MLOAD PUSH1 0x0 NOT ADD DUP6 MSTORE DUP1 PUSH2 0x26A DUP2 PUSH2 0xDB4 JUMP JUMPDEST SWAP2 POP POP PUSH2 0x250 JUMP JUMPDEST POP PUSH1 0x3 SLOAD PUSH1 0x2 SLOAD PUSH2 0x283 SWAP2 SWAP1 PUSH2 0xDA1 JUMP JUMPDEST SWAP2 POP POP JUMPDEST PUSH1 0x40 DUP1 MLOAD PUSH1 0x2 DUP1 DUP3 MSTORE PUSH1 0x60 DUP3 ADD DUP4 MSTORE PUSH1 0x0 SWAP3 DUP4 SWAP3 DUP4 SWAP3 DUP4 SWAP3 DUP4 SWAP3 SWAP2 SWAP1 PUSH1 0x20 DUP4 ADD SWAP1 DUP1 CALLDATASIZE DUP4 CALLDATACOPY POP POP PUSH1 0x40 DUP1 MLOAD PUSH1 0x1 DUP1 DUP3 MSTORE DUP2 DUP4 ADD SWAP1 SWAP3 MSTORE SWAP3 SWAP4 POP PUSH1 0x0 SWAP3 SWAP2 POP PUSH1 0x20 DUP1 DUP4 ADD SWAP1 DUP1 CALLDATASIZE DUP4 CALLDATACOPY POP POP PUSH1 0x3 SLOAD SWAP2 SWAP3 POP POP JUMPDEST DUP8 PUSH1 0x3 SLOAD PUSH2 0x2E7 SWAP2 SWAP1 PUSH2 0xDCD JUMP JUMPDEST DUP2 LT ISZERO PUSH2 0x519 JUMPI DUP10 PUSH1 0x3 SLOAD DUP3 PUSH2 0x2FD SWAP2 SWAP1 PUSH2 0xDA1 JUMP JUMPDEST DUP2 MLOAD DUP2 LT PUSH2 0x30D JUMPI PUSH2 0x30D PUSH2 0xDE0 JUMP JUMPDEST PUSH1 0x20 MUL PUSH1 0x20 ADD ADD MLOAD SWAP4 POP PUSH1 0x1 PUSH1 0x2 SLOAD DUP3 PUSH2 0x327 SWAP2 SWAP1 PUSH2 0xDCD JUMP JUMPDEST PUSH2 0x331 SWAP2 SWAP1 PUSH2 0xDA1 JUMP JUMPDEST SWAP6 POP PUSH2 0x33C DUP2 PUSH2 0x71E JUMP JUMPDEST SWAP7 POP DUP7 PUSH1 0x0 SUB PUSH2 0x361 JUMPI DUP4 PUSH1 0x4 DUP9 PUSH1 0x21 DUP2 LT PUSH2 0x35A JUMPI PUSH2 0x35A PUSH2 0xDE0 JUMP JUMPDEST ADD SSTORE PUSH2 0x507 JUMP JUMPDEST PUSH1 0x1 JUMPDEST DUP8 DUP2 GT PUSH2 0x4EF JUMPI PUSH2 0x376 PUSH1 0x2 DUP9 PUSH2 0xE0C JUMP JUMPDEST PUSH1 0x0 SUB PUSH2 0x443 JUMPI PUSH1 0x4 PUSH2 0x38A PUSH1 0x1 DUP4 PUSH2 0xDA1 JUMP JUMPDEST PUSH1 0x21 DUP2 LT PUSH2 0x39A JUMPI PUSH2 0x39A PUSH2 0xDE0 JUMP JUMPDEST ADD SLOAD DUP5 PUSH1 0x0 DUP2 MLOAD DUP2 LT PUSH2 0x3AF JUMPI PUSH2 0x3AF PUSH2 0xDE0 JUMP JUMPDEST PUSH1 0x20 MUL PUSH1 0x20 ADD ADD DUP2 DUP2 MSTORE POP POP DUP5 DUP5 PUSH1 0x1 DUP2 MLOAD DUP2 LT PUSH2 0x3CF JUMPI PUSH2 0x3CF PUSH2 0xDE0 JUMP JUMPDEST PUSH1 0x20 MUL PUSH1 0x20 ADD ADD DUP2 DUP2 MSTORE POP POP PUSH2 0x3E4 DUP5 PUSH2 0xA97 JUMP JUMPDEST DUP4 PUSH1 0x0 DUP2 MLOAD DUP2 LT PUSH2 0x3F7 JUMPI PUSH2 0x3F7 PUSH2 0xDE0 JUMP JUMPDEST PUSH1 0x20 MUL PUSH1 0x20 ADD ADD DUP2 DUP2 MSTORE POP POP DUP3 PUSH1 0x0 DUP2 MLOAD DUP2 LT PUSH2 0x416 JUMPI PUSH2 0x416 PUSH2 0xDE0 JUMP JUMPDEST PUSH1 0x20 MUL PUSH1 0x20 ADD ADD MLOAD SWAP5 POP DUP7 SWAP6 POP PUSH1 0x2 PUSH1 0x1 DUP9 PUSH2 0x432 SWAP2 SWAP1 PUSH2 0xDA1 JUMP JUMPDEST PUSH2 0x43C SWAP2 SWAP1 PUSH2 0xE20 JUMP JUMPDEST SWAP7 POP PUSH2 0x4DD JUMP JUMPDEST DUP5 DUP5 PUSH1 0x0 DUP2 MLOAD DUP2 LT PUSH2 0x457 JUMPI PUSH2 0x457 PUSH2 0xDE0 JUMP JUMPDEST PUSH1 0x20 MUL PUSH1 0x20 ADD ADD DUP2 DUP2 MSTORE POP POP PUSH1 0x0 SLOAD DUP5 PUSH1 0x1 DUP2 MLOAD DUP2 LT PUSH2 0x479 JUMPI PUSH2 0x479 PUSH2 0xDE0 JUMP JUMPDEST PUSH1 0x20 MUL PUSH1 0x20 ADD ADD DUP2 DUP2 MSTORE POP POP PUSH2 0x48E DUP5 PUSH2 0xA97 JUMP JUMPDEST DUP4 PUSH1 0x0 DUP2 MLOAD DUP2 LT PUSH2 0x4A1 JUMPI PUSH2 0x4A1 PUSH2 0xDE0 JUMP JUMPDEST PUSH1 0x20 MUL PUSH1 0x20 ADD ADD DUP2 DUP2 MSTORE POP POP DUP3 PUSH1 0x0 DUP2 MLOAD DUP2 LT PUSH2 0x4C0 JUMPI PUSH2 0x4C0 PUSH2 0xDE0 JUMP JUMPDEST PUSH1 0x20 MUL PUSH1 0x20 ADD ADD MLOAD SWAP5 POP DUP7 SWAP6 POP PUSH1 0x2 DUP8 PUSH2 0x4DA SWAP2 SWAP1 PUSH2 0xE20 JUMP JUMPDEST SWAP7 POP JUMPDEST DUP1 PUSH2 0x4E7 DUP2 PUSH2 0xDB4 JUMP JUMPDEST SWAP2 POP POP PUSH2 0x364 JUMP JUMPDEST POP DUP4 PUSH1 0x4 DUP9 PUSH1 0x21 DUP2 LT PUSH2 0x504 JUMPI PUSH2 0x504 PUSH2 0xDE0 JUMP JUMPDEST ADD SSTORE JUMPDEST DUP1 PUSH2 0x511 DUP2 PUSH2 0xDB4 JUMP JUMPDEST SWAP2 POP POP PUSH2 0x2D9 JUMP JUMPDEST POP PUSH1 0x0 PUSH2 0x527 DUP8 PUSH1 0x1 PUSH2 0xDCD JUMP JUMPDEST SWAP1 POP JUMPDEST PUSH1 0x1 SLOAD DUP2 GT PUSH2 0x6B7 JUMPI PUSH2 0x53E PUSH1 0x2 DUP8 PUSH2 0xE0C JUMP JUMPDEST PUSH1 0x0 SUB PUSH2 0x60B JUMPI PUSH1 0x4 PUSH2 0x552 PUSH1 0x1 DUP4 PUSH2 0xDA1 JUMP JUMPDEST PUSH1 0x21 DUP2 LT PUSH2 0x562 JUMPI PUSH2 0x562 PUSH2 0xDE0 JUMP JUMPDEST ADD SLOAD DUP4 PUSH1 0x0 DUP2 MLOAD DUP2 LT PUSH2 0x577 JUMPI PUSH2 0x577 PUSH2 0xDE0 JUMP JUMPDEST PUSH1 0x20 MUL PUSH1 0x20 ADD ADD DUP2 DUP2 MSTORE POP POP DUP4 DUP4 PUSH1 0x1 DUP2 MLOAD DUP2 LT PUSH2 0x597 JUMPI PUSH2 0x597 PUSH2 0xDE0 JUMP JUMPDEST PUSH1 0x20 MUL PUSH1 0x20 ADD ADD DUP2 DUP2 MSTORE POP POP PUSH2 0x5AC DUP4 PUSH2 0xA97 JUMP JUMPDEST DUP3 PUSH1 0x0 DUP2 MLOAD DUP2 LT PUSH2 0x5BF JUMPI PUSH2 0x5BF PUSH2 0xDE0 JUMP JUMPDEST PUSH1 0x20 MUL PUSH1 0x20 ADD ADD DUP2 DUP2 MSTORE POP POP DUP2 PUSH1 0x0 DUP2 MLOAD DUP2 LT PUSH2 0x5DE JUMPI PUSH2 0x5DE PUSH2 0xDE0 JUMP JUMPDEST PUSH1 0x20 MUL PUSH1 0x20 ADD ADD MLOAD SWAP4 POP DUP6 SWAP5 POP PUSH1 0x2 PUSH1 0x1 DUP8 PUSH2 0x5FA SWAP2 SWAP1 PUSH2 0xDA1 JUMP JUMPDEST PUSH2 0x604 SWAP2 SWAP1 PUSH2 0xE20 JUMP JUMPDEST SWAP6 POP PUSH2 0x6A5 JUMP JUMPDEST DUP4 DUP4 PUSH1 0x0 DUP2 MLOAD DUP2 LT PUSH2 0x61F JUMPI PUSH2 0x61F PUSH2 0xDE0 JUMP JUMPDEST PUSH1 0x20 MUL PUSH1 0x20 ADD ADD DUP2 DUP2 MSTORE POP POP PUSH1 0x0 SLOAD DUP4 PUSH1 0x1 DUP2 MLOAD DUP2 LT PUSH2 0x641 JUMPI PUSH2 0x641 PUSH2 0xDE0 JUMP JUMPDEST PUSH1 0x20 MUL PUSH1 0x20 ADD ADD DUP2 DUP2 MSTORE POP POP PUSH2 0x656 DUP4 PUSH2 0xA97 JUMP JUMPDEST DUP3 PUSH1 0x0 DUP2 MLOAD DUP2 LT PUSH2 0x669 JUMPI PUSH2 0x669 PUSH2 0xDE0 JUMP JUMPDEST PUSH1 0x20 MUL PUSH1 0x20 ADD ADD DUP2 DUP2 MSTORE POP POP DUP2 PUSH1 0x0 DUP2 MLOAD DUP2 LT PUSH2 0x688 JUMPI PUSH2 0x688 PUSH2 0xDE0 JUMP JUMPDEST PUSH1 0x20 MUL PUSH1 0x20 ADD ADD MLOAD SWAP4 POP DUP6 SWAP5 POP PUSH1 0x2 DUP7 PUSH2 0x6A2 SWAP2 SWAP1 PUSH2 0xE20 JUMP JUMPDEST SWAP6 POP JUMPDEST DUP1 PUSH2 0x6AF DUP2 PUSH2 0xDB4 JUMP JUMPDEST SWAP2 POP POP PUSH2 0x52A JUMP JUMPDEST POP PUSH1 0x3 SLOAD PUSH1 0x40 MLOAD SWAP4 SWAP9 POP DUP9 SWAP4 PUSH32 0x39623A9BBCAF7943AF164A1AEE0FD809F7101D4D8C7727239DACE363779587DB SWAP2 PUSH2 0x6F2 SWAP2 DUP13 SWAP1 DUP8 SWAP1 PUSH2 0xE34 JUMP JUMPDEST PUSH1 0x40 MLOAD DUP1 SWAP2 SUB SWAP1 LOG1 DUP7 PUSH1 0x3 PUSH1 0x0 DUP3 DUP3 SLOAD PUSH2 0x70C SWAP2 SWAP1 PUSH2 0xDCD JUMP JUMPDEST SWAP1 SWAP2 SSTORE POP SWAP8 SWAP10 SWAP9 POP POP POP POP POP POP POP POP POP JUMP JUMPDEST PUSH1 0x0 PUSH2 0x72B PUSH1 0x2 DUP4 PUSH2 0xE0C JUMP JUMPDEST PUSH1 0x1 SUB PUSH2 0x78E JUMPI PUSH1 0x1 PUSH1 0x2 PUSH1 0x4 JUMPDEST DUP4 PUSH1 0x0 SUB PUSH2 0x78A JUMPI DUP1 DUP3 PUSH2 0x74E DUP8 PUSH1 0x1 PUSH2 0xDCD JUMP JUMPDEST PUSH2 0x758 SWAP2 SWAP1 PUSH2 0xDA1 JUMP JUMPDEST PUSH2 0x762 SWAP2 SWAP1 PUSH2 0xE0C JUMP JUMPDEST PUSH1 0x0 SUB PUSH2 0x771 JUMPI DUP3 SWAP4 POP PUSH2 0x739 JUMP JUMPDEST SWAP1 POP PUSH1 0x1 DUP2 SWAP1 SHL DUP3 PUSH2 0x782 DUP2 PUSH2 0xDB4 JUMP JUMPDEST SWAP4 POP POP PUSH2 0x739 JUMP JUMPDEST POP POP POP JUMPDEST SWAP2 SWAP1 POP JUMP JUMPDEST PUSH1 0x4 DUP2 PUSH1 0x21 DUP2 LT PUSH2 0x7A3 JUMPI PUSH1 0x0 DUP1 REVERT JUMPDEST ADD SLOAD SWAP1 POP DUP2 JUMP JUMPDEST PUSH1 0x40 MLOAD PUSH4 0x6D696D63 PUSH1 0xE0 SHL PUSH1 0x20 DUP3 ADD DUP2 SWAP1 MSTORE PUSH1 0x0 SWAP2 PUSH2 0x1DB SWAP1 DUP6 SWAP1 DUP6 SWAP1 PUSH1 0x24 ADD PUSH1 0x40 MLOAD PUSH1 0x20 DUP2 DUP4 SUB SUB DUP2 MSTORE SWAP1 PUSH1 0x40 MSTORE DUP1 MLOAD SWAP1 PUSH1 0x20 ADD KECCAK256 PUSH1 0x0 SHR PUSH1 0x5B PUSH2 0xB5C JUMP JUMPDEST PUSH1 0x0 PUSH1 0x3 SLOAD PUSH1 0x2 SLOAD GT PUSH2 0x80F JUMPI PUSH1 0x40 MLOAD PUSH3 0x461BCD PUSH1 0xE5 SHL DUP2 MSTORE PUSH1 0x4 ADD PUSH2 0x20F SWAP1 PUSH2 0xD48 JUMP JUMPDEST PUSH1 0x0 PUSH2 0x81C PUSH1 0x3 SLOAD PUSH2 0x71E JUMP JUMPDEST SWAP1 POP PUSH1 0x0 PUSH1 0x1 PUSH1 0x2 SLOAD PUSH1 0x3 SLOAD PUSH2 0x832 SWAP2 SWAP1 PUSH2 0xDCD JUMP JUMPDEST PUSH2 0x83C SWAP2 SWAP1 PUSH2 0xDA1 JUMP JUMPDEST PUSH1 0x40 DUP1 MLOAD PUSH1 0x2 DUP1 DUP3 MSTORE PUSH1 0x60 DUP3 ADD DUP4 MSTORE SWAP3 SWAP4 POP PUSH1 0x0 SWAP3 DUP8 SWAP3 DUP5 SWAP3 SWAP2 SWAP1 PUSH1 0x20 DUP4 ADD SWAP1 DUP1 CALLDATASIZE DUP4 CALLDATACOPY POP POP PUSH1 0x40 DUP1 MLOAD PUSH1 0x1 DUP1 DUP3 MSTORE DUP2 DUP4 ADD SWAP1 SWAP3 MSTORE SWAP3 SWAP4 POP PUSH1 0x0 SWAP3 SWAP2 POP PUSH1 0x20 DUP1 DUP4 ADD SWAP1 DUP1 CALLDATASIZE DUP4 CALLDATACOPY ADD SWAP1 POP POP SWAP1 POP PUSH1 0x0 JUMPDEST PUSH1 0x1 SLOAD DUP2 LT ISZERO PUSH2 0xA2E JUMPI DUP7 DUP2 SUB PUSH2 0x8B4 JUMPI DUP4 PUSH1 0x4 DUP9 PUSH1 0x21 DUP2 LT PUSH2 0x8B1 JUMPI PUSH2 0x8B1 PUSH2 0xDE0 JUMP JUMPDEST ADD SSTORE JUMPDEST PUSH2 0x8BF PUSH1 0x2 DUP8 PUSH2 0xE0C JUMP JUMPDEST PUSH1 0x0 SUB PUSH2 0x982 JUMPI PUSH1 0x4 DUP2 PUSH1 0x21 DUP2 LT PUSH2 0x8D9 JUMPI PUSH2 0x8D9 PUSH2 0xDE0 JUMP JUMPDEST ADD SLOAD DUP4 PUSH1 0x0 DUP2 MLOAD DUP2 LT PUSH2 0x8EE JUMPI PUSH2 0x8EE PUSH2 0xDE0 JUMP JUMPDEST PUSH1 0x20 MUL PUSH1 0x20 ADD ADD DUP2 DUP2 MSTORE POP POP DUP4 DUP4 PUSH1 0x1 DUP2 MLOAD DUP2 LT PUSH2 0x90E JUMPI PUSH2 0x90E PUSH2 0xDE0 JUMP JUMPDEST PUSH1 0x20 MUL PUSH1 0x20 ADD ADD DUP2 DUP2 MSTORE POP POP PUSH2 0x923 DUP4 PUSH2 0xA97 JUMP JUMPDEST DUP3 PUSH1 0x0 DUP2 MLOAD DUP2 LT PUSH2 0x936 JUMPI PUSH2 0x936 PUSH2 0xDE0 JUMP JUMPDEST PUSH1 0x20 MUL PUSH1 0x20 ADD ADD DUP2 DUP2 MSTORE POP POP DUP2 PUSH1 0x0 DUP2 MLOAD DUP2 LT PUSH2 0x955 JUMPI PUSH2 0x955 PUSH2 0xDE0 JUMP JUMPDEST PUSH1 0x20 MUL PUSH1 0x20 ADD ADD MLOAD SWAP4 POP DUP6 SWAP5 POP PUSH1 0x2 PUSH1 0x1 DUP8 PUSH2 0x971 SWAP2 SWAP1 PUSH2 0xDA1 JUMP JUMPDEST PUSH2 0x97B SWAP2 SWAP1 PUSH2 0xE20 JUMP JUMPDEST SWAP6 POP PUSH2 0xA1C JUMP JUMPDEST DUP4 DUP4 PUSH1 0x0 DUP2 MLOAD DUP2 LT PUSH2 0x996 JUMPI PUSH2 0x996 PUSH2 0xDE0 JUMP JUMPDEST PUSH1 0x20 MUL PUSH1 0x20 ADD ADD DUP2 DUP2 MSTORE POP POP PUSH1 0x0 SLOAD DUP4 PUSH1 0x1 DUP2 MLOAD DUP2 LT PUSH2 0x9B8 JUMPI PUSH2 0x9B8 PUSH2 0xDE0 JUMP JUMPDEST PUSH1 0x20 MUL PUSH1 0x20 ADD ADD DUP2 DUP2 MSTORE POP POP PUSH2 0x9CD DUP4 PUSH2 0xA97 JUMP JUMPDEST DUP3 PUSH1 0x0 DUP2 MLOAD DUP2 LT PUSH2 0x9E0 JUMPI PUSH2 0x9E0 PUSH2 0xDE0 JUMP JUMPDEST PUSH1 0x20 MUL PUSH1 0x20 ADD ADD DUP2 DUP2 MSTORE POP POP DUP2 PUSH1 0x0 DUP2 MLOAD DUP2 LT PUSH2 0x9FF JUMPI PUSH2 0x9FF PUSH2 0xDE0 JUMP JUMPDEST PUSH1 0x20 MUL PUSH1 0x20 ADD ADD MLOAD SWAP4 POP DUP6 SWAP5 POP PUSH1 0x2 DUP7 PUSH2 0xA19 SWAP2 SWAP1 PUSH2 0xE20 JUMP JUMPDEST SWAP6 POP JUMPDEST DUP1 PUSH2 0xA26 DUP2 PUSH2 0xDB4 JUMP JUMPDEST SWAP2 POP POP PUSH2 0x88C JUMP JUMPDEST POP PUSH1 0x3 SLOAD PUSH1 0x40 DUP1 MLOAD SWAP2 DUP3 MSTORE PUSH1 0x20 DUP3 ADD DUP11 SWAP1 MSTORE DUP2 ADD DUP5 SWAP1 MSTORE SWAP3 SWAP7 POP DUP7 SWAP3 PUSH32 0x522933B35BBCA3F00D1A1AE17C09663F9286C4D868DC335A0CA99A970BC08784 SWAP1 PUSH1 0x60 ADD PUSH1 0x40 MLOAD DUP1 SWAP2 SUB SWAP1 LOG1 PUSH1 0x3 DUP1 SLOAD SWAP1 PUSH1 0x0 PUSH2 0xA87 DUP4 PUSH2 0xDB4 JUMP JUMPDEST SWAP2 SWAP1 POP SSTORE POP POP POP POP POP POP POP SWAP2 SWAP1 POP JUMP JUMPDEST PUSH1 0x0 PUSH2 0x1DF DUP3 PUSH1 0x0 PUSH2 0x19B JUMP JUMPDEST PUSH1 0x0 DUP4 PUSH32 0x30644E72E131A029B85045B68181585D2833E84879B9709143E1F593F0000001 DUP3 JUMPDEST DUP8 MLOAD DUP2 LT ISZERO PUSH2 0xB50 JUMPI DUP2 PUSH2 0xAF9 DUP10 DUP4 DUP2 MLOAD DUP2 LT PUSH2 0xAE9 JUMPI PUSH2 0xAE9 PUSH2 0xDE0 JUMP JUMPDEST PUSH1 0x20 MUL PUSH1 0x20 ADD ADD MLOAD DUP6 DUP10 DUP10 PUSH2 0xB5C JUMP JUMPDEST DUP4 DUP11 DUP5 DUP2 MLOAD DUP2 LT PUSH2 0xB0C JUMPI PUSH2 0xB0C PUSH2 0xDE0 JUMP JUMPDEST PUSH1 0x20 MUL PUSH1 0x20 ADD ADD MLOAD PUSH2 0xB1E SWAP2 SWAP1 PUSH2 0xE0C JUMP JUMPDEST PUSH2 0xB28 SWAP1 DUP7 PUSH2 0xDCD JUMP JUMPDEST PUSH2 0xB32 SWAP2 SWAP1 PUSH2 0xDCD JUMP JUMPDEST PUSH2 0xB3C SWAP2 SWAP1 PUSH2 0xE0C JUMP JUMPDEST SWAP3 POP DUP1 PUSH2 0xB48 DUP2 PUSH2 0xDB4 JUMP JUMPDEST SWAP2 POP POP PUSH2 0xACA JUMP JUMPDEST POP SWAP1 SWAP7 SWAP6 POP POP POP POP POP POP JUMP JUMPDEST PUSH1 0x0 PUSH1 0x1 DUP3 LT ISZERO PUSH2 0xB6C JUMPI PUSH1 0x0 DUP1 REVERT JUMPDEST PUSH1 0x40 MLOAD PUSH1 0x20 DUP2 ADD PUSH1 0x40 MSTORE DUP4 DUP2 MSTORE PUSH32 0x30644E72E131A029B85045B68181585D2833E84879B9709143E1F593F0000001 PUSH1 0x0 DUP1 DUP6 JUMPDEST DUP1 ISZERO PUSH2 0xBD0 JUMPI PUSH1 0x20 DUP6 KECCAK256 DUP6 MSTORE DUP4 DUP10 DUP6 DUP8 MLOAD DUP14 ADDMOD ADDMOD SWAP3 POP DUP4 DUP4 DUP5 MULMOD SWAP2 POP DUP4 DUP4 DUP6 DUP7 DUP6 DUP7 MULMOD DUP6 MULMOD MULMOD SWAP10 POP PUSH1 0x0 NOT ADD PUSH2 0xB9F JUMP JUMPDEST POP POP POP DUP1 DUP7 DUP9 ADDMOD SWAP8 SWAP7 POP POP POP POP POP POP POP JUMP JUMPDEST PUSH4 0x4E487B71 PUSH1 0xE0 SHL PUSH1 0x0 MSTORE PUSH1 0x41 PUSH1 0x4 MSTORE PUSH1 0x24 PUSH1 0x0 REVERT JUMPDEST PUSH1 0x0 DUP3 PUSH1 0x1F DUP4 ADD SLT PUSH2 0xC09 JUMPI PUSH1 0x0 DUP1 REVERT JUMPDEST DUP2 CALLDATALOAD PUSH1 0x20 PUSH8 0xFFFFFFFFFFFFFFFF DUP1 DUP4 GT ISZERO PUSH2 0xC26 JUMPI PUSH2 0xC26 PUSH2 0xBE2 JUMP JUMPDEST DUP3 PUSH1 0x5 SHL PUSH1 0x40 MLOAD PUSH1 0x1F NOT PUSH1 0x3F DUP4 ADD AND DUP2 ADD DUP2 DUP2 LT DUP5 DUP3 GT OR ISZERO PUSH2 0xC4B JUMPI PUSH2 0xC4B PUSH2 0xBE2 JUMP JUMPDEST PUSH1 0x40 MSTORE SWAP4 DUP5 MSTORE DUP6 DUP2 ADD DUP4 ADD SWAP4 DUP4 DUP2 ADD SWAP3 POP DUP8 DUP6 GT ISZERO PUSH2 0xC69 JUMPI PUSH1 0x0 DUP1 REVERT JUMPDEST DUP4 DUP8 ADD SWAP2 POP JUMPDEST DUP5 DUP3 LT ISZERO PUSH2 0xC88 JUMPI DUP2 CALLDATALOAD DUP4 MSTORE SWAP2 DUP4 ADD SWAP2 SWAP1 DUP4 ADD SWAP1 PUSH2 0xC6F JUMP JUMPDEST SWAP8 SWAP7 POP POP POP POP POP POP POP JUMP JUMPDEST PUSH1 0x0 DUP1 PUSH1 0x40 DUP4 DUP6 SUB SLT ISZERO PUSH2 0xCA6 JUMPI PUSH1 0x0 DUP1 REVERT JUMPDEST DUP3 CALLDATALOAD PUSH8 0xFFFFFFFFFFFFFFFF DUP2 GT ISZERO PUSH2 0xCBD JUMPI PUSH1 0x0 DUP1 REVERT JUMPDEST PUSH2 0xCC9 DUP6 DUP3 DUP7 ADD PUSH2 0xBF8 JUMP JUMPDEST SWAP6 PUSH1 0x20 SWAP5 SWAP1 SWAP5 ADD CALLDATALOAD SWAP5 POP POP POP POP JUMP JUMPDEST PUSH1 0x0 PUSH1 0x20 DUP3 DUP5 SUB SLT ISZERO PUSH2 0xCEA JUMPI PUSH1 0x0 DUP1 REVERT JUMPDEST DUP2 CALLDATALOAD PUSH8 0xFFFFFFFFFFFFFFFF DUP2 GT ISZERO PUSH2 0xD01 JUMPI PUSH1 0x0 DUP1 REVERT JUMPDEST PUSH2 0x1DB DUP5 DUP3 DUP6 ADD PUSH2 0xBF8 JUMP JUMPDEST PUSH1 0x0 PUSH1 0x20 DUP3 DUP5 SUB SLT ISZERO PUSH2 0xD1F JUMPI PUSH1 0x0 DUP1 REVERT JUMPDEST POP CALLDATALOAD SWAP2 SWAP1 POP JUMP JUMPDEST PUSH1 0x0 DUP1 PUSH1 0x40 DUP4 DUP6 SUB SLT ISZERO PUSH2 0xD39 JUMPI PUSH1 0x0 DUP1 REVERT JUMPDEST POP POP DUP1 CALLDATALOAD SWAP3 PUSH1 0x20 SWAP1 SWAP2 ADD CALLDATALOAD SWAP2 POP JUMP JUMPDEST PUSH1 0x20 DUP1 DUP3 MSTORE PUSH1 0x23 SWAP1 DUP3 ADD MSTORE PUSH32 0x5468657265206973206E6F207370616365206C65667420696E20746865207472 PUSH1 0x40 DUP3 ADD MSTORE PUSH3 0x32B297 PUSH1 0xE9 SHL PUSH1 0x60 DUP3 ADD MSTORE PUSH1 0x80 ADD SWAP1 JUMP JUMPDEST PUSH4 0x4E487B71 PUSH1 0xE0 SHL PUSH1 0x0 MSTORE PUSH1 0x11 PUSH1 0x4 MSTORE PUSH1 0x24 PUSH1 0x0 REVERT JUMPDEST DUP2 DUP2 SUB DUP2 DUP2 GT ISZERO PUSH2 0x1DF JUMPI PUSH2 0x1DF PUSH2 0xD8B JUMP JUMPDEST PUSH1 0x0 PUSH1 0x1 DUP3 ADD PUSH2 0xDC6 JUMPI PUSH2 0xDC6 PUSH2 0xD8B JUMP JUMPDEST POP PUSH1 0x1 ADD SWAP1 JUMP JUMPDEST DUP1 DUP3 ADD DUP1 DUP3 GT ISZERO PUSH2 0x1DF JUMPI PUSH2 0x1DF PUSH2 0xD8B JUMP JUMPDEST PUSH4 0x4E487B71 PUSH1 0xE0 SHL PUSH1 0x0 MSTORE PUSH1 0x32 PUSH1 0x4 MSTORE PUSH1 0x24 PUSH1 0x0 REVERT JUMPDEST PUSH4 0x4E487B71 PUSH1 0xE0 SHL PUSH1 0x0 MSTORE PUSH1 0x12 PUSH1 0x4 MSTORE PUSH1 0x24 PUSH1 0x0 REVERT JUMPDEST PUSH1 0x0 DUP3 PUSH2 0xE1B JUMPI PUSH2 0xE1B PUSH2 0xDF6 JUMP JUMPDEST POP MOD SWAP1 JUMP JUMPDEST PUSH1 0x0 DUP3 PUSH2 0xE2F JUMPI PUSH2 0xE2F PUSH2 0xDF6 JUMP JUMPDEST POP DIV SWAP1 JUMP JUMPDEST PUSH1 0x0 PUSH1 0x60 DUP3 ADD DUP6 DUP4 MSTORE PUSH1 0x20 PUSH1 0x60 DUP2 DUP6 ADD MSTORE DUP2 DUP7 MLOAD DUP1 DUP5 MSTORE PUSH1 0x80 DUP7 ADD SWAP2 POP DUP3 DUP9 ADD SWAP4 POP PUSH1 0x0 JUMPDEST DUP2 DUP2 LT ISZERO PUSH2 0xE75 JUMPI DUP5 MLOAD DUP4 MSTORE SWAP4 DUP4 ADD SWAP4 SWAP2 DUP4 ADD SWAP2 PUSH1 0x1 ADD PUSH2 0xE59 JUMP JUMPDEST POP POP DUP1 SWAP4 POP POP POP POP DUP3 PUSH1 0x40 DUP4 ADD MSTORE SWAP5 SWAP4 POP POP POP POP JUMP INVALID LOG2 PUSH5 0x6970667358 0x22 SLT KECCAK256 0xCD 0xCA ORIGIN 0xC5 DUP4 DUP3 BASEFEE EXP PUSH11 0xF4B2AF5443AF6211CA44A0 0x22 0xCD 0xE5 SLOAD 0xF7 DUP10 MUL 0xC7 0xD8 SWAP9 0xB0 BASEFEE PUSH5 0x736F6C6343 STOP ADDMOD SGT STOP CALLER "},"methodIdentifiers":{"Encipher(uint256,uint256)":"96d8d820","Hash(uint256[],uint256)":"0fa16e38","Initial_NullifierRoot()":"05bb4c40","frontier(uint256)":"6e0c3fee","getFrontierSlot(uint256)":"2a3a8183","insertLeaf(uint256)":"b7202434","insertLeaves(uint256[])":"176764b5","leafCount()":"30e69fc3","mimcHash(uint256[])":"cae8510d","treeHeight()":"01e3e915","treeWidth()":"76c601b1","zero()":"bc1b392d"}}}}}