{"contracts/merkle-tree/MiMC.sol":{"MiMC":{"abi":[{"inputs":[{"internalType":"uint256","name":"in_x","type":"uint256"},{"internalType":"uint256","name":"in_k","type":"uint256"}],"name":"Encipher","outputs":[{"internalType":"uint256","name":"out_x","type":"uint256"}],"stateMutability":"pure","type":"function"},{"inputs":[{"internalType":"uint256[]","name":"in_msgs","type":"uint256[]"},{"internalType":"uint256","name":"in_key","type":"uint256"}],"name":"Hash","outputs":[{"internalType":"uint256","name":"","type":"uint256"}],"stateMutability":"pure","type":"function"},{"inputs":[{"internalType":"uint256[]","name":"in_msgs","type":"uint256[]"}],"name":"mimcHash","outputs":[{"internalType":"uint256","name":"","type":"uint256"}],"stateMutability":"pure","type":"function"}],"evm":{"bytecode":{"linkReferences":{},"object":"608060405234801561001057600080fd5b50610463806100206000396000f3fe608060405234801561001057600080fd5b50600436106100415760003560e01c80630fa16e381461004657806396d8d8201461006b578063cae8510d1461007e575b600080fd5b610059610054366004610317565b610091565b60405190815260200160405180910390f35b61005961007936600461035c565b6100db565b61005961008c36600461037e565b61011b565b604051636d696d6360e01b602082018190526000916100d190859085906024016040516020818303038152906040528051906020012060001c605b610128565b9150505b92915050565b604051636d696d6360e01b602082018190526000916100d190859085906024016040516020818303038152906040528051906020012060001c605b6101e0565b60006100d5826000610091565b6000837f30644e72e131a029b85045b68181585d2833e84879b9709143e1f593f0000001825b87518110156101d4578161017d89838151811061016d5761016d6103b3565b60200260200101518589896101e0565b838a8481518110610190576101906103b3565b60200260200101516101a291906103c9565b6101ac9086610401565b6101b69190610401565b6101c091906103c9565b9250806101cc81610414565b91505061014e565b50909695505050505050565b600060018210156101f057600080fd5b604051602081016040528381527f30644e72e131a029b85045b68181585d2833e84879b9709143e1f593f0000001600080855b80156102545760208520855283898587518d0808925083838409915083838586858609850909995060001901610223565b50505080868808979650505050505050565b634e487b7160e01b600052604160045260246000fd5b600082601f83011261028d57600080fd5b8135602067ffffffffffffffff808311156102aa576102aa610266565b8260051b604051601f19603f830116810181811084821117156102cf576102cf610266565b6040529384528581018301938381019250878511156102ed57600080fd5b83870191505b8482101561030c578135835291830191908301906102f3565b979650505050505050565b6000806040838503121561032a57600080fd5b823567ffffffffffffffff81111561034157600080fd5b61034d8582860161027c565b95602094909401359450505050565b6000806040838503121561036f57600080fd5b50508035926020909101359150565b60006020828403121561039057600080fd5b813567ffffffffffffffff8111156103a757600080fd5b6100d18482850161027c565b634e487b7160e01b600052603260045260246000fd5b6000826103e657634e487b7160e01b600052601260045260246000fd5b500690565b634e487b7160e01b600052601160045260246000fd5b808201808211156100d5576100d56103eb565b600060018201610426576104266103eb565b506001019056fea26469706673582212206a99260e734f13af7f77ff9aa9fbc35f6766f30e999e4e2f2c813eed5671737f64736f6c63430008130033","opcodes":"PUSH1 0x80 PUSH1 0x40 MSTORE CALLVALUE DUP1 ISZERO PUSH2 0x10 JUMPI PUSH1 0x0 DUP1 REVERT JUMPDEST POP PUSH2 0x463 DUP1 PUSH2 0x20 PUSH1 0x0 CODECOPY PUSH1 0x0 RETURN INVALID PUSH1 0x80 PUSH1 0x40 MSTORE CALLVALUE DUP1 ISZERO PUSH2 0x10 JUMPI PUSH1 0x0 DUP1 REVERT JUMPDEST POP PUSH1 0x4 CALLDATASIZE LT PUSH2 0x41 JUMPI PUSH1 0x0 CALLDATALOAD PUSH1 0xE0 SHR DUP1 PUSH4 0xFA16E38 EQ PUSH2 0x46 JUMPI DUP1 PUSH4 0x96D8D820 EQ PUSH2 0x6B JUMPI DUP1 PUSH4 0xCAE8510D EQ PUSH2 0x7E JUMPI JUMPDEST PUSH1 0x0 DUP1 REVERT JUMPDEST PUSH2 0x59 PUSH2 0x54 CALLDATASIZE PUSH1 0x4 PUSH2 0x317 JUMP JUMPDEST PUSH2 0x91 JUMP JUMPDEST PUSH1 0x40 MLOAD SWAP1 DUP2 MSTORE PUSH1 0x20 ADD PUSH1 0x40 MLOAD DUP1 SWAP2 SUB SWAP1 RETURN JUMPDEST PUSH2 0x59 PUSH2 0x79 CALLDATASIZE PUSH1 0x4 PUSH2 0x35C JUMP JUMPDEST PUSH2 0xDB JUMP JUMPDEST PUSH2 0x59 PUSH2 0x8C CALLDATASIZE PUSH1 0x4 PUSH2 0x37E JUMP JUMPDEST PUSH2 0x11B JUMP JUMPDEST PUSH1 0x40 MLOAD PUSH4 0x6D696D63 PUSH1 0xE0 SHL PUSH1 0x20 DUP3 ADD DUP2 SWAP1 MSTORE PUSH1 0x0 SWAP2 PUSH2 0xD1 SWAP1 DUP6 SWAP1 DUP6 SWAP1 PUSH1 0x24 ADD PUSH1 0x40 MLOAD PUSH1 0x20 DUP2 DUP4 SUB SUB DUP2 MSTORE SWAP1 PUSH1 0x40 MSTORE DUP1 MLOAD SWAP1 PUSH1 0x20 ADD KECCAK256 PUSH1 0x0 SHR PUSH1 0x5B PUSH2 0x128 JUMP JUMPDEST SWAP2 POP POP JUMPDEST SWAP3 SWAP2 POP POP JUMP JUMPDEST PUSH1 0x40 MLOAD PUSH4 0x6D696D63 PUSH1 0xE0 SHL PUSH1 0x20 DUP3 ADD DUP2 SWAP1 MSTORE PUSH1 0x0 SWAP2 PUSH2 0xD1 SWAP1 DUP6 SWAP1 DUP6 SWAP1 PUSH1 0x24 ADD PUSH1 0x40 MLOAD PUSH1 0x20 DUP2 DUP4 SUB SUB DUP2 MSTORE SWAP1 PUSH1 0x40 MSTORE DUP1 MLOAD SWAP1 PUSH1 0x20 ADD KECCAK256 PUSH1 0x0 SHR PUSH1 0x5B PUSH2 0x1E0 JUMP JUMPDEST PUSH1 0x0 PUSH2 0xD5 DUP3 PUSH1 0x0 PUSH2 0x91 JUMP JUMPDEST PUSH1 0x0 DUP4 PUSH32 0x30644E72E131A029B85045B68181585D2833E84879B9709143E1F593F0000001 DUP3 JUMPDEST DUP8 MLOAD DUP2 LT ISZERO PUSH2 0x1D4 JUMPI DUP2 PUSH2 0x17D DUP10 DUP4 DUP2 MLOAD DUP2 LT PUSH2 0x16D JUMPI PUSH2 0x16D PUSH2 0x3B3 JUMP JUMPDEST PUSH1 0x20 MUL PUSH1 0x20 ADD ADD MLOAD DUP6 DUP10 DUP10 PUSH2 0x1E0 JUMP JUMPDEST DUP4 DUP11 DUP5 DUP2 MLOAD DUP2 LT PUSH2 0x190 JUMPI PUSH2 0x190 PUSH2 0x3B3 JUMP JUMPDEST PUSH1 0x20 MUL PUSH1 0x20 ADD ADD MLOAD PUSH2 0x1A2 SWAP2 SWAP1 PUSH2 0x3C9 JUMP JUMPDEST PUSH2 0x1AC SWAP1 DUP7 PUSH2 0x401 JUMP JUMPDEST PUSH2 0x1B6 SWAP2 SWAP1 PUSH2 0x401 JUMP JUMPDEST PUSH2 0x1C0 SWAP2 SWAP1 PUSH2 0x3C9 JUMP JUMPDEST SWAP3 POP DUP1 PUSH2 0x1CC DUP2 PUSH2 0x414 JUMP JUMPDEST SWAP2 POP POP PUSH2 0x14E JUMP JUMPDEST POP SWAP1 SWAP7 SWAP6 POP POP POP POP POP POP JUMP JUMPDEST PUSH1 0x0 PUSH1 0x1 DUP3 LT ISZERO PUSH2 0x1F0 JUMPI PUSH1 0x0 DUP1 REVERT JUMPDEST PUSH1 0x40 MLOAD PUSH1 0x20 DUP2 ADD PUSH1 0x40 MSTORE DUP4 DUP2 MSTORE PUSH32 0x30644E72E131A029B85045B68181585D2833E84879B9709143E1F593F0000001 PUSH1 0x0 DUP1 DUP6 JUMPDEST DUP1 ISZERO PUSH2 0x254 JUMPI PUSH1 0x20 DUP6 KECCAK256 DUP6 MSTORE DUP4 DUP10 DUP6 DUP8 MLOAD DUP14 ADDMOD ADDMOD SWAP3 POP DUP4 DUP4 DUP5 MULMOD SWAP2 POP DUP4 DUP4 DUP6 DUP7 DUP6 DUP7 MULMOD DUP6 MULMOD MULMOD SWAP10 POP PUSH1 0x0 NOT ADD PUSH2 0x223 JUMP JUMPDEST POP POP POP DUP1 DUP7 DUP9 ADDMOD SWAP8 SWAP7 POP POP POP POP POP POP POP JUMP JUMPDEST PUSH4 0x4E487B71 PUSH1 0xE0 SHL PUSH1 0x0 MSTORE PUSH1 0x41 PUSH1 0x4 MSTORE PUSH1 0x24 PUSH1 0x0 REVERT JUMPDEST PUSH1 0x0 DUP3 PUSH1 0x1F DUP4 ADD SLT PUSH2 0x28D JUMPI PUSH1 0x0 DUP1 REVERT JUMPDEST DUP2 CALLDATALOAD PUSH1 0x20 PUSH8 0xFFFFFFFFFFFFFFFF DUP1 DUP4 GT ISZERO PUSH2 0x2AA JUMPI PUSH2 0x2AA PUSH2 0x266 JUMP JUMPDEST DUP3 PUSH1 0x5 SHL PUSH1 0x40 MLOAD PUSH1 0x1F NOT PUSH1 0x3F DUP4 ADD AND DUP2 ADD DUP2 DUP2 LT DUP5 DUP3 GT OR ISZERO PUSH2 0x2CF JUMPI PUSH2 0x2CF PUSH2 0x266 JUMP JUMPDEST PUSH1 0x40 MSTORE SWAP4 DUP5 MSTORE DUP6 DUP2 ADD DUP4 ADD SWAP4 DUP4 DUP2 ADD SWAP3 POP DUP8 DUP6 GT ISZERO PUSH2 0x2ED JUMPI PUSH1 0x0 DUP1 REVERT JUMPDEST DUP4 DUP8 ADD SWAP2 POP JUMPDEST DUP5 DUP3 LT ISZERO PUSH2 0x30C JUMPI DUP2 CALLDATALOAD DUP4 MSTORE SWAP2 DUP4 ADD SWAP2 SWAP1 DUP4 ADD SWAP1 PUSH2 0x2F3 JUMP JUMPDEST SWAP8 SWAP7 POP POP POP POP POP POP POP JUMP JUMPDEST PUSH1 0x0 DUP1 PUSH1 0x40 DUP4 DUP6 SUB SLT ISZERO PUSH2 0x32A JUMPI PUSH1 0x0 DUP1 REVERT JUMPDEST DUP3 CALLDATALOAD PUSH8 0xFFFFFFFFFFFFFFFF DUP2 GT ISZERO PUSH2 0x341 JUMPI PUSH1 0x0 DUP1 REVERT JUMPDEST PUSH2 0x34D DUP6 DUP3 DUP7 ADD PUSH2 0x27C JUMP JUMPDEST SWAP6 PUSH1 0x20 SWAP5 SWAP1 SWAP5 ADD CALLDATALOAD SWAP5 POP POP POP POP JUMP JUMPDEST PUSH1 0x0 DUP1 PUSH1 0x40 DUP4 DUP6 SUB SLT ISZERO PUSH2 0x36F JUMPI PUSH1 0x0 DUP1 REVERT JUMPDEST POP POP DUP1 CALLDATALOAD SWAP3 PUSH1 0x20 SWAP1 SWAP2 ADD CALLDATALOAD SWAP2 POP JUMP JUMPDEST PUSH1 0x0 PUSH1 0x20 DUP3 DUP5 SUB SLT ISZERO PUSH2 0x390 JUMPI PUSH1 0x0 DUP1 REVERT JUMPDEST DUP2 CALLDATALOAD PUSH8 0xFFFFFFFFFFFFFFFF DUP2 GT ISZERO PUSH2 0x3A7 JUMPI PUSH1 0x0 DUP1 REVERT JUMPDEST PUSH2 0xD1 DUP5 DUP3 DUP6 ADD PUSH2 0x27C JUMP JUMPDEST PUSH4 0x4E487B71 PUSH1 0xE0 SHL PUSH1 0x0 MSTORE PUSH1 0x32 PUSH1 0x4 MSTORE PUSH1 0x24 PUSH1 0x0 REVERT JUMPDEST PUSH1 0x0 DUP3 PUSH2 0x3E6 JUMPI PUSH4 0x4E487B71 PUSH1 0xE0 SHL PUSH1 0x0 MSTORE PUSH1 0x12 PUSH1 0x4 MSTORE PUSH1 0x24 PUSH1 0x0 REVERT JUMPDEST POP MOD SWAP1 JUMP JUMPDEST PUSH4 0x4E487B71 PUSH1 0xE0 SHL PUSH1 0x0 MSTORE PUSH1 0x11 PUSH1 0x4 MSTORE PUSH1 0x24 PUSH1 0x0 REVERT JUMPDEST DUP1 DUP3 ADD DUP1 DUP3 GT ISZERO PUSH2 0xD5 JUMPI PUSH2 0xD5 PUSH2 0x3EB JUMP JUMPDEST PUSH1 0x0 PUSH1 0x1 DUP3 ADD PUSH2 0x426 JUMPI PUSH2 0x426 PUSH2 0x3EB JUMP JUMPDEST POP PUSH1 0x1 ADD SWAP1 JUMP INVALID LOG2 PUSH5 0x6970667358 0x22 SLT KECCAK256 PUSH11 0x99260E734F13AF7F77FF9A 0xA9 0xFB 0xC3 0x5F PUSH8 0x66F30E999E4E2F2C DUP2 RETURNDATACOPY 0xED JUMP PUSH18 0x737F64736F6C634300081300330000000000 "},"methodIdentifiers":{"Encipher(uint256,uint256)":"96d8d820","Hash(uint256[],uint256)":"0fa16e38","mimcHash(uint256[])":"cae8510d"}}}}}