{
  "_format": "hh-sol-artifact-1",
  "contractName": "Verifier",
  "sourceName": "contracts/verify/Verifier.sol",
  "abi": [
    {
      "anonymous": false,
      "inputs": [
        {
          "indexed": false,
          "internalType": "address",
          "name": "previousOwner",
          "type": "address"
        },
        {
          "indexed": false,
          "internalType": "address",
          "name": "newOwner",
          "type": "address"
        }
      ],
      "name": "OwnershipTransferred",
      "type": "event"
    },
    {
      "inputs": [],
      "name": "_owner",
      "outputs": [
        {
          "internalType": "address",
          "name": "",
          "type": "address"
        }
      ],
      "stateMutability": "view",
      "type": "function"
    },
    {
      "inputs": [],
      "name": "owner",
      "outputs": [
        {
          "internalType": "address",
          "name": "",
          "type": "address"
        }
      ],
      "stateMutability": "view",
      "type": "function"
    },
    {
      "inputs": [
        {
          "internalType": "address",
          "name": "newOwner",
          "type": "address"
        }
      ],
      "name": "transferOwnership",
      "outputs": [],
      "stateMutability": "nonpayable",
      "type": "function"
    },
    {
      "inputs": [
        {
          "internalType": "uint256[]",
          "name": "_inputs",
          "type": "uint256[]"
        }
      ],
      "name": "validateInputs",
      "outputs": [],
      "stateMutability": "view",
      "type": "function"
    },
    {
      "inputs": [
        {
          "internalType": "uint256[]",
          "name": "_proof",
          "type": "uint256[]"
        },
        {
          "internalType": "uint256[]",
          "name": "_publicInputs",
          "type": "uint256[]"
        },
        {
          "internalType": "uint256[]",
          "name": "_vk",
          "type": "uint256[]"
        }
      ],
      "name": "verificationCalculation",
      "outputs": [
        {
          "internalType": "uint256",
          "name": "",
          "type": "uint256"
        }
      ],
      "stateMutability": "nonpayable",
      "type": "function"
    },
    {
      "inputs": [
        {
          "internalType": "uint256[]",
          "name": "_proof",
          "type": "uint256[]"
        },
        {
          "internalType": "uint256[]",
          "name": "_inputs",
          "type": "uint256[]"
        },
        {
          "internalType": "uint256[]",
          "name": "_vk",
          "type": "uint256[]"
        }
      ],
      "name": "verify",
      "outputs": [
        {
          "internalType": "bool",
          "name": "result",
          "type": "bool"
        }
      ],
      "stateMutability": "nonpayable",
      "type": "function"
    }
  ],
  "bytecode": "0x60806040527f30644e72e131a029b85045b68181585d2833e84879b9709143e1f593f000000160015534801561003457600080fd5b50600080546001600160a01b03191633179055611574806100566000396000f3fe608060405234801561001057600080fd5b50600436106100625760003560e01c806387d9d023146100675780638da5cb5b1461008f578063976ee2a5146100b4578063b2bdfa7b146100d5578063f2fde38b146100e8578063f7a60ef0146100fd575b600080fd5b61007a610075366004611245565b610110565b60405190151581526020015b60405180910390f35b6000546001600160a01b03165b6040516001600160a01b039091168152602001610086565b6100c76100c2366004611390565b610209565b604051908152602001610086565b60005461009c906001600160a01b031681565b6100fb6100f6366004611418565b6108bc565b005b6100fb61010b366004611441565b6109b3565b600061014e8585808060200260200160405190810160405280939291908181526020018383602002808284376000920191909152506109b392505050565b6101ec87878080602002602001604051908101604052809392919081815260200183836020028082843760009201919091525050604080516020808b0282810182019093528a82529093508a92508991829185019084908082843760009201919091525050604080516020808a0282810182019093528982529093508992508891829185019084908082843760009201919091525061020992505050565b6000036101fb575060016101ff565b5060005b9695505050505050565b60006102136110bf565b604080518082019091526000808252602082015261022f611110565b604051806040016040528060008152602001600081525091506040518060400160405280886000815181106102665761026661147e565b60200260200101518152602001886001815181106102865761028661147e565b60200260200101518152508360000181905250604051806040016040528060405180604001604052808a6002815181106102c2576102c261147e565b602002602001015181526020018a6003815181106102e2576102e261147e565b6020026020010151815250815260200160405180604001604052808a6004815181106103105761031061147e565b602002602001015181526020018a6005815181106103305761033061147e565b602002602001015181525081525083602001819052506040518060400160405280886006815181106103645761036461147e565b60200260200101518152602001886007815181106103845761038461147e565b602002602001015181525083604001819052506040518060400160405280866000815181106103b5576103b561147e565b60200260200101518152602001866001815181106103d5576103d561147e565b6020026020010151815250816000018190525060405180604001604052806040518060400160405280886002815181106104115761041161147e565b60200260200101518152602001886003815181106104315761043161147e565b6020026020010151815250815260200160405180604001604052808860048151811061045f5761045f61147e565b602002602001015181526020018860058151811061047f5761047f61147e565b6020026020010151815250815250816020018190525060405180604001604052806040518060400160405280886006815181106104be576104be61147e565b60200260200101518152602001886007815181106104de576104de61147e565b6020026020010151815250815260200160405180604001604052808860088151811061050c5761050c61147e565b602002602001015181526020018860098151811061052c5761052c61147e565b602002602001015181525081525081604001819052506040518060400160405280604051806040016040528088600a8151811061056b5761056b61147e565b6020026020010151815260200188600b8151811061058b5761058b61147e565b60200260200101518152508152602001604051806040016040528088600c815181106105b9576105b961147e565b6020026020010151815260200188600d815181106105d9576105d961147e565b60200260200101518152508152508160600181905250600e85511115610722576002600e865161060991906114aa565b61061391906114d3565b67ffffffffffffffff81111561062b5761062b6112df565b60405190808252806020026020018201604052801561067057816020015b60408051808201909152600080825260208201528152602001906001900390816106495790505b506080820152600e5b855181101561072057604051806040016040528087838151811061069f5761069f61147e565b60200260200101518152602001878360016106ba91906114e7565b815181106106ca576106ca61147e565b602002602001015181525082608001516002600e846106e991906114aa565b6106f391906114d3565b815181106107035761070361147e565b60209081029190910101526107196002826114e7565b9050610679565b505b855161072f9060016114e7565b8160800151511461079c5760405162461bcd60e51b815260206004820152602c60248201527f4c656e677468206f6620696e707574735b5d206f7220766b2e7175657279206960448201526b7320696e636f72726563742160a01b60648201526084015b60405180910390fd5b604080518082019091526000808252602082015260005b8751811015610827576080830151610807906107d08360016114e7565b815181106107e0576107e061147e565b60200260200101518983815181106107fa576107fa61147e565b6020026020010151610a3f565b91506108138483610ae1565b93508061081f816114fa565b9150506107b3565b506108508383608001516000815181106108435761084361147e565b6020026020010151610ae1565b925060006108968560000151866020015161086a87610b7b565b866040015161087c8a60400151610b7b565b6060890151895161088c90610b7b565b8a60200151610c1a565b9050806108ab576005955050505050506108b5565b5060009450505050505b9392505050565b6000546001600160a01b0316331461092d5760405162461bcd60e51b815260206004820152602e60248201527f596f7520617265206e6f7420617574686f726973656420746f20696e766f6b6560448201526d103a3434b990333ab731ba34b7b760911b6064820152608401610793565b6001600160a01b03811661094057600080fd5b7f8be0079c531659141344cd1fd0a4f28419497f9722a3daafe3b4186f6b6457e06109736000546001600160a01b031690565b604080516001600160a01b03928316815291841660208301520160405180910390a1600080546001600160a01b0319166001600160a01b03831617905550565b60005b8151811015610a3b576001548282815181106109d4576109d461147e565b602002602001015110610a295760405162461bcd60e51b815260206004820152601b60248201527f496e70757473206d757374206265206c657373207468616e20722e00000000006044820152606401610793565b80610a33816114fa565b9150506109b6565b5050565b6040805180820190915260008082526020820152610a5b611161565b83518152602080850151908201526040810183905260006060836080848460076107d05a03f190508080610a8b57fe5b5080610ad95760405162461bcd60e51b815260206004820152601f60248201527f4543207363616c6172206d756c7469706c69636174696f6e206661696c6564006044820152606401610793565b505092915050565b6040805180820190915260008082526020820152610afd61117f565b8351815260208085015181830152835160408301528301516060808301919091526000908360c0848460066107d05a03f190508080610b3857fe5b5080610ad95760405162461bcd60e51b81526020600482015260126024820152711150c81859191a5d1a5bdb8819985a5b195960721b6044820152606401610793565b604080518082019091526000808252602082015281517f30644e72e131a029b85045b68181585d97816a916871ca8d3c208c16d87cfd4790158015610bc257506020830151155b15610be25750506040805180820190915260008082526020820152919050565b604051806040016040528084600001518152602001828560200151610c079190611513565b610c1190846114aa565b90529392505050565b60408051600480825260a08201909252600091829190816020015b6040805180820190915260008082526020820152815260200190600190039081610c3557505060408051600480825260a0820190925291925060009190602082015b610c7f61119d565b815260200190600190039081610c775790505090508a82600081518110610ca857610ca861147e565b60200260200101819052508882600181518110610cc757610cc761147e565b60200260200101819052508682600281518110610ce657610ce661147e565b60200260200101819052508482600381518110610d0557610d0561147e565b60200260200101819052508981600081518110610d2457610d2461147e565b60200260200101819052508781600181518110610d4357610d4361147e565b60200260200101819052508581600281518110610d6257610d6261147e565b60200260200101819052508381600381518110610d8157610d8161147e565b6020026020010181905250610d968282610da5565b9b9a5050505050505050505050565b815160009081610db6826006611527565b905060008167ffffffffffffffff811115610dd357610dd36112df565b604051908082528060200260200182016040528015610dfc578160200160208202803683370190505b50905060005b8381101561103757868181518110610e1c57610e1c61147e565b60200260200101516000015182826006610e369190611527565b610e419060006114e7565b81518110610e5157610e5161147e565b602002602001018181525050868181518110610e6f57610e6f61147e565b60200260200101516020015182826006610e899190611527565b610e949060016114e7565b81518110610ea457610ea461147e565b602002602001018181525050858181518110610ec257610ec261147e565b60209081029190910181015151015182610edd836006611527565b610ee89060026114e7565b81518110610ef857610ef861147e565b602002602001018181525050858181518110610f1657610f1661147e565b6020908102919091010151515182610f2f836006611527565b610f3a9060036114e7565b81518110610f4a57610f4a61147e565b602002602001018181525050858181518110610f6857610f6861147e565b602002602001015160200151600160028110610f8657610f8661147e565b602002015182610f97836006611527565b610fa29060046114e7565b81518110610fb257610fb261147e565b602002602001018181525050858181518110610fd057610fd061147e565b602002602001015160200151600060028110610fee57610fee61147e565b602002015182610fff836006611527565b61100a9060056114e7565b8151811061101a5761101a61147e565b60209081029190910101528061102f816114fa565b915050610e02565b506110406111bd565b60006020826020860260208601600060086107d05a03f19050808061106157fe5b50806110af5760405162461bcd60e51b815260206004820152601d60248201527f45432050616972696e672063616c63756c6174696f6e206661696c65640000006044820152606401610793565b5051151593505050505b92915050565b6040805160a0810190915260006060820181815260808301919091528152602081016110e961119d565b815260200161110b604051806040016040528060008152602001600081525090565b905290565b6040805160e08101909152600060a0820181815260c083019190915281526020810161113a61119d565b815260200161114761119d565b815260200161115461119d565b8152602001606081525090565b60405180606001604052806003906020820280368337509192915050565b60405180608001604052806004906020820280368337509192915050565b60405180604001604052806111b06111db565b815260200161110b6111db565b60405180602001604052806001906020820280368337509192915050565b60405180604001604052806002906020820280368337509192915050565b60008083601f84011261120b57600080fd5b50813567ffffffffffffffff81111561122357600080fd5b6020830191508360208260051b850101111561123e57600080fd5b9250929050565b6000806000806000806060878903121561125e57600080fd5b863567ffffffffffffffff8082111561127657600080fd5b6112828a838b016111f9565b9098509650602089013591508082111561129b57600080fd5b6112a78a838b016111f9565b909650945060408901359150808211156112c057600080fd5b506112cd89828a016111f9565b979a9699509497509295939492505050565b634e487b7160e01b600052604160045260246000fd5b600082601f83011261130657600080fd5b8135602067ffffffffffffffff80831115611323576113236112df565b8260051b604051601f19603f83011681018181108482111715611348576113486112df565b60405293845285810183019383810192508785111561136657600080fd5b83870191505b848210156113855781358352918301919083019061136c565b979650505050505050565b6000806000606084860312156113a557600080fd5b833567ffffffffffffffff808211156113bd57600080fd5b6113c9878388016112f5565b945060208601359150808211156113df57600080fd5b6113eb878388016112f5565b9350604086013591508082111561140157600080fd5b5061140e868287016112f5565b9150509250925092565b60006020828403121561142a57600080fd5b81356001600160a01b03811681146108b557600080fd5b60006020828403121561145357600080fd5b813567ffffffffffffffff81111561146a57600080fd5b611476848285016112f5565b949350505050565b634e487b7160e01b600052603260045260246000fd5b634e487b7160e01b600052601160045260246000fd5b818103818111156110b9576110b9611494565b634e487b7160e01b600052601260045260246000fd5b6000826114e2576114e26114bd565b500490565b808201808211156110b9576110b9611494565b60006001820161150c5761150c611494565b5060010190565b600082611522576115226114bd565b500690565b80820281158282048414176110b9576110b961149456fea2646970667358221220c8ba18ed4eb9ed5705658421535083306147bd5697bef2f71f9a445cf5428a8e64736f6c63430008130033",
  "linkReferences": {},
  "deployedLinkReferences": {}
}