{
  "_format": "hh-sol-artifact-1",
  "contractName": "Ownable",
  "sourceName": "contracts/verify/Ownable.sol",
  "abi": [
    {
      "inputs": [],
      "stateMutability": "nonpayable",
      "type": "constructor"
    },
    {
      "anonymous": false,
      "inputs": [
        {
          "indexed": false,
          "internalType": "address",
          "name": "previousOwner",
          "type": "address"
        },
        {
          "indexed": false,
          "internalType": "address",
          "name": "newOwner",
          "type": "address"
        }
      ],
      "name": "OwnershipTransferred",
      "type": "event"
    },
    {
      "inputs": [],
      "name": "_owner",
      "outputs": [
        {
          "internalType": "address",
          "name": "",
          "type": "address"
        }
      ],
      "stateMutability": "view",
      "type": "function"
    },
    {
      "inputs": [],
      "name": "owner",
      "outputs": [
        {
          "internalType": "address",
          "name": "",
          "type": "address"
        }
      ],
      "stateMutability": "view",
      "type": "function"
    },
    {
      "inputs": [
        {
          "internalType": "address",
          "name": "newOwner",
          "type": "address"
        }
      ],
      "name": "transferOwnership",
      "outputs": [],
      "stateMutability": "nonpayable",
      "type": "function"
    }
  ],
  "bytecode": "0x608060405234801561001057600080fd5b50600080546001600160a01b031916331790556101f8806100326000396000f3fe608060405234801561001057600080fd5b50600436106100415760003560e01c80638da5cb5b14610046578063b2bdfa7b1461006f578063f2fde38b14610082575b600080fd5b6000546001600160a01b03165b6040516001600160a01b03909116815260200160405180910390f35b600054610053906001600160a01b031681565b610095610090366004610192565b610097565b005b6000546001600160a01b0316331461010c5760405162461bcd60e51b815260206004820152602e60248201527f596f7520617265206e6f7420617574686f726973656420746f20696e766f6b6560448201526d103a3434b990333ab731ba34b7b760911b606482015260840160405180910390fd5b6001600160a01b03811661011f57600080fd5b7f8be0079c531659141344cd1fd0a4f28419497f9722a3daafe3b4186f6b6457e06101526000546001600160a01b031690565b604080516001600160a01b03928316815291841660208301520160405180910390a1600080546001600160a01b0319166001600160a01b03831617905550565b6000602082840312156101a457600080fd5b81356001600160a01b03811681146101bb57600080fd5b939250505056fea2646970667358221220af06080e0f200bc76fce37ea630dffcbc3fa92f664c6ec98f990f50c16ef07aa64736f6c63430008130033",
  "linkReferences": {},
  "deployedLinkReferences": {}
}