{
  "contractName": "EscrowShield",
  "abi": [
    {
      "inputs": [
        {
          "internalType": "address",
          "name": "erc20Address",
          "type": "address"
        },
        {
          "internalType": "address",
          "name": "verifierAddress",
          "type": "address"
        },
        {
          "internalType": "uint256[][]",
          "name": "vk",
          "type": "uint256[][]"
        }
      ],
      "stateMutability": "nonpayable",
      "type": "constructor"
    },
    {
      "anonymous": false,
      "inputs": [
        {
          "indexed": false,
          "internalType": "uint256",
          "name": "leafIndex",
          "type": "uint256"
        },
        {
          "indexed": false,
          "internalType": "uint256",
          "name": "leafValue",
          "type": "uint256"
        },
        {
          "indexed": false,
          "internalType": "uint256",
          "name": "root",
          "type": "uint256"
        }
      ],
      "name": "NewLeaf",
      "type": "event"
    },
    {
      "anonymous": false,
      "inputs": [
        {
          "indexed": false,
          "internalType": "uint256",
          "name": "minLeafIndex",
          "type": "uint256"
        },
        {
          "indexed": false,
          "internalType": "uint256[]",
          "name": "leafValues",
          "type": "uint256[]"
        },
        {
          "indexed": false,
          "internalType": "uint256",
          "name": "root",
          "type": "uint256"
        }
      ],
      "name": "NewLeaves",
      "type": "event"
    },
    {
      "inputs": [
        {
          "internalType": "uint256",
          "name": "in_x",
          "type": "uint256"
        },
        {
          "internalType": "uint256",
          "name": "in_k",
          "type": "uint256"
        }
      ],
      "name": "Encipher",
      "outputs": [
        {
          "internalType": "uint256",
          "name": "out_x",
          "type": "uint256"
        }
      ],
      "stateMutability": "pure",
      "type": "function"
    },
    {
      "inputs": [
        {
          "internalType": "uint256[]",
          "name": "in_msgs",
          "type": "uint256[]"
        },
        {
          "internalType": "uint256",
          "name": "in_key",
          "type": "uint256"
        }
      ],
      "name": "Hash",
      "outputs": [
        {
          "internalType": "uint256",
          "name": "",
          "type": "uint256"
        }
      ],
      "stateMutability": "pure",
      "type": "function"
    },
    {
      "inputs": [],
      "name": "Initial_NullifierRoot",
      "outputs": [
        {
          "internalType": "uint256",
          "name": "",
          "type": "uint256"
        }
      ],
      "stateMutability": "view",
      "type": "function"
    },
    {
      "inputs": [
        {
          "internalType": "uint256",
          "name": "",
          "type": "uint256"
        }
      ],
      "name": "commitmentRoots",
      "outputs": [
        {
          "internalType": "uint256",
          "name": "",
          "type": "uint256"
        }
      ],
      "stateMutability": "view",
      "type": "function"
    },
    {
      "inputs": [],
      "name": "erc20",
      "outputs": [
        {
          "internalType": "contract IERC20",
          "name": "",
          "type": "address"
        }
      ],
      "stateMutability": "view",
      "type": "function"
    },
    {
      "inputs": [
        {
          "internalType": "uint256",
          "name": "",
          "type": "uint256"
        }
      ],
      "name": "frontier",
      "outputs": [
        {
          "internalType": "uint256",
          "name": "",
          "type": "uint256"
        }
      ],
      "stateMutability": "view",
      "type": "function"
    },
    {
      "inputs": [
        {
          "internalType": "uint256",
          "name": "leafIndex",
          "type": "uint256"
        }
      ],
      "name": "getFrontierSlot",
      "outputs": [
        {
          "internalType": "uint256",
          "name": "slot",
          "type": "uint256"
        }
      ],
      "stateMutability": "pure",
      "type": "function"
    },
    {
      "inputs": [
        {
          "internalType": "uint256",
          "name": "leafValue",
          "type": "uint256"
        }
      ],
      "name": "insertLeaf",
      "outputs": [
        {
          "internalType": "uint256",
          "name": "root",
          "type": "uint256"
        }
      ],
      "stateMutability": "nonpayable",
      "type": "function"
    },
    {
      "inputs": [
        {
          "internalType": "uint256[]",
          "name": "leafValues",
          "type": "uint256[]"
        }
      ],
      "name": "insertLeaves",
      "outputs": [
        {
          "internalType": "uint256",
          "name": "root",
          "type": "uint256"
        }
      ],
      "stateMutability": "nonpayable",
      "type": "function"
    },
    {
      "inputs": [],
      "name": "latestRoot",
      "outputs": [
        {
          "internalType": "uint256",
          "name": "",
          "type": "uint256"
        }
      ],
      "stateMutability": "view",
      "type": "function"
    },
    {
      "inputs": [],
      "name": "leafCount",
      "outputs": [
        {
          "internalType": "uint256",
          "name": "",
          "type": "uint256"
        }
      ],
      "stateMutability": "view",
      "type": "function"
    },
    {
      "inputs": [
        {
          "internalType": "uint256[]",
          "name": "in_msgs",
          "type": "uint256[]"
        }
      ],
      "name": "mimcHash",
      "outputs": [
        {
          "internalType": "uint256",
          "name": "",
          "type": "uint256"
        }
      ],
      "stateMutability": "pure",
      "type": "function"
    },
    {
      "inputs": [],
      "name": "newNullifierRoot",
      "outputs": [
        {
          "internalType": "uint256",
          "name": "",
          "type": "uint256"
        }
      ],
      "stateMutability": "view",
      "type": "function"
    },
    {
      "inputs": [],
      "name": "treeHeight",
      "outputs": [
        {
          "internalType": "uint256",
          "name": "",
          "type": "uint256"
        }
      ],
      "stateMutability": "view",
      "type": "function"
    },
    {
      "inputs": [],
      "name": "treeWidth",
      "outputs": [
        {
          "internalType": "uint256",
          "name": "",
          "type": "uint256"
        }
      ],
      "stateMutability": "view",
      "type": "function"
    },
    {
      "inputs": [
        {
          "internalType": "uint256",
          "name": "",
          "type": "uint256"
        },
        {
          "internalType": "uint256",
          "name": "",
          "type": "uint256"
        }
      ],
      "name": "vks",
      "outputs": [
        {
          "internalType": "uint256",
          "name": "",
          "type": "uint256"
        }
      ],
      "stateMutability": "view",
      "type": "function"
    },
    {
      "inputs": [],
      "name": "zero",
      "outputs": [
        {
          "internalType": "uint256",
          "name": "",
          "type": "uint256"
        }
      ],
      "stateMutability": "view",
      "type": "function"
    },
    {
      "inputs": [
        {
          "internalType": "address",
          "name": "",
          "type": "address"
        }
      ],
      "name": "zkpPublicKeys",
      "outputs": [
        {
          "internalType": "uint256",
          "name": "",
          "type": "uint256"
        }
      ],
      "stateMutability": "view",
      "type": "function"
    },
    {
      "inputs": [
        {
          "internalType": "uint256",
          "name": "pk",
          "type": "uint256"
        }
      ],
      "name": "registerZKPPublicKey",
      "outputs": [],
      "stateMutability": "nonpayable",
      "type": "function"
    },
    {
      "inputs": [
        {
          "internalType": "uint256",
          "name": "nullifierRoot",
          "type": "uint256"
        },
        {
          "internalType": "uint256",
          "name": "latestNullifierRoot",
          "type": "uint256"
        },
        {
          "internalType": "uint256[]",
          "name": "newNullifiers",
          "type": "uint256[]"
        },
        {
          "internalType": "uint256",
          "name": "commitmentRoot",
          "type": "uint256"
        },
        {
          "internalType": "uint256[]",
          "name": "newCommitments",
          "type": "uint256[]"
        },
        {
          "internalType": "uint256[]",
          "name": "proof",
          "type": "uint256[]"
        }
      ],
      "name": "joinCommitments",
      "outputs": [],
      "stateMutability": "nonpayable",
      "type": "function"
    },
    {
      "inputs": [
        {
          "internalType": "uint256",
          "name": "nullifierRoot",
          "type": "uint256"
        },
        {
          "internalType": "uint256",
          "name": "latestNullifierRoot",
          "type": "uint256"
        },
        {
          "internalType": "uint256[]",
          "name": "newNullifiers",
          "type": "uint256[]"
        },
        {
          "internalType": "uint256",
          "name": "commitmentRoot",
          "type": "uint256"
        },
        {
          "internalType": "uint256[]",
          "name": "newCommitments",
          "type": "uint256[]"
        },
        {
          "internalType": "uint256[]",
          "name": "proof",
          "type": "uint256[]"
        }
      ],
      "name": "splitCommitments",
      "outputs": [],
      "stateMutability": "nonpayable",
      "type": "function"
    },
    {
      "inputs": [
        {
          "internalType": "uint256",
          "name": "amount",
          "type": "uint256"
        },
        {
          "internalType": "uint256[]",
          "name": "newCommitments",
          "type": "uint256[]"
        },
        {
          "internalType": "uint256[]",
          "name": "proof",
          "type": "uint256[]"
        }
      ],
      "name": "deposit",
      "outputs": [],
      "stateMutability": "nonpayable",
      "type": "function"
    },
    {
      "inputs": [
        {
          "internalType": "uint256",
          "name": "nullifierRoot",
          "type": "uint256"
        },
        {
          "internalType": "uint256",
          "name": "latestNullifierRoot",
          "type": "uint256"
        },
        {
          "internalType": "uint256[]",
          "name": "newNullifiers",
          "type": "uint256[]"
        },
        {
          "internalType": "uint256",
          "name": "commitmentRoot",
          "type": "uint256"
        },
        {
          "internalType": "uint256[]",
          "name": "newCommitments",
          "type": "uint256[]"
        },
        {
          "internalType": "uint256[]",
          "name": "proof",
          "type": "uint256[]"
        }
      ],
      "name": "transfer",
      "outputs": [],
      "stateMutability": "nonpayable",
      "type": "function"
    },
    {
      "inputs": [
        {
          "internalType": "uint256",
          "name": "amount",
          "type": "uint256"
        },
        {
          "internalType": "uint256",
          "name": "nullifierRoot",
          "type": "uint256"
        },
        {
          "internalType": "uint256",
          "name": "latestNullifierRoot",
          "type": "uint256"
        },
        {
          "internalType": "uint256[]",
          "name": "newNullifiers",
          "type": "uint256[]"
        },
        {
          "internalType": "uint256",
          "name": "commitmentRoot",
          "type": "uint256"
        },
        {
          "internalType": "uint256[]",
          "name": "newCommitments",
          "type": "uint256[]"
        },
        {
          "internalType": "uint256[]",
          "name": "proof",
          "type": "uint256[]"
        }
      ],
      "name": "withdraw",
      "outputs": [],
      "stateMutability": "nonpayable",
      "type": "function"
    }
  ],
  "bytecode": "0x608060405260008055602060015560015460026200001e9190620004c4565b6002553480156200002e57600080fd5b5060405162004c7938038062004c79833981810160405281019062000054919062000368565b81602560006101000a81548173ffffffffffffffffffffffffffffffffffffffff021916908373ffffffffffffffffffffffffffffffffffffffff16021790555060005b81518110156200012357818181518110620000dc577f4e487b7100000000000000000000000000000000000000000000000000000000600052603260045260246000fd5b60200260200101516026600083815260200190815260200160002090805190602001906200010c92919062000195565b5080806200011a906200063f565b91505062000098565b507f2f68a1c58e257e42a17a6c61dff5551ed560b9922ab119d5ac8e184c9734ead960278190555082602b60006101000a81548173ffffffffffffffffffffffffffffffffffffffff021916908373ffffffffffffffffffffffffffffffffffffffff1602179055505050506200072c565b828054828255906000526020600020908101928215620001d4579160200282015b82811115620001d3578251825591602001919060010190620001b6565b5b509050620001e39190620001e7565b5090565b5b8082111562000202576000816000905550600101620001e8565b5090565b60006200021d62000217846200040b565b620003d7565b9050808382526020820190508260005b8581101562000261578151850162000246888262000324565b8452602084019350602083019250506001810190506200022d565b5050509392505050565b6000620002826200027c846200043a565b620003d7565b90508083825260208201905082856020860282011115620002a257600080fd5b60005b85811015620002d65781620002bb888262000351565b845260208401935060208301925050600181019050620002a5565b5050509392505050565b600081519050620002f181620006f8565b92915050565b600082601f8301126200030957600080fd5b81516200031b84826020860162000206565b91505092915050565b600082601f8301126200033657600080fd5b8151620003488482602086016200026b565b91505092915050565b600081519050620003628162000712565b92915050565b6000806000606084860312156200037e57600080fd5b60006200038e86828701620002e0565b9350506020620003a186828701620002e0565b925050604084015167ffffffffffffffff811115620003bf57600080fd5b620003cd86828701620002f7565b9150509250925092565b6000604051905081810181811067ffffffffffffffff82111715620004015762000400620006bc565b5b8060405250919050565b600067ffffffffffffffff821115620004295762000428620006bc565b5b602082029050602081019050919050565b600067ffffffffffffffff821115620004585762000457620006bc565b5b602082029050602081019050919050565b6000808291508390505b6001851115620004bb578086048111156200049357620004926200068d565b5b6001851615620004a35780820291505b8081029050620004b385620006eb565b945062000473565b94509492505050565b6000620004d18262000635565b9150620004de8362000635565b92506200050d7fffffffffffffffffffffffffffffffffffffffffffffffffffffffffffffffff848462000515565b905092915050565b600082620005275760019050620005fa565b81620005375760009050620005fa565b81600181146200055057600281146200055b5762000591565b6001915050620005fa565b60ff84111562000570576200056f6200068d565b5b8360020a9150848211156200058a57620005896200068d565b5b50620005fa565b5060208310610133831016604e8410600b8410161715620005cb5782820a905083811115620005c557620005c46200068d565b5b620005fa565b620005da848484600162000469565b92509050818404811115620005f457620005f36200068d565b5b81810290505b9392505050565b60006200060e8262000615565b9050919050565b600073ffffffffffffffffffffffffffffffffffffffff82169050919050565b6000819050919050565b60006200064c8262000635565b91507fffffffffffffffffffffffffffffffffffffffffffffffffffffffffffffffff8214156200068257620006816200068d565b5b600182019050919050565b7f4e487b7100000000000000000000000000000000000000000000000000000000600052601160045260246000fd5b7f4e487b7100000000000000000000000000000000000000000000000000000000600052604160045260246000fd5b60008160011c9050919050565b620007038162000601565b81146200070f57600080fd5b50565b6200071d8162000635565b81146200072957600080fd5b50565b61453d806200073c6000396000f3fe608060405234801561001057600080fd5b50600436106101585760003560e01c806396d8d820116100c3578063b74b47811161007c578063b74b478114610401578063b74c31481461041d578063bc1b392d1461044d578063cae8510d1461046b578063d0ca58211461049b578063d7b0fef1146104b757610158565b806396d8d8201461030957806397f3e011146103395780639e886d7514610355578063a8f4324e14610371578063b6a1b7f6146103a1578063b7202434146103d157610158565b806330e69fc31161011557806330e69fc31461024557806343f44023146102635780636e0c3fee1461027f57806376c601b1146102af578063785e9e86146102cd5780639636b3fd146102eb57610158565b806301e3e9151461015d578063036c79551461017b57806305bb4c40146101975780630fa16e38146101b5578063176764b5146101e55780632a3a818314610215575b600080fd5b6101656104d5565b60405161017291906140b6565b60405180910390f35b61019560048036038101906101909190613997565b6104db565b005b61019f610790565b6040516101ac91906140b6565b60405180910390f35b6101cf60048036038101906101ca91906138f1565b6107b4565b6040516101dc91906140b6565b60405180910390f35b6101ff60048036038101906101fa91906138b0565b610800565b60405161020c91906140b6565b60405180910390f35b61022f600480360381019061022a919061396e565b61114d565b60405161023c91906140b6565b60405180910390f35b61024d6111dd565b60405161025a91906140b6565b60405180910390f35b61027d60048036038101906102789190613a5c565b6111e3565b005b6102996004803603810190610294919061396e565b6113f2565b6040516102a691906140b6565b60405180910390f35b6102b761140d565b6040516102c491906140b6565b60405180910390f35b6102d5611413565b6040516102e29190613ffb565b60405180910390f35b6102f3611439565b60405161030091906140b6565b60405180910390f35b610323600480360381019061031e9190613a20565b61143f565b60405161033091906140b6565b60405180910390f35b610353600480360381019061034e919061396e565b61148b565b005b61036f600480360381019061036a9190613a5c565b6114d2565b005b61038b60048036038101906103869190613a20565b6116e0565b60405161039891906140b6565b60405180910390f35b6103bb60048036038101906103b6919061396e565b611711565b6040516103c891906140b6565b60405180910390f35b6103eb60048036038101906103e6919061396e565b611729565b6040516103f891906140b6565b60405180910390f35b61041b60048036038101906104169190613b3b565b611c2e565b005b61043760048036038101906104329190613887565b611f7d565b60405161044491906140b6565b60405180910390f35b610455611f95565b60405161046291906140b6565b60405180910390f35b610485600480360381019061048091906138b0565b611f9b565b60405161049291906140b6565b60405180910390f35b6104b560048036038101906104b09190613a5c565b611faf565b005b6104bf6121be565b6040516104cc91906140b6565b60405180910390f35b60015481565b6000602b60009054906101000a900473ffffffffffffffffffffffffffffffffffffffff1673ffffffffffffffffffffffffffffffffffffffff166323b872dd3330896040518463ffffffff1660e01b815260040161053c93929190613f4f565b602060405180830381600087803b15801561055657600080fd5b505af115801561056a573d6000803e3d6000fd5b505050506040513d601f19601f8201168201806040525081019061058e9190613945565b905060011515811515146105a157600080fd5b6105a9613732565b600267ffffffffffffffff8111156105ea577f4e487b7100000000000000000000000000000000000000000000000000000000600052604160045260246000fd5b6040519080825280602002602001820160405280156106185781602001602082028036833780820191505090505b508160a00181905250868160a00151600081518110610660577f4e487b7100000000000000000000000000000000000000000000000000000000600052603260045260246000fd5b60200260200101818152505060018160a001516001815181106106ac577f4e487b7100000000000000000000000000000000000000000000000000000000600052603260045260246000fd5b602002602001018181525050858580806020026020016040519081016040528093929190818152602001838360200280828437600081840152601f19601f820116905080830192505050505050508160800181905250610787848480806020026020016040519081016040528093929190818152602001838360200280828437600081840152601f19601f8201169050808301925050505050505060006004811115610781577f4e487b7100000000000000000000000000000000000000000000000000000000600052602160045260246000fd5b836121c4565b50505050505050565b7f2f68a1c58e257e42a17a6c61dff5551ed560b9922ab119d5ac8e184c9734ead981565b600080636d696d6360e01b90506107f78484836040516020016107d79190613f34565b6040516020818303038152906040528051906020012060001c605b613594565b91505092915050565b600080825190506003546002541161084d576040517f08c379a000000000000000000000000000000000000000000000000000000000815260040161084490614036565b60405180910390fd5b60035460025461085d91906142a1565b8111156108bd57600060035460025461087691906142a1565b8261088191906142a1565b905060005b818110156108a8576001855103855280806108a090614391565b915050610886565b506003546002546108b991906142a1565b9150505b6000806000806000600267ffffffffffffffff811115610906577f4e487b7100000000000000000000000000000000000000000000000000000000600052604160045260246000fd5b6040519080825280602002602001820160405280156109345781602001602082028036833780820191505090505b5090506000600167ffffffffffffffff81111561097a577f4e487b7100000000000000000000000000000000000000000000000000000000600052604160045260246000fd5b6040519080825280602002602001820160405280156109a85781602001602082028036833780820191505090505b509050600060035490505b876003546109c1919061421a565b811015610dd95789600354826109d791906142a1565b81518110610a0e577f4e487b7100000000000000000000000000000000000000000000000000000000600052603260045260246000fd5b60200260200101519350600160025482610a28919061421a565b610a3291906142a1565b9550610a3d8161114d565b96506000871415610a8d578360048860218110610a83577f4e487b7100000000000000000000000000000000000000000000000000000000600052603260045260246000fd5b0181905550610dc6565b6000600190505b878111610d84576000600288610aaa91906143e4565b1415610c3b576004600182610abf91906142a1565b60218110610af6577f4e487b7100000000000000000000000000000000000000000000000000000000600052603260045260246000fd5b015484600081518110610b32577f4e487b7100000000000000000000000000000000000000000000000000000000600052603260045260246000fd5b6020026020010181815250508484600181518110610b79577f4e487b7100000000000000000000000000000000000000000000000000000000600052603260045260246000fd5b602002602001018181525050610b8e84611f9b565b83600081518110610bc8577f4e487b7100000000000000000000000000000000000000000000000000000000600052603260045260246000fd5b60200260200101818152505082600081518110610c0e577f4e487b7100000000000000000000000000000000000000000000000000000000600052603260045260246000fd5b602002602001015194508695506002600188610c2a91906142a1565b610c349190614270565b9650610d71565b8484600081518110610c76577f4e487b7100000000000000000000000000000000000000000000000000000000600052603260045260246000fd5b60200260200101818152505060005484600181518110610cbf577f4e487b7100000000000000000000000000000000000000000000000000000000600052603260045260246000fd5b602002602001018181525050610cd484611f9b565b83600081518110610d0e577f4e487b7100000000000000000000000000000000000000000000000000000000600052603260045260246000fd5b60200260200101818152505082600081518110610d54577f4e487b7100000000000000000000000000000000000000000000000000000000600052603260045260246000fd5b60200260200101519450869550600287610d6e9190614270565b96505b8080610d7c90614391565b915050610a94565b508360048860218110610dc0577f4e487b7100000000000000000000000000000000000000000000000000000000600052603260045260246000fd5b01819055505b8080610dd190614391565b9150506109b3565b506000600187610de9919061421a565b90505b60015481116110de576000600287610e0491906143e4565b1415610f95576004600182610e1991906142a1565b60218110610e50577f4e487b7100000000000000000000000000000000000000000000000000000000600052603260045260246000fd5b015483600081518110610e8c577f4e487b7100000000000000000000000000000000000000000000000000000000600052603260045260246000fd5b6020026020010181815250508383600181518110610ed3577f4e487b7100000000000000000000000000000000000000000000000000000000600052603260045260246000fd5b602002602001018181525050610ee883611f9b565b82600081518110610f22577f4e487b7100000000000000000000000000000000000000000000000000000000600052603260045260246000fd5b60200260200101818152505081600081518110610f68577f4e487b7100000000000000000000000000000000000000000000000000000000600052603260045260246000fd5b602002602001015193508594506002600187610f8491906142a1565b610f8e9190614270565b95506110cb565b8383600081518110610fd0577f4e487b7100000000000000000000000000000000000000000000000000000000600052603260045260246000fd5b60200260200101818152505060005483600181518110611019577f4e487b7100000000000000000000000000000000000000000000000000000000600052603260045260246000fd5b60200260200101818152505061102e83611f9b565b82600081518110611068577f4e487b7100000000000000000000000000000000000000000000000000000000600052603260045260246000fd5b602002602001018181525050816000815181106110ae577f4e487b7100000000000000000000000000000000000000000000000000000000600052603260045260246000fd5b602002602001015193508594506002866110c89190614270565b95505b80806110d690614391565b915050610dec565b508297508760001b60001c97507f39623a9bbcaf7943af164a1aee0fd809f7101d4d8c7727239dace363779587db6003548a8a604051611120939291906140d1565b60405180910390a1866003600082825461113a919061421a565b9250508190555050505050505050919050565b6000600160028361115e91906143e4565b14156111d8576000600190506000600290506000600182901b90505b60008414156111d45760008183600188611194919061421a565b61119e91906142a1565b6111a891906143e4565b14156111b6578293506111cf565b809150600181901b905082806111cb90614391565b9350505b61117a565b5050505b919050565b60035481565b6111eb613732565b600167ffffffffffffffff81111561122c577f4e487b7100000000000000000000000000000000000000000000000000000000600052604160045260246000fd5b60405190808252806020026020018201604052801561125a5781602001602082028036833780820191505090505b508160a0018190525060018160a001516000815181106112a3577f4e487b7100000000000000000000000000000000000000000000000000000000600052603260045260246000fd5b6020026020010181815250508981600001818152505088816020018181525050878780806020026020016040519081016040528093929190818152602001838360200280828437600081840152601f19601f82011690508083019250505050505050816040018190525085816060018181525050848480806020026020016040519081016040528093929190818152602001838360200280828437600081840152601f19601f8201169050808301925050505050505081608001819052506113e6838380806020026020016040519081016040528093929190818152602001838360200280828437600081840152601f19601f82011690508083019250505050505050600160048111156113e0577f4e487b7100000000000000000000000000000000000000000000000000000000600052602160045260246000fd5b836121c4565b50505050505050505050565b6004816021811061140257600080fd5b016000915090505481565b60025481565b602b60009054906101000a900473ffffffffffffffffffffffffffffffffffffffff1681565b60275481565b600080636d696d6360e01b90506114828484836040516020016114629190613f34565b6040516020818303038152906040528051906020012060001c605b6136a6565b91505092915050565b80602a60003373ffffffffffffffffffffffffffffffffffffffff1673ffffffffffffffffffffffffffffffffffffffff1681526020019081526020016000208190555050565b6114da613732565b600167ffffffffffffffff81111561151b577f4e487b7100000000000000000000000000000000000000000000000000000000600052604160045260246000fd5b6040519080825280602002602001820160405280156115495781602001602082028036833780820191505090505b508160a0018190525060018160a00151600081518110611592577f4e487b7100000000000000000000000000000000000000000000000000000000600052603260045260246000fd5b6020026020010181815250508981600001818152505088816020018181525050878780806020026020016040519081016040528093929190818152602001838360200280828437600081840152601f19601f82011690508083019250505050505050816040018190525085816060018181525050848480806020026020016040519081016040528093929190818152602001838360200280828437600081840152601f19601f8201169050808301925050505050505081608001819052506116d4838380806020026020016040519081016040528093929190818152602001838360200280828437600081840152601f19601f820116905080830192505050505050506004808111156116ce577f4e487b7100000000000000000000000000000000000000000000000000000000600052602160045260246000fd5b836121c4565b50505050505050505050565b602660205281600052604060002081815481106116fc57600080fd5b90600052602060002001600091509150505481565b60286020528060005260406000206000915090505481565b600060035460025411611771576040517f08c379a000000000000000000000000000000000000000000000000000000000815260040161176890614036565b60405180910390fd5b600061177e60035461114d565b905060006001600254600354611794919061421a565b61179e91906142a1565b90506000808590506000600267ffffffffffffffff8111156117e9577f4e487b7100000000000000000000000000000000000000000000000000000000600052604160045260246000fd5b6040519080825280602002602001820160405280156118175781602001602082028036833780820191505090505b5090506000600167ffffffffffffffff81111561185d577f4e487b7100000000000000000000000000000000000000000000000000000000600052604160045260246000fd5b60405190808252806020026020018201604052801561188b5781602001602082028036833780820191505090505b50905060005b600154811015611bc157868114156118e45783600488602181106118de577f4e487b7100000000000000000000000000000000000000000000000000000000600052603260045260246000fd5b01819055505b60006002876118f391906143e4565b1415611a785760048160218110611933577f4e487b7100000000000000000000000000000000000000000000000000000000600052603260045260246000fd5b01548360008151811061196f577f4e487b7100000000000000000000000000000000000000000000000000000000600052603260045260246000fd5b60200260200101818152505083836001815181106119b6577f4e487b7100000000000000000000000000000000000000000000000000000000600052603260045260246000fd5b6020026020010181815250506119cb83611f9b565b82600081518110611a05577f4e487b7100000000000000000000000000000000000000000000000000000000600052603260045260246000fd5b60200260200101818152505081600081518110611a4b577f4e487b7100000000000000000000000000000000000000000000000000000000600052603260045260246000fd5b602002602001015193508594506002600187611a6791906142a1565b611a719190614270565b9550611bae565b8383600081518110611ab3577f4e487b7100000000000000000000000000000000000000000000000000000000600052603260045260246000fd5b60200260200101818152505060005483600181518110611afc577f4e487b7100000000000000000000000000000000000000000000000000000000600052603260045260246000fd5b602002602001018181525050611b1183611f9b565b82600081518110611b4b577f4e487b7100000000000000000000000000000000000000000000000000000000600052603260045260246000fd5b60200260200101818152505081600081518110611b91577f4e487b7100000000000000000000000000000000000000000000000000000000600052603260045260246000fd5b60200260200101519350859450600286611bab9190614270565b95505b8080611bb990614391565b915050611891565b508296508660001b60001c96507f522933b35bbca3f00d1a1ae17c09663f9286c4d868dc335a0ca99a970bc087846003548989604051611c039392919061410f565b60405180910390a160036000815480929190611c1e90614391565b9190505550505050505050919050565b6000602b60009054906101000a900473ffffffffffffffffffffffffffffffffffffffff1673ffffffffffffffffffffffffffffffffffffffff1663a9059cbb338d6040518363ffffffff1660e01b8152600401611c8d929190613f86565b602060405180830381600087803b158015611ca757600080fd5b505af1158015611cbb573d6000803e3d6000fd5b505050506040513d601f19601f82011682018060405250810190611cdf9190613945565b905080611d21576040517f08c379a0000000000000000000000000000000000000000000000000000000008152600401611d1890614016565b60405180910390fd5b611d29613732565b600267ffffffffffffffff811115611d6a577f4e487b7100000000000000000000000000000000000000000000000000000000600052604160045260246000fd5b604051908082528060200260200182016040528015611d985781602001602082028036833780820191505090505b508160a001819052508b8160a00151600081518110611de0577f4e487b7100000000000000000000000000000000000000000000000000000000600052603260045260246000fd5b60200260200101818152505060018160a00151600181518110611e2c577f4e487b7100000000000000000000000000000000000000000000000000000000600052603260045260246000fd5b6020026020010181815250508a81600001818152505089816020018181525050888880806020026020016040519081016040528093929190818152602001838360200280828437600081840152601f19601f82011690508083019250505050505050816040018190525086816060018181525050858580806020026020016040519081016040528093929190818152602001838360200280828437600081840152601f19601f820116905080830192505050505050508160800181905250611f6f848480806020026020016040519081016040528093929190818152602001838360200280828437600081840152601f19601f8201169050808301925050505050505060026004811115611f69577f4e487b7100000000000000000000000000000000000000000000000000000000600052602160045260246000fd5b836121c4565b505050505050505050505050565b602a6020528060005260406000206000915090505481565b60005481565b6000611fa88260006107b4565b9050919050565b611fb7613732565b600167ffffffffffffffff811115611ff8577f4e487b7100000000000000000000000000000000000000000000000000000000600052604160045260246000fd5b6040519080825280602002602001820160405280156120265781602001602082028036833780820191505090505b508160a0018190525060018160a0015160008151811061206f577f4e487b7100000000000000000000000000000000000000000000000000000000600052603260045260246000fd5b6020026020010181815250508981600001818152505088816020018181525050878780806020026020016040519081016040528093929190818152602001838360200280828437600081840152601f19601f82011690508083019250505050505050816040018190525085816060018181525050848480806020026020016040519081016040528093929190818152602001838360200280828437600081840152601f19601f8201169050808301925050505050505081608001819052506121b2838380806020026020016040519081016040528093929190818152602001838360200280828437600081840152601f19601f82011690508083019250505050505050600360048111156121ac577f4e487b7100000000000000000000000000000000000000000000000000000000600052602160045260246000fd5b836121c4565b50505050505050505050565b60295481565b60008160a00151905060008260400151905060008360800151905083606001516028600086606001518152602001908152602001600020541461223c576040517f08c379a000000000000000000000000000000000000000000000000000000000815260040161223390614096565b60405180910390fd5b600081516000845111612250576000612253565b60035b60ff1684518651612264919061421a565b61226e919061421a565b612278919061421a565b67ffffffffffffffff8111156122b7577f4e487b7100000000000000000000000000000000000000000000000000000000600052604160045260246000fd5b6040519080825280602002602001820160405280156122e55781602001602082028036833780820191505090505b50905060006004811115612322577f4e487b7100000000000000000000000000000000000000000000000000000000600052602160045260246000fd5b8614156124a657600084600081518110612365577f4e487b7100000000000000000000000000000000000000000000000000000000600052603260045260246000fd5b602002602001015182828061237990614391565b9350815181106123b2577f4e487b7100000000000000000000000000000000000000000000000000000000600052603260045260246000fd5b602002602001018181525050826000815181106123f8577f4e487b7100000000000000000000000000000000000000000000000000000000600052603260045260246000fd5b602002602001015182828061240c90614391565b935081518110612445577f4e487b7100000000000000000000000000000000000000000000000000000000600052603260045260246000fd5b602002602001018181525050600182828061245f90614391565b935081518110612498577f4e487b7100000000000000000000000000000000000000000000000000000000600052603260045260246000fd5b602002602001018181525050505b600160048111156124e0577f4e487b7100000000000000000000000000000000000000000000000000000000600052602160045260246000fd5b8614156128d4576000856000015160275414612531576040517f08c379a000000000000000000000000000000000000000000000000000000000815260040161252890614076565b60405180910390fd5b856000015182828061254290614391565b93508151811061257b577f4e487b7100000000000000000000000000000000000000000000000000000000600052603260045260246000fd5b602002602001018181525050856020015182828061259890614391565b9350815181106125d1577f4e487b7100000000000000000000000000000000000000000000000000000000600052603260045260246000fd5b60200260200101818152505083600081518110612617577f4e487b7100000000000000000000000000000000000000000000000000000000600052603260045260246000fd5b602002602001015182828061262b90614391565b935081518110612664577f4e487b7100000000000000000000000000000000000000000000000000000000600052603260045260246000fd5b602002602001018181525050836001815181106126aa577f4e487b7100000000000000000000000000000000000000000000000000000000600052603260045260246000fd5b60200260200101518282806126be90614391565b9350815181106126f7577f4e487b7100000000000000000000000000000000000000000000000000000000600052603260045260246000fd5b602002602001018181525050856060015182828061271490614391565b93508151811061274d577f4e487b7100000000000000000000000000000000000000000000000000000000600052603260045260246000fd5b60200260200101818152505082600081518110612793577f4e487b7100000000000000000000000000000000000000000000000000000000600052603260045260246000fd5b60200260200101518282806127a790614391565b9350815181106127e0577f4e487b7100000000000000000000000000000000000000000000000000000000600052603260045260246000fd5b60200260200101818152505082600181518110612826577f4e487b7100000000000000000000000000000000000000000000000000000000600052603260045260246000fd5b602002602001015182828061283a90614391565b935081518110612873577f4e487b7100000000000000000000000000000000000000000000000000000000600052603260045260246000fd5b602002602001018181525050600182828061288d90614391565b9350815181106128c6577f4e487b7100000000000000000000000000000000000000000000000000000000600052603260045260246000fd5b602002602001018181525050505b6002600481111561290e577f4e487b7100000000000000000000000000000000000000000000000000000000600052602160045260246000fd5b861415612d0257600085600001516027541461295f576040517f08c379a000000000000000000000000000000000000000000000000000000000815260040161295690614076565b60405180910390fd5b84600081518110612999577f4e487b7100000000000000000000000000000000000000000000000000000000600052603260045260246000fd5b60200260200101518282806129ad90614391565b9350815181106129e6577f4e487b7100000000000000000000000000000000000000000000000000000000600052603260045260246000fd5b6020026020010181815250508560000151828280612a0390614391565b935081518110612a3c577f4e487b7100000000000000000000000000000000000000000000000000000000600052603260045260246000fd5b6020026020010181815250508560200151828280612a5990614391565b935081518110612a92577f4e487b7100000000000000000000000000000000000000000000000000000000600052603260045260246000fd5b60200260200101818152505083600081518110612ad8577f4e487b7100000000000000000000000000000000000000000000000000000000600052603260045260246000fd5b6020026020010151828280612aec90614391565b935081518110612b25577f4e487b7100000000000000000000000000000000000000000000000000000000600052603260045260246000fd5b60200260200101818152505083600181518110612b6b577f4e487b7100000000000000000000000000000000000000000000000000000000600052603260045260246000fd5b6020026020010151828280612b7f90614391565b935081518110612bb8577f4e487b7100000000000000000000000000000000000000000000000000000000600052603260045260246000fd5b6020026020010181815250508560600151828280612bd590614391565b935081518110612c0e577f4e487b7100000000000000000000000000000000000000000000000000000000600052603260045260246000fd5b60200260200101818152505082600081518110612c54577f4e487b7100000000000000000000000000000000000000000000000000000000600052603260045260246000fd5b6020026020010151828280612c6890614391565b935081518110612ca1577f4e487b7100000000000000000000000000000000000000000000000000000000600052603260045260246000fd5b6020026020010181815250506001828280612cbb90614391565b935081518110612cf4577f4e487b7100000000000000000000000000000000000000000000000000000000600052603260045260246000fd5b602002602001018181525050505b60036004811115612d3c577f4e487b7100000000000000000000000000000000000000000000000000000000600052602160045260246000fd5b86141561309d57846000015160275414612d8b576040517f08c379a0000000000000000000000000000000000000000000000000000000008152600401612d8290614076565b60405180910390fd5b60008560000151828280612d9e90614391565b935081518110612dd7577f4e487b7100000000000000000000000000000000000000000000000000000000600052603260045260246000fd5b6020026020010181815250508560200151828280612df490614391565b935081518110612e2d577f4e487b7100000000000000000000000000000000000000000000000000000000600052603260045260246000fd5b60200260200101818152505083600081518110612e73577f4e487b7100000000000000000000000000000000000000000000000000000000600052603260045260246000fd5b6020026020010151828280612e8790614391565b935081518110612ec0577f4e487b7100000000000000000000000000000000000000000000000000000000600052603260045260246000fd5b60200260200101818152505083600181518110612f06577f4e487b7100000000000000000000000000000000000000000000000000000000600052603260045260246000fd5b6020026020010151828280612f1a90614391565b935081518110612f53577f4e487b7100000000000000000000000000000000000000000000000000000000600052603260045260246000fd5b6020026020010181815250508560600151828280612f7090614391565b935081518110612fa9577f4e487b7100000000000000000000000000000000000000000000000000000000600052603260045260246000fd5b60200260200101818152505082600081518110612fef577f4e487b7100000000000000000000000000000000000000000000000000000000600052603260045260246000fd5b602002602001015182828061300390614391565b93508151811061303c577f4e487b7100000000000000000000000000000000000000000000000000000000600052603260045260246000fd5b602002602001018181525050600182828061305690614391565b93508151811061308f577f4e487b7100000000000000000000000000000000000000000000000000000000600052603260045260246000fd5b602002602001018181525050505b6004808111156130d6577f4e487b7100000000000000000000000000000000000000000000000000000000600052602160045260246000fd5b86141561343757846000015160275414613125576040517f08c379a000000000000000000000000000000000000000000000000000000000815260040161311c90614076565b60405180910390fd5b6000856000015182828061313890614391565b935081518110613171577f4e487b7100000000000000000000000000000000000000000000000000000000600052603260045260246000fd5b602002602001018181525050856020015182828061318e90614391565b9350815181106131c7577f4e487b7100000000000000000000000000000000000000000000000000000000600052603260045260246000fd5b6020026020010181815250508360008151811061320d577f4e487b7100000000000000000000000000000000000000000000000000000000600052603260045260246000fd5b602002602001015182828061322190614391565b93508151811061325a577f4e487b7100000000000000000000000000000000000000000000000000000000600052603260045260246000fd5b602002602001018181525050856060015182828061327790614391565b9350815181106132b0577f4e487b7100000000000000000000000000000000000000000000000000000000600052603260045260246000fd5b602002602001018181525050826000815181106132f6577f4e487b7100000000000000000000000000000000000000000000000000000000600052603260045260246000fd5b602002602001015182828061330a90614391565b935081518110613343577f4e487b7100000000000000000000000000000000000000000000000000000000600052603260045260246000fd5b60200260200101818152505082600181518110613389577f4e487b7100000000000000000000000000000000000000000000000000000000600052603260045260246000fd5b602002602001015182828061339d90614391565b9350815181106133d6577f4e487b7100000000000000000000000000000000000000000000000000000000600052603260045260246000fd5b60200260200101818152505060018282806133f090614391565b935081518110613429577f4e487b7100000000000000000000000000000000000000000000000000000000600052603260045260246000fd5b602002602001018181525050505b6000602560009054906101000a900473ffffffffffffffffffffffffffffffffffffffff1673ffffffffffffffffffffffffffffffffffffffff166387d9d0238984602660008c81526020019081526020016000206040518463ffffffff1660e01b81526004016134aa93929190613faf565b602060405180830381600087803b1580156134c457600080fd5b505af11580156134d8573d6000803e3d6000fd5b505050506040513d601f19601f820116820180604052508101906134fc9190613945565b90508061353e576040517f08c379a000000000000000000000000000000000000000000000000000000000815260040161353590614056565b60405180910390fd5b6000835111156135745761355183610800565b602981905550602954602860006029548152602001908152602001600020819055505b60008451111561358a5785602001516027819055505b5050505050505050565b60008084905060007f30644e72e131a029b85045b68181585d2833e84879b9709143e1f593f0000001905060005b87518110156136985781613618898381518110613608577f4e487b7100000000000000000000000000000000000000000000000000000000600052603260045260246000fd5b60200260200101518589896136a6565b838a8481518110613652577f4e487b7100000000000000000000000000000000000000000000000000000000600052603260045260246000fd5b602002602001015161366491906143e4565b8561366f919061421a565b613679919061421a565b61368391906143e4565b9250808061369090614391565b9150506135c2565b829350505050949350505050565b600060018210156136b657600080fd5b604051602081016040528381527f30644e72e131a029b85045b68181585d2833e84879b9709143e1f593f0000001600080855b600081111561371f5760208520855283898587518d080892508383840991508383858685860985090999506001810390506136e9565b5082888a08945050505050949350505050565b6040518060c001604052806000815260200160008152602001606081526020016000815260200160608152602001606081525090565b600061377b61377684614177565b614146565b9050808382526020820190508285602086028201111561379a57600080fd5b60005b858110156137ca57816137b08882613872565b84526020840193506020830192505060018101905061379d565b5050509392505050565b6000813590506137e3816144c2565b92915050565b60008083601f8401126137fb57600080fd5b8235905067ffffffffffffffff81111561381457600080fd5b60208301915083602082028301111561382c57600080fd5b9250929050565b600082601f83011261384457600080fd5b8135613854848260208601613768565b91505092915050565b60008151905061386c816144d9565b92915050565b600081359050613881816144f0565b92915050565b60006020828403121561389957600080fd5b60006138a7848285016137d4565b91505092915050565b6000602082840312156138c257600080fd5b600082013567ffffffffffffffff8111156138dc57600080fd5b6138e884828501613833565b91505092915050565b6000806040838503121561390457600080fd5b600083013567ffffffffffffffff81111561391e57600080fd5b61392a85828601613833565b925050602061393b85828601613872565b9150509250929050565b60006020828403121561395757600080fd5b60006139658482850161385d565b91505092915050565b60006020828403121561398057600080fd5b600061398e84828501613872565b91505092915050565b6000806000806000606086880312156139af57600080fd5b60006139bd88828901613872565b955050602086013567ffffffffffffffff8111156139da57600080fd5b6139e6888289016137e9565b9450945050604086013567ffffffffffffffff811115613a0557600080fd5b613a11888289016137e9565b92509250509295509295909350565b60008060408385031215613a3357600080fd5b6000613a4185828601613872565b9250506020613a5285828601613872565b9150509250929050565b600080600080600080600080600060c08a8c031215613a7a57600080fd5b6000613a888c828d01613872565b9950506020613a998c828d01613872565b98505060408a013567ffffffffffffffff811115613ab657600080fd5b613ac28c828d016137e9565b97509750506060613ad58c828d01613872565b95505060808a013567ffffffffffffffff811115613af257600080fd5b613afe8c828d016137e9565b945094505060a08a013567ffffffffffffffff811115613b1d57600080fd5b613b298c828d016137e9565b92509250509295985092959850929598565b60008060008060008060008060008060e08b8d031215613b5a57600080fd5b6000613b688d828e01613872565b9a50506020613b798d828e01613872565b9950506040613b8a8d828e01613872565b98505060608b013567ffffffffffffffff811115613ba757600080fd5b613bb38d828e016137e9565b97509750506080613bc68d828e01613872565b95505060a08b013567ffffffffffffffff811115613be357600080fd5b613bef8d828e016137e9565b945094505060c08b013567ffffffffffffffff811115613c0e57600080fd5b613c1a8d828e016137e9565b92509250509295989b9194979a5092959850565b6000613c3a8383613f16565b60208301905092915050565b613c4f816142df565b82525050565b6000613c60826141c8565b613c6a81856141f8565b9350613c75836141a3565b8060005b83811015613ca6578151613c8d8882613c2e565b9750613c98836141de565b925050600181019050613c79565b5085935050505092915050565b6000613cbe826141d3565b613cc881856141f8565b9350613cd3836141b3565b8060005b83811015613d0b57613ce8826144a2565b613cf28882613c2e565b9750613cfd836141eb565b925050600181019050613cd7565b5085935050505092915050565b613d29613d24826142fd565b6143da565b82525050565b613d3881614353565b82525050565b6000613d4b601583614209565b91507f4552433230207472616e73666572206661696c656400000000000000000000006000830152602082019050919050565b6000613d8b602383614209565b91507f5468657265206973206e6f207370616365206c65667420696e2074686520747260008301527f65652e00000000000000000000000000000000000000000000000000000000006020830152604082019050919050565b6000613df1602f83614209565b91507f5468652070726f6f6620686173206e6f74206265656e2076657269666965642060008301527f62792074686520636f6e747261637400000000000000000000000000000000006020830152604082019050919050565b6000613e57602383614209565b91507f496e707574204e756c6c6966696572526f6f7420646f6573206e6f742065786960008301527f73742e00000000000000000000000000000000000000000000000000000000006020830152604082019050919050565b6000613ebd602483614209565b91507f496e70757420636f6d6d69746d656e74526f6f7420646f6573206e6f7420657860008301527f6973742e000000000000000000000000000000000000000000000000000000006020830152604082019050919050565b613f1f81614349565b82525050565b613f2e81614349565b82525050565b6000613f408284613d18565b60048201915081905092915050565b6000606082019050613f646000830186613c46565b613f716020830185613c46565b613f7e6040830184613f25565b949350505050565b6000604082019050613f9b6000830185613c46565b613fa86020830184613f25565b9392505050565b60006060820190508181036000830152613fc98186613c55565b90508181036020830152613fdd8185613c55565b90508181036040830152613ff18184613cb3565b9050949350505050565b60006020820190506140106000830184613d2f565b92915050565b6000602082019050818103600083015261402f81613d3e565b9050919050565b6000602082019050818103600083015261404f81613d7e565b9050919050565b6000602082019050818103600083015261406f81613de4565b9050919050565b6000602082019050818103600083015261408f81613e4a565b9050919050565b600060208201905081810360008301526140af81613eb0565b9050919050565b60006020820190506140cb6000830184613f25565b92915050565b60006060820190506140e66000830186613f25565b81810360208301526140f88185613c55565b90506141076040830184613f25565b949350505050565b60006060820190506141246000830186613f25565b6141316020830185613f25565b61413e6040830184613f25565b949350505050565b6000604051905081810181811067ffffffffffffffff8211171561416d5761416c614473565b5b8060405250919050565b600067ffffffffffffffff82111561419257614191614473565b5b602082029050602081019050919050565b6000819050602082019050919050565b60008190508160005260206000209050919050565b600081519050919050565b600081549050919050565b6000602082019050919050565b6000600182019050919050565b600082825260208201905092915050565b600082825260208201905092915050565b600061422582614349565b915061423083614349565b9250827fffffffffffffffffffffffffffffffffffffffffffffffffffffffffffffffff0382111561426557614264614415565b5b828201905092915050565b600061427b82614349565b915061428683614349565b92508261429657614295614444565b5b828204905092915050565b60006142ac82614349565b91506142b783614349565b9250828210156142ca576142c9614415565b5b828203905092915050565b6000819050919050565b60006142ea82614329565b9050919050565b60008115159050919050565b60007fffffffff0000000000000000000000000000000000000000000000000000000082169050919050565b600073ffffffffffffffffffffffffffffffffffffffff82169050919050565b6000819050919050565b600061435e82614365565b9050919050565b600061437082614329565b9050919050565b600061438a614385836144b5565b6142d5565b9050919050565b600061439c82614349565b91507fffffffffffffffffffffffffffffffffffffffffffffffffffffffffffffffff8214156143cf576143ce614415565b5b600182019050919050565b6000819050919050565b60006143ef82614349565b91506143fa83614349565b92508261440a57614409614444565b5b828206905092915050565b7f4e487b7100000000000000000000000000000000000000000000000000000000600052601160045260246000fd5b7f4e487b7100000000000000000000000000000000000000000000000000000000600052601260045260246000fd5b7f4e487b7100000000000000000000000000000000000000000000000000000000600052604160045260246000fd5b60006144ae8254614377565b9050919050565b60008160001c9050919050565b6144cb816142df565b81146144d657600080fd5b50565b6144e2816142f1565b81146144ed57600080fd5b50565b6144f981614349565b811461450457600080fd5b5056fea2646970667358221220ac29c60fa691ae66263762795ffb4a7558795d550730217b591d007ec232c68964736f6c63430008000033",
  "immutableReferences": {},
  "source": "// SPDX-License-Identifier: CC0\n\npragma solidity ^0.8.0;\n\nimport \"./verify/IVerifier.sol\";\nimport \"./merkle-tree/MerkleTree.sol\";\n\nimport \"./Escrow-imports/IERC20.sol\";\n\ncontract EscrowShield is MerkleTree {\n\n\n          enum FunctionNames { deposit, transfer, withdraw, joinCommitments, splitCommitments }\n\n          IVerifier private verifier;\n\n          mapping(uint256 => uint256[]) public vks; // indexed to by an enum uint(FunctionNames)\n\n          uint256 public newNullifierRoot;\n\n          mapping(uint256 => uint256) public commitmentRoots;\n\n          uint256 public latestRoot;\n\n          mapping(address => uint256) public zkpPublicKeys;\n\n          struct Inputs {\n            uint nullifierRoot; \n              uint latestNullifierRoot; \n              uint[] newNullifiers;\n                  \n\t\t\t\t\t\tuint commitmentRoot;\n\t\t\t\t\t\tuint[] newCommitments;\n\t\t\t\t\t\tuint[] customInputs;\n          }\n\n\n        function registerZKPPublicKey(uint256 pk) external {\n      \t\tzkpPublicKeys[msg.sender] = pk;\n      \t}\n        \n\n\n        function verify(\n      \t\tuint256[] memory proof,\n      \t\tuint256 functionId,\n      \t\tInputs memory _inputs\n      \t) private {\n        \n          uint[] memory customInputs = _inputs.customInputs;\n\n          uint[] memory newNullifiers = _inputs.newNullifiers;\n\n          uint[] memory newCommitments = _inputs.newCommitments;\n\n          require(commitmentRoots[_inputs.commitmentRoot] == _inputs.commitmentRoot, \"Input commitmentRoot does not exist.\");\n\n            uint256[] memory inputs = new uint256[](customInputs.length + newNullifiers.length + (newNullifiers.length > 0 ? 3 : 0) + newCommitments.length);\n          \n          if (functionId == uint(FunctionNames.deposit)) {\n            uint k = 0;\n            \n            inputs[k++] = customInputs[0];\n            inputs[k++] = newCommitments[0];\n            inputs[k++] = 1;\n            \n          }\n\n          if (functionId == uint(FunctionNames.transfer)) {\n            uint k = 0;\n             \n            require(newNullifierRoot == _inputs.nullifierRoot, \"Input NullifierRoot does not exist.\");\n            inputs[k++] = _inputs.nullifierRoot;\n            inputs[k++] = _inputs.latestNullifierRoot;\n            inputs[k++] = newNullifiers[0];\n            inputs[k++] = newNullifiers[1];\n            inputs[k++] = _inputs.commitmentRoot;\n            inputs[k++] = newCommitments[0];\n            inputs[k++] = newCommitments[1];\n            inputs[k++] = 1;\n            \n          }\n\n          if (functionId == uint(FunctionNames.withdraw)) {\n            uint k = 0;\n             \n            require(newNullifierRoot == _inputs.nullifierRoot, \"Input NullifierRoot does not exist.\");\n            inputs[k++] = customInputs[0];\n            inputs[k++] = _inputs.nullifierRoot;\n            inputs[k++] = _inputs.latestNullifierRoot;\n            inputs[k++] = newNullifiers[0];\n            inputs[k++] = newNullifiers[1];\n            inputs[k++] = _inputs.commitmentRoot;\n            inputs[k++] = newCommitments[0];\n            inputs[k++] = 1;\n            \n          }\n\n\n         if (functionId == uint(FunctionNames.joinCommitments)) {\n\n          \n          require(newNullifierRoot == _inputs.nullifierRoot, \"Input NullifierRoot does not exist.\");\n\n           uint k = 0;\n\n           inputs[k++] = _inputs.nullifierRoot;\n           inputs[k++] = _inputs.latestNullifierRoot;\n           inputs[k++] = newNullifiers[0];\n           inputs[k++] = newNullifiers[1];\n           inputs[k++] = _inputs.commitmentRoot;\n           inputs[k++] = newCommitments[0];\n           inputs[k++] = 1;\n                \n         }\n         \n         if (functionId == uint(FunctionNames.splitCommitments)) {\n\n          \n          require(newNullifierRoot == _inputs.nullifierRoot, \"Input NullifierRoot does not exist.\");\n\n           uint k = 0;\n\n           inputs[k++] = _inputs.nullifierRoot;\n           inputs[k++] = _inputs.latestNullifierRoot;\n           inputs[k++] = newNullifiers[0];\n           inputs[k++] = _inputs.commitmentRoot;\n           inputs[k++] = newCommitments[0];\n           inputs[k++] = newCommitments[1];\n           inputs[k++] = 1;\n                \n         }\n          \n          bool result = verifier.verify(proof, inputs, vks[functionId]);\n\n          require(result, \"The proof has not been verified by the contract\");\n\n          if (newCommitments.length > 0) {\n      \t\t\tlatestRoot = insertLeaves(newCommitments);\n      \t\t\tcommitmentRoots[latestRoot] = latestRoot;\n      \t\t}\n\n       if (newNullifiers.length > 0) {\n        newNullifierRoot = _inputs.latestNullifierRoot;\n      }\n        }\n\n           function joinCommitments(uint256 nullifierRoot, uint256 latestNullifierRoot, uint256[] calldata newNullifiers,  uint256 commitmentRoot, uint256[] calldata newCommitments, uint256[] calldata proof) public {\n\n            Inputs memory inputs;\n\n            inputs.customInputs = new uint[](1);\n        \t  inputs.customInputs[0] = 1;\n\n            inputs.nullifierRoot = nullifierRoot;\n\n            inputs.latestNullifierRoot = latestNullifierRoot;\n\n            inputs.newNullifiers = newNullifiers;\n\n            inputs.commitmentRoot = commitmentRoot;\n\n            inputs.newCommitments = newCommitments;\n\n            verify(proof, uint(FunctionNames.joinCommitments), inputs);\n        }\n        \n        function splitCommitments(uint256 nullifierRoot, uint256 latestNullifierRoot, uint256[] calldata newNullifiers,  uint256 commitmentRoot, uint256[] calldata newCommitments, uint256[] calldata proof) public {\n\n          Inputs memory inputs;\n\n          inputs.customInputs = new uint[](1);\n          inputs.customInputs[0] = 1;\n\n          inputs.nullifierRoot = nullifierRoot;\n\n          inputs.latestNullifierRoot = latestNullifierRoot;\n\n          inputs.newNullifiers = newNullifiers;\n\n          inputs.commitmentRoot = commitmentRoot;\n\n          inputs.newCommitments = newCommitments;\n\n          verify(proof, uint(FunctionNames.splitCommitments), inputs);\n      }\n\n\n\n\n        IERC20 public erc20;\n\n\n      constructor  (address erc20Address, address verifierAddress, uint256[][] memory vk)   {\n\n         verifier = IVerifier(verifierAddress);\n    \t\t  for (uint i = 0; i < vk.length; i++) {\n    \t\t\t  vks[i] = vk[i];\n    \t\t  }\n          newNullifierRoot = Initial_NullifierRoot;\nerc20 = IERC20(erc20Address);\n      }\n\n\n      function deposit (uint256 amount, uint256[] calldata newCommitments, uint256[] calldata proof) public  {\n\n        \n          bool hasBalance = erc20.transferFrom(msg.sender, address(this), amount);\nrequire(hasBalance == true);\n\n\n          Inputs memory inputs;\n\n          inputs.customInputs = new uint[](2);\n        \tinputs.customInputs[0] = amount;\ninputs.customInputs[1] = 1;\n\n          inputs.newCommitments = newCommitments;\n\n           verify(proof, uint(FunctionNames.deposit), inputs);\n      }\n\n\n      function transfer (uint256 nullifierRoot, uint256 latestNullifierRoot,uint256[] calldata newNullifiers, uint256 commitmentRoot, uint256[] calldata newCommitments, uint256[] calldata proof) public  {\n\n        \n\n\n          Inputs memory inputs;\n\n          inputs.customInputs = new uint[](1);\n        \tinputs.customInputs[0] = 1;\n\n          inputs.nullifierRoot = nullifierRoot; \n\n          inputs.latestNullifierRoot = latestNullifierRoot; \n\n          inputs.newNullifiers = newNullifiers;\n           \n\n          inputs.commitmentRoot = commitmentRoot;\n\n          inputs.newCommitments = newCommitments;\n\n           verify(proof, uint(FunctionNames.transfer), inputs);\n      }\n\n\n      function withdraw (uint256 amount, uint256 nullifierRoot, uint256 latestNullifierRoot,uint256[] calldata newNullifiers, uint256 commitmentRoot, uint256[] calldata newCommitments, uint256[] calldata proof) public  {\n\n        \n          bool success = erc20.transfer(msg.sender, amount);\nrequire(success, \"ERC20 transfer failed\");\n\n\n          Inputs memory inputs;\n\n          inputs.customInputs = new uint[](2);\n        \tinputs.customInputs[0] = amount;\ninputs.customInputs[1] = 1;\n\n          inputs.nullifierRoot = nullifierRoot; \n\n          inputs.latestNullifierRoot = latestNullifierRoot; \n\n          inputs.newNullifiers = newNullifiers;\n           \n\n          inputs.commitmentRoot = commitmentRoot;\n\n          inputs.newCommitments = newCommitments;\n\n           verify(proof, uint(FunctionNames.withdraw), inputs);\n      }\n}",
  "sourcePath": "/app/contracts/EscrowShield.sol",
  "compiler": {
    "name": "solc",
    "version": "0.8.0+commit.c7dfd78e.Emscripten.clang"
  },
  "schemaVersion": "3.3.3",
  "updatedAt": "2024-04-22T15:28:41.616Z",
  "devdoc": {
    "kind": "dev",
    "methods": {
      "getFrontierSlot(uint256)": {
        "params": {
          "leafIndex": "- the index of the leaf being added"
        },
        "returns": {
          "slot": "- the index of the frontier (or 'storage slot') into which we will next store a nodeValue"
        }
      },
      "insertLeaf(uint256)": {
        "params": {
          "leafValue": "- the value of the leaf being inserted."
        },
        "returns": {
          "root": "- the root of the merkle tree, after the insert."
        }
      },
      "insertLeaves(uint256[])": {
        "params": {
          "leafValues": "- the values of the leaves being inserted."
        },
        "returns": {
          "root": "- the root of the merkle tree, after all the inserts."
        }
      }
    },
    "version": 1
  },
  "userdoc": {
    "events": {
      "NewLeaf(uint256,uint256,uint256)": {
        "notice": "These events are what the merkle-tree microservice's filters will listen for."
      }
    },
    "kind": "user",
    "methods": {
      "getFrontierSlot(uint256)": {
        "notice": "Get the index of the frontier (or 'storage slot') into which we will next store a nodeValue (based on the leafIndex currently being inserted). See the top-level README for a detailed explanation."
      },
      "insertLeaf(uint256)": {
        "notice": "Insert a leaf into the Merkle Tree, update the root, and update any values in the (persistently stored) frontier."
      },
      "insertLeaves(uint256[])": {
        "notice": "Insert multiple leaves into the Merkle Tree, and then update the root, and update any values in the (persistently stored) frontier."
      }
    },
    "version": 1
  }
}