{
    "contractName": "Ownable",
    "abi": [
        {
            "inputs": [],
            "stateMutability": "nonpayable",
            "type": "constructor"
        },
        {
            "anonymous": false,
            "inputs": [
                {
                    "indexed": false,
                    "internalType": "address",
                    "name": "previousOwner",
                    "type": "address"
                },
                {
                    "indexed": false,
                    "internalType": "address",
                    "name": "newOwner",
                    "type": "address"
                }
            ],
            "name": "OwnershipTransferred",
            "type": "event"
        },
        {
            "inputs": [],
            "name": "_owner",
            "outputs": [
                {
                    "internalType": "address",
                    "name": "",
                    "type": "address"
                }
            ],
            "stateMutability": "view",
            "type": "function"
        },
        {
            "inputs": [],
            "name": "owner",
            "outputs": [
                {
                    "internalType": "address",
                    "name": "",
                    "type": "address"
                }
            ],
            "stateMutability": "view",
            "type": "function"
        },
        {
            "inputs": [
                {
                    "internalType": "address",
                    "name": "newOwner",
                    "type": "address"
                }
            ],
            "name": "transferOwnership",
            "outputs": [],
            "stateMutability": "nonpayable",
            "type": "function"
        }
    ],
    "bytecode": "0x608060405234801561001057600080fd5b506100203361002560201b60201c565b610068565b806000806101000a81548173ffffffffffffffffffffffffffffffffffffffff021916908373ffffffffffffffffffffffffffffffffffffffff16021790555050565b6103d0806100776000396000f3fe608060405234801561001057600080fd5b50600436106100415760003560e01c80638da5cb5b14610046578063b2bdfa7b14610064578063f2fde38b14610082575b600080fd5b61004e61009e565b60405161005b91906102dc565b60405180910390f35b61006c6100c7565b60405161007991906102dc565b60405180910390f35b61009c6004803603810190610097919061023e565b6100eb565b005b60008060009054906101000a900473ffffffffffffffffffffffffffffffffffffffff16905090565b60008054906101000a900473ffffffffffffffffffffffffffffffffffffffff1681565b6100f361009e565b73ffffffffffffffffffffffffffffffffffffffff163373ffffffffffffffffffffffffffffffffffffffff1614610160576040517f08c379a000000000000000000000000000000000000000000000000000000000815260040161015790610320565b60405180910390fd5b600073ffffffffffffffffffffffffffffffffffffffff168173ffffffffffffffffffffffffffffffffffffffff16141561019a57600080fd5b7f8be0079c531659141344cd1fd0a4f28419497f9722a3daafe3b4186f6b6457e06101c361009e565b826040516101d29291906102f7565b60405180910390a16101e3816101e6565b50565b806000806101000a81548173ffffffffffffffffffffffffffffffffffffffff021916908373ffffffffffffffffffffffffffffffffffffffff16021790555050565b60008135905061023881610383565b92915050565b60006020828403121561025057600080fd5b600061025e84828501610229565b91505092915050565b61027081610351565b82525050565b6000610283602e83610340565b91507f596f7520617265206e6f7420617574686f726973656420746f20696e766f6b6560008301527f20746869732066756e6374696f6e0000000000000000000000000000000000006020830152604082019050919050565b60006020820190506102f16000830184610267565b92915050565b600060408201905061030c6000830185610267565b6103196020830184610267565b9392505050565b6000602082019050818103600083015261033981610276565b9050919050565b600082825260208201905092915050565b600061035c82610363565b9050919050565b600073ffffffffffffffffffffffffffffffffffffffff82169050919050565b61038c81610351565b811461039757600080fd5b5056fea2646970667358221220a761d2b9308961fcc81570ea3b78291d65ff3b323484f0e1079543e6f27a885464736f6c63430008000033",
    "immutableReferences": {},
    "source": "// SPDX-License-Identifier: MIT\n\npragma solidity ^0.8.0;\n\n/**\n * @title Ownable\n * @dev This contract has the owner address providing basic authorization control\n */\ncontract Ownable {\n  /**\n   * @dev Event to show ownership has been transferred\n   * @param previousOwner representing the address of the previous owner\n   * @param newOwner representing the address of the new owner\n   */\n  event OwnershipTransferred(address previousOwner, address newOwner);\n\n  // Owner of the contract\n  address public _owner;\n\n  /**\n   * @dev Throws if called by any account other than the owner.\n   */\n  modifier onlyOwner() {\n    require(msg.sender == owner(), \"You are not authorised to invoke this function\");\n    _;\n  }\n\n  /**\n   * @dev The constructor sets the original owner of the contract to the sender account.\n   */\n  constructor() {\n    setOwner(msg.sender);\n  }\n\n  /**\n   * @dev Tells the address of the owner\n   * @return the address of the owner\n   */\n  function owner() public view returns (address) {\n    return _owner;\n  }\n\n  /**\n   * @dev Sets a new owner address\n   */\n  function setOwner(address newOwner) internal {\n    _owner = newOwner;\n  }\n\n  /**\n   * @dev Allows the current owner to transfer control of the contract to a newOwner.\n   * @param newOwner The address to transfer ownership to.\n   */\n  function transferOwnership(address newOwner) public onlyOwner {\n    require(newOwner != address(0));\n    emit OwnershipTransferred(owner(), newOwner);\n    setOwner(newOwner);\n  }\n}\n",
    "sourcePath": "/app/contracts/verify/Ownable.sol",
    "compiler": {
        "name": "solc",
        "version": "0.8.0+commit.c7dfd78e.Emscripten.clang"
    },
    "schemaVersion": "3.3.3",
    "updatedAt": "2024-04-26T17:29:27.884Z",
    "devdoc": {
        "details": "This contract has the owner address providing basic authorization control",
        "events": {
            "OwnershipTransferred(address,address)": {
                "details": "Event to show ownership has been transferred",
                "params": {
                    "newOwner": "representing the address of the new owner",
                    "previousOwner": "representing the address of the previous owner"
                }
            }
        },
        "kind": "dev",
        "methods": {
            "constructor": {
                "details": "The constructor sets the original owner of the contract to the sender account."
            },
            "owner()": {
                "details": "Tells the address of the owner",
                "returns": {
                    "_0": "the address of the owner"
                }
            },
            "transferOwnership(address)": {
                "details": "Allows the current owner to transfer control of the contract to a newOwner.",
                "params": {
                    "newOwner": "The address to transfer ownership to."
                }
            }
        },
        "title": "Ownable",
        "version": 1
    },
    "userdoc": {
        "kind": "user",
        "methods": {},
        "version": 1
    }
}