{
    "contractName": "Verifier",
    "abi": [
        {
            "anonymous": false,
            "inputs": [
                {
                    "indexed": false,
                    "internalType": "address",
                    "name": "previousOwner",
                    "type": "address"
                },
                {
                    "indexed": false,
                    "internalType": "address",
                    "name": "newOwner",
                    "type": "address"
                }
            ],
            "name": "OwnershipTransferred",
            "type": "event"
        },
        {
            "inputs": [],
            "name": "_owner",
            "outputs": [
                {
                    "internalType": "address",
                    "name": "",
                    "type": "address"
                }
            ],
            "stateMutability": "view",
            "type": "function",
            "constant": true
        },
        {
            "inputs": [],
            "name": "owner",
            "outputs": [
                {
                    "internalType": "address",
                    "name": "",
                    "type": "address"
                }
            ],
            "stateMutability": "view",
            "type": "function",
            "constant": true
        },
        {
            "inputs": [
                {
                    "internalType": "address",
                    "name": "newOwner",
                    "type": "address"
                }
            ],
            "name": "transferOwnership",
            "outputs": [],
            "stateMutability": "nonpayable",
            "type": "function"
        },
        {
            "inputs": [
                {
                    "internalType": "uint256[]",
                    "name": "_inputs",
                    "type": "uint256[]"
                }
            ],
            "name": "validateInputs",
            "outputs": [],
            "stateMutability": "view",
            "type": "function",
            "constant": true
        },
        {
            "inputs": [
                {
                    "internalType": "uint256[]",
                    "name": "_proof",
                    "type": "uint256[]"
                },
                {
                    "internalType": "uint256[]",
                    "name": "_inputs",
                    "type": "uint256[]"
                },
                {
                    "internalType": "uint256[]",
                    "name": "_vk",
                    "type": "uint256[]"
                }
            ],
            "name": "verify",
            "outputs": [
                {
                    "internalType": "bool",
                    "name": "result",
                    "type": "bool"
                }
            ],
            "stateMutability": "nonpayable",
            "type": "function"
        },
        {
            "inputs": [
                {
                    "internalType": "uint256[]",
                    "name": "_proof",
                    "type": "uint256[]"
                },
                {
                    "internalType": "uint256[]",
                    "name": "_publicInputs",
                    "type": "uint256[]"
                },
                {
                    "internalType": "uint256[]",
                    "name": "_vk",
                    "type": "uint256[]"
                }
            ],
            "name": "verificationCalculation",
            "outputs": [
                {
                    "internalType": "uint256",
                    "name": "",
                    "type": "uint256"
                }
            ],
            "stateMutability": "nonpayable",
            "type": "function"
        }
    ],
    "bytecode": "0x60806040527f30644e72e131a029b85045b68181585d2833e84879b9709143e1f593f000000160015534801561003457600080fd5b506100443361004960201b60201c565b61008c565b806000806101000a81548173ffffffffffffffffffffffffffffffffffffffff021916908373ffffffffffffffffffffffffffffffffffffffff16021790555050565b6126ee8061009b6000396000f3fe608060405234801561001057600080fd5b50600436106100625760003560e01c806387d9d023146100675780638da5cb5b14610097578063976ee2a5146100b5578063b2bdfa7b146100e5578063f2fde38b14610103578063f7a60ef01461011f575b600080fd5b610081600480360381019061007c9190611f09565b61013b565b60405161008e91906122c2565b60405180910390f35b61009f610275565b6040516100ac919061227e565b60405180910390f35b6100cf60048036038101906100ca9190611fee565b61029e565b6040516100dc919061239d565b60405180910390f35b6100ed610d7f565b6040516100fa919061227e565b60405180910390f35b61011d60048036038101906101189190611ee0565b610da3565b005b61013960048036038101906101349190611fad565b610e9e565b005b6000610187858580806020026020016040519081016040528093929190818152602001838360200280828437600081840152601f19601f82011690508083019250505050505050610e9e565b6000610257888880806020026020016040519081016040528093929190818152602001838360200280828437600081840152601f19601f82011690508083019250505050505050878780806020026020016040519081016040528093929190818152602001838360200280828437600081840152601f19601f82011690508083019250505050505050868680806020026020016040519081016040528093929190818152602001838360200280828437600081840152601f19601f8201169050808301925050505050505061029e565b1415610266576001905061026b565b600090505b9695505050505050565b60008060009054906101000a900473ffffffffffffffffffffffffffffffffffffffff16905090565b60006102a8611c94565b6102b0611cc7565b6102b8611ce1565b60405180604001604052806000815260200160008152509150604051806040016040528088600081518110610316577f4e487b7100000000000000000000000000000000000000000000000000000000600052603260045260246000fd5b602002602001015181526020018860018151811061035d577f4e487b7100000000000000000000000000000000000000000000000000000000600052603260045260246000fd5b60200260200101518152508360000181905250604051806040016040528060405180604001604052808a6002815181106103c0577f4e487b7100000000000000000000000000000000000000000000000000000000600052603260045260246000fd5b602002602001015181526020018a600381518110610407577f4e487b7100000000000000000000000000000000000000000000000000000000600052603260045260246000fd5b6020026020010151815250815260200160405180604001604052808a60048151811061045c577f4e487b7100000000000000000000000000000000000000000000000000000000600052603260045260246000fd5b602002602001015181526020018a6005815181106104a3577f4e487b7100000000000000000000000000000000000000000000000000000000600052603260045260246000fd5b602002602001015181525081525083602001819052506040518060400160405280886006815181106104fe577f4e487b7100000000000000000000000000000000000000000000000000000000600052603260045260246000fd5b6020026020010151815260200188600781518110610545577f4e487b7100000000000000000000000000000000000000000000000000000000600052603260045260246000fd5b6020026020010151815250836040018190525060405180604001604052808660008151811061059d577f4e487b7100000000000000000000000000000000000000000000000000000000600052603260045260246000fd5b60200260200101518152602001866001815181106105e4577f4e487b7100000000000000000000000000000000000000000000000000000000600052603260045260246000fd5b602002602001015181525081600001819052506040518060400160405280604051806040016040528088600281518110610647577f4e487b7100000000000000000000000000000000000000000000000000000000600052603260045260246000fd5b602002602001015181526020018860038151811061068e577f4e487b7100000000000000000000000000000000000000000000000000000000600052603260045260246000fd5b602002602001015181525081526020016040518060400160405280886004815181106106e3577f4e487b7100000000000000000000000000000000000000000000000000000000600052603260045260246000fd5b602002602001015181526020018860058151811061072a577f4e487b7100000000000000000000000000000000000000000000000000000000600052603260045260246000fd5b602002602001015181525081525081602001819052506040518060400160405280604051806040016040528088600681518110610790577f4e487b7100000000000000000000000000000000000000000000000000000000600052603260045260246000fd5b60200260200101518152602001886007815181106107d7577f4e487b7100000000000000000000000000000000000000000000000000000000600052603260045260246000fd5b6020026020010151815250815260200160405180604001604052808860088151811061082c577f4e487b7100000000000000000000000000000000000000000000000000000000600052603260045260246000fd5b6020026020010151815260200188600981518110610873577f4e487b7100000000000000000000000000000000000000000000000000000000600052603260045260246000fd5b602002602001015181525081525081604001819052506040518060400160405280604051806040016040528088600a815181106108d9577f4e487b7100000000000000000000000000000000000000000000000000000000600052603260045260246000fd5b6020026020010151815260200188600b81518110610920577f4e487b7100000000000000000000000000000000000000000000000000000000600052603260045260246000fd5b60200260200101518152508152602001604051806040016040528088600c81518110610975577f4e487b7100000000000000000000000000000000000000000000000000000000600052603260045260246000fd5b6020026020010151815260200188600d815181106109bc577f4e487b7100000000000000000000000000000000000000000000000000000000600052603260045260246000fd5b60200260200101518152508152508160600181905250600e85511115610b9e576002600e86516109ec9190612507565b6109f6919061247c565b67ffffffffffffffff811115610a35577f4e487b7100000000000000000000000000000000000000000000000000000000600052604160045260246000fd5b604051908082528060200260200182016040528015610a6e57816020015b610a5b611cc7565b815260200190600190039081610a535790505b5081608001819052506000600e90505b8551811015610b9c576040518060400160405280878381518110610acb577f4e487b7100000000000000000000000000000000000000000000000000000000600052603260045260246000fd5b6020026020010151815260200187600184610ae69190612426565b81518110610b1d577f4e487b7100000000000000000000000000000000000000000000000000000000600052603260045260246000fd5b602002602001015181525082608001516002600e84610b3c9190612507565b610b46919061247c565b81518110610b7d577f4e487b7100000000000000000000000000000000000000000000000000000000600052603260045260246000fd5b6020026020010181905250600281610b959190612426565b9050610a7e565b505b60018651610bac9190612426565b81608001515114610bf2576040517f08c379a0000000000000000000000000000000000000000000000000000000008152600401610be99061233d565b60405180910390fd5b610bfa611cc7565b60005b8751811015610cc157610ca08360800151600183610c1b9190612426565b81518110610c52577f4e487b7100000000000000000000000000000000000000000000000000000000600052603260045260246000fd5b6020026020010151898381518110610c93577f4e487b7100000000000000000000000000000000000000000000000000000000600052603260045260246000fd5b6020026020010151610f45565b9150610cac8483611096565b93508080610cb990612583565b915050610bfd565b50610d11838360800151600081518110610d04577f4e487b7100000000000000000000000000000000000000000000000000000000600052603260045260246000fd5b6020026020010151611096565b92506000610d5985600001518660200151610d2b87611233565b8660400151610d3d8a60400151611233565b8860600151610d4f8a60000151611233565b8a602001516112d8565b905080610d6e57600595505050505050610d78565b5060009450505050505b9392505050565b60008054906101000a900473ffffffffffffffffffffffffffffffffffffffff1681565b610dab610275565b73ffffffffffffffffffffffffffffffffffffffff163373ffffffffffffffffffffffffffffffffffffffff1614610e18576040517f08c379a0000000000000000000000000000000000000000000000000000000008152600401610e0f9061231d565b60405180910390fd5b600073ffffffffffffffffffffffffffffffffffffffff168173ffffffffffffffffffffffffffffffffffffffff161415610e5257600080fd5b7f8be0079c531659141344cd1fd0a4f28419497f9722a3daafe3b4186f6b6457e0610e7b610275565b82604051610e8a929190612299565b60405180910390a1610e9b81611621565b50565b60005b8151811015610f4157600154828281518110610ee6577f4e487b7100000000000000000000000000000000000000000000000000000000600052603260045260246000fd5b602002602001015110610f2e576040517f08c379a0000000000000000000000000000000000000000000000000000000008152600401610f259061237d565b60405180910390fd5b8080610f3990612583565b915050610ea1565b5050565b610f4d611cc7565b610f55611d28565b836000015181600060038110610f94577f4e487b7100000000000000000000000000000000000000000000000000000000600052603260045260246000fd5b602002018181525050836020015181600160038110610fdc577f4e487b7100000000000000000000000000000000000000000000000000000000600052603260045260246000fd5b6020020181815250508281600260038110611020577f4e487b7100000000000000000000000000000000000000000000000000000000600052603260045260246000fd5b6020020181815250506000606083608084600060076107d05a03f19050806000811461104b5761104d565bfe5b508061108e576040517f08c379a00000000000000000000000000000000000000000000000000000000081526004016110859061235d565b60405180910390fd5b505092915050565b61109e611cc7565b6110a6611d4a565b8360000151816000600481106110e5577f4e487b7100000000000000000000000000000000000000000000000000000000600052603260045260246000fd5b60200201818152505083602001518160016004811061112d577f4e487b7100000000000000000000000000000000000000000000000000000000600052603260045260246000fd5b602002018181525050826000015181600260048110611175577f4e487b7100000000000000000000000000000000000000000000000000000000600052603260045260246000fd5b6020020181815250508260200151816003600481106111bd577f4e487b7100000000000000000000000000000000000000000000000000000000600052603260045260246000fd5b602002018181525050600060608360c084600060066107d05a03f1905080600081146111e8576111ea565bfe5b508061122b576040517f08c379a0000000000000000000000000000000000000000000000000000000008152600401611222906122fd565b60405180910390fd5b505092915050565b61123b611cc7565b60007f30644e72e131a029b85045b68181585d97816a916871ca8d3c208c16d87cfd47905060008360000151148015611278575060008360200151145b1561129c5760405180604001604052806000815260200160008152509150506112d3565b6040518060400160405280846000015181526020018285602001516112c191906125cc565b836112cc9190612507565b8152509150505b919050565b600080600467ffffffffffffffff81111561131c577f4e487b7100000000000000000000000000000000000000000000000000000000600052604160045260246000fd5b60405190808252806020026020018201604052801561135557816020015b611342611cc7565b81526020019060019003908161133a5790505b5090506000600467ffffffffffffffff81111561139b577f4e487b7100000000000000000000000000000000000000000000000000000000600052604160045260246000fd5b6040519080825280602002602001820160405280156113d457816020015b6113c1611d6c565b8152602001906001900390816113b95790505b5090508a82600081518110611412577f4e487b7100000000000000000000000000000000000000000000000000000000600052603260045260246000fd5b60200260200101819052508882600181518110611458577f4e487b7100000000000000000000000000000000000000000000000000000000600052603260045260246000fd5b6020026020010181905250868260028151811061149e577f4e487b7100000000000000000000000000000000000000000000000000000000600052603260045260246000fd5b602002602001018190525084826003815181106114e4577f4e487b7100000000000000000000000000000000000000000000000000000000600052603260045260246000fd5b6020026020010181905250898160008151811061152a577f4e487b7100000000000000000000000000000000000000000000000000000000600052603260045260246000fd5b60200260200101819052508781600181518110611570577f4e487b7100000000000000000000000000000000000000000000000000000000600052603260045260246000fd5b602002602001018190525085816002815181106115b6577f4e487b7100000000000000000000000000000000000000000000000000000000600052603260045260246000fd5b602002602001018190525083816003815181106115fc577f4e487b7100000000000000000000000000000000000000000000000000000000600052603260045260246000fd5b60200260200101819052506116118282611664565b9250505098975050505050505050565b806000806101000a81548173ffffffffffffffffffffffffffffffffffffffff021916908373ffffffffffffffffffffffffffffffffffffffff16021790555050565b60008083519050600060068261167a91906124ad565b905060008167ffffffffffffffff8111156116be577f4e487b7100000000000000000000000000000000000000000000000000000000600052604160045260246000fd5b6040519080825280602002602001820160405280156116ec5781602001602082028036833780820191505090505b50905060005b83811015611bd157868181518110611733577f4e487b7100000000000000000000000000000000000000000000000000000000600052603260045260246000fd5b60200260200101516000015182600060068461174f91906124ad565b6117599190612426565b81518110611790577f4e487b7100000000000000000000000000000000000000000000000000000000600052603260045260246000fd5b6020026020010181815250508681815181106117d5577f4e487b7100000000000000000000000000000000000000000000000000000000600052603260045260246000fd5b6020026020010151602001518260016006846117f191906124ad565b6117fb9190612426565b81518110611832577f4e487b7100000000000000000000000000000000000000000000000000000000600052603260045260246000fd5b602002602001018181525050858181518110611877577f4e487b7100000000000000000000000000000000000000000000000000000000600052603260045260246000fd5b6020026020010151600001516001600281106118bc577f4e487b7100000000000000000000000000000000000000000000000000000000600052603260045260246000fd5b60200201518260026006846118d191906124ad565b6118db9190612426565b81518110611912577f4e487b7100000000000000000000000000000000000000000000000000000000600052603260045260246000fd5b602002602001018181525050858181518110611957577f4e487b7100000000000000000000000000000000000000000000000000000000600052603260045260246000fd5b60200260200101516000015160006002811061199c577f4e487b7100000000000000000000000000000000000000000000000000000000600052603260045260246000fd5b60200201518260036006846119b191906124ad565b6119bb9190612426565b815181106119f2577f4e487b7100000000000000000000000000000000000000000000000000000000600052603260045260246000fd5b602002602001018181525050858181518110611a37577f4e487b7100000000000000000000000000000000000000000000000000000000600052603260045260246000fd5b602002602001015160200151600160028110611a7c577f4e487b7100000000000000000000000000000000000000000000000000000000600052603260045260246000fd5b6020020151826004600684611a9191906124ad565b611a9b9190612426565b81518110611ad2577f4e487b7100000000000000000000000000000000000000000000000000000000600052603260045260246000fd5b602002602001018181525050858181518110611b17577f4e487b7100000000000000000000000000000000000000000000000000000000600052603260045260246000fd5b602002602001015160200151600060028110611b5c577f4e487b7100000000000000000000000000000000000000000000000000000000600052603260045260246000fd5b6020020151826005600684611b7191906124ad565b611b7b9190612426565b81518110611bb2577f4e487b7100000000000000000000000000000000000000000000000000000000600052603260045260246000fd5b6020026020010181815250508080611bc990612583565b9150506116f2565b50611bda611d92565b60006020826020860260208601600060086107d05a03f190508060008114611c0157611c03565bfe5b5080611c44576040517f08c379a0000000000000000000000000000000000000000000000000000000008152600401611c3b906122dd565b60405180910390fd5b600082600060018110611c80577f4e487b7100000000000000000000000000000000000000000000000000000000600052603260045260246000fd5b602002015114159550505050505092915050565b6040518060600160405280611ca7611cc7565b8152602001611cb4611d6c565b8152602001611cc1611cc7565b81525090565b604051806040016040528060008152602001600081525090565b6040518060a00160405280611cf4611cc7565b8152602001611d01611d6c565b8152602001611d0e611d6c565b8152602001611d1b611d6c565b8152602001606081525090565b6040518060600160405280600390602082028036833780820191505090505090565b6040518060800160405280600490602082028036833780820191505090505090565b6040518060400160405280611d7f611db4565b8152602001611d8c611db4565b81525090565b6040518060200160405280600190602082028036833780820191505090505090565b6040518060400160405280600290602082028036833780820191505090505090565b6000611de9611de4846123e9565b6123b8565b90508083825260208201905082856020860282011115611e0857600080fd5b60005b85811015611e385781611e1e8882611ecb565b845260208401935060208301925050600181019050611e0b565b5050509392505050565b600081359050611e518161268a565b92915050565b60008083601f840112611e6957600080fd5b8235905067ffffffffffffffff811115611e8257600080fd5b602083019150836020820283011115611e9a57600080fd5b9250929050565b600082601f830112611eb257600080fd5b8135611ec2848260208601611dd6565b91505092915050565b600081359050611eda816126a1565b92915050565b600060208284031215611ef257600080fd5b6000611f0084828501611e42565b91505092915050565b60008060008060008060608789031215611f2257600080fd5b600087013567ffffffffffffffff811115611f3c57600080fd5b611f4889828a01611e57565b9650965050602087013567ffffffffffffffff811115611f6757600080fd5b611f7389828a01611e57565b9450945050604087013567ffffffffffffffff811115611f9257600080fd5b611f9e89828a01611e57565b92509250509295509295509295565b600060208284031215611fbf57600080fd5b600082013567ffffffffffffffff811115611fd957600080fd5b611fe584828501611ea1565b91505092915050565b60008060006060848603121561200357600080fd5b600084013567ffffffffffffffff81111561201d57600080fd5b61202986828701611ea1565b935050602084013567ffffffffffffffff81111561204657600080fd5b61205286828701611ea1565b925050604084013567ffffffffffffffff81111561206f57600080fd5b61207b86828701611ea1565b9150509250925092565b61208e8161253b565b82525050565b61209d8161254d565b82525050565b60006120b0601d83612415565b91507f45432050616972696e672063616c63756c6174696f6e206661696c65640000006000830152602082019050919050565b60006120f0601283612415565b91507f4543206164646974696f6e206661696c656400000000000000000000000000006000830152602082019050919050565b6000612130602e83612415565b91507f596f7520617265206e6f7420617574686f726973656420746f20696e766f6b6560008301527f20746869732066756e6374696f6e0000000000000000000000000000000000006020830152604082019050919050565b6000612196602c83612415565b91507f4c656e677468206f6620696e707574735b5d206f7220766b2e7175657279206960008301527f7320696e636f72726563742100000000000000000000000000000000000000006020830152604082019050919050565b60006121fc601f83612415565b91507f4543207363616c6172206d756c7469706c69636174696f6e206661696c6564006000830152602082019050919050565b600061223c601b83612415565b91507f496e70757473206d757374206265206c657373207468616e20722e00000000006000830152602082019050919050565b61227881612579565b82525050565b60006020820190506122936000830184612085565b92915050565b60006040820190506122ae6000830185612085565b6122bb6020830184612085565b9392505050565b60006020820190506122d76000830184612094565b92915050565b600060208201905081810360008301526122f6816120a3565b9050919050565b60006020820190508181036000830152612316816120e3565b9050919050565b6000602082019050818103600083015261233681612123565b9050919050565b6000602082019050818103600083015261235681612189565b9050919050565b60006020820190508181036000830152612376816121ef565b9050919050565b600060208201905081810360008301526123968161222f565b9050919050565b60006020820190506123b2600083018461226f565b92915050565b6000604051905081810181811067ffffffffffffffff821117156123df576123de61265b565b5b8060405250919050565b600067ffffffffffffffff8211156124045761240361265b565b5b602082029050602081019050919050565b600082825260208201905092915050565b600061243182612579565b915061243c83612579565b9250827fffffffffffffffffffffffffffffffffffffffffffffffffffffffffffffffff03821115612471576124706125fd565b5b828201905092915050565b600061248782612579565b915061249283612579565b9250826124a2576124a161262c565b5b828204905092915050565b60006124b882612579565b91506124c383612579565b9250817fffffffffffffffffffffffffffffffffffffffffffffffffffffffffffffffff04831182151516156124fc576124fb6125fd565b5b828202905092915050565b600061251282612579565b915061251d83612579565b9250828210156125305761252f6125fd565b5b828203905092915050565b600061254682612559565b9050919050565b60008115159050919050565b600073ffffffffffffffffffffffffffffffffffffffff82169050919050565b6000819050919050565b600061258e82612579565b91507fffffffffffffffffffffffffffffffffffffffffffffffffffffffffffffffff8214156125c1576125c06125fd565b5b600182019050919050565b60006125d782612579565b91506125e283612579565b9250826125f2576125f161262c565b5b828206905092915050565b7f4e487b7100000000000000000000000000000000000000000000000000000000600052601160045260246000fd5b7f4e487b7100000000000000000000000000000000000000000000000000000000600052601260045260246000fd5b7f4e487b7100000000000000000000000000000000000000000000000000000000600052604160045260246000fd5b6126938161253b565b811461269e57600080fd5b50565b6126aa81612579565b81146126b557600080fd5b5056fea2646970667358221220cafc3a7e5c940c6645890d01d7385d275a5974f8a6acb735cfcc50762e7b8a0864736f6c63430008000033",
    "immutableReferences": {},
    "source": "// SPDX-License-Identifier: MIT\n\n/**\nCREDITS:\n// For the Elliptic Curve Pairing operations and functions verify() and verifyCalculation():\n// This file is MIT Licensed.\n//\n// Copyright 2017 Christian Reitwiessner\n// Permission is hereby granted, free of charge, to any person obtaining a copy of this software and associated documentation files (the \"Software\"), to deal in the Software without restriction, including without limitation the rights to use, copy, modify, merge, publish, distribute, sublicense, and/or sell copies of the Software, and to permit persons to whom the Software is furnished to do so, subject to the following conditions:\n// The above copyright notice and this permission notice shall be included in all copies or substantial portions of the Software.\n// THE SOFTWARE IS PROVIDED \"AS IS\", WITHOUT WARRANTY OF ANY KIND, EXPRESS OR IMPLIED, INCLUDING BUT NOT LIMITED TO THE WARRANTIES OF MERCHANTABILITY, FITNESS FOR A PARTICULAR PURPOSE AND NONINFRINGEMENT. IN NO EVENT SHALL THE AUTHORS OR COPYRIGHT HOLDERS BE LIABLE FOR ANY CLAIM, DAMAGES OR OTHER LIABILITY, WHETHER IN AN ACTION OF CONTRACT, TORT OR OTHERWISE, ARISING FROM, OUT OF OR IN CONNECTION WITH THE SOFTWARE OR THE USE OR OTHER DEALINGS IN THE SOFTWARE.\n// More information at https://gist.github.com/chriseth/f9be9d9391efc5beb9704255a8e2989d\nMinor edits for Nightfall by:\nMichael Connor\nDuncan Westland\nChaitanya Konda\nHarry R\n*/\n\n/**\n@title Verifier\n@dev Example Verifier Implementation - G16 proof verification.\n@notice Do not use this example in any production code!\n*/\n\npragma solidity ^0.8.0;\n\nimport \"./Ownable.sol\";\nimport \"./Pairing.sol\";\n\ncontract Verifier is Ownable {\n\n  using Pairing for *;\n\n  struct Proof_G16 {\n      Pairing.G1Point A;\n      Pairing.G2Point B;\n      Pairing.G1Point C;\n  }\n\n  struct Verification_Key_G16 {\n      Pairing.G1Point alpha;\n        Pairing.G2Point beta;\n        Pairing.G2Point gamma;\n        Pairing.G2Point delta;\n        Pairing.G1Point[] gamma_abc;\n  }\n\n  uint256 private r = 21888242871839275222246405745257275088548364400416034343698204186575808495617;\n\n  function validateInputs(uint256[] memory _inputs) public view {\n      for (uint i = 0; i < _inputs.length; i++) {\n          require(_inputs[i] < r, \"Inputs must be less than r.\");\n      }\n  }\n\n  function verify(uint256[] calldata _proof, uint256[] calldata _inputs, uint256[] calldata _vk) public returns (bool result) {\n      validateInputs(_inputs);\n      if (verificationCalculation(_proof, _inputs, _vk) == 0) {\n          result = true;\n      } else {\n          result = false;\n      }\n  }\n\n  function verificationCalculation(uint256[] memory _proof, uint256[] memory _publicInputs, uint256[] memory _vk) public returns (uint) {\n\n    Proof_G16 memory proof;\n    Pairing.G1Point memory vk_dot_inputs;\n    Verification_Key_G16 memory vk;\n\n      vk_dot_inputs = Pairing.G1Point(0, 0); //initialise\n\n      proof.A = Pairing.G1Point(_proof[0], _proof[1]);\n      proof.B = Pairing.G2Point([_proof[2], _proof[3]], [_proof[4], _proof[5]]);\n      proof.C = Pairing.G1Point(_proof[6], _proof[7]);\n\n      vk.alpha = Pairing.G1Point(_vk[0],_vk[1]);\n      vk.beta = Pairing.G2Point([_vk[2],_vk[3]],[_vk[4],_vk[5]]);\n      vk.gamma = Pairing.G2Point([_vk[6],_vk[7]],[_vk[8],_vk[9]]);\n      vk.delta = Pairing.G2Point([_vk[10],_vk[11]],[_vk[12],_vk[13]]);\n\n       if (_vk.length > 14) {\n        vk.gamma_abc = new Pairing.G1Point[]((_vk.length - 14)/2); // num public inputs + 1\n        for (uint i = 14; i < _vk.length; i+=2) {\n          vk.gamma_abc[(i-14)/2] = Pairing.G1Point(\n            _vk[i], _vk[i+1]\n          );\n        }\n      }\n\n      require(vk.gamma_abc.length == _publicInputs.length + 1, \"Length of inputs[] or vk.query is incorrect!\");\n\n      Pairing.G1Point memory sm_qpih;\n      for (uint i = 0; i < _publicInputs.length; i++) {\n        sm_qpih = Pairing.scalar_mul(vk.gamma_abc[i+1], _publicInputs[i]);\n        vk_dot_inputs = Pairing.addition(\n          vk_dot_inputs,\n          sm_qpih\n        );\n      }\n\n      vk_dot_inputs = Pairing.addition(vk_dot_inputs, vk.gamma_abc[0]);\n\n\n      /**\n       * e(A*G^{alpha}, B*H^{beta}) = e(G^{alpha}, H^{beta}) * e(G^{psi}, H^{gamma})\n       *                              * e(C, H)\n       * where psi = \\sum_{i=0}^l input_i pvk.query[i]\n       */\n      {\n        bool success_pp4_out_not_0 = Pairing.pairingProd4(\n             proof.A, proof.B,\n             Pairing.negate(vk_dot_inputs), vk.gamma,\n             Pairing.negate(proof.C), vk.delta,\n             Pairing.negate(vk.alpha), vk.beta);\n        if (!success_pp4_out_not_0) {\n            return 5;\n        }\n      }\n      return 0;\n  }\n}\n",
    "sourcePath": "/app/contracts/verify/Verifier.sol",
    "compiler": {
        "name": "solc",
        "version": "0.8.0+commit.c7dfd78e.Emscripten.clang"
    },
    "schemaVersion": "3.3.3",
    "updatedAt": "2024-04-26T17:30:05.278Z",
    "networkType": "ethereum",
    "devdoc": {
        "kind": "dev",
        "methods": {
            "owner()": {
                "details": "Tells the address of the owner",
                "returns": {
                    "_0": "the address of the owner"
                }
            },
            "transferOwnership(address)": {
                "details": "Allows the current owner to transfer control of the contract to a newOwner.",
                "params": {
                    "newOwner": "The address to transfer ownership to."
                }
            }
        },
        "version": 1
    },
    "userdoc": {
        "kind": "user",
        "methods": {},
        "version": 1
    }
}